{
    "abi": [
        {
            "inputs": [
                {
                    "internalType": "address",
                    "name": "accountingEngine_",
                    "type": "address"
                },
                {
                    "internalType": "address",
                    "name": "treasury_",
                    "type": "address"
                },
                {
                    "internalType": "uint256",
                    "name": "rewardPeriodStart_",
                    "type": "uint256"
                },
                {
                    "internalType": "uint256",
                    "name": "interPeriodDelay_",
                    "type": "uint256"
                },
                {
                    "internalType": "uint256",
                    "name": "rewardTimeline_",
                    "type": "uint256"
                },
                {
                    "internalType": "uint256",
                    "name": "fixedReward_",
                    "type": "uint256"
                },
                {
                    "internalType": "uint256",
                    "name": "maxPerPeriodPops_",
                    "type": "uint256"
                },
                {
                    "internalType": "uint256",
                    "name": "rewardStartTime_",
                    "type": "uint256"
                }
            ],
            "stateMutability": "nonpayable",
            "type": "constructor"
        },
        {
            "anonymous": false,
            "inputs": [
                {
                    "indexed": false,
                    "internalType": "address",
                    "name": "account",
                    "type": "address"
                }
            ],
            "name": "AddAuthorization",
            "type": "event"
        },
        {
            "anonymous": false,
            "inputs": [
                {
                    "indexed": false,
                    "internalType": "bytes32",
                    "name": "parameter",
                    "type": "bytes32"
                },
                {
                    "indexed": false,
                    "internalType": "address",
                    "name": "addr",
                    "type": "address"
                }
            ],
            "name": "ModifyParameters",
            "type": "event"
        },
        {
            "anonymous": false,
            "inputs": [
                {
                    "indexed": false,
                    "internalType": "bytes32",
                    "name": "parameter",
                    "type": "bytes32"
                },
                {
                    "indexed": false,
                    "internalType": "uint256",
                    "name": "val",
                    "type": "uint256"
                }
            ],
            "name": "ModifyParameters",
            "type": "event"
        },
        {
            "anonymous": false,
            "inputs": [
                {
                    "indexed": false,
                    "internalType": "address",
                    "name": "account",
                    "type": "address"
                }
            ],
            "name": "RemoveAuthorization",
            "type": "event"
        },
        {
            "anonymous": false,
            "inputs": [
                {
                    "indexed": true,
                    "internalType": "address",
                    "name": "finalFeeReceiver",
                    "type": "address"
                },
                {
                    "indexed": false,
                    "internalType": "uint256",
                    "name": "fixedReward",
                    "type": "uint256"
                }
            ],
            "name": "RewardCaller",
            "type": "event"
        },
        {
            "anonymous": false,
            "inputs": [
                {
                    "indexed": false,
                    "internalType": "uint256",
                    "name": "slotTimestamp",
                    "type": "uint256"
                },
                {
                    "indexed": false,
                    "internalType": "uint256",
                    "name": "reward",
                    "type": "uint256"
                }
            ],
            "name": "RewardForPop",
            "type": "event"
        },
        {
            "anonymous": false,
            "inputs": [
                {
                    "indexed": false,
                    "internalType": "uint256",
                    "name": "rewardPeriodStart",
                    "type": "uint256"
                }
            ],
            "name": "SetRewardPeriodStart",
            "type": "event"
        },
        {
            "inputs": [],
            "name": "RAY",
            "outputs": [
                {
                    "internalType": "uint256",
                    "name": "",
                    "type": "uint256"
                }
            ],
            "stateMutability": "view",
            "type": "function"
        },
        {
            "inputs": [],
            "name": "WAD",
            "outputs": [
                {
                    "internalType": "uint256",
                    "name": "",
                    "type": "uint256"
                }
            ],
            "stateMutability": "view",
            "type": "function"
        },
        {
            "inputs": [],
            "name": "accountingEngine",
            "outputs": [
                {
                    "internalType": "contract AccountingEngineLike",
                    "name": "",
                    "type": "address"
                }
            ],
            "stateMutability": "view",
            "type": "function"
        },
        {
            "inputs": [
                {
                    "internalType": "address",
                    "name": "account",
                    "type": "address"
                }
            ],
            "name": "addAuthorization",
            "outputs": [],
            "stateMutability": "nonpayable",
            "type": "function"
        },
        {
            "inputs": [
                {
                    "internalType": "uint256",
                    "name": "x",
                    "type": "uint256"
                },
                {
                    "internalType": "uint256",
                    "name": "y",
                    "type": "uint256"
                }
            ],
            "name": "addition",
            "outputs": [
                {
                    "internalType": "uint256",
                    "name": "z",
                    "type": "uint256"
                }
            ],
            "stateMutability": "pure",
            "type": "function"
        },
        {
            "inputs": [
                {
                    "internalType": "address",
                    "name": "",
                    "type": "address"
                }
            ],
            "name": "authorizedAccounts",
            "outputs": [
                {
                    "internalType": "uint256",
                    "name": "",
                    "type": "uint256"
                }
            ],
            "stateMutability": "view",
            "type": "function"
        },
        {
            "inputs": [],
            "name": "fixedReward",
            "outputs": [
                {
                    "internalType": "uint256",
                    "name": "",
                    "type": "uint256"
                }
            ],
            "stateMutability": "view",
            "type": "function"
        },
        {
            "inputs": [],
            "name": "getCallerReward",
            "outputs": [
                {
                    "internalType": "uint256",
                    "name": "reward",
                    "type": "uint256"
                }
            ],
            "stateMutability": "view",
            "type": "function"
        },
        {
            "inputs": [
                {
                    "internalType": "uint256",
                    "name": "slotTimestamp",
                    "type": "uint256"
                },
                {
                    "internalType": "address",
                    "name": "feeReceiver",
                    "type": "address"
                }
            ],
            "name": "getRewardForPop",
            "outputs": [],
            "stateMutability": "nonpayable",
            "type": "function"
        },
        {
            "inputs": [],
            "name": "interPeriodDelay",
            "outputs": [
                {
                    "internalType": "uint256",
                    "name": "",
                    "type": "uint256"
                }
            ],
            "stateMutability": "view",
            "type": "function"
        },
        {
            "inputs": [],
            "name": "maxPerPeriodPops",
            "outputs": [
                {
                    "internalType": "uint256",
                    "name": "",
                    "type": "uint256"
                }
            ],
            "stateMutability": "view",
            "type": "function"
        },
        {
            "inputs": [
                {
                    "internalType": "uint256",
                    "name": "x",
                    "type": "uint256"
                },
                {
                    "internalType": "uint256",
                    "name": "y",
                    "type": "uint256"
                }
            ],
            "name": "minimum",
            "outputs": [
                {
                    "internalType": "uint256",
                    "name": "z",
                    "type": "uint256"
                }
            ],
            "stateMutability": "pure",
            "type": "function"
        },
        {
            "inputs": [
                {
                    "internalType": "bytes32",
                    "name": "parameter",
                    "type": "bytes32"
                },
                {
                    "internalType": "address",
                    "name": "addr",
                    "type": "address"
                }
            ],
            "name": "modifyParameters",
            "outputs": [],
            "stateMutability": "nonpayable",
            "type": "function"
        },
        {
            "inputs": [
                {
                    "internalType": "bytes32",
                    "name": "parameter",
                    "type": "bytes32"
                },
                {
                    "internalType": "uint256",
                    "name": "val",
                    "type": "uint256"
                }
            ],
            "name": "modifyParameters",
            "outputs": [],
            "stateMutability": "nonpayable",
            "type": "function"
        },
        {
            "inputs": [
                {
                    "internalType": "uint256",
                    "name": "x",
                    "type": "uint256"
                },
                {
                    "internalType": "uint256",
                    "name": "y",
                    "type": "uint256"
                }
            ],
            "name": "multiply",
            "outputs": [
                {
                    "internalType": "uint256",
                    "name": "z",
                    "type": "uint256"
                }
            ],
            "stateMutability": "pure",
            "type": "function"
        },
        {
            "inputs": [
                {
                    "internalType": "uint256",
                    "name": "x",
                    "type": "uint256"
                }
            ],
            "name": "rad",
            "outputs": [
                {
                    "internalType": "uint256",
                    "name": "z",
                    "type": "uint256"
                }
            ],
            "stateMutability": "pure",
            "type": "function"
        },
        {
            "inputs": [
                {
                    "internalType": "uint256",
                    "name": "x",
                    "type": "uint256"
                }
            ],
            "name": "ray",
            "outputs": [
                {
                    "internalType": "uint256",
                    "name": "z",
                    "type": "uint256"
                }
            ],
            "stateMutability": "pure",
            "type": "function"
        },
        {
            "inputs": [
                {
                    "internalType": "uint256",
                    "name": "x",
                    "type": "uint256"
                },
                {
                    "internalType": "uint256",
                    "name": "y",
                    "type": "uint256"
                }
            ],
            "name": "rdivide",
            "outputs": [
                {
                    "internalType": "uint256",
                    "name": "z",
                    "type": "uint256"
                }
            ],
            "stateMutability": "pure",
            "type": "function"
        },
        {
            "inputs": [
                {
                    "internalType": "address",
                    "name": "account",
                    "type": "address"
                }
            ],
            "name": "removeAuthorization",
            "outputs": [],
            "stateMutability": "nonpayable",
            "type": "function"
        },
        {
            "inputs": [],
            "name": "rewardPeriodStart",
            "outputs": [
                {
                    "internalType": "uint256",
                    "name": "",
                    "type": "uint256"
                }
            ],
            "stateMutability": "view",
            "type": "function"
        },
        {
            "inputs": [],
            "name": "rewardStartTime",
            "outputs": [
                {
                    "internalType": "uint256",
                    "name": "",
                    "type": "uint256"
                }
            ],
            "stateMutability": "view",
            "type": "function"
        },
        {
            "inputs": [],
            "name": "rewardTimeline",
            "outputs": [
                {
                    "internalType": "uint256",
                    "name": "",
                    "type": "uint256"
                }
            ],
            "stateMutability": "view",
            "type": "function"
        },
        {
            "inputs": [
                {
                    "internalType": "uint256",
                    "name": "",
                    "type": "uint256"
                }
            ],
            "name": "rewardedPop",
            "outputs": [
                {
                    "internalType": "bool",
                    "name": "",
                    "type": "bool"
                }
            ],
            "stateMutability": "view",
            "type": "function"
        },
        {
            "inputs": [
                {
                    "internalType": "uint256",
                    "name": "",
                    "type": "uint256"
                }
            ],
            "name": "rewardsPerPeriod",
            "outputs": [
                {
                    "internalType": "uint256",
                    "name": "",
                    "type": "uint256"
                }
            ],
            "stateMutability": "view",
            "type": "function"
        },
        {
            "inputs": [
                {
                    "internalType": "uint256",
                    "name": "x",
                    "type": "uint256"
                },
                {
                    "internalType": "uint256",
                    "name": "y",
                    "type": "uint256"
                }
            ],
            "name": "rmultiply",
            "outputs": [
                {
                    "internalType": "uint256",
                    "name": "z",
                    "type": "uint256"
                }
            ],
            "stateMutability": "pure",
            "type": "function"
        },
        {
            "inputs": [
                {
                    "internalType": "uint256",
                    "name": "x",
                    "type": "uint256"
                },
                {
                    "internalType": "uint256",
                    "name": "n",
                    "type": "uint256"
                },
                {
                    "internalType": "uint256",
                    "name": "base",
                    "type": "uint256"
                }
            ],
            "name": "rpower",
            "outputs": [
                {
                    "internalType": "uint256",
                    "name": "z",
                    "type": "uint256"
                }
            ],
            "stateMutability": "pure",
            "type": "function"
        },
        {
            "inputs": [
                {
                    "internalType": "uint256",
                    "name": "x",
                    "type": "uint256"
                },
                {
                    "internalType": "uint256",
                    "name": "y",
                    "type": "uint256"
                }
            ],
            "name": "subtract",
            "outputs": [
                {
                    "internalType": "uint256",
                    "name": "z",
                    "type": "uint256"
                }
            ],
            "stateMutability": "pure",
            "type": "function"
        },
        {
            "inputs": [],
            "name": "treasury",
            "outputs": [
                {
                    "internalType": "contract StabilityFeeTreasuryLike",
                    "name": "",
                    "type": "address"
                }
            ],
            "stateMutability": "view",
            "type": "function"
        },
        {
            "inputs": [],
            "name": "treasuryAllowance",
            "outputs": [
                {
                    "internalType": "uint256",
                    "name": "",
                    "type": "uint256"
                }
            ],
            "stateMutability": "view",
            "type": "function"
        },
        {
            "inputs": [
                {
                    "internalType": "uint256",
                    "name": "x",
                    "type": "uint256"
                },
                {
                    "internalType": "uint256",
                    "name": "y",
                    "type": "uint256"
                }
            ],
            "name": "wdivide",
            "outputs": [
                {
                    "internalType": "uint256",
                    "name": "z",
                    "type": "uint256"
                }
            ],
            "stateMutability": "pure",
            "type": "function"
        },
        {
            "inputs": [
                {
                    "internalType": "uint256",
                    "name": "x",
                    "type": "uint256"
                },
                {
                    "internalType": "uint256",
                    "name": "y",
                    "type": "uint256"
                }
            ],
            "name": "wmultiply",
            "outputs": [
                {
                    "internalType": "uint256",
                    "name": "z",
                    "type": "uint256"
                }
            ],
            "stateMutability": "pure",
            "type": "function"
        }
    ],
    "bytecode": {
        "object": "0x60806040523480156200001157600080fd5b5060405162001bbc38038062001bbc83398181016040526101008110156200003857600080fd5b508051602082015160408301516060840151608085015160a086015160c087015160e090970151959694959394929391929091868380620000ab5760405162461bcd60e51b815260040180806020018281038252602f81526020018062001b63602f913960400191505060405180910390fd5b6001600160a01b038216620000f25760405162461bcd60e51b815260040180806020018281038252603181526020018062001b326031913960400191505060405180910390fd5b3360008181526020818152604091829020600190819055600280546001600160a01b0319166001600160a01b038816179055849055815192835290517f599a298163e1678bb1c676052a8930bf0b8a1261ed6e01b8a2391e55f70001029281900390910190a16040805167747265617375727960c01b81526001600160a01b0384166020820152815160008051602062001b12833981519152929181900390910190a1600154604080516a199a5e195914995dd85c9960aa1b81526020810192909252805160008051602062001a9d8339815191529281900390910190a1505042861015620002135760405162461bcd60e51b815260040180806020018281038252602d81526020018062001a44602d913960400191505060405180910390fd5b60008511620002545760405162461bcd60e51b815260040180806020018281038252602c81526020018062001a71602c913960400191505060405180910390fd5b60008411620002955760405162461bcd60e51b815260040180806020018281038252602a81526020018062001b92602a913960400191505060405180910390fd5b60008211620002d65760405162461bcd60e51b815260040180806020018281038252602d81526020018062001ae5602d913960400191505060405180910390fd5b6001600160a01b0388166200031d5760405162461bcd60e51b815260040180806020018281038252602881526020018062001abd6028913960400191505060405180910390fd5b600a80546001600160a01b0319166001600160a01b038a16908117909155600387905560048690556005859055600184905560068390556007829055604080516f6163636f756e74696e67456e67696e6560801b81526020810192909252805160008051602062001b128339815191529281900390910190a1600454604080516f696e746572506572696f6444656c617960801b81526020810192909252805160008051602062001a9d8339815191529281900390910190a1600554604080516d72657761726454696d656c696e6560901b81526020810192909252805160008051602062001a9d8339815191529281900390910190a1600754604080516e726577617264537461727454696d6560881b81526020810192909252805160008051602062001a9d8339815191529281900390910190a1600654604080516f6d6178506572506572696f64506f707360801b81526020810192909252805160008051602062001a9d8339815191529281900390910190a160035460408051918252517f18e5b1121d12dad34617b8f2514a72628cd1b47fcada4d788998bba364a089539181900360200190a1505050505050505061156480620004e06000396000f3fe608060405234801561001057600080fd5b50600436106101e55760003560e01c8063573059201161010f578063961d45c4116100a2578063dd2d2a1211610071578063dd2d2a121461049b578063f00df8b8146104be578063f752fdc3146104ea578063fe4f58901461050d576101e5565b8063961d45c41461043f578063a087163714610447578063b7ae03c01461046a578063d6e882dc14610472576101e5565b80636a146024116100de5780636a146024146103d85780637128b405146103e05780637f1681001461041157806394f3f81d14610419576101e5565b806357305920146103785780635a97f13a1461038057806361d027b3146103885780636614f010146103ac576101e5565b80633425677e1161018757806346f3e81c1161015657806346f3e81c146103135780634f8551421461033057806354f363a31461034d578063552033c414610370576101e5565b80633425677e1461029d57806335b28153146102a55780633c8bb3e6146102cd5780633ef5e445146102f0576101e5565b8063165c4a16116101c3578063165c4a16146102445780631efc0a3d1461026757806324ba58841461026f5780632cc138be14610295576101e5565b806303d11f62146101ea578063056640b7146102045780631021344714610227575b600080fd5b6101f2610530565b60408051918252519081900360200190f35b6101f26004803603604081101561021a57600080fd5b5080359060200135610536565b6101f26004803603602081101561023d57600080fd5b503561055e565b6101f26004803603604081101561025a57600080fd5b5080359060200135610574565b6101f26105d9565b6101f26004803603602081101561028557600080fd5b50356001600160a01b03166105df565b6101f26105f1565b6101f26105f7565b6102cb600480360360208110156102bb57600080fd5b50356001600160a01b031661068e565b005b6101f2600480360360408110156102e357600080fd5b508035906020013561072e565b6101f26004803603604081101561030657600080fd5b5080359060200135610743565b6101f26004803603602081101561032957600080fd5b503561079b565b6101f26004803603602081101561034657600080fd5b50356107b3565b6101f26004803603604081101561036357600080fd5b50803590602001356107c5565b6101f2610816565b6101f2610826565b6101f261082c565b610390610832565b604080516001600160a01b039092168252519081900360200190f35b6102cb600480360360408110156103c257600080fd5b50803590602001356001600160a01b0316610841565b6101f261099b565b6103fd600480360360208110156103f657600080fd5b50356109a7565b604080519115158252519081900360200190f35b6101f26109bc565b6102cb6004803603602081101561042f57600080fd5b50356001600160a01b03166109c2565b610390610a61565b6101f26004803603604081101561045d57600080fd5b5080359060200135610a70565b6101f2610a89565b6101f26004803603606081101561048857600080fd5b5080359060208101359060400135610ab8565b6101f2600480360360408110156104b157600080fd5b5080359060200135610b76565b6102cb600480360360408110156104d457600080fd5b50803590602001356001600160a01b0316610b8f565b6101f26004803603604081101561050057600080fd5b5080359060200135610eee565b6102cb6004803603604081101561052357600080fd5b5080359060200135610f03565b60045481565b60006b033b2e3c9fd0803ce800000061054f8484610574565b8161055657fe5b049392505050565b600061056e82633b9aca00610574565b92915050565b600081158061058f5750508082028282828161058c57fe5b04145b61056e576040805162461bcd60e51b815260206004820152601660248201527575696e742d75696e742d6d756c2d6f766572666c6f7760501b604482015290519081900360640190fd5b60065481565b60006020819052908152604090205481565b60075481565b600254604080516375ad331760e11b81523060048201528151600093849384936001600160a01b039092169263eb5a662e926024808201939291829003018186803b15801561064557600080fd5b505afa158015610659573d6000803e3d6000fd5b505050506040513d604081101561066f57600080fd5b50805160209091015190925090506106878282610b76565b9250505090565b336000908152602081905260409020546001146106dc5760405162461bcd60e51b815260040180806020018281038252603a81526020018061140a603a913960400191505060405180910390fd5b6001600160a01b0381166000818152602081815260409182902060019055815192835290517f599a298163e1678bb1c676052a8930bf0b8a1261ed6e01b8a2391e55f70001029281900390910190a150565b6000670de0b6b3a764000061054f8484610574565b8082038281111561056e576040805162461bcd60e51b815260206004820152601760248201527f75696e742d75696e742d7375622d756e646572666c6f77000000000000000000604482015290519081900360640190fd5b600061056e826b033b2e3c9fd0803ce8000000610574565b60096020526000908152604090205481565b8181018281101561056e576040805162461bcd60e51b815260206004820152601660248201527575696e742d75696e742d6164642d6f766572666c6f7760501b604482015290519081900360640190fd5b6b033b2e3c9fd0803ce800000081565b60015481565b60035481565b6002546001600160a01b031681565b3360009081526020819052604090205460011461088f5760405162461bcd60e51b815260040180806020018281038252603a81526020018061140a603a913960400191505060405180910390fd5b6001600160a01b0381166108ea576040805162461bcd60e51b815260206004820152601e60248201527f44656274506f70706572526577617264732f6e756c6c2d616464726573730000604482015290519081900360640190fd5b8167747265617375727960c01b141561091d57600280546001600160a01b0319166001600160a01b038316179055610954565b60405162461bcd60e51b815260040180806020018281038252602b815260200180611325602b913960400191505060405180910390fd5b604080518381526001600160a01b038316602082015281517fd91f38cf03346b5dc15fb60f9076f866295231ad3c3841a1051f8443f25170d1929181900390910190a15050565b670de0b6b3a764000081565b60086020526000908152604090205460ff1681565b60055481565b33600090815260208190526040902054600114610a105760405162461bcd60e51b815260040180806020018281038252603a81526020018061140a603a913960400191505060405180910390fd5b6001600160a01b03811660008181526020818152604080832092909255815192835290517f8834a87e641e9716be4f34527af5d23e11624f1ddeefede6ad75a9acfc31b9039281900390910190a150565b600a546001600160a01b031681565b60008161054f846b033b2e3c9fd0803ce8000000610574565b6000610ab36001546b033b2e3c9fd0803ce8000000610aa66105f7565b81610aad57fe5b04610b76565b905090565b6000838015610b5857600184168015610ad357859250610ad7565b8392505b50600283046002850494505b8415610b52578586028687820414610afa57600080fd5b81810181811015610b0a57600080fd5b8590049650506001851615610b47578583028387820414158715151615610b3057600080fd5b81810181811015610b4057600080fd5b8590049350505b600285049450610ae3565b50610b6e565b838015610b685760009250610b6c565b8392505b505b509392505050565b600081831115610b865781610b88565b825b9392505050565b600754821015610bd05760405162461bcd60e51b815260040180806020018281038252602f81526020018061146a602f913960400191505060405180910390fd5b428210610c0e5760405162461bcd60e51b815260040180806020018281038252602e8152602001806114d7602e913960400191505060405180910390fd5b600354421015610c65576040805162461bcd60e51b815260206004820152601b60248201527f44656274506f70706572526577617264732f776169742d6d6f72650000000000604482015290519081900360640190fd5b42610c72836005546107c5565b1015610caf5760405162461bcd60e51b81526004018080602001828103825260268152602001806114446026913960400191505060405180910390fd5b600a546040805163a710368760e01b815260048101859052905133926001600160a01b03169163a7103687916024808301926020929190829003018186803b158015610cfa57600080fd5b505afa158015610d0e573d6000803e3d6000fd5b505050506040513d6020811015610d2457600080fd5b50516001600160a01b031614610d6b5760405162461bcd60e51b815260040180806020018281038252602181526020018061137d6021913960400191505060405180910390fd5b60008281526008602052604090205460ff1615610db95760405162461bcd60e51b81526004018080602001828103825260268152602001806113e46026913960400191505060405180910390fd5b600154610dc4610a89565b1015610e015760405162461bcd60e51b815260040180806020018281038252602a815260200180611505602a913960400191505060405180910390fd5b6000828152600860209081526040808320805460ff191660019081179091556003548452600990925290912054610e37916107c5565b600380546000908152600960205260408082209390935560065491548152919091205410610ea357610e6b426004546107c5565b600381905560408051918252517f18e5b1121d12dad34617b8f2514a72628cd1b47fcada4d788998bba364a089539181900360200190a15b60015460408051848152602081019290925280517f7695772d0016f0b49a2e953420acae6312229ca10ab6c82a8c5669ad3cf20e999281900390910190a1610eea81611127565b5050565b60008161054f84670de0b6b3a7640000610574565b33600090815260208190526040902054600114610f515760405162461bcd60e51b815260040180806020018281038252603a81526020018061140a603a913960400191505060405180910390fd5b60008111610fa6576040805162461bcd60e51b815260206004820152601f60248201527f44656274506f70706572526577617264732f696e76616c69642d76616c756500604482015290519081900360640190fd5b816f696e746572506572696f6444656c617960801b1415610fcb5760048190556110e8565b816d72657761726454696d656c696e6560901b1415610fee5760058190556110e8565b816a199a5e195914995dd85c9960aa1b14156110635760008111611059576040805162461bcd60e51b815260206004820152601d60248201527f44656274506f70706572526577617264732f6e756c6c2d726577617264000000604482015290519081900360640190fd5b60018190556110e8565b816f6d6178506572506572696f64506f707360801b14156110885760068190556110e8565b81701c995dd85c9914195c9a5bd914dd185c9d607a1b141561091d574281116110e25760405162461bcd60e51b815260040180806020018281038252602d815260200180611350602d913960400191505060405180910390fd5b60038190555b604080518381526020810183905281517fac7c5c1afaef770ec56ac6268cd3f2fbb1035858ead2601d6553157c33036c3a929181900390910190a15050565b6002546001600160a01b03828116911614156111745760405162461bcd60e51b815260040180806020018281038252604681526020018061139e6046913960600191505060405180910390fd5b600254600154611191916001600160a01b03161515901515611320565b6111cc5760405162461bcd60e51b815260040180806020018281038252603e815260200180611499603e913960400191505060405180910390fd5b60006001600160a01b038216156111e357816111e5565b335b905060006111f1610a89565b6002546040805163a7e9445560e01b815290519293506001600160a01b039091169163201add9b918591849163a7e94455916004808301926020929190829003018186803b15801561124257600080fd5b505afa158015611256573d6000803e3d6000fd5b505050506040513d602081101561126c57600080fd5b5051604080516001600160e01b031960e086901b1681526001600160a01b0393841660048201529290911660248301526044820185905251606480830192600092919082900301818387803b1580156112c457600080fd5b505af11580156112d8573d6000803e3d6000fd5b50506040805184815290516001600160a01b03861693507fecceda37d3797234769f9d2cb1d47314680fb79283568bdba3f12876c4c244db92509081900360200190a2505050565b169056fe44656274506f70706572526577617264732f6d6f646966792d756e7265636f676e697a65642d706172616d44656274506f70706572526577617264732f696e76616c69642d7265776172642d706572696f642d737461727444656274506f70706572526577617264732f6e6f742d646562742d706f707065724d616e6461746f7279466978656454726561737572795265696d62757273656d656e742f7265776172642d72656365697665722d63616e6e6f742d62652d747265617375727944656274506f70706572526577617264732f706f702d616c72656164792d72657761726465644d616e6461746f7279466978656454726561737572795265696d62757273656d656e742f6163636f756e742d6e6f742d617574686f72697a656444656274506f70706572526577617264732f6d69737365642d7265776172642d77696e646f7744656274506f70706572526577617264732f736c6f742d74696d652d6265666f72652d7265776172642d73746172744d616e6461746f7279466978656454726561737572795265696d62757273656d656e742f696e76616c69642d74726561737572792d6f722d72657761726444656274506f70706572526577617264732f736c6f742d63616e6e6f742d62652d696e2d7468652d66757475726544656274506f70706572526577617264732f696e76616c69642d617661696c61626c652d726577617264a264697066735822122071016dc59f3e6cb0c0ac1f37ae6cec726decc53a2b1ae0728afa39c178c7d42564736f6c6343000607003344656274506f70706572526577617264732f696e76616c69642d7265776172642d706572696f642d737461727444656274506f70706572526577617264732f696e76616c69642d696e7465722d706572696f642d64656c6179ac7c5c1afaef770ec56ac6268cd3f2fbb1035858ead2601d6553157c33036c3a44656274506f70706572526577617264732f6e756c6c2d6163636f756e74696e672d656e67696e6544656274506f70706572526577617264732f696e76616c69642d6d61782d7065722d706572696f642d706f7073d91f38cf03346b5dc15fb60f9076f866295231ad3c3841a1051f8443f25170d14d616e6461746f7279466978656454726561737572795265696d62757273656d656e742f6e756c6c2d74726561737572794d616e6461746f7279466978656454726561737572795265696d62757273656d656e742f6e756c6c2d72657761726444656274506f70706572526577617264732f696e76616c69642d686172766573742d74696d656c696e65",
        "linkReferences": {}
    },
    "methodIdentifiers": {
        "RAY()": "552033c4",
        "WAD()": "6a146024",
        "accountingEngine()": "961d45c4",
        "addAuthorization(address)": "35b28153",
        "addition(uint256,uint256)": "54f363a3",
        "authorizedAccounts(address)": "24ba5884",
        "fixedReward()": "57305920",
        "getCallerReward()": "b7ae03c0",
        "getRewardForPop(uint256,address)": "f00df8b8",
        "interPeriodDelay()": "03d11f62",
        "maxPerPeriodPops()": "1efc0a3d",
        "minimum(uint256,uint256)": "dd2d2a12",
        "modifyParameters(bytes32,address)": "6614f010",
        "modifyParameters(bytes32,uint256)": "fe4f5890",
        "multiply(uint256,uint256)": "165c4a16",
        "rad(uint256)": "46f3e81c",
        "ray(uint256)": "10213447",
        "rdivide(uint256,uint256)": "a0871637",
        "removeAuthorization(address)": "94f3f81d",
        "rewardPeriodStart()": "5a97f13a",
        "rewardStartTime()": "2cc138be",
        "rewardTimeline()": "7f168100",
        "rewardedPop(uint256)": "7128b405",
        "rewardsPerPeriod(uint256)": "4f855142",
        "rmultiply(uint256,uint256)": "056640b7",
        "rpower(uint256,uint256,uint256)": "d6e882dc",
        "subtract(uint256,uint256)": "3ef5e445",
        "treasury()": "61d027b3",
        "treasuryAllowance()": "3425677e",
        "wdivide(uint256,uint256)": "f752fdc3",
        "wmultiply(uint256,uint256)": "3c8bb3e6"
    },
    "id": 22
}