{
    "abi": [
        {
            "inputs": [],
            "stateMutability": "nonpayable",
            "type": "constructor"
        },
        {
            "inputs": [
                {
                    "internalType": "address",
                    "name": "usr",
                    "type": "address"
                },
                {
                    "internalType": "bytes",
                    "name": "parameters",
                    "type": "bytes"
                }
            ],
            "name": "executeTransaction",
            "outputs": [
                {
                    "internalType": "bytes",
                    "name": "out",
                    "type": "bytes"
                }
            ],
            "stateMutability": "nonpayable",
            "type": "function"
        },
        {
            "inputs": [],
            "name": "owner",
            "outputs": [
                {
                    "internalType": "address",
                    "name": "",
                    "type": "address"
                }
            ],
            "stateMutability": "view",
            "type": "function"
        }
    ],
    "bytecode": {
        "object": "0x608060405234801561001057600080fd5b50600080546001600160a01b03191633179055610330806100326000396000f3fe608060405234801561001057600080fd5b50600436106100365760003560e01c80636ca0f8141461003b5780638da5cb5b14610166575b600080fd5b6100f16004803603604081101561005157600080fd5b6001600160a01b03823516919081019060408101602082013564010000000081111561007c57600080fd5b82018360208201111561008e57600080fd5b803590602001918460018302840111640100000000831117156100b057600080fd5b91908080601f01602080910402602001604051908101604052809392919081815260200183838082843760009201919091525092955061018a945050505050565b6040805160208082528351818301528351919283929083019185019080838360005b8381101561012b578181015183820152602001610113565b50505050905090810190601f1680156101585780820380516001836020036101000a031916815260200191505b509250505060405180910390f35b61016e6102eb565b604080516001600160a01b039092168252519081900360200190f35b6000546060906001600160a01b031633146101ec576040805162461bcd60e51b815260206004820152601b60248201527f64732d70617573652d70726f78792d756e617574686f72697a65640000000000604482015290519081900360640190fd5b6000836001600160a01b0316836040518082805190602001908083835b602083106102285780518252601f199092019160209182019101610209565b6001836020036101000a038019825116818451168082178552505050505050905001915050600060405180830381855af49150503d8060008114610288576040519150601f19603f3d011682016040523d82523d6000602084013e61028d565b606091505b5092509050806102e4576040805162461bcd60e51b815260206004820152601b60248201527f64732d70617573652d64656c656761746563616c6c2d6572726f720000000000604482015290519081900360640190fd5b5092915050565b6000546001600160a01b03168156fea26469706673582212209c446afc5a85174f208409daa1dddab26a320aff12dde02d97e17e54156d261064736f6c63430006070033",
        "linkReferences": {}
    },
    "methodIdentifiers": {
        "executeTransaction(address,bytes)": "6ca0f814",
        "owner()": "8da5cb5b"
    },
    "id": 1
}