{
    "abi": [
        {
            "anonymous": false,
            "inputs": [
                {
                    "indexed": true,
                    "internalType": "address",
                    "name": "authority",
                    "type": "address"
                }
            ],
            "name": "LogSetAuthority",
            "type": "event"
        },
        {
            "anonymous": false,
            "inputs": [
                {
                    "indexed": true,
                    "internalType": "address",
                    "name": "owner",
                    "type": "address"
                }
            ],
            "name": "LogSetOwner",
            "type": "event"
        },
        {
            "anonymous": false,
            "inputs": [
                {
                    "indexed": false,
                    "internalType": "address",
                    "name": "code",
                    "type": "address"
                },
                {
                    "indexed": false,
                    "internalType": "bytes4",
                    "name": "sig",
                    "type": "bytes4"
                },
                {
                    "indexed": false,
                    "internalType": "bool",
                    "name": "enabled",
                    "type": "bool"
                }
            ],
            "name": "SetPublicCapability",
            "type": "event"
        },
        {
            "anonymous": false,
            "inputs": [
                {
                    "indexed": false,
                    "internalType": "uint8",
                    "name": "role",
                    "type": "uint8"
                },
                {
                    "indexed": false,
                    "internalType": "address",
                    "name": "code",
                    "type": "address"
                },
                {
                    "indexed": false,
                    "internalType": "bytes4",
                    "name": "sig",
                    "type": "bytes4"
                },
                {
                    "indexed": false,
                    "internalType": "bool",
                    "name": "enabled",
                    "type": "bool"
                }
            ],
            "name": "SetRoleCapability",
            "type": "event"
        },
        {
            "anonymous": false,
            "inputs": [
                {
                    "indexed": false,
                    "internalType": "address",
                    "name": "who",
                    "type": "address"
                },
                {
                    "indexed": false,
                    "internalType": "bool",
                    "name": "enabled",
                    "type": "bool"
                }
            ],
            "name": "SetRootUser",
            "type": "event"
        },
        {
            "anonymous": false,
            "inputs": [
                {
                    "indexed": false,
                    "internalType": "address",
                    "name": "who",
                    "type": "address"
                },
                {
                    "indexed": false,
                    "internalType": "uint8",
                    "name": "role",
                    "type": "uint8"
                },
                {
                    "indexed": false,
                    "internalType": "bool",
                    "name": "enabled",
                    "type": "bool"
                }
            ],
            "name": "SetUserRole",
            "type": "event"
        },
        {
            "inputs": [],
            "name": "authority",
            "outputs": [
                {
                    "internalType": "contract DSAuthority",
                    "name": "",
                    "type": "address"
                }
            ],
            "stateMutability": "view",
            "type": "function"
        },
        {
            "inputs": [
                {
                    "internalType": "address",
                    "name": "caller",
                    "type": "address"
                },
                {
                    "internalType": "address",
                    "name": "code",
                    "type": "address"
                },
                {
                    "internalType": "bytes4",
                    "name": "sig",
                    "type": "bytes4"
                }
            ],
            "name": "canCall",
            "outputs": [
                {
                    "internalType": "bool",
                    "name": "",
                    "type": "bool"
                }
            ],
            "stateMutability": "view",
            "type": "function"
        },
        {
            "inputs": [
                {
                    "internalType": "address",
                    "name": "code",
                    "type": "address"
                },
                {
                    "internalType": "bytes4",
                    "name": "sig",
                    "type": "bytes4"
                }
            ],
            "name": "getCapabilityRoles",
            "outputs": [
                {
                    "internalType": "bytes32",
                    "name": "",
                    "type": "bytes32"
                }
            ],
            "stateMutability": "view",
            "type": "function"
        },
        {
            "inputs": [
                {
                    "internalType": "address",
                    "name": "who",
                    "type": "address"
                }
            ],
            "name": "getUserRoles",
            "outputs": [
                {
                    "internalType": "bytes32",
                    "name": "",
                    "type": "bytes32"
                }
            ],
            "stateMutability": "view",
            "type": "function"
        },
        {
            "inputs": [
                {
                    "internalType": "address",
                    "name": "who",
                    "type": "address"
                },
                {
                    "internalType": "uint8",
                    "name": "role",
                    "type": "uint8"
                }
            ],
            "name": "hasUserRole",
            "outputs": [
                {
                    "internalType": "bool",
                    "name": "",
                    "type": "bool"
                }
            ],
            "stateMutability": "view",
            "type": "function"
        },
        {
            "inputs": [
                {
                    "internalType": "address",
                    "name": "code",
                    "type": "address"
                },
                {
                    "internalType": "bytes4",
                    "name": "sig",
                    "type": "bytes4"
                }
            ],
            "name": "isCapabilityPublic",
            "outputs": [
                {
                    "internalType": "bool",
                    "name": "",
                    "type": "bool"
                }
            ],
            "stateMutability": "view",
            "type": "function"
        },
        {
            "inputs": [
                {
                    "internalType": "address",
                    "name": "who",
                    "type": "address"
                }
            ],
            "name": "isUserRoot",
            "outputs": [
                {
                    "internalType": "bool",
                    "name": "",
                    "type": "bool"
                }
            ],
            "stateMutability": "view",
            "type": "function"
        },
        {
            "inputs": [],
            "name": "owner",
            "outputs": [
                {
                    "internalType": "address",
                    "name": "",
                    "type": "address"
                }
            ],
            "stateMutability": "view",
            "type": "function"
        },
        {
            "inputs": [
                {
                    "internalType": "contract DSAuthority",
                    "name": "authority_",
                    "type": "address"
                }
            ],
            "name": "setAuthority",
            "outputs": [],
            "stateMutability": "nonpayable",
            "type": "function"
        },
        {
            "inputs": [
                {
                    "internalType": "address",
                    "name": "owner_",
                    "type": "address"
                }
            ],
            "name": "setOwner",
            "outputs": [],
            "stateMutability": "nonpayable",
            "type": "function"
        },
        {
            "inputs": [
                {
                    "internalType": "address",
                    "name": "code",
                    "type": "address"
                },
                {
                    "internalType": "bytes4",
                    "name": "sig",
                    "type": "bytes4"
                },
                {
                    "internalType": "bool",
                    "name": "enabled",
                    "type": "bool"
                }
            ],
            "name": "setPublicCapability",
            "outputs": [],
            "stateMutability": "nonpayable",
            "type": "function"
        },
        {
            "inputs": [
                {
                    "internalType": "uint8",
                    "name": "role",
                    "type": "uint8"
                },
                {
                    "internalType": "address",
                    "name": "code",
                    "type": "address"
                },
                {
                    "internalType": "bytes4",
                    "name": "sig",
                    "type": "bytes4"
                },
                {
                    "internalType": "bool",
                    "name": "enabled",
                    "type": "bool"
                }
            ],
            "name": "setRoleCapability",
            "outputs": [],
            "stateMutability": "nonpayable",
            "type": "function"
        },
        {
            "inputs": [
                {
                    "internalType": "address",
                    "name": "who",
                    "type": "address"
                },
                {
                    "internalType": "bool",
                    "name": "enabled",
                    "type": "bool"
                }
            ],
            "name": "setRootUser",
            "outputs": [],
            "stateMutability": "nonpayable",
            "type": "function"
        },
        {
            "inputs": [
                {
                    "internalType": "address",
                    "name": "who",
                    "type": "address"
                },
                {
                    "internalType": "uint8",
                    "name": "role",
                    "type": "uint8"
                },
                {
                    "internalType": "bool",
                    "name": "enabled",
                    "type": "bool"
                }
            ],
            "name": "setUserRole",
            "outputs": [],
            "stateMutability": "nonpayable",
            "type": "function"
        }
    ],
    "bytecode": {
        "object": "0x60806040819052600180546001600160a01b03191633908117909155907fce241d7ca1f669fee44b6fc00b8eba2df3bb514eed0f6f668f8f89096e81ed9490600090a2610b86806100516000396000f3fe608060405234801561001057600080fd5b50600436106100ea5760003560e01c80638da5cb5b1161008c578063bf7e214f11610066578063bf7e214f14610307578063c6b0263e1461030f578063d381ba7c1461034d578063fbf807731461037b576100ea565b80638da5cb5b14610273578063a078f73714610297578063b7009613146102c6576100ea565b80632f47571f116100c85780632f47571f1461018557806367aff484146101cf5780637a9e5e4b146102065780637d40583d1461022c576100ea565b806306a36aee146100ef57806313af40351461012757806327538e901461014f575b600080fd5b6101156004803603602081101561010557600080fd5b50356001600160a01b03166103a1565b60408051918252519081900360200190f35b61014d6004803603602081101561013d57600080fd5b50356001600160a01b03166103bc565b005b6101156004803603604081101561016557600080fd5b5080356001600160a01b031690602001356001600160e01b03191661046a565b6101bb6004803603604081101561019b57600080fd5b5080356001600160a01b031690602001356001600160e01b03191661049f565b604080519115158252519081900360200190f35b61014d600480360360608110156101e557600080fd5b506001600160a01b038135169060ff602082013516906040013515156104d6565b61014d6004803603602081101561021c57600080fd5b50356001600160a01b03166105f6565b61014d6004803603608081101561024257600080fd5b5060ff813516906001600160a01b03602082013516906001600160e01b0319604082013516906060013515156106a0565b61027b610810565b604080516001600160a01b039092168252519081900360200190f35b6101bb600480360360408110156102ad57600080fd5b5080356001600160a01b0316906020013560ff1661081f565b6101bb600480360360608110156102dc57600080fd5b5080356001600160a01b0390811691602081013590911690604001356001600160e01b03191661083e565b61027b610895565b61014d6004803603606081101561032557600080fd5b506001600160a01b03813516906001600160e01b0319602082013516906040013515156108a4565b61014d6004803603604081101561036357600080fd5b506001600160a01b0381351690602001351515610982565b6101bb6004803603602081101561039157600080fd5b50356001600160a01b0316610a44565b6001600160a01b031660009081526003602052604090205490565b6103d2336000356001600160e01b031916610a62565b61041a576040805162461bcd60e51b8152602060048201526014602482015273191ccb585d5d1a0b5d5b985d5d1a1bdc9a5e995960621b604482015290519081900360640190fd5b600180546001600160a01b0319166001600160a01b0383811691909117918290556040519116907fce241d7ca1f669fee44b6fc00b8eba2df3bb514eed0f6f668f8f89096e81ed9490600090a250565b6001600160a01b03821660009081526004602090815260408083206001600160e01b0319851684529091529020545b92915050565b6001600160a01b03821660009081526005602090815260408083206001600160e01b03198516845290915290205460ff1692915050565b6104ec336000356001600160e01b031916610a62565b610534576040805162461bcd60e51b8152602060048201526014602482015273191ccb585d5d1a0b5d5b985d5d1a1bdc9a5e995960621b604482015290519081900360640190fd5b6001600160a01b03831660009081526003602052604090205460ff831660020a821561057c576001600160a01b038516600090815260036020526040902082821790556105a3565b61058581610b49565b6001600160a01b038616600090815260036020526040902090831690555b604080516001600160a01b038716815260ff861660208201528415158183015290517f3cddaa242050783aba68ea7daf09f800417a76ef9648fbfbab2593c9c94c45e99181900360600190a15050505050565b61060c336000356001600160e01b031916610a62565b610654576040805162461bcd60e51b8152602060048201526014602482015273191ccb585d5d1a0b5d5b985d5d1a1bdc9a5e995960621b604482015290519081900360640190fd5b600080546001600160a01b0319166001600160a01b03838116919091178083556040519116917f1abebea81bfa2637f28358c371278fb15ede7ea8dd28d2e03b112ff6d936ada491a250565b6106b6336000356001600160e01b031916610a62565b6106fe576040805162461bcd60e51b8152602060048201526014602482015273191ccb585d5d1a0b5d5b985d5d1a1bdc9a5e995960621b604482015290519081900360640190fd5b6001600160a01b03831660009081526004602090815260408083206001600160e01b03198616845290915290205460ff851660020a8215610770576001600160a01b03851660009081526004602090815260408083206001600160e01b031988168452909152902082821790556107ac565b61077981610b49565b6001600160a01b03861660009081526004602090815260408083206001600160e01b031989168452909152902090831690555b6040805160ff881681526001600160a01b03871660208201526001600160e01b0319861681830152841515606082015290517f2c4978651285f3d6e10bd5b0718d7f8630e8c27ab0c9211844d234adee25829a9181900360800190a1505050505050565b6001546001600160a01b031681565b60008061082b846103a1565b60ff841660020a16151591505092915050565b600061084984610a44565b806108595750610859838361049f565b156108665750600161088e565b6000610871856103a1565b9050600061087f858561046a565b919091161515915061088e9050565b9392505050565b6000546001600160a01b031681565b6108ba336000356001600160e01b031916610a62565b610902576040805162461bcd60e51b8152602060048201526014602482015273191ccb585d5d1a0b5d5b985d5d1a1bdc9a5e995960621b604482015290519081900360640190fd5b6001600160a01b03831660008181526005602090815260408083206001600160e01b0319871680855290835292819020805486151560ff19909116811790915581519485529184019290925282820152517fde1a91d7426dd711a502f6c8d735484fdeb08d3fa558670008bdb8c97b69ed379181900360600190a1505050565b610998336000356001600160e01b031916610a62565b6109e0576040805162461bcd60e51b8152602060048201526014602482015273191ccb585d5d1a0b5d5b985d5d1a1bdc9a5e995960621b604482015290519081900360640190fd5b6001600160a01b038216600081815260026020908152604091829020805460ff191685151590811790915582519384529083015280517fc2c5f339cc3d55f2cf010b240fe0be6cf1e41198e0df8072c6d7383c1a04c9b69281900390910190a15050565b6001600160a01b031660009081526002602052604090205460ff1690565b60006001600160a01b038316301415610a7d57506001610499565b6001546001600160a01b0384811691161415610a9b57506001610499565b6000546001600160a01b0316610ab357506000610499565b6000546040805163b700961360e01b81526001600160a01b0386811660048301523060248301526001600160e01b0319861660448301529151919092169163b7009613916064808301926020929190829003018186803b158015610b1657600080fd5b505afa158015610b2a573d6000803e3d6000fd5b505050506040513d6020811015610b4057600080fd5b50519050610499565b600019189056fea264697066735822122042be64d344c3befa8e470249e8539dd86a3d6a72c6e3a7efd40879fa87d7113864736f6c63430006070033",
        "linkReferences": {}
    },
    "methodIdentifiers": {
        "authority()": "bf7e214f",
        "canCall(address,address,bytes4)": "b7009613",
        "getCapabilityRoles(address,bytes4)": "27538e90",
        "getUserRoles(address)": "06a36aee",
        "hasUserRole(address,uint8)": "a078f737",
        "isCapabilityPublic(address,bytes4)": "2f47571f",
        "isUserRoot(address)": "fbf80773",
        "owner()": "8da5cb5b",
        "setAuthority(address)": "7a9e5e4b",
        "setOwner(address)": "13af4035",
        "setPublicCapability(address,bytes4,bool)": "c6b0263e",
        "setRoleCapability(uint8,address,bytes4,bool)": "7d40583d",
        "setRootUser(address,bool)": "d381ba7c",
        "setUserRole(address,uint8,bool)": "67aff484"
    },
    "id": 0
}