{
    "abi": [
        {
            "anonymous": true,
            "inputs": [
                {
                    "indexed": true,
                    "internalType": "bytes4",
                    "name": "sig",
                    "type": "bytes4"
                },
                {
                    "indexed": true,
                    "internalType": "address",
                    "name": "guy",
                    "type": "address"
                },
                {
                    "indexed": true,
                    "internalType": "bytes32",
                    "name": "foo",
                    "type": "bytes32"
                },
                {
                    "indexed": true,
                    "internalType": "bytes32",
                    "name": "bar",
                    "type": "bytes32"
                },
                {
                    "indexed": false,
                    "internalType": "uint256",
                    "name": "wad",
                    "type": "uint256"
                },
                {
                    "indexed": false,
                    "internalType": "bytes",
                    "name": "fax",
                    "type": "bytes"
                }
            ],
            "name": "LogNote",
            "type": "event"
        },
        {
            "anonymous": false,
            "inputs": [
                {
                    "indexed": true,
                    "internalType": "address",
                    "name": "authority",
                    "type": "address"
                }
            ],
            "name": "LogSetAuthority",
            "type": "event"
        },
        {
            "anonymous": false,
            "inputs": [
                {
                    "indexed": true,
                    "internalType": "address",
                    "name": "owner",
                    "type": "address"
                }
            ],
            "name": "LogSetOwner",
            "type": "event"
        },
        {
            "inputs": [],
            "name": "authority",
            "outputs": [
                {
                    "internalType": "contract DSAuthority",
                    "name": "",
                    "type": "address"
                }
            ],
            "stateMutability": "view",
            "type": "function"
        },
        {
            "inputs": [],
            "name": "owner",
            "outputs": [
                {
                    "internalType": "address",
                    "name": "",
                    "type": "address"
                }
            ],
            "stateMutability": "view",
            "type": "function"
        },
        {
            "inputs": [
                {
                    "internalType": "contract DSAuthority",
                    "name": "authority_",
                    "type": "address"
                }
            ],
            "name": "setAuthority",
            "outputs": [],
            "stateMutability": "nonpayable",
            "type": "function"
        },
        {
            "inputs": [
                {
                    "internalType": "address",
                    "name": "owner_",
                    "type": "address"
                }
            ],
            "name": "setOwner",
            "outputs": [],
            "stateMutability": "nonpayable",
            "type": "function"
        },
        {
            "inputs": [],
            "name": "start",
            "outputs": [],
            "stateMutability": "nonpayable",
            "type": "function"
        },
        {
            "inputs": [],
            "name": "stop",
            "outputs": [],
            "stateMutability": "nonpayable",
            "type": "function"
        },
        {
            "inputs": [],
            "name": "stopped",
            "outputs": [
                {
                    "internalType": "bool",
                    "name": "",
                    "type": "bool"
                }
            ],
            "stateMutability": "view",
            "type": "function"
        }
    ],
    "bytecode": {
        "object": "0x60806040819052600180546001600160a01b03191633908117909155907fce241d7ca1f669fee44b6fc00b8eba2df3bb514eed0f6f668f8f89096e81ed9490600090a261057d806100516000396000f3fe608060405234801561001057600080fd5b506004361061007d5760003560e01c80637a9e5e4b1161005b5780637a9e5e4b146100ce5780638da5cb5b146100f4578063be9a655514610118578063bf7e214f146101205761007d565b806307da68f51461008257806313af40351461008c57806375f12b21146100b2575b600080fd5b61008a610128565b005b61008a600480360360208110156100a257600080fd5b50356001600160a01b0316610204565b6100ba6102b2565b604080519115158252519081900360200190f35b61008a600480360360208110156100e457600080fd5b50356001600160a01b03166102c2565b6100fc61036c565b604080516001600160a01b039092168252519081900360200190f35b61008a61037b565b6100fc61044f565b61013e336000356001600160e01b03191661045e565b610186576040805162461bcd60e51b8152602060048201526014602482015273191ccb585d5d1a0b5d5b985d5d1a1bdc9a5e995960621b604482015290519081900360640190fd5b60018054600160a01b60ff60a01b19909116179055604080513480825260208201838152369383018490526004359360243593849286923392600080356001600160e01b03191693889391929060608201848480828437600083820152604051601f909101601f1916909201829003965090945050505050a4505050565b61021a336000356001600160e01b03191661045e565b610262576040805162461bcd60e51b8152602060048201526014602482015273191ccb585d5d1a0b5d5b985d5d1a1bdc9a5e995960621b604482015290519081900360640190fd5b600180546001600160a01b0319166001600160a01b0383811691909117918290556040519116907fce241d7ca1f669fee44b6fc00b8eba2df3bb514eed0f6f668f8f89096e81ed9490600090a250565b600154600160a01b900460ff1681565b6102d8336000356001600160e01b03191661045e565b610320576040805162461bcd60e51b8152602060048201526014602482015273191ccb585d5d1a0b5d5b985d5d1a1bdc9a5e995960621b604482015290519081900360640190fd5b600080546001600160a01b0319166001600160a01b03838116919091178083556040519116917f1abebea81bfa2637f28358c371278fb15ede7ea8dd28d2e03b112ff6d936ada491a250565b6001546001600160a01b031681565b610391336000356001600160e01b03191661045e565b6103d9576040805162461bcd60e51b8152602060048201526014602482015273191ccb585d5d1a0b5d5b985d5d1a1bdc9a5e995960621b604482015290519081900360640190fd5b6001805460ff60a01b19169055604080513480825260208201838152369383018490526004359360243593849286923392600080356001600160e01b03191693889391929060608201848480828437600083820152604051601f909101601f1916909201829003965090945050505050a4505050565b6000546001600160a01b031681565b60006001600160a01b03831630141561047957506001610541565b6001546001600160a01b038481169116141561049757506001610541565b6000546001600160a01b03166104af57506000610541565b6000546040805163b700961360e01b81526001600160a01b0386811660048301523060248301526001600160e01b0319861660448301529151919092169163b7009613916064808301926020929190829003018186803b15801561051257600080fd5b505afa158015610526573d6000803e3d6000fd5b505050506040513d602081101561053c57600080fd5b505190505b9291505056fea264697066735822122055ae598967dfab9100c0f6bd4c12923f0c1059521b93723c17e58e5d7cb1539b64736f6c63430006070033",
        "linkReferences": {}
    },
    "methodIdentifiers": {
        "authority()": "bf7e214f",
        "owner()": "8da5cb5b",
        "setAuthority(address)": "7a9e5e4b",
        "setOwner(address)": "13af4035",
        "start()": "be9a6555",
        "stop()": "07da68f5",
        "stopped()": "75f12b21"
    },
    "id": 25
}