{
    "abi": [
        {
            "anonymous": true,
            "inputs": [
                {
                    "indexed": true,
                    "internalType": "bytes4",
                    "name": "sig",
                    "type": "bytes4"
                },
                {
                    "indexed": true,
                    "internalType": "address",
                    "name": "guy",
                    "type": "address"
                },
                {
                    "indexed": true,
                    "internalType": "bytes32",
                    "name": "foo",
                    "type": "bytes32"
                },
                {
                    "indexed": true,
                    "internalType": "bytes32",
                    "name": "bar",
                    "type": "bytes32"
                },
                {
                    "indexed": false,
                    "internalType": "uint256",
                    "name": "wad",
                    "type": "uint256"
                },
                {
                    "indexed": false,
                    "internalType": "bytes",
                    "name": "fax",
                    "type": "bytes"
                }
            ],
            "name": "LogNote",
            "type": "event"
        },
        {
            "anonymous": false,
            "inputs": [
                {
                    "indexed": true,
                    "internalType": "address",
                    "name": "authority",
                    "type": "address"
                }
            ],
            "name": "LogSetAuthority",
            "type": "event"
        },
        {
            "anonymous": false,
            "inputs": [
                {
                    "indexed": true,
                    "internalType": "address",
                    "name": "owner",
                    "type": "address"
                }
            ],
            "name": "LogSetOwner",
            "type": "event"
        },
        {
            "anonymous": false,
            "inputs": [],
            "name": "RestartValue",
            "type": "event"
        },
        {
            "anonymous": false,
            "inputs": [
                {
                    "indexed": false,
                    "internalType": "uint256",
                    "name": "newMedian",
                    "type": "uint256"
                },
                {
                    "indexed": false,
                    "internalType": "uint256",
                    "name": "lastUpdateTime",
                    "type": "uint256"
                }
            ],
            "name": "UpdateResult",
            "type": "event"
        },
        {
            "inputs": [],
            "name": "authority",
            "outputs": [
                {
                    "internalType": "contract DSAuthority",
                    "name": "",
                    "type": "address"
                }
            ],
            "stateMutability": "view",
            "type": "function"
        },
        {
            "inputs": [],
            "name": "getResultWithValidity",
            "outputs": [
                {
                    "internalType": "uint256",
                    "name": "",
                    "type": "uint256"
                },
                {
                    "internalType": "bool",
                    "name": "",
                    "type": "bool"
                }
            ],
            "stateMutability": "view",
            "type": "function"
        },
        {
            "inputs": [],
            "name": "owner",
            "outputs": [
                {
                    "internalType": "address",
                    "name": "",
                    "type": "address"
                }
            ],
            "stateMutability": "view",
            "type": "function"
        },
        {
            "inputs": [],
            "name": "priceSource",
            "outputs": [
                {
                    "internalType": "address",
                    "name": "",
                    "type": "address"
                }
            ],
            "stateMutability": "view",
            "type": "function"
        },
        {
            "inputs": [],
            "name": "read",
            "outputs": [
                {
                    "internalType": "uint256",
                    "name": "",
                    "type": "uint256"
                }
            ],
            "stateMutability": "view",
            "type": "function"
        },
        {
            "inputs": [],
            "name": "restartValue",
            "outputs": [],
            "stateMutability": "nonpayable",
            "type": "function"
        },
        {
            "inputs": [
                {
                    "internalType": "contract DSAuthority",
                    "name": "authority_",
                    "type": "address"
                }
            ],
            "name": "setAuthority",
            "outputs": [],
            "stateMutability": "nonpayable",
            "type": "function"
        },
        {
            "inputs": [
                {
                    "internalType": "address",
                    "name": "owner_",
                    "type": "address"
                }
            ],
            "name": "setOwner",
            "outputs": [],
            "stateMutability": "nonpayable",
            "type": "function"
        },
        {
            "inputs": [
                {
                    "internalType": "uint256",
                    "name": "newMedian",
                    "type": "uint256"
                }
            ],
            "name": "updateResult",
            "outputs": [],
            "stateMutability": "nonpayable",
            "type": "function"
        }
    ],
    "bytecode": {
        "object": "0x60806040819052600180546001600160a01b03191633908117909155907fce241d7ca1f669fee44b6fc00b8eba2df3bb514eed0f6f668f8f89096e81ed9490600090a26105d2806100516000396000f3fe608060405234801561001057600080fd5b50600436106100935760003560e01c80637a9e5e4b116100665780637a9e5e4b1461011f57806382dcc26d146101455780638da5cb5b14610162578063bf7e214f1461016a578063ceedd63d1461017257610093565b806313af40351461009857806320531bc9146100c05780634fd0ada8146100e457806357de26a414610105575b600080fd5b6100be600480360360208110156100ae57600080fd5b50356001600160a01b031661017a565b005b6100c8610228565b604080516001600160a01b039092168252519081900360200190f35b6100ec610237565b6040805192835290151560208301528051918290030190f35b61010d61024c565b60408051918252519081900360200190f35b6100be6004803603602081101561013557600080fd5b50356001600160a01b03166102a2565b6100be6004803603602081101561015b57600080fd5b503561034c565b6100c86103ff565b6100c861040e565b6100be61041d565b610190336000356001600160e01b0319166104b3565b6101d8576040805162461bcd60e51b8152602060048201526014602482015273191ccb585d5d1a0b5d5b985d5d1a1bdc9a5e995960621b604482015290519081900360640190fd5b600180546001600160a01b0319166001600160a01b0383811691909117918290556040519116907fce241d7ca1f669fee44b6fc00b8eba2df3bb514eed0f6f668f8f89096e81ed9490600090a250565b6003546001600160a01b031681565b60025460015460ff600160a01b909104169091565b6000806000610259610237565b90925090508061029c576040805162461bcd60e51b81526020600482015260096024820152681b9bdd0b5d985b1a5960ba1b604482015290519081900360640190fd5b50905090565b6102b8336000356001600160e01b0319166104b3565b610300576040805162461bcd60e51b8152602060048201526014602482015273191ccb585d5d1a0b5d5b985d5d1a1bdc9a5e995960621b604482015290519081900360640190fd5b600080546001600160a01b0319166001600160a01b03838116919091178083556040519116917f1abebea81bfa2637f28358c371278fb15ede7ea8dd28d2e03b112ff6d936ada491a250565b610362336000356001600160e01b0319166104b3565b6103aa576040805162461bcd60e51b8152602060048201526014602482015273191ccb585d5d1a0b5d5b985d5d1a1bdc9a5e995960621b604482015290519081900360640190fd5b60028190556001805460ff60a01b1916600160a01b1790556040805182815242602082015281517ff85e44c6c3597d176b8d59bfbf500dfdb2badfc8cf91e6d960b16583a5807e48929181900390910190a150565b6001546001600160a01b031681565b6000546001600160a01b031681565b610433336000356001600160e01b0319166104b3565b61047b576040805162461bcd60e51b8152602060048201526014602482015273191ccb585d5d1a0b5d5b985d5d1a1bdc9a5e995960621b604482015290519081900360640190fd5b6001805460ff60a01b191690556040517f34cd470f8814066090f532fe3cb8158c5d974d7a01f4ada846dc9869e7e9d59a90600090a1565b60006001600160a01b0383163014156104ce57506001610596565b6001546001600160a01b03848116911614156104ec57506001610596565b6000546001600160a01b031661050457506000610596565b6000546040805163b700961360e01b81526001600160a01b0386811660048301523060248301526001600160e01b0319861660448301529151919092169163b7009613916064808301926020929190829003018186803b15801561056757600080fd5b505afa15801561057b573d6000803e3d6000fd5b505050506040513d602081101561059157600080fd5b505190505b9291505056fea264697066735822122083193065d599e94d17d8b0a17752f7650fbef0d7ad1b6c90ecba2da4d2821e5364736f6c63430006070033",
        "linkReferences": {}
    },
    "methodIdentifiers": {
        "authority()": "bf7e214f",
        "getResultWithValidity()": "4fd0ada8",
        "owner()": "8da5cb5b",
        "priceSource()": "20531bc9",
        "read()": "57de26a4",
        "restartValue()": "ceedd63d",
        "setAuthority(address)": "7a9e5e4b",
        "setOwner(address)": "13af4035",
        "updateResult(uint256)": "82dcc26d"
    },
    "id": 6
}