{
    "abi": [
        {
            "inputs": [
                {
                    "internalType": "address",
                    "name": "protocolToken_",
                    "type": "address"
                },
                {
                    "internalType": "address",
                    "name": "globalSettlement_",
                    "type": "address"
                },
                {
                    "internalType": "address",
                    "name": "tokenBurner_",
                    "type": "address"
                },
                {
                    "internalType": "address",
                    "name": "thresholdSetter_",
                    "type": "address"
                },
                {
                    "internalType": "uint256",
                    "name": "triggerThreshold_",
                    "type": "uint256"
                }
            ],
            "stateMutability": "nonpayable",
            "type": "constructor"
        },
        {
            "anonymous": false,
            "inputs": [
                {
                    "indexed": false,
                    "internalType": "address",
                    "name": "account",
                    "type": "address"
                }
            ],
            "name": "AddAuthorization",
            "type": "event"
        },
        {
            "anonymous": false,
            "inputs": [
                {
                    "indexed": false,
                    "internalType": "bytes",
                    "name": "revertReason",
                    "type": "bytes"
                }
            ],
            "name": "FailRecomputeThreshold",
            "type": "event"
        },
        {
            "anonymous": false,
            "inputs": [
                {
                    "indexed": false,
                    "internalType": "bytes32",
                    "name": "parameter",
                    "type": "bytes32"
                },
                {
                    "indexed": false,
                    "internalType": "uint256",
                    "name": "wad",
                    "type": "uint256"
                }
            ],
            "name": "ModifyParameters",
            "type": "event"
        },
        {
            "anonymous": false,
            "inputs": [
                {
                    "indexed": false,
                    "internalType": "bytes32",
                    "name": "parameter",
                    "type": "bytes32"
                },
                {
                    "indexed": false,
                    "internalType": "address",
                    "name": "account",
                    "type": "address"
                }
            ],
            "name": "ModifyParameters",
            "type": "event"
        },
        {
            "anonymous": false,
            "inputs": [
                {
                    "indexed": false,
                    "internalType": "address",
                    "name": "account",
                    "type": "address"
                }
            ],
            "name": "RemoveAuthorization",
            "type": "event"
        },
        {
            "anonymous": false,
            "inputs": [],
            "name": "Shutdown",
            "type": "event"
        },
        {
            "inputs": [
                {
                    "internalType": "address",
                    "name": "account",
                    "type": "address"
                }
            ],
            "name": "addAuthorization",
            "outputs": [],
            "stateMutability": "nonpayable",
            "type": "function"
        },
        {
            "inputs": [
                {
                    "internalType": "address",
                    "name": "",
                    "type": "address"
                }
            ],
            "name": "authorizedAccounts",
            "outputs": [
                {
                    "internalType": "uint256",
                    "name": "",
                    "type": "uint256"
                }
            ],
            "stateMutability": "view",
            "type": "function"
        },
        {
            "inputs": [],
            "name": "globalSettlement",
            "outputs": [
                {
                    "internalType": "contract GlobalSettlementLike",
                    "name": "",
                    "type": "address"
                }
            ],
            "stateMutability": "view",
            "type": "function"
        },
        {
            "inputs": [
                {
                    "internalType": "bytes32",
                    "name": "parameter",
                    "type": "bytes32"
                },
                {
                    "internalType": "address",
                    "name": "account",
                    "type": "address"
                }
            ],
            "name": "modifyParameters",
            "outputs": [],
            "stateMutability": "nonpayable",
            "type": "function"
        },
        {
            "inputs": [
                {
                    "internalType": "bytes32",
                    "name": "parameter",
                    "type": "bytes32"
                },
                {
                    "internalType": "uint256",
                    "name": "wad",
                    "type": "uint256"
                }
            ],
            "name": "modifyParameters",
            "outputs": [],
            "stateMutability": "nonpayable",
            "type": "function"
        },
        {
            "inputs": [],
            "name": "protocolToken",
            "outputs": [
                {
                    "internalType": "contract TokenLike",
                    "name": "",
                    "type": "address"
                }
            ],
            "stateMutability": "view",
            "type": "function"
        },
        {
            "inputs": [
                {
                    "internalType": "address",
                    "name": "account",
                    "type": "address"
                }
            ],
            "name": "removeAuthorization",
            "outputs": [],
            "stateMutability": "nonpayable",
            "type": "function"
        },
        {
            "inputs": [],
            "name": "settled",
            "outputs": [
                {
                    "internalType": "uint256",
                    "name": "",
                    "type": "uint256"
                }
            ],
            "stateMutability": "view",
            "type": "function"
        },
        {
            "inputs": [],
            "name": "shutdown",
            "outputs": [],
            "stateMutability": "nonpayable",
            "type": "function"
        },
        {
            "inputs": [],
            "name": "thresholdSetter",
            "outputs": [
                {
                    "internalType": "contract ESMThresholdSetter",
                    "name": "",
                    "type": "address"
                }
            ],
            "stateMutability": "view",
            "type": "function"
        },
        {
            "inputs": [],
            "name": "tokenBurner",
            "outputs": [
                {
                    "internalType": "address",
                    "name": "",
                    "type": "address"
                }
            ],
            "stateMutability": "view",
            "type": "function"
        },
        {
            "inputs": [],
            "name": "triggerThreshold",
            "outputs": [
                {
                    "internalType": "uint256",
                    "name": "",
                    "type": "uint256"
                }
            ],
            "stateMutability": "view",
            "type": "function"
        }
    ],
    "bytecode": {
        "object": "0x608060405234801561001057600080fd5b50604051610d2e380380610d2e833981810160405260a081101561003357600080fd5b508051602080830151604080850151606086015160809096015182516318160ddd60e01b8152925195969395919490926100d392841515926001600160a01b038a16926318160ddd9260048083019392829003018186803b15801561009757600080fd5b505afa1580156100ab573d6000803e3d6000fd5b505050506040513d60208110156100c157600080fd5b505183106001600160e01b0361026616565b610124576040805162461bcd60e51b815260206004820152601f60248201527f65736d2f7468726573686f6c642d6e6f742d77697468696e2d626f756e647300604482015290519081900360640190fd5b336000818152602081815260409182902060019081905580546001600160a01b038a81166001600160a01b031992831617909255600280548a84169083161790556003805488841690831617905560048054928916929091169190911790556005849055815192835290517f599a298163e1678bb1c676052a8930bf0b8a1261ed6e01b8a2391e55f70001029281900390910190a1604080516f1d1c9a59d9d95c951a1c995cda1bdb1960821b81526020810183905281517fac7c5c1afaef770ec56ac6268cd3f2fbb1035858ead2601d6553157c33036c3a929181900390910190a1604080516e3a343932b9b437b63229b2ba3a32b960891b81526001600160a01b038416602082015281517fd91f38cf03346b5dc15fb60f9076f866295231ad3c3841a1051f8443f25170d1929181900390910190a1505050505061026a565b1690565b610ab5806102796000396000f3fe608060405234801561001057600080fd5b50600436106100b45760003560e01c80638f775839116100715780638f7758391461017957806394f3f81d14610181578063e47a37e3146101a7578063f2380828146101af578063fc0e74d1146101b7578063fe4f5890146101bf576100b4565b8063037b7d79146100b95780631a465fe1146100dd57806324ba5884146100e55780632996f9721461011d57806335b28153146101255780636614f0101461014d575b600080fd5b6100c16101e2565b604080516001600160a01b039092168252519081900360200190f35b6100c16101f1565b61010b600480360360208110156100fb57600080fd5b50356001600160a01b0316610200565b60408051918252519081900360200190f35b6100c1610212565b61014b6004803603602081101561013b57600080fd5b50356001600160a01b0316610221565b005b61014b6004803603604081101561016357600080fd5b50803590602001356001600160a01b03166102d4565b61010b6104a8565b61014b6004803603602081101561019757600080fd5b50356001600160a01b03166104ae565b61010b610560565b6100c1610566565b61014b610575565b61014b600480360360408110156101d557600080fd5b5080359060200135610737565b6002546001600160a01b031681565b6001546001600160a01b031681565b60006020819052908152604090205481565b6004546001600160a01b031681565b33600090815260208190526040902054600114610282576040805162461bcd60e51b815260206004820152601a602482015279195cdb4bd858d8dbdd5b9d0b5b9bdd0b585d5d1a1bdc9a5e995960321b604482015290519081900360640190fd5b6001600160a01b0381166000818152602081815260409182902060019055815192835290517f599a298163e1678bb1c676052a8930bf0b8a1261ed6e01b8a2391e55f70001029281900390910190a150565b33600090815260208190526040902054600114610335576040805162461bcd60e51b815260206004820152601a602482015279195cdb4bd858d8dbdd5b9d0b5b9bdd0b585d5d1a1bdc9a5e995960321b604482015290519081900360640190fd5b60065415610380576040805162461bcd60e51b8152602060048201526013602482015272195cdb4bd85b1c9958591e4b5cd95d1d1b1959606a1b604482015290519081900360640190fd5b816e3a343932b9b437b63229b2ba3a32b960891b141561041457600380546001600160a01b0319166001600160a01b0383811691909117918290556040805163792e0adf60e01b81529051929091169163792e0adf9160048082019260009290919082900301818387803b1580156103f757600080fd5b505af115801561040b573d6000803e3d6000fd5b50505050610461565b6040805162461bcd60e51b815260206004820152601d60248201527f65736d2f6d6f646966792d756e7265636f676e697a65642d706172616d000000604482015290519081900360640190fd5b604080518381526001600160a01b038316602082015281517fd91f38cf03346b5dc15fb60f9076f866295231ad3c3841a1051f8443f25170d1929181900390910190a15050565b60065481565b3360009081526020819052604090205460011461050f576040805162461bcd60e51b815260206004820152601a602482015279195cdb4bd858d8dbdd5b9d0b5b9bdd0b585d5d1a1bdc9a5e995960321b604482015290519081900360640190fd5b6001600160a01b03811660008181526020818152604080832092909255815192835290517f8834a87e641e9716be4f34527af5d23e11624f1ddeefede6ad75a9acfc31b9039281900390910190a150565b60055481565b6003546001600160a01b031681565b600654156105c0576040805162461bcd60e51b8152602060048201526013602482015272195cdb4bd85b1c9958591e4b5cd95d1d1b1959606a1b604482015290519081900360640190fd5b6105c8610934565b600160068190555460048054600554604080516323b872dd60e01b815233948101949094526001600160a01b0392831660248501526044840191909152519216916323b872dd916064808201926020929091908290030181600087803b15801561063157600080fd5b505af1158015610645573d6000803e3d6000fd5b505050506040513d602081101561065b57600080fd5b50516106a4576040805162461bcd60e51b8152602060048201526013602482015272195cdb4bdd1c985b9cd9995c8b59985a5b1959606a1b604482015290519081900360640190fd5b6040517f4426aa1fb73e391071491fcfe21a88b5c38a0a0333a1f6e77161470439704cf890600090a1600260009054906101000a90046001600160a01b03166001600160a01b031663354af9196040518163ffffffff1660e01b8152600401600060405180830381600087803b15801561071d57600080fd5b505af1158015610731573d6000803e3d6000fd5b50505050565b60065415610782576040805162461bcd60e51b8152602060048201526013602482015272195cdb4bd85b1c9958591e4b5cd95d1d1b1959606a1b604482015290519081900360640190fd5b600354336000818152602081905260409020546107ae926001600160a01b031690911490600114610a77565b6107fc576040805162461bcd60e51b815260206004820152601a602482015279195cdb4bd858d8dbdd5b9d0b5b9bdd0b585d5d1a1bdc9a5e995960321b604482015290519081900360640190fd5b816f1d1c9a59d9d95c951a1c995cda1bdb1960821b14156104145761089f60008211600160009054906101000a90046001600160a01b03166001600160a01b03166318160ddd6040518163ffffffff1660e01b815260040160206040518083038186803b15801561086c57600080fd5b505afa158015610880573d6000803e3d6000fd5b505050506040513d602081101561089657600080fd5b50518310610a7b565b6108f0576040805162461bcd60e51b815260206004820152601f60248201527f65736d2f7468726573686f6c642d6e6f742d77697468696e2d626f756e647300604482015290519081900360640190fd5b6005819055604080518381526020810183905281517fac7c5c1afaef770ec56ac6268cd3f2fbb1035858ead2601d6553157c33036c3a929181900390910190a15050565b6003546001600160a01b031615610a7557600360009054906101000a90046001600160a01b03166001600160a01b031663792e0adf6040518163ffffffff1660e01b8152600401600060405180830381600087803b15801561099557600080fd5b505af19250505080156109a6575060015b610a75573d8080156109d4576040519150601f19603f3d011682016040523d82523d6000602084013e6109d9565b606091505b507f52511d850e6ebb591225a6c0943e9e657e2f2ad374d64b5708712ad6d62351a5816040518080602001828103825283818151815260200191508051906020019080838360005b83811015610a39578181015183820152602001610a21565b50505050905090810190601f168015610a665780820380516001836020036101000a031916815260200191505b509250505060405180910390a1505b565b1790565b169056fea2646970667358221220dff257515ba10a2f64d3854b644ad143c0da4e1a5ab09cd1a96221b81b94ff6b64736f6c63430006070033",
        "linkReferences": {}
    },
    "methodIdentifiers": {
        "addAuthorization(address)": "35b28153",
        "authorizedAccounts(address)": "24ba5884",
        "globalSettlement()": "037b7d79",
        "modifyParameters(bytes32,address)": "6614f010",
        "modifyParameters(bytes32,uint256)": "fe4f5890",
        "protocolToken()": "1a465fe1",
        "removeAuthorization(address)": "94f3f81d",
        "settled()": "8f775839",
        "shutdown()": "fc0e74d1",
        "thresholdSetter()": "f2380828",
        "tokenBurner()": "2996f972",
        "triggerThreshold()": "e47a37e3"
    },
    "id": 12
}