{
    "abi": [
        {
            "inputs": [
                {
                    "internalType": "address",
                    "name": "validator",
                    "type": "address"
                },
                {
                    "internalType": "address",
                    "name": "account",
                    "type": "address"
                }
            ],
            "name": "addAuthority",
            "outputs": [],
            "stateMutability": "nonpayable",
            "type": "function"
        },
        {
            "inputs": [
                {
                    "internalType": "address",
                    "name": "targetContract",
                    "type": "address"
                },
                {
                    "internalType": "address",
                    "name": "to",
                    "type": "address"
                }
            ],
            "name": "addAuthorization",
            "outputs": [],
            "stateMutability": "nonpayable",
            "type": "function"
        },
        {
            "inputs": [
                {
                    "internalType": "address",
                    "name": "validator",
                    "type": "address"
                },
                {
                    "internalType": "address",
                    "name": "reader",
                    "type": "address"
                }
            ],
            "name": "addReader",
            "outputs": [],
            "stateMutability": "nonpayable",
            "type": "function"
        },
        {
            "inputs": [
                {
                    "internalType": "address",
                    "name": "token",
                    "type": "address"
                },
                {
                    "internalType": "address",
                    "name": "guy",
                    "type": "address"
                },
                {
                    "internalType": "uint256",
                    "name": "wad",
                    "type": "uint256"
                }
            ],
            "name": "burn",
            "outputs": [],
            "stateMutability": "nonpayable",
            "type": "function"
        },
        {
            "inputs": [
                {
                    "internalType": "address",
                    "name": "fsm",
                    "type": "address"
                },
                {
                    "internalType": "uint256",
                    "name": "deviation",
                    "type": "uint256"
                }
            ],
            "name": "changeNextPriceDeviation",
            "outputs": [],
            "stateMutability": "nonpayable",
            "type": "function"
        },
        {
            "inputs": [
                {
                    "internalType": "address",
                    "name": "fsm",
                    "type": "address"
                },
                {
                    "internalType": "address",
                    "name": "priceSource",
                    "type": "address"
                }
            ],
            "name": "changePriceSource",
            "outputs": [],
            "stateMutability": "nonpayable",
            "type": "function"
        },
        {
            "inputs": [
                {
                    "internalType": "address",
                    "name": "targetContract",
                    "type": "address"
                },
                {
                    "internalType": "address",
                    "name": "saviour",
                    "type": "address"
                }
            ],
            "name": "connectSAFESaviour",
            "outputs": [],
            "stateMutability": "nonpayable",
            "type": "function"
        },
        {
            "inputs": [
                {
                    "internalType": "address",
                    "name": "targetContract",
                    "type": "address"
                },
                {
                    "internalType": "address",
                    "name": "stakingToken",
                    "type": "address"
                },
                {
                    "internalType": "uint256",
                    "name": "rewardAmount",
                    "type": "uint256"
                },
                {
                    "internalType": "uint256",
                    "name": "duration",
                    "type": "uint256"
                }
            ],
            "name": "deploy",
            "outputs": [],
            "stateMutability": "nonpayable",
            "type": "function"
        },
        {
            "inputs": [
                {
                    "internalType": "address",
                    "name": "targetContract",
                    "type": "address"
                },
                {
                    "internalType": "address",
                    "name": "stakingToken",
                    "type": "address"
                },
                {
                    "internalType": "uint256",
                    "name": "rewardAmount",
                    "type": "uint256"
                },
                {
                    "internalType": "uint256",
                    "name": "duration",
                    "type": "uint256"
                }
            ],
            "name": "deployAndNotifyRewardAmount",
            "outputs": [],
            "stateMutability": "nonpayable",
            "type": "function"
        },
        {
            "inputs": [
                {
                    "internalType": "address",
                    "name": "target",
                    "type": "address"
                },
                {
                    "internalType": "bytes32",
                    "name": "merkleRoot",
                    "type": "bytes32"
                },
                {
                    "internalType": "uint256",
                    "name": "amount",
                    "type": "uint256"
                }
            ],
            "name": "deployDistributor",
            "outputs": [],
            "stateMutability": "nonpayable",
            "type": "function"
        },
        {
            "inputs": [
                {
                    "internalType": "address",
                    "name": "target",
                    "type": "address"
                },
                {
                    "internalType": "bytes32",
                    "name": "merkleRoot",
                    "type": "bytes32"
                },
                {
                    "internalType": "uint256",
                    "name": "amount",
                    "type": "uint256"
                }
            ],
            "name": "deployDistributorAndSendTokens",
            "outputs": [],
            "stateMutability": "nonpayable",
            "type": "function"
        },
        {
            "inputs": [
                {
                    "internalType": "address",
                    "name": "targetContract",
                    "type": "address"
                }
            ],
            "name": "disableContract",
            "outputs": [],
            "stateMutability": "nonpayable",
            "type": "function"
        },
        {
            "inputs": [
                {
                    "internalType": "address",
                    "name": "targetContract",
                    "type": "address"
                },
                {
                    "internalType": "address",
                    "name": "saviour",
                    "type": "address"
                }
            ],
            "name": "disconnectSAFESaviour",
            "outputs": [],
            "stateMutability": "nonpayable",
            "type": "function"
        },
        {
            "inputs": [
                {
                    "internalType": "address",
                    "name": "target",
                    "type": "address"
                },
                {
                    "internalType": "uint256",
                    "name": "id",
                    "type": "uint256"
                }
            ],
            "name": "dropDistributorAuth",
            "outputs": [],
            "stateMutability": "nonpayable",
            "type": "function"
        },
        {
            "inputs": [
                {
                    "internalType": "address",
                    "name": "target",
                    "type": "address"
                },
                {
                    "internalType": "uint256",
                    "name": "id",
                    "type": "uint256"
                },
                {
                    "internalType": "uint256",
                    "name": "amount",
                    "type": "uint256"
                }
            ],
            "name": "getBackTokensFromDistributor",
            "outputs": [],
            "stateMutability": "nonpayable",
            "type": "function"
        },
        {
            "inputs": [
                {
                    "internalType": "address",
                    "name": "targetContract",
                    "type": "address"
                },
                {
                    "internalType": "bytes32",
                    "name": "collateralType",
                    "type": "bytes32"
                }
            ],
            "name": "initializeCollateralType",
            "outputs": [],
            "stateMutability": "nonpayable",
            "type": "function"
        },
        {
            "inputs": [
                {
                    "internalType": "address",
                    "name": "token",
                    "type": "address"
                },
                {
                    "internalType": "address",
                    "name": "guy",
                    "type": "address"
                },
                {
                    "internalType": "uint256",
                    "name": "wad",
                    "type": "uint256"
                }
            ],
            "name": "mint",
            "outputs": [],
            "stateMutability": "nonpayable",
            "type": "function"
        },
        {
            "inputs": [
                {
                    "internalType": "address",
                    "name": "targetContract",
                    "type": "address"
                },
                {
                    "internalType": "bytes32",
                    "name": "collateralType",
                    "type": "bytes32"
                },
                {
                    "internalType": "bytes32",
                    "name": "parameter",
                    "type": "bytes32"
                },
                {
                    "internalType": "uint256",
                    "name": "data",
                    "type": "uint256"
                }
            ],
            "name": "modifyParameters",
            "outputs": [],
            "stateMutability": "nonpayable",
            "type": "function"
        },
        {
            "inputs": [
                {
                    "internalType": "address",
                    "name": "targetContract",
                    "type": "address"
                },
                {
                    "internalType": "bytes32",
                    "name": "collateralType",
                    "type": "bytes32"
                },
                {
                    "internalType": "bytes32",
                    "name": "parameter",
                    "type": "bytes32"
                },
                {
                    "internalType": "address",
                    "name": "data",
                    "type": "address"
                }
            ],
            "name": "modifyParameters",
            "outputs": [],
            "stateMutability": "nonpayable",
            "type": "function"
        },
        {
            "inputs": [
                {
                    "internalType": "address",
                    "name": "targetContract",
                    "type": "address"
                },
                {
                    "internalType": "bytes32",
                    "name": "parameter",
                    "type": "bytes32"
                },
                {
                    "internalType": "int256",
                    "name": "data",
                    "type": "int256"
                }
            ],
            "name": "modifyParameters",
            "outputs": [],
            "stateMutability": "nonpayable",
            "type": "function"
        },
        {
            "inputs": [
                {
                    "internalType": "address",
                    "name": "targetContract",
                    "type": "address"
                },
                {
                    "internalType": "bytes32",
                    "name": "collateralType",
                    "type": "bytes32"
                },
                {
                    "internalType": "uint256",
                    "name": "data1",
                    "type": "uint256"
                },
                {
                    "internalType": "uint256",
                    "name": "data2",
                    "type": "uint256"
                },
                {
                    "internalType": "address",
                    "name": "data3",
                    "type": "address"
                }
            ],
            "name": "modifyParameters",
            "outputs": [],
            "stateMutability": "nonpayable",
            "type": "function"
        },
        {
            "inputs": [
                {
                    "internalType": "address",
                    "name": "targetContract",
                    "type": "address"
                },
                {
                    "internalType": "bytes32",
                    "name": "parameter",
                    "type": "bytes32"
                },
                {
                    "internalType": "uint256",
                    "name": "data1",
                    "type": "uint256"
                },
                {
                    "internalType": "uint256",
                    "name": "data2",
                    "type": "uint256"
                }
            ],
            "name": "modifyParameters",
            "outputs": [],
            "stateMutability": "nonpayable",
            "type": "function"
        },
        {
            "inputs": [
                {
                    "internalType": "address",
                    "name": "targetContract",
                    "type": "address"
                },
                {
                    "internalType": "uint256",
                    "name": "campaign",
                    "type": "uint256"
                },
                {
                    "internalType": "bytes32",
                    "name": "parameter",
                    "type": "bytes32"
                },
                {
                    "internalType": "uint256",
                    "name": "val",
                    "type": "uint256"
                }
            ],
            "name": "modifyParameters",
            "outputs": [],
            "stateMutability": "nonpayable",
            "type": "function"
        },
        {
            "inputs": [
                {
                    "internalType": "address",
                    "name": "targetContract",
                    "type": "address"
                },
                {
                    "internalType": "bytes32",
                    "name": "parameter",
                    "type": "bytes32"
                },
                {
                    "internalType": "address",
                    "name": "data",
                    "type": "address"
                }
            ],
            "name": "modifyParameters",
            "outputs": [],
            "stateMutability": "nonpayable",
            "type": "function"
        },
        {
            "inputs": [
                {
                    "internalType": "address",
                    "name": "targetContract",
                    "type": "address"
                },
                {
                    "internalType": "bytes32",
                    "name": "parameter",
                    "type": "bytes32"
                },
                {
                    "internalType": "uint256",
                    "name": "data",
                    "type": "uint256"
                }
            ],
            "name": "modifyParameters",
            "outputs": [],
            "stateMutability": "nonpayable",
            "type": "function"
        },
        {
            "inputs": [
                {
                    "internalType": "address",
                    "name": "targetContract1",
                    "type": "address"
                },
                {
                    "internalType": "address",
                    "name": "targetContract2",
                    "type": "address"
                },
                {
                    "internalType": "bytes32",
                    "name": "parameter1",
                    "type": "bytes32"
                },
                {
                    "internalType": "bytes32",
                    "name": "parameter2",
                    "type": "bytes32"
                },
                {
                    "internalType": "uint256",
                    "name": "data1",
                    "type": "uint256"
                },
                {
                    "internalType": "uint256",
                    "name": "data2",
                    "type": "uint256"
                }
            ],
            "name": "modifyTwoParameters",
            "outputs": [],
            "stateMutability": "nonpayable",
            "type": "function"
        },
        {
            "inputs": [
                {
                    "internalType": "address",
                    "name": "targetContract1",
                    "type": "address"
                },
                {
                    "internalType": "address",
                    "name": "targetContract2",
                    "type": "address"
                },
                {
                    "internalType": "bytes32",
                    "name": "parameter1",
                    "type": "bytes32"
                },
                {
                    "internalType": "bytes32",
                    "name": "parameter2",
                    "type": "bytes32"
                },
                {
                    "internalType": "int256",
                    "name": "data1",
                    "type": "int256"
                },
                {
                    "internalType": "int256",
                    "name": "data2",
                    "type": "int256"
                }
            ],
            "name": "modifyTwoParameters",
            "outputs": [],
            "stateMutability": "nonpayable",
            "type": "function"
        },
        {
            "inputs": [
                {
                    "internalType": "address",
                    "name": "targetContract1",
                    "type": "address"
                },
                {
                    "internalType": "address",
                    "name": "targetContract2",
                    "type": "address"
                },
                {
                    "internalType": "bytes32",
                    "name": "collateralType1",
                    "type": "bytes32"
                },
                {
                    "internalType": "bytes32",
                    "name": "collateralType2",
                    "type": "bytes32"
                },
                {
                    "internalType": "bytes32",
                    "name": "parameter1",
                    "type": "bytes32"
                },
                {
                    "internalType": "bytes32",
                    "name": "parameter2",
                    "type": "bytes32"
                },
                {
                    "internalType": "uint256",
                    "name": "data1",
                    "type": "uint256"
                },
                {
                    "internalType": "uint256",
                    "name": "data2",
                    "type": "uint256"
                }
            ],
            "name": "modifyTwoParameters",
            "outputs": [],
            "stateMutability": "nonpayable",
            "type": "function"
        },
        {
            "inputs": [
                {
                    "internalType": "address",
                    "name": "join",
                    "type": "address"
                },
                {
                    "internalType": "address[]",
                    "name": "accounts",
                    "type": "address[]"
                },
                {
                    "internalType": "uint256[]",
                    "name": "allowances",
                    "type": "uint256[]"
                }
            ],
            "name": "multiSetAllowance",
            "outputs": [],
            "stateMutability": "nonpayable",
            "type": "function"
        },
        {
            "inputs": [
                {
                    "internalType": "address",
                    "name": "targetContract",
                    "type": "address"
                },
                {
                    "internalType": "uint256",
                    "name": "campaignNumber",
                    "type": "uint256"
                }
            ],
            "name": "notifyRewardAmount",
            "outputs": [],
            "stateMutability": "nonpayable",
            "type": "function"
        },
        {
            "inputs": [
                {
                    "internalType": "address",
                    "name": "validator",
                    "type": "address"
                },
                {
                    "internalType": "address",
                    "name": "account",
                    "type": "address"
                }
            ],
            "name": "removeAuthority",
            "outputs": [],
            "stateMutability": "nonpayable",
            "type": "function"
        },
        {
            "inputs": [
                {
                    "internalType": "address",
                    "name": "targetContract",
                    "type": "address"
                },
                {
                    "internalType": "address",
                    "name": "to",
                    "type": "address"
                }
            ],
            "name": "removeAuthorization",
            "outputs": [],
            "stateMutability": "nonpayable",
            "type": "function"
        },
        {
            "inputs": [
                {
                    "internalType": "address",
                    "name": "targetContract",
                    "type": "address"
                },
                {
                    "internalType": "address",
                    "name": "to",
                    "type": "address"
                },
                {
                    "internalType": "bytes32",
                    "name": "parameter",
                    "type": "bytes32"
                },
                {
                    "internalType": "uint256",
                    "name": "data",
                    "type": "uint256"
                }
            ],
            "name": "removeAuthorizationAndModify",
            "outputs": [],
            "stateMutability": "nonpayable",
            "type": "function"
        },
        {
            "inputs": [
                {
                    "internalType": "address",
                    "name": "validator",
                    "type": "address"
                },
                {
                    "internalType": "address",
                    "name": "reader",
                    "type": "address"
                }
            ],
            "name": "removeReader",
            "outputs": [],
            "stateMutability": "nonpayable",
            "type": "function"
        },
        {
            "inputs": [
                {
                    "internalType": "address",
                    "name": "target",
                    "type": "address"
                },
                {
                    "internalType": "address",
                    "name": "dst",
                    "type": "address"
                },
                {
                    "internalType": "uint256",
                    "name": "amount",
                    "type": "uint256"
                }
            ],
            "name": "sendTokensToCustom",
            "outputs": [],
            "stateMutability": "nonpayable",
            "type": "function"
        },
        {
            "inputs": [
                {
                    "internalType": "address",
                    "name": "target",
                    "type": "address"
                },
                {
                    "internalType": "uint256",
                    "name": "id",
                    "type": "uint256"
                }
            ],
            "name": "sendTokensToDistributor",
            "outputs": [],
            "stateMutability": "nonpayable",
            "type": "function"
        },
        {
            "inputs": [
                {
                    "internalType": "address",
                    "name": "join",
                    "type": "address"
                },
                {
                    "internalType": "address",
                    "name": "account",
                    "type": "address"
                },
                {
                    "internalType": "uint256",
                    "name": "allowance",
                    "type": "uint256"
                }
            ],
            "name": "setAllowance",
            "outputs": [],
            "stateMutability": "nonpayable",
            "type": "function"
        },
        {
            "inputs": [
                {
                    "internalType": "address",
                    "name": "pause",
                    "type": "address"
                },
                {
                    "internalType": "address",
                    "name": "newAuthority",
                    "type": "address"
                }
            ],
            "name": "setAuthority",
            "outputs": [],
            "stateMutability": "nonpayable",
            "type": "function"
        },
        {
            "inputs": [
                {
                    "internalType": "address",
                    "name": "pause",
                    "type": "address"
                },
                {
                    "internalType": "address",
                    "name": "newAuthority",
                    "type": "address"
                },
                {
                    "internalType": "uint256",
                    "name": "newDelay",
                    "type": "uint256"
                }
            ],
            "name": "setAuthorityAndDelay",
            "outputs": [],
            "stateMutability": "nonpayable",
            "type": "function"
        },
        {
            "inputs": [
                {
                    "internalType": "address",
                    "name": "pause",
                    "type": "address"
                },
                {
                    "internalType": "uint256",
                    "name": "newDelay",
                    "type": "uint256"
                }
            ],
            "name": "setDelay",
            "outputs": [],
            "stateMutability": "nonpayable",
            "type": "function"
        },
        {
            "inputs": [
                {
                    "internalType": "address",
                    "name": "pause",
                    "type": "address"
                },
                {
                    "internalType": "uint256",
                    "name": "delayMultiplier",
                    "type": "uint256"
                }
            ],
            "name": "setDelayMultiplier",
            "outputs": [],
            "stateMutability": "nonpayable",
            "type": "function"
        },
        {
            "inputs": [
                {
                    "internalType": "address",
                    "name": "rateSetter",
                    "type": "address"
                },
                {
                    "internalType": "address",
                    "name": "oracleRelayer",
                    "type": "address"
                },
                {
                    "internalType": "address",
                    "name": "dummyValidator",
                    "type": "address"
                }
            ],
            "name": "setDummyPIDValidator",
            "outputs": [],
            "stateMutability": "nonpayable",
            "type": "function"
        },
        {
            "inputs": [
                {
                    "internalType": "address",
                    "name": "fsmGovInterface",
                    "type": "address"
                },
                {
                    "internalType": "bytes32",
                    "name": "collateralType",
                    "type": "bytes32"
                },
                {
                    "internalType": "address",
                    "name": "fsm",
                    "type": "address"
                }
            ],
            "name": "setFsm",
            "outputs": [],
            "stateMutability": "nonpayable",
            "type": "function"
        },
        {
            "inputs": [
                {
                    "internalType": "address",
                    "name": "target",
                    "type": "address"
                },
                {
                    "internalType": "uint256",
                    "name": "baseUpdateCallerReward",
                    "type": "uint256"
                },
                {
                    "internalType": "uint256",
                    "name": "maxUpdateCallerReward",
                    "type": "uint256"
                }
            ],
            "name": "setIncreasingRewardsParams",
            "outputs": [],
            "stateMutability": "nonpayable",
            "type": "function"
        },
        {
            "inputs": [
                {
                    "internalType": "address",
                    "name": "target",
                    "type": "address"
                },
                {
                    "internalType": "address",
                    "name": "treasury",
                    "type": "address"
                },
                {
                    "internalType": "uint256",
                    "name": "baseUpdateCallerReward",
                    "type": "uint256"
                },
                {
                    "internalType": "uint256",
                    "name": "maxUpdateCallerReward",
                    "type": "uint256"
                },
                {
                    "internalType": "uint256",
                    "name": "perBlockAllowance",
                    "type": "uint256"
                },
                {
                    "internalType": "uint256",
                    "name": "totalAllowance",
                    "type": "uint256"
                }
            ],
            "name": "setIncreasingRewardsParamsAndAllowances",
            "outputs": [],
            "stateMutability": "nonpayable",
            "type": "function"
        },
        {
            "inputs": [
                {
                    "internalType": "address",
                    "name": "target",
                    "type": "address"
                },
                {
                    "internalType": "bytes32",
                    "name": "collateralType",
                    "type": "bytes32"
                },
                {
                    "internalType": "uint256",
                    "name": "cRatio",
                    "type": "uint256"
                }
            ],
            "name": "setMinDesiredCollateralizationRatio",
            "outputs": [],
            "stateMutability": "nonpayable",
            "type": "function"
        },
        {
            "inputs": [
                {
                    "internalType": "address",
                    "name": "coin",
                    "type": "address"
                },
                {
                    "internalType": "string",
                    "name": "name",
                    "type": "string"
                }
            ],
            "name": "setName",
            "outputs": [],
            "stateMutability": "nonpayable",
            "type": "function"
        },
        {
            "inputs": [
                {
                    "internalType": "address",
                    "name": "pause",
                    "type": "address"
                },
                {
                    "internalType": "address",
                    "name": "owner",
                    "type": "address"
                }
            ],
            "name": "setOwner",
            "outputs": [],
            "stateMutability": "nonpayable",
            "type": "function"
        },
        {
            "inputs": [
                {
                    "internalType": "address",
                    "name": "targetContract",
                    "type": "address"
                },
                {
                    "internalType": "address",
                    "name": "account",
                    "type": "address"
                },
                {
                    "internalType": "uint256",
                    "name": "rad",
                    "type": "uint256"
                }
            ],
            "name": "setPerBlockAllowance",
            "outputs": [],
            "stateMutability": "nonpayable",
            "type": "function"
        },
        {
            "inputs": [
                {
                    "internalType": "address",
                    "name": "pause",
                    "type": "address"
                },
                {
                    "internalType": "address",
                    "name": "protester",
                    "type": "address"
                }
            ],
            "name": "setProtester",
            "outputs": [],
            "stateMutability": "nonpayable",
            "type": "function"
        },
        {
            "inputs": [
                {
                    "internalType": "address",
                    "name": "coin",
                    "type": "address"
                },
                {
                    "internalType": "string",
                    "name": "symbol",
                    "type": "string"
                }
            ],
            "name": "setSymbol",
            "outputs": [],
            "stateMutability": "nonpayable",
            "type": "function"
        },
        {
            "inputs": [
                {
                    "internalType": "address",
                    "name": "targetContract",
                    "type": "address"
                },
                {
                    "internalType": "address",
                    "name": "account",
                    "type": "address"
                },
                {
                    "internalType": "uint256",
                    "name": "rad",
                    "type": "uint256"
                }
            ],
            "name": "setTotalAllowance",
            "outputs": [],
            "stateMutability": "nonpayable",
            "type": "function"
        },
        {
            "inputs": [
                {
                    "internalType": "address",
                    "name": "globalSettlement",
                    "type": "address"
                }
            ],
            "name": "shutdownSystem",
            "outputs": [],
            "stateMutability": "nonpayable",
            "type": "function"
        },
        {
            "inputs": [
                {
                    "internalType": "address",
                    "name": "fsm",
                    "type": "address"
                }
            ],
            "name": "start",
            "outputs": [],
            "stateMutability": "nonpayable",
            "type": "function"
        },
        {
            "inputs": [
                {
                    "internalType": "address",
                    "name": "fsmGovInterface",
                    "type": "address"
                },
                {
                    "internalType": "bytes32",
                    "name": "collateralType",
                    "type": "bytes32"
                }
            ],
            "name": "stopFsm",
            "outputs": [],
            "stateMutability": "nonpayable",
            "type": "function"
        },
        {
            "inputs": [
                {
                    "internalType": "address",
                    "name": "targetContract",
                    "type": "address"
                },
                {
                    "internalType": "uint256",
                    "name": "start",
                    "type": "uint256"
                },
                {
                    "internalType": "uint256",
                    "name": "end",
                    "type": "uint256"
                },
                {
                    "internalType": "bytes32",
                    "name": "parameter",
                    "type": "bytes32"
                },
                {
                    "internalType": "uint256",
                    "name": "data",
                    "type": "uint256"
                }
            ],
            "name": "taxManyAndModifyParameters",
            "outputs": [],
            "stateMutability": "nonpayable",
            "type": "function"
        },
        {
            "inputs": [
                {
                    "internalType": "address",
                    "name": "targetContract",
                    "type": "address"
                },
                {
                    "internalType": "bytes32",
                    "name": "collateralType",
                    "type": "bytes32"
                },
                {
                    "internalType": "bytes32",
                    "name": "parameter",
                    "type": "bytes32"
                },
                {
                    "internalType": "uint256",
                    "name": "data",
                    "type": "uint256"
                }
            ],
            "name": "taxSingleAndModifyParameters",
            "outputs": [],
            "stateMutability": "nonpayable",
            "type": "function"
        },
        {
            "inputs": [
                {
                    "internalType": "address",
                    "name": "targetContract",
                    "type": "address"
                },
                {
                    "internalType": "address",
                    "name": "saviour",
                    "type": "address"
                }
            ],
            "name": "toggleSaviour",
            "outputs": [],
            "stateMutability": "nonpayable",
            "type": "function"
        },
        {
            "inputs": [
                {
                    "internalType": "address",
                    "name": "targetContract",
                    "type": "address"
                },
                {
                    "internalType": "address",
                    "name": "token",
                    "type": "address"
                },
                {
                    "internalType": "address",
                    "name": "receiver",
                    "type": "address"
                },
                {
                    "internalType": "uint256",
                    "name": "amount",
                    "type": "uint256"
                }
            ],
            "name": "transferTokenOut",
            "outputs": [],
            "stateMutability": "nonpayable",
            "type": "function"
        },
        {
            "inputs": [
                {
                    "internalType": "address",
                    "name": "targetContract",
                    "type": "address"
                },
                {
                    "internalType": "bytes32",
                    "name": "parameter",
                    "type": "bytes32"
                },
                {
                    "internalType": "uint256",
                    "name": "data",
                    "type": "uint256"
                }
            ],
            "name": "updateRateAndModifyParameters",
            "outputs": [],
            "stateMutability": "nonpayable",
            "type": "function"
        },
        {
            "inputs": [
                {
                    "internalType": "address",
                    "name": "targetContract",
                    "type": "address"
                },
                {
                    "internalType": "bytes32",
                    "name": "parameter",
                    "type": "bytes32"
                },
                {
                    "internalType": "uint256",
                    "name": "data",
                    "type": "uint256"
                }
            ],
            "name": "updateRedemptionRate",
            "outputs": [],
            "stateMutability": "nonpayable",
            "type": "function"
        },
        {
            "inputs": [
                {
                    "internalType": "address",
                    "name": "target",
                    "type": "address"
                },
                {
                    "internalType": "uint256",
                    "name": "result",
                    "type": "uint256"
                }
            ],
            "name": "updateResult",
            "outputs": [],
            "stateMutability": "nonpayable",
            "type": "function"
        }
    ],
    "bytecode": {
        "object": "0x608060405234801561001057600080fd5b5061301b806100206000396000f3fe608060405234801561001057600080fd5b50600436106103ba5760003560e01c8063801b67fd116101f4578063cd4f191b1161011a578063ecf987ef116100ad578063f74b020c1161007c578063f74b020c14611167578063f7788dc6146111a3578063f98e426a146111d5578063fe71d56d1461120b576103ba565b8063ecf987ef1461109b578063f35a75e0146110cd578063f4922c1a14611105578063f6b911bc14611131576103ba565b8063e1d936f8116100e9578063e1d936f814610f5b578063e7796f331461100f578063eb40b4251461103d578063eb57563a14611069576103ba565b8063cd4f191b14610e9d578063d9c6f87614610ec9578063da46098c14610eff578063dd0b281e14610f35576103ba565b8063af5baa1411610192578063bbcf1a5d11610161578063bbcf1a5d14610dd3578063c2c7986714610e01578063c6c3bbe614610e39578063c9cf6de714610e6f576103ba565b8063af5baa1414610c1a578063b66503cf14610c46578063baf9d07b14610c72578063bbbb704c14610ca0576103ba565b806396869ded116101ce57806396869ded14610b3b5780639bc8c65714610b90578063a154ce8214610bc6578063a27473c814610bec576103ba565b8063801b67fd14610a9f5780638eb0ee6014610ad757806396074fd214610b0d576103ba565b80634483c924116102e4578063671384fa1161027757806372a611781161024657806372a61178146109ad57806373986106146109f5578063764838c514610a2d5780637eb711df14610a69576103ba565b8063671384fa146108b95780636d21e4e2146108fb5780636ea83dd3146109275780636f64a97d1461096f576103ba565b80635dac5682116102b35780635dac5682146107ed5780635dadd57a1461081b5780636672b137146108555780636689243014610887576103ba565b80634483c92414610717578063485035681461075f578063505f74f11461078d5780635622b051146107bf576103ba565b80632b0466c51161035c57806332dc77231161032b57806332dc772314610653578063352e1a851461068157806339f8c5bb146106b3578063434eff7f146106df576103ba565b80632b0466c5146105195780632b8e88b31461054b5780633013f41e146105795780633121db1c1461059f576103ba565b80631693769b116103985780631693769b146104575780631cdcb5ce14610493578063284372e8146104bf578063299a7bcc146104eb576103ba565b806303cb351c146103bf57806308eb17f5146103f757806310c6309914610429575b600080fd5b6103f5600480360360608110156103d557600080fd5b506001600160a01b03813581169160208101359091169060400135611247565b005b6103f56004803603606081101561040d57600080fd5b506001600160a01b0381351690602081013590604001356112c4565b6103f56004803603604081101561043f57600080fd5b506001600160a01b0381358116916020013516611365565b6103f56004803603608081101561046d57600080fd5b506001600160a01b038135811691602081013590911690604081013590606001356113d9565b6103f5600480360360408110156104a957600080fd5b506001600160a01b038135169060200135611450565b6103f5600480360360408110156104d557600080fd5b506001600160a01b038135169060200135611496565b6103f56004803603604081101561050157600080fd5b506001600160a01b03813581169160200135166114dc565b6103f56004803603606081101561052f57600080fd5b506001600160a01b038135169060208101359060400135611534565b6103f56004803603604081101561056157600080fd5b506001600160a01b0381358116916020013516611582565b6103f56004803603602081101561058f57600080fd5b50356001600160a01b03166115da565b6103f5600480360360408110156105b557600080fd5b6001600160a01b038235169190810190604081016020820135600160201b8111156105df57600080fd5b8201836020820111156105f157600080fd5b803590602001918460018302840111600160201b8311171561061257600080fd5b91908080601f016020809104026020016040519081016040528093929190818152602001838380828437600092019190915250929550611630945050505050565b6103f56004803603604081101561066957600080fd5b506001600160a01b03813581169160200135166116d6565b6103f56004803603606081101561069757600080fd5b506001600160a01b03813516906020810135906040013561172e565b6103f5600480360360408110156106c957600080fd5b506001600160a01b03813516906020013561177c565b6103f5600480360360808110156106f557600080fd5b506001600160a01b0381351690602081013590604081013590606001356117c2565b6103f5600480360360c081101561072d57600080fd5b506001600160a01b03813581169160208101359091169060408101359060608101359060808101359060a00135611818565b6103f56004803603604081101561077557600080fd5b506001600160a01b0381358116916020013516611a0d565b6103f5600480360360608110156107a357600080fd5b506001600160a01b038135169060208101359060400135611a65565b6103f5600480360360408110156107d557600080fd5b506001600160a01b0381358116916020013516611ab3565b6103f56004803603604081101561080357600080fd5b506001600160a01b0381358116916020013516611b0b565b6103f56004803603608081101561083157600080fd5b506001600160a01b0381358116916020810135916040820135916060013516611b63565b6103f56004803603606081101561086b57600080fd5b506001600160a01b038135169060208101359060400135611bbc565b6103f56004803603606081101561089d57600080fd5b506001600160a01b038135169060208101359060400135611cd4565b6103f5600480360360a08110156108cf57600080fd5b506001600160a01b03813581169160208101359160408201359160608101359160809091013516611d22565b6103f56004803603604081101561091157600080fd5b506001600160a01b038135169060200135611da1565b6103f5600480360360c081101561093d57600080fd5b506001600160a01b03813581169160208101359091169060408101359060608101359060808101359060a00135611de7565b6103f5600480360360a081101561098557600080fd5b506001600160a01b038135169060208101359060408101359060608101359060800135611e9b565b6103f5600480360360c08110156109c357600080fd5b506001600160a01b03813581169160208101359091169060408101359060608101359060808101359060a00135611f4f565b6103f560048036036080811015610a0b57600080fd5b506001600160a01b038135169060208101359060408101359060600135612003565b6103f560048036036080811015610a4357600080fd5b506001600160a01b03813581169160208101358216916040820135169060600135612059565b6103f560048036036060811015610a7f57600080fd5b506001600160a01b038135811691602081013591604090910135166120b3565b6103f560048036036080811015610ab557600080fd5b506001600160a01b038135169060208101359060408101359060600135612113565b6103f560048036036060811015610aed57600080fd5b506001600160a01b03813581169160208101359160409091013516612169565b6103f560048036036040811015610b2357600080fd5b506001600160a01b03813581169160200135166121c9565b6103f56004803603610100811015610b5257600080fd5b506001600160a01b03813581169160208101359091169060408101359060608101359060808101359060a08101359060c08101359060e00135612221565b6103f560048036036060811015610ba657600080fd5b506001600160a01b03813581169160208101359091169060400135612307565b6103f560048036036020811015610bdc57600080fd5b50356001600160a01b0316612367565b6103f560048036036040811015610c0257600080fd5b506001600160a01b03813581169160200135166123a2565b6103f560048036036040811015610c3057600080fd5b506001600160a01b0381351690602001356123fa565b6103f560048036036040811015610c5c57600080fd5b506001600160a01b038135169060200135612440565b6103f560048036036040811015610c8857600080fd5b506001600160a01b0381358116916020013516612486565b6103f560048036036060811015610cb657600080fd5b6001600160a01b038235169190810190604081016020820135600160201b811115610ce057600080fd5b820183602082011115610cf257600080fd5b803590602001918460208302840111600160201b83111715610d1357600080fd5b9190808060200260200160405190810160405280939291908181526020018383602002808284376000920191909152509295949360208101935035915050600160201b811115610d6257600080fd5b820183602082011115610d7457600080fd5b803590602001918460208302840111600160201b83111715610d9557600080fd5b9190808060200260200160405190810160405280939291908181526020018383602002808284376000920191909152509295506124de945050505050565b6103f560048036036040811015610de957600080fd5b506001600160a01b038135811691602001351661259a565b6103f560048036036060811015610e1757600080fd5b506001600160a01b0381358116916020810135821691604090910135166125f2565b6103f560048036036060811015610e4f57600080fd5b506001600160a01b03813581169160208101359091169060400135612727565b6103f560048036036040811015610e8557600080fd5b506001600160a01b0381358116916020013516612787565b6103f560048036036040811015610eb357600080fd5b506001600160a01b0381351690602001356127df565b6103f560048036036060811015610edf57600080fd5b506001600160a01b03813581169160208101359091169060400135612825565b6103f560048036036060811015610f1557600080fd5b506001600160a01b038135811691602081013590911690604001356128db565b6103f560048036036020811015610f4b57600080fd5b50356001600160a01b031661293b565b6103f560048036036040811015610f7157600080fd5b6001600160a01b038235169190810190604081016020820135600160201b811115610f9b57600080fd5b820183602082011115610fad57600080fd5b803590602001918460018302840111600160201b83111715610fce57600080fd5b91908080601f016020809104026020016040519081016040528093929190818152602001838380828437600092019190915250929550612976945050505050565b6103f56004803603604081101561102557600080fd5b506001600160a01b03813581169160200135166129cd565b6103f56004803603604081101561105357600080fd5b506001600160a01b038135169060200135612a25565b6103f56004803603606081101561107f57600080fd5b506001600160a01b038135169060208101359060400135612a6b565b6103f5600480360360608110156110b157600080fd5b506001600160a01b038135169060208101359060400135612aa6565b6103f5600480360360808110156110e357600080fd5b506001600160a01b038135169060208101359060408101359060600135612af4565b6103f56004803603604081101561111b57600080fd5b506001600160a01b038135169060200135612ba8565b6103f56004803603606081101561114757600080fd5b506001600160a01b03813581169160208101359091169060400135612bee565b6103f56004803603608081101561117d57600080fd5b506001600160a01b03813581169160208101359091169060408101359060600135612c4e565b6103f5600480360360608110156111b957600080fd5b506001600160a01b038135169060208101359060400135612d0c565b6103f5600480360360608110156111eb57600080fd5b506001600160a01b03813581169160208101359091169060400135612df1565b6103f56004803603608081101561122157600080fd5b506001600160a01b03813581169160208101359091169060408101359060600135612e51565b826001600160a01b0316633d285a6f83836040518363ffffffff1660e01b815260040180836001600160a01b03166001600160a01b0316815260200182815260200192505050600060405180830381600087803b1580156112a757600080fd5b505af11580156112bb573d6000803e3d6000fd5b50505050505050565b826001600160a01b03166364dbfd816040518163ffffffff1660e01b8152600401600060405180830381600087803b1580156112ff57600080fd5b505af1158015611313573d6000803e3d6000fd5b50505050826001600160a01b031663fe4f589083836040518363ffffffff1660e01b81526004018083815260200182815260200192505050600060405180830381600087803b1580156112a757600080fd5b816001600160a01b031663960e2101826040518263ffffffff1660e01b815260040180826001600160a01b03166001600160a01b03168152602001915050600060405180830381600087803b1580156113bd57600080fd5b505af11580156113d1573d6000803e3d6000fd5b505050505050565b604080516319fb4a8f60e31b81526001600160a01b038581166004830152602482018590526044820184905291519186169163cfda54789160648082019260009290919082900301818387803b15801561143257600080fd5b505af1158015611446573d6000803e3d6000fd5b5050505050505050565b816001600160a01b0316631d70e433826040518263ffffffff1660e01b815260040180828152602001915050600060405180830381600087803b1580156113bd57600080fd5b816001600160a01b031663bee9cd81826040518263ffffffff1660e01b815260040180828152602001915050600060405180830381600087803b1580156113bd57600080fd5b816001600160a01b03166313af4035826040518263ffffffff1660e01b815260040180826001600160a01b03166001600160a01b03168152602001915050600060405180830381600087803b1580156113bd57600080fd5b826001600160a01b0316636611ac3583836040518363ffffffff1660e01b81526004018083815260200182815260200192505050600060405180830381600087803b1580156112a757600080fd5b816001600160a01b03166338d65d11826040518263ffffffff1660e01b815260040180826001600160a01b03166001600160a01b03168152602001915050600060405180830381600087803b1580156113bd57600080fd5b806001600160a01b031663354af9196040518163ffffffff1660e01b8152600401600060405180830381600087803b15801561161557600080fd5b505af1158015611629573d6000803e3d6000fd5b5050505050565b60405163c47f002760e01b81526020600482018181528351602484015283516001600160a01b0386169363c47f00279386939283926044019185019080838360005b8381101561168a578181015183820152602001611672565b50505050905090810190601f1680156116b75780820380516001836020036101000a031916815260200191505b5092505050600060405180830381600087803b1580156113bd57600080fd5b816001600160a01b031663c315fc6a826040518263ffffffff1660e01b815260040180826001600160a01b03166001600160a01b03168152602001915050600060405180830381600087803b1580156113bd57600080fd5b826001600160a01b0316633cdaf64b83836040518363ffffffff1660e01b81526004018083815260200182815260200192505050600060405180830381600087803b1580156112a757600080fd5b816001600160a01b0316635e412858826040518263ffffffff1660e01b815260040180828152602001915050600060405180830381600087803b1580156113bd57600080fd5b836001600160a01b031663d4b9311d8484846040518463ffffffff1660e01b8152600401808481526020018381526020018281526020019350505050600060405180830381600087803b15801561143257600080fd5b856001600160a01b031663fe4f5890856040518263ffffffff1660e01b815260040180807518985cd9555c19185d1950d85b1b195c94995dd85c9960521b815250602001828152602001915050600060405180830381600087803b15801561187f57600080fd5b505af1158015611893573d6000803e3d6000fd5b50505050856001600160a01b031663fe4f5890846040518263ffffffff1660e01b81526004018080741b585e155c19185d1950d85b1b195c94995dd85c99605a1b815250602001828152602001915050600060405180830381600087803b1580156118fd57600080fd5b505af1158015611911573d6000803e3d6000fd5b50505050846001600160a01b0316633d285a6f87846040518363ffffffff1660e01b815260040180836001600160a01b03166001600160a01b0316815260200182815260200192505050600060405180830381600087803b15801561197557600080fd5b505af1158015611989573d6000803e3d6000fd5b50505050846001600160a01b03166343e9c6b087836040518363ffffffff1660e01b815260040180836001600160a01b03166001600160a01b0316815260200182815260200192505050600060405180830381600087803b1580156119ed57600080fd5b505af1158015611a01573d6000803e3d6000fd5b50505050505050505050565b816001600160a01b031663afd8b1d1826040518263ffffffff1660e01b815260040180826001600160a01b03166001600160a01b03168152602001915050600060405180830381600087803b1580156113bd57600080fd5b826001600160a01b0316639b06c41883836040518363ffffffff1660e01b81526004018083815260200182815260200192505050600060405180830381600087803b1580156112a757600080fd5b816001600160a01b0316633fcdfe26826040518263ffffffff1660e01b815260040180826001600160a01b03166001600160a01b03168152602001915050600060405180830381600087803b1580156113bd57600080fd5b816001600160a01b03166394f3f81d826040518263ffffffff1660e01b815260040180826001600160a01b03166001600160a01b03168152602001915050600060405180830381600087803b1580156113bd57600080fd5b6040805163289d1edd60e11b815260048101859052602481018490526001600160a01b03838116604483015291519186169163513a3dba9160648082019260009290919082900301818387803b15801561143257600080fd5b826001600160a01b0316633cdaf64b83836040518363ffffffff1660e01b81526004018083815260200182815260200192505050600060405180830381600087803b158015611c0a57600080fd5b505af1158015611c1e573d6000803e3d6000fd5b50505050826001600160a01b0316631d70e433846001600160a01b031663affed0e06040518163ffffffff1660e01b815260040160206040518083038186803b158015611c6a57600080fd5b505afa158015611c7e573d6000803e3d6000fd5b505050506040513d6020811015611c9457600080fd5b5051604080516001600160e01b031960e085901b168152600481019290925251602480830192600092919082900301818387803b1580156112a757600080fd5b826001600160a01b031663610a714a83836040518363ffffffff1660e01b81526004018083815260200182815260200192505050600060405180830381600087803b1580156112a757600080fd5b604080516324341e0160e01b81526004810186905260248101859052604481018490526001600160a01b0383811660648301529151918716916324341e019160848082019260009290919082900301818387803b158015611d8257600080fd5b505af1158015611d96573d6000803e3d6000fd5b505050505050505050565b816001600160a01b031663e177246e826040518263ffffffff1660e01b815260040180828152602001915050600060405180830381600087803b1580156113bd57600080fd5b856001600160a01b031663fe4f589085846040518363ffffffff1660e01b81526004018083815260200182815260200192505050600060405180830381600087803b158015611e3557600080fd5b505af1158015611e49573d6000803e3d6000fd5b50505050846001600160a01b031663fe4f589084836040518363ffffffff1660e01b81526004018083815260200182815260200192505050600060405180830381600087803b1580156119ed57600080fd5b846001600160a01b031663e372ee4485856040518363ffffffff1660e01b81526004018083815260200182815260200192505050600060405180830381600087803b158015611ee957600080fd5b505af1158015611efd573d6000803e3d6000fd5b50505050846001600160a01b031663fe4f589083836040518363ffffffff1660e01b81526004018083815260200182815260200192505050600060405180830381600087803b158015611d8257600080fd5b856001600160a01b031663610a714a85846040518363ffffffff1660e01b81526004018083815260200182815260200192505050600060405180830381600087803b158015611f9d57600080fd5b505af1158015611fb1573d6000803e3d6000fd5b50505050846001600160a01b031663610a714a84836040518363ffffffff1660e01b81526004018083815260200182815260200192505050600060405180830381600087803b1580156119ed57600080fd5b836001600160a01b031663555ec74f8484846040518463ffffffff1660e01b8152600401808481526020018381526020018281526020019350505050600060405180830381600087803b15801561143257600080fd5b6040805163c15ded6760e01b81526001600160a01b03858116600483015284811660248301526044820184905291519186169163c15ded679160648082019260009290919082900301818387803b15801561143257600080fd5b826001600160a01b03166366428efd83836040518363ffffffff1660e01b815260040180838152602001826001600160a01b03166001600160a01b0316815260200192505050600060405180830381600087803b1580156112a757600080fd5b836001600160a01b0316637edf9f4f8484846040518463ffffffff1660e01b8152600401808481526020018381526020018281526020019350505050600060405180830381600087803b15801561143257600080fd5b826001600160a01b0316636614f01083836040518363ffffffff1660e01b815260040180838152602001826001600160a01b03166001600160a01b0316815260200192505050600060405180830381600087803b1580156112a757600080fd5b816001600160a01b0316634faeff1d826040518263ffffffff1660e01b815260040180826001600160a01b03166001600160a01b03168152602001915050600060405180830381600087803b1580156113bd57600080fd5b876001600160a01b031663d4b9311d8786856040518463ffffffff1660e01b8152600401808481526020018381526020018281526020019350505050600060405180830381600087803b15801561227757600080fd5b505af115801561228b573d6000803e3d6000fd5b50505050866001600160a01b031663d4b9311d8685846040518463ffffffff1660e01b8152600401808481526020018381526020018281526020019350505050600060405180830381600087803b1580156122e557600080fd5b505af11580156122f9573d6000803e3d6000fd5b505050505050505050505050565b826001600160a01b03166343e9c6b083836040518363ffffffff1660e01b815260040180836001600160a01b03166001600160a01b0316815260200182815260200192505050600060405180830381600087803b1580156112a757600080fd5b806001600160a01b031663894ba8336040518163ffffffff1660e01b8152600401600060405180830381600087803b15801561161557600080fd5b816001600160a01b031663d544e010826040518263ffffffff1660e01b815260040180826001600160a01b03166001600160a01b03168152602001915050600060405180830381600087803b1580156113bd57600080fd5b816001600160a01b031663ef381cc5826040518263ffffffff1660e01b815260040180828152602001915050600060405180830381600087803b1580156113bd57600080fd5b816001600160a01b0316633c6b16ab826040518263ffffffff1660e01b815260040180828152602001915050600060405180830381600087803b1580156113bd57600080fd5b816001600160a01b03166335b28153826040518263ffffffff1660e01b815260040180826001600160a01b03166001600160a01b03168152602001915050600060405180830381600087803b1580156113bd57600080fd5b60005b825181101561259457836001600160a01b031663310ec4a784838151811061250557fe5b602002602001015184848151811061251957fe5b60200260200101516040518363ffffffff1660e01b815260040180836001600160a01b03166001600160a01b0316815260200182815260200192505050600060405180830381600087803b15801561257057600080fd5b505af1158015612584573d6000803e3d6000fd5b5050600190920191506124e19050565b50505050565b816001600160a01b03166326defa73826040518263ffffffff1660e01b815260040180826001600160a01b03166001600160a01b03168152602001915050600060405180830381600087803b1580156113bd57600080fd5b604080516306614f0160e41b81526b3834b22b30b634b230ba37b960a11b60048201526001600160a01b038381166024830152915191851691636614f0109160448082019260009290919082900301818387803b15801561265257600080fd5b505af1158015612666573d6000803e3d6000fd5b50505050816001600160a01b031663c5b748c06040518163ffffffff1660e01b8152600401600060405180830381600087803b1580156126a557600080fd5b505af11580156126b9573d6000803e3d6000fd5b505060408051630fe4f58960e41b81526d726564656d7074696f6e5261746560901b60048201526b033b2e3c9fd0803ce8000000602482015290516001600160a01b038616935063fe4f58909250604480830192600092919082900301818387803b1580156112a757600080fd5b826001600160a01b03166340c10f1983836040518363ffffffff1660e01b815260040180836001600160a01b03166001600160a01b0316815260200182815260200192505050600060405180830381600087803b1580156112a757600080fd5b816001600160a01b03166395ffa802826040518263ffffffff1660e01b815260040180826001600160a01b03166001600160a01b03168152602001915050600060405180830381600087803b1580156113bd57600080fd5b816001600160a01b03166332c6a793826040518263ffffffff1660e01b815260040180828152602001915050600060405180830381600087803b1580156113bd57600080fd5b826001600160a01b0316637a9e5e4b836040518263ffffffff1660e01b815260040180826001600160a01b03166001600160a01b03168152602001915050600060405180830381600087803b15801561287d57600080fd5b505af1158015612891573d6000803e3d6000fd5b50505050826001600160a01b031663e177246e826040518263ffffffff1660e01b815260040180828152602001915050600060405180830381600087803b1580156112a757600080fd5b826001600160a01b031663310ec4a783836040518363ffffffff1660e01b815260040180836001600160a01b03166001600160a01b0316815260200182815260200192505050600060405180830381600087803b1580156112a757600080fd5b806001600160a01b031663be9a65556040518163ffffffff1660e01b8152600401600060405180830381600087803b15801561161557600080fd5b604051635c26412360e11b81526020600482018181528351602484015283516001600160a01b0386169363b84c8246938693928392604401918501908083836000831561168a578181015183820152602001611672565b816001600160a01b0316637a9e5e4b826040518263ffffffff1660e01b815260040180826001600160a01b03166001600160a01b03168152602001915050600060405180830381600087803b1580156113bd57600080fd5b816001600160a01b0316638eacff5d826040518263ffffffff1660e01b815260040180828152602001915050600060405180830381600087803b1580156113bd57600080fd5b826001600160a01b031663c5b748c06040518163ffffffff1660e01b8152600401600060405180830381600087803b1580156112ff57600080fd5b826001600160a01b031663fe4f589083836040518363ffffffff1660e01b81526004018083815260200182815260200192505050600060405180830381600087803b1580156112a757600080fd5b836001600160a01b0316636c50dbba846040518263ffffffff1660e01b815260040180828152602001915050600060405180830381600087803b158015612b3a57600080fd5b505af1158015612b4e573d6000803e3d6000fd5b50505050836001600160a01b031663d4b9311d8484846040518463ffffffff1660e01b8152600401808481526020018381526020018281526020019350505050600060405180830381600087803b15801561143257600080fd5b816001600160a01b03166382dcc26d826040518263ffffffff1660e01b815260040180828152602001915050600060405180830381600087803b1580156113bd57600080fd5b826001600160a01b0316639dc29fac83836040518363ffffffff1660e01b815260040180836001600160a01b03166001600160a01b0316815260200182815260200192505050600060405180830381600087803b1580156112a757600080fd5b836001600160a01b03166394f3f81d846040518263ffffffff1660e01b815260040180826001600160a01b03166001600160a01b03168152602001915050600060405180830381600087803b158015612ca657600080fd5b505af1158015612cba573d6000803e3d6000fd5b50505050836001600160a01b031663fe4f589083836040518363ffffffff1660e01b81526004018083815260200182815260200192505050600060405180830381600087803b15801561143257600080fd5b826001600160a01b031663fe4f5890836040518263ffffffff1660e01b815260040180807518985cd9555c19185d1950d85b1b195c94995dd85c9960521b815250602001828152602001915050600060405180830381600087803b158015612d7357600080fd5b505af1158015612d87573d6000803e3d6000fd5b50505050826001600160a01b031663fe4f5890826040518263ffffffff1660e01b81526004018080741b585e155c19185d1950d85b1b195c94995dd85c99605a1b815250602001828152602001915050600060405180830381600087803b1580156112a757600080fd5b826001600160a01b0316631f1e9f2683836040518363ffffffff1660e01b815260040180836001600160a01b03166001600160a01b0316815260200182815260200192505050600060405180830381600087803b1580156112a757600080fd5b604080516319fb4a8f60e31b81526001600160a01b038581166004830152602482018590526044820184905291519186169163cfda54789160648082019260009290919082900301818387803b158015612eaa57600080fd5b505af1158015612ebe573d6000803e3d6000fd5b505050506000612f33856001600160a01b0316631853a9a66040518163ffffffff1660e01b815260040160206040518083038186803b158015612f0057600080fd5b505afa158015612f14573d6000803e3d6000fd5b505050506040513d6020811015612f2a57600080fd5b50516001612f7b565b9050846001600160a01b0316633c6b16ab826040518263ffffffff1660e01b815260040180828152602001915050600060405180830381600087803b158015611d8257600080fd5b80820382811115612fbd5760405162461bcd60e51b8152600401808060200182810382526022815260200180612fc46022913960400191505060405180910390fd5b9291505056fe476f76416374696f6e732f7375622d75696e742d75696e742d756e646572666c6f77a26469706673582212207594829f43dfb5c740f25ef5009c4c2cdbce8153dff9549684eb821fdaa5653864736f6c63430006070033",
        "linkReferences": {}
    },
    "methodIdentifiers": {
        "addAuthority(address,address)": "bbcf1a5d",
        "addAuthorization(address,address)": "baf9d07b",
        "addReader(address,address)": "48503568",
        "burn(address,address,uint256)": "f6b911bc",
        "changeNextPriceDeviation(address,uint256)": "af5baa14",
        "changePriceSource(address,address)": "5622b051",
        "connectSAFESaviour(address,address)": "c9cf6de7",
        "deploy(address,address,uint256,uint256)": "1693769b",
        "deployAndNotifyRewardAmount(address,address,uint256,uint256)": "fe71d56d",
        "deployDistributor(address,bytes32,uint256)": "352e1a85",
        "deployDistributorAndSendTokens(address,bytes32,uint256)": "6672b137",
        "disableContract(address)": "a154ce82",
        "disconnectSAFESaviour(address,address)": "96074fd2",
        "dropDistributorAuth(address,uint256)": "284372e8",
        "getBackTokensFromDistributor(address,uint256,uint256)": "2b0466c5",
        "initializeCollateralType(address,bytes32)": "39f8c5bb",
        "mint(address,address,uint256)": "c6c3bbe6",
        "modifyParameters(address,bytes32,address)": "8eb0ee60",
        "modifyParameters(address,bytes32,bytes32,address)": "5dadd57a",
        "modifyParameters(address,bytes32,bytes32,uint256)": "434eff7f",
        "modifyParameters(address,bytes32,int256)": "66892430",
        "modifyParameters(address,bytes32,uint256)": "ecf987ef",
        "modifyParameters(address,bytes32,uint256,uint256)": "73986106",
        "modifyParameters(address,bytes32,uint256,uint256,address)": "671384fa",
        "modifyParameters(address,uint256,bytes32,uint256)": "801b67fd",
        "modifyTwoParameters(address,address,bytes32,bytes32,bytes32,bytes32,uint256,uint256)": "96869ded",
        "modifyTwoParameters(address,address,bytes32,bytes32,int256,int256)": "72a61178",
        "modifyTwoParameters(address,address,bytes32,bytes32,uint256,uint256)": "6ea83dd3",
        "multiSetAllowance(address,address[],uint256[])": "bbbb704c",
        "notifyRewardAmount(address,uint256)": "b66503cf",
        "removeAuthority(address,address)": "a27473c8",
        "removeAuthorization(address,address)": "5dac5682",
        "removeAuthorizationAndModify(address,address,bytes32,uint256)": "f74b020c",
        "removeReader(address,address)": "2b8e88b3",
        "sendTokensToCustom(address,address,uint256)": "f98e426a",
        "sendTokensToDistributor(address,uint256)": "1cdcb5ce",
        "setAllowance(address,address,uint256)": "da46098c",
        "setAuthority(address,address)": "e7796f33",
        "setAuthorityAndDelay(address,address,uint256)": "d9c6f876",
        "setDelay(address,uint256)": "6d21e4e2",
        "setDelayMultiplier(address,uint256)": "eb40b425",
        "setDummyPIDValidator(address,address,address)": "c2c79867",
        "setFsm(address,bytes32,address)": "7eb711df",
        "setIncreasingRewardsParams(address,uint256,uint256)": "f7788dc6",
        "setIncreasingRewardsParamsAndAllowances(address,address,uint256,uint256,uint256,uint256)": "4483c924",
        "setMinDesiredCollateralizationRatio(address,bytes32,uint256)": "505f74f1",
        "setName(address,string)": "3121db1c",
        "setOwner(address,address)": "299a7bcc",
        "setPerBlockAllowance(address,address,uint256)": "03cb351c",
        "setProtester(address,address)": "32dc7723",
        "setSymbol(address,string)": "e1d936f8",
        "setTotalAllowance(address,address,uint256)": "9bc8c657",
        "shutdownSystem(address)": "3013f41e",
        "start(address)": "dd0b281e",
        "stopFsm(address,bytes32)": "cd4f191b",
        "taxManyAndModifyParameters(address,uint256,uint256,bytes32,uint256)": "6f64a97d",
        "taxSingleAndModifyParameters(address,bytes32,bytes32,uint256)": "f35a75e0",
        "toggleSaviour(address,address)": "10c63099",
        "transferTokenOut(address,address,address,uint256)": "764838c5",
        "updateRateAndModifyParameters(address,bytes32,uint256)": "08eb17f5",
        "updateRedemptionRate(address,bytes32,uint256)": "eb57563a",
        "updateResult(address,uint256)": "f4922c1a"
    },
    "id": 23
}