{
    "abi": [
        {
            "inputs": [
                {
                    "internalType": "address",
                    "name": "safeEngine_",
                    "type": "address"
                },
                {
                    "internalType": "bytes32",
                    "name": "collateralType_",
                    "type": "bytes32"
                }
            ],
            "stateMutability": "nonpayable",
            "type": "constructor"
        },
        {
            "anonymous": false,
            "inputs": [
                {
                    "indexed": false,
                    "internalType": "address",
                    "name": "account",
                    "type": "address"
                }
            ],
            "name": "AddAuthorization",
            "type": "event"
        },
        {
            "anonymous": false,
            "inputs": [],
            "name": "DisableContract",
            "type": "event"
        },
        {
            "anonymous": false,
            "inputs": [
                {
                    "indexed": false,
                    "internalType": "address",
                    "name": "sender",
                    "type": "address"
                },
                {
                    "indexed": false,
                    "internalType": "address",
                    "name": "account",
                    "type": "address"
                },
                {
                    "indexed": false,
                    "internalType": "uint256",
                    "name": "wad",
                    "type": "uint256"
                }
            ],
            "name": "Exit",
            "type": "event"
        },
        {
            "anonymous": false,
            "inputs": [
                {
                    "indexed": false,
                    "internalType": "address",
                    "name": "sender",
                    "type": "address"
                },
                {
                    "indexed": false,
                    "internalType": "address",
                    "name": "account",
                    "type": "address"
                },
                {
                    "indexed": false,
                    "internalType": "uint256",
                    "name": "wad",
                    "type": "uint256"
                }
            ],
            "name": "Join",
            "type": "event"
        },
        {
            "anonymous": false,
            "inputs": [
                {
                    "indexed": false,
                    "internalType": "address",
                    "name": "account",
                    "type": "address"
                }
            ],
            "name": "RemoveAuthorization",
            "type": "event"
        },
        {
            "inputs": [
                {
                    "internalType": "address",
                    "name": "account",
                    "type": "address"
                }
            ],
            "name": "addAuthorization",
            "outputs": [],
            "stateMutability": "nonpayable",
            "type": "function"
        },
        {
            "inputs": [
                {
                    "internalType": "address",
                    "name": "",
                    "type": "address"
                }
            ],
            "name": "authorizedAccounts",
            "outputs": [
                {
                    "internalType": "uint256",
                    "name": "",
                    "type": "uint256"
                }
            ],
            "stateMutability": "view",
            "type": "function"
        },
        {
            "inputs": [],
            "name": "collateralType",
            "outputs": [
                {
                    "internalType": "bytes32",
                    "name": "",
                    "type": "bytes32"
                }
            ],
            "stateMutability": "view",
            "type": "function"
        },
        {
            "inputs": [],
            "name": "contractEnabled",
            "outputs": [
                {
                    "internalType": "uint256",
                    "name": "",
                    "type": "uint256"
                }
            ],
            "stateMutability": "view",
            "type": "function"
        },
        {
            "inputs": [],
            "name": "decimals",
            "outputs": [
                {
                    "internalType": "uint256",
                    "name": "",
                    "type": "uint256"
                }
            ],
            "stateMutability": "view",
            "type": "function"
        },
        {
            "inputs": [],
            "name": "disableContract",
            "outputs": [],
            "stateMutability": "nonpayable",
            "type": "function"
        },
        {
            "inputs": [
                {
                    "internalType": "address payable",
                    "name": "account",
                    "type": "address"
                },
                {
                    "internalType": "uint256",
                    "name": "wad",
                    "type": "uint256"
                }
            ],
            "name": "exit",
            "outputs": [],
            "stateMutability": "nonpayable",
            "type": "function"
        },
        {
            "inputs": [
                {
                    "internalType": "address",
                    "name": "account",
                    "type": "address"
                }
            ],
            "name": "join",
            "outputs": [],
            "stateMutability": "payable",
            "type": "function"
        },
        {
            "inputs": [
                {
                    "internalType": "address",
                    "name": "account",
                    "type": "address"
                }
            ],
            "name": "removeAuthorization",
            "outputs": [],
            "stateMutability": "nonpayable",
            "type": "function"
        },
        {
            "inputs": [],
            "name": "safeEngine",
            "outputs": [
                {
                    "internalType": "contract MultiSAFEEngineLike",
                    "name": "",
                    "type": "address"
                }
            ],
            "stateMutability": "view",
            "type": "function"
        }
    ],
    "bytecode": {
        "object": "0x608060405234801561001057600080fd5b506040516107f53803806107f58339818101604052604081101561003357600080fd5b508051602091820151336000818152808552604090819020600190819055600381905580546001600160a01b0319166001600160a01b03861617905560028390556012600455805191825251929391927f599a298163e1678bb1c676052a8930bf0b8a1261ed6e01b8a2391e55f7000102929181900390910190a15050610736806100bf6000396000f3fe6080604052600436106100915760003560e01c806367aea3131161005957806367aea31314610160578063894ba8331461019157806394f3f81d146101a6578063e824600f146101d9578063ef693bed146101ee57610091565b806324ba58841461009657806328ffe6c8146100db578063313ce5671461010357806335b281531461011857806341b3a0d91461014b575b600080fd5b3480156100a257600080fd5b506100c9600480360360208110156100b957600080fd5b50356001600160a01b0316610227565b60408051918252519081900360200190f35b610101600480360360208110156100f157600080fd5b50356001600160a01b0316610239565b005b34801561010f57600080fd5b506100c9610390565b34801561012457600080fd5b506101016004803603602081101561013b57600080fd5b50356001600160a01b0316610396565b34801561015757600080fd5b506100c9610436565b34801561016c57600080fd5b5061017561043c565b604080516001600160a01b039092168252519081900360200190f35b34801561019d57600080fd5b5061010161044b565b3480156101b257600080fd5b50610101600480360360208110156101c957600080fd5b50356001600160a01b03166104c9565b3480156101e557600080fd5b506100c9610568565b3480156101fa57600080fd5b506101016004803603604081101561021157600080fd5b506001600160a01b03813516906020013561056e565b60006020819052908152604090205481565b60035460011461027a5760405162461bcd60e51b81526004018080602001828103825260218152602001806106bd6021913960400191505060405180910390fd5b60003412156102c8576040805162461bcd60e51b81526020600482015260156024820152744d756c74694554484a6f696e2f6f766572666c6f7760581b604482015290519081900360640190fd5b600154600254604080516365fafc4360e01b81526004810183905260248101929092526001600160a01b03848116604484015234606484015290519216916365fafc439160848082019260009290919082900301818387803b15801561032d57600080fd5b505af1158015610341573d6000803e3d6000fd5b5050604080513381526001600160a01b0385166020820152348183015290517f0e64978d073561c3dfd4d4e3e4dce066cde2ab246a44f990fabb0a21a4a3bd959350908190036060019150a150565b60045481565b336000908152602081905260409020546001146103e45760405162461bcd60e51b81526004018080602001828103825260238152602001806106de6023913960400191505060405180910390fd5b6001600160a01b0381166000818152602081815260409182902060019055815192835290517f599a298163e1678bb1c676052a8930bf0b8a1261ed6e01b8a2391e55f70001029281900390910190a150565b60035481565b6001546001600160a01b031681565b336000908152602081905260409020546001146104995760405162461bcd60e51b81526004018080602001828103825260238152602001806106de6023913960400191505060405180910390fd5b600060038190556040517f2d4b4ecff7bd7503135271925520a2f6c0d98c9473ffc1a1e72c92502f51b25e9190a1565b336000908152602081905260409020546001146105175760405162461bcd60e51b81526004018080602001828103825260238152602001806106de6023913960400191505060405180910390fd5b6001600160a01b03811660008181526020818152604080832092909255815192835290517f8834a87e641e9716be4f34527af5d23e11624f1ddeefede6ad75a9acfc31b9039281900390910190a150565b60025481565b60008112156105bc576040805162461bcd60e51b81526020600482015260156024820152744d756c74694554484a6f696e2f6f766572666c6f7760581b604482015290519081900360640190fd5b600154600254604080516365fafc4360e01b81526004810183905260248101929092523360448301526000848103606484015290516001600160a01b03909316926365fafc4392608480820193929182900301818387803b15801561062057600080fd5b505af1158015610634573d6000803e3d6000fd5b5050604080513381526001600160a01b038616602082015280820185905290517fbc2a67d422c268da6fe45f3e7d194e1d98906d221f1cfad62a5c80f2cd209f4c9350908190036060019150a16040516001600160a01b0383169082156108fc029083906000818181858888f193505050501580156106b7573d6000803e3d6000fd5b50505056fe4d756c74694554484a6f696e2f636f6e74726163742d6e6f742d656e61626c65644d756c74694554484a6f696e2f6163636f756e742d6e6f742d617574686f72697a6564a2646970667358221220bfe4b62555e0460055c1c9534ed4249ddd07c5e5c3c99ac8f66e799390c5b52664736f6c63430006070033",
        "linkReferences": {}
    },
    "methodIdentifiers": {
        "addAuthorization(address)": "35b28153",
        "authorizedAccounts(address)": "24ba5884",
        "collateralType()": "e824600f",
        "contractEnabled()": "41b3a0d9",
        "decimals()": "313ce567",
        "disableContract()": "894ba833",
        "exit(address,uint256)": "ef693bed",
        "join(address)": "28ffe6c8",
        "removeAuthorization(address)": "94f3f81d",
        "safeEngine()": "67aea313"
    },
    "id": 38
}