{
    "abi": [
        {
            "inputs": [],
            "stateMutability": "nonpayable",
            "type": "constructor"
        },
        {
            "anonymous": false,
            "inputs": [
                {
                    "indexed": false,
                    "internalType": "bytes",
                    "name": "revertReason",
                    "type": "bytes"
                },
                {
                    "indexed": false,
                    "internalType": "address",
                    "name": "feeReceiver",
                    "type": "address"
                },
                {
                    "indexed": false,
                    "internalType": "uint256",
                    "name": "amount",
                    "type": "uint256"
                }
            ],
            "name": "FailRewardCaller",
            "type": "event"
        },
        {
            "anonymous": false,
            "inputs": [
                {
                    "indexed": false,
                    "internalType": "bytes32",
                    "name": "parameter",
                    "type": "bytes32"
                },
                {
                    "indexed": false,
                    "internalType": "address",
                    "name": "addr",
                    "type": "address"
                }
            ],
            "name": "ModifyParameters",
            "type": "event"
        },
        {
            "anonymous": false,
            "inputs": [
                {
                    "indexed": false,
                    "internalType": "bytes32",
                    "name": "parameter",
                    "type": "bytes32"
                },
                {
                    "indexed": false,
                    "internalType": "uint256",
                    "name": "val",
                    "type": "uint256"
                }
            ],
            "name": "ModifyParameters",
            "type": "event"
        },
        {
            "inputs": [],
            "name": "RAY",
            "outputs": [
                {
                    "internalType": "uint256",
                    "name": "",
                    "type": "uint256"
                }
            ],
            "stateMutability": "view",
            "type": "function"
        },
        {
            "inputs": [],
            "name": "WAD",
            "outputs": [
                {
                    "internalType": "uint256",
                    "name": "",
                    "type": "uint256"
                }
            ],
            "stateMutability": "view",
            "type": "function"
        },
        {
            "inputs": [
                {
                    "internalType": "uint256",
                    "name": "x",
                    "type": "uint256"
                },
                {
                    "internalType": "uint256",
                    "name": "y",
                    "type": "uint256"
                }
            ],
            "name": "addition",
            "outputs": [
                {
                    "internalType": "uint256",
                    "name": "z",
                    "type": "uint256"
                }
            ],
            "stateMutability": "pure",
            "type": "function"
        },
        {
            "inputs": [],
            "name": "baseUpdateCallerReward",
            "outputs": [
                {
                    "internalType": "uint256",
                    "name": "",
                    "type": "uint256"
                }
            ],
            "stateMutability": "view",
            "type": "function"
        },
        {
            "inputs": [
                {
                    "internalType": "uint256",
                    "name": "timeOfLastUpdate",
                    "type": "uint256"
                },
                {
                    "internalType": "uint256",
                    "name": "defaultDelayBetweenCalls",
                    "type": "uint256"
                }
            ],
            "name": "getCallerReward",
            "outputs": [
                {
                    "internalType": "uint256",
                    "name": "",
                    "type": "uint256"
                }
            ],
            "stateMutability": "view",
            "type": "function"
        },
        {
            "inputs": [],
            "name": "maxRewardIncreaseDelay",
            "outputs": [
                {
                    "internalType": "uint256",
                    "name": "",
                    "type": "uint256"
                }
            ],
            "stateMutability": "view",
            "type": "function"
        },
        {
            "inputs": [],
            "name": "maxUpdateCallerReward",
            "outputs": [
                {
                    "internalType": "uint256",
                    "name": "",
                    "type": "uint256"
                }
            ],
            "stateMutability": "view",
            "type": "function"
        },
        {
            "inputs": [
                {
                    "internalType": "uint256",
                    "name": "x",
                    "type": "uint256"
                },
                {
                    "internalType": "uint256",
                    "name": "y",
                    "type": "uint256"
                }
            ],
            "name": "minimum",
            "outputs": [
                {
                    "internalType": "uint256",
                    "name": "z",
                    "type": "uint256"
                }
            ],
            "stateMutability": "pure",
            "type": "function"
        },
        {
            "inputs": [
                {
                    "internalType": "uint256",
                    "name": "x",
                    "type": "uint256"
                },
                {
                    "internalType": "uint256",
                    "name": "y",
                    "type": "uint256"
                }
            ],
            "name": "multiply",
            "outputs": [
                {
                    "internalType": "uint256",
                    "name": "z",
                    "type": "uint256"
                }
            ],
            "stateMutability": "pure",
            "type": "function"
        },
        {
            "inputs": [],
            "name": "perSecondCallerRewardIncrease",
            "outputs": [
                {
                    "internalType": "uint256",
                    "name": "",
                    "type": "uint256"
                }
            ],
            "stateMutability": "view",
            "type": "function"
        },
        {
            "inputs": [
                {
                    "internalType": "uint256",
                    "name": "x",
                    "type": "uint256"
                }
            ],
            "name": "rad",
            "outputs": [
                {
                    "internalType": "uint256",
                    "name": "z",
                    "type": "uint256"
                }
            ],
            "stateMutability": "pure",
            "type": "function"
        },
        {
            "inputs": [
                {
                    "internalType": "uint256",
                    "name": "x",
                    "type": "uint256"
                }
            ],
            "name": "ray",
            "outputs": [
                {
                    "internalType": "uint256",
                    "name": "z",
                    "type": "uint256"
                }
            ],
            "stateMutability": "pure",
            "type": "function"
        },
        {
            "inputs": [
                {
                    "internalType": "uint256",
                    "name": "x",
                    "type": "uint256"
                },
                {
                    "internalType": "uint256",
                    "name": "y",
                    "type": "uint256"
                }
            ],
            "name": "rdivide",
            "outputs": [
                {
                    "internalType": "uint256",
                    "name": "z",
                    "type": "uint256"
                }
            ],
            "stateMutability": "pure",
            "type": "function"
        },
        {
            "inputs": [
                {
                    "internalType": "uint256",
                    "name": "x",
                    "type": "uint256"
                },
                {
                    "internalType": "uint256",
                    "name": "y",
                    "type": "uint256"
                }
            ],
            "name": "rmultiply",
            "outputs": [
                {
                    "internalType": "uint256",
                    "name": "z",
                    "type": "uint256"
                }
            ],
            "stateMutability": "pure",
            "type": "function"
        },
        {
            "inputs": [
                {
                    "internalType": "uint256",
                    "name": "x",
                    "type": "uint256"
                },
                {
                    "internalType": "uint256",
                    "name": "n",
                    "type": "uint256"
                },
                {
                    "internalType": "uint256",
                    "name": "base",
                    "type": "uint256"
                }
            ],
            "name": "rpower",
            "outputs": [
                {
                    "internalType": "uint256",
                    "name": "z",
                    "type": "uint256"
                }
            ],
            "stateMutability": "pure",
            "type": "function"
        },
        {
            "inputs": [
                {
                    "internalType": "uint256",
                    "name": "x",
                    "type": "uint256"
                },
                {
                    "internalType": "uint256",
                    "name": "y",
                    "type": "uint256"
                }
            ],
            "name": "subtract",
            "outputs": [
                {
                    "internalType": "uint256",
                    "name": "z",
                    "type": "uint256"
                }
            ],
            "stateMutability": "pure",
            "type": "function"
        },
        {
            "inputs": [],
            "name": "treasury",
            "outputs": [
                {
                    "internalType": "contract StabilityFeeTreasuryLike",
                    "name": "",
                    "type": "address"
                }
            ],
            "stateMutability": "view",
            "type": "function"
        },
        {
            "inputs": [],
            "name": "treasuryAllowance",
            "outputs": [
                {
                    "internalType": "uint256",
                    "name": "",
                    "type": "uint256"
                }
            ],
            "stateMutability": "view",
            "type": "function"
        },
        {
            "inputs": [
                {
                    "internalType": "uint256",
                    "name": "x",
                    "type": "uint256"
                },
                {
                    "internalType": "uint256",
                    "name": "y",
                    "type": "uint256"
                }
            ],
            "name": "wdivide",
            "outputs": [
                {
                    "internalType": "uint256",
                    "name": "z",
                    "type": "uint256"
                }
            ],
            "stateMutability": "pure",
            "type": "function"
        },
        {
            "inputs": [
                {
                    "internalType": "uint256",
                    "name": "x",
                    "type": "uint256"
                },
                {
                    "internalType": "uint256",
                    "name": "y",
                    "type": "uint256"
                }
            ],
            "name": "wmultiply",
            "outputs": [
                {
                    "internalType": "uint256",
                    "name": "z",
                    "type": "uint256"
                }
            ],
            "stateMutability": "pure",
            "type": "function"
        }
    ],
    "bytecode": {
        "object": "0x608060405234801561001057600080fd5b506000196002556107d4806100266000396000f3fe608060405234801561001057600080fd5b506004361061012c5760003560e01c806354f363a3116100ad578063a087163711610071578063a087163714610288578063d6e882dc146102ab578063dd2d2a12146102d4578063f238ffd2146102f7578063f752fdc31461031a5761012c565b806354f363a314610229578063552033c41461024c57806361d027b31461025457806369dec276146102785780636a146024146102805761012c565b80633425677e116100f45780633425677e146101b65780633c8bb3e6146101be5780633ef5e445146101e157806343943b6b1461020457806346f3e81c1461020c5761012c565b8063056640b7146101315780631021344714610166578063165c4a16146101835780631c1f908c146101a65780632009e568146101ae575b600080fd5b6101546004803603604081101561014757600080fd5b508035906020013561033d565b60408051918252519081900360200190f35b6101546004803603602081101561017c57600080fd5b5035610365565b6101546004803603604081101561019957600080fd5b508035906020013561037b565b6101546103e0565b6101546103e6565b6101546103ec565b610154600480360360408110156101d457600080fd5b5080359060200135610486565b610154600480360360408110156101f757600080fd5b508035906020013561049b565b6101546104f3565b6101546004803603602081101561022257600080fd5b50356104f9565b6101546004803603604081101561023f57600080fd5b5080359060200135610511565b610154610562565b61025c610572565b604080516001600160a01b039092168252519081900360200190f35b610154610581565b610154610587565b6101546004803603604081101561029e57600080fd5b5080359060200135610593565b610154600480360360608110156102c157600080fd5b50803590602081013590604001356105ac565b610154600480360360408110156102ea57600080fd5b508035906020013561066a565b6101546004803603604081101561030d57600080fd5b5080359060200135610683565b6101546004803603604081101561033057600080fd5b5080359060200135610785565b60006b033b2e3c9fd0803ce8000000610356848461037b565b8161035d57fe5b049392505050565b600061037582633b9aca0061037b565b92915050565b60008115806103965750508082028282828161039357fe5b04145b610375576040805162461bcd60e51b815260206004820152601660248201527575696e742d75696e742d6d756c2d6f766572666c6f7760501b604482015290519081900360640190fd5b60005481565b60025481565b60048054604080516375ad331760e11b815230938101939093528051600093849384936001600160a01b039091169263eb5a662e926024808201939291829003018186803b15801561043d57600080fd5b505afa158015610451573d6000803e3d6000fd5b505050506040513d604081101561046757600080fd5b508051602090910151909250905061047f828261066a565b9250505090565b6000670de0b6b3a7640000610356848461037b565b80820382811115610375576040805162461bcd60e51b815260206004820152601760248201527f75696e742d75696e742d7375622d756e646572666c6f77000000000000000000604482015290519081900360640190fd5b60035481565b6000610375826b033b2e3c9fd0803ce800000061037b565b81810182811015610375576040805162461bcd60e51b815260206004820152601660248201527575696e742d75696e742d6164642d6f766572666c6f7760501b604482015290519081900360640190fd5b6b033b2e3c9fd0803ce800000081565b6004546001600160a01b031681565b60015481565b670de0b6b3a764000081565b600081610356846b033b2e3c9fd0803ce800000061037b565b600083801561064c576001841680156105c7578592506105cb565b8392505b50600283046002850494505b84156106465785860286878204146105ee57600080fd5b818101818110156105fe57600080fd5b859004965050600185161561063b57858302838782041415871515161561062457600080fd5b8181018181101561063457600080fd5b8590049350505b6002850494506105d7565b50610662565b83801561065c5760009250610660565b8392505b505b509392505050565b60008183111561067a578161067c565b825b9392505050565b60008060005460001480156106985750600154155b90506106a7428510158261079a565b156106b6576000915050610375565b600084156106cd576106c8428661049b565b6106cf565b835b90506106e284821060005460001461079a565b156106f257600092505050610375565b60006106fe828661049b565b9050600061072a6001546b033b2e3c9fd0803ce800000061071d6103ec565b8161072457fe5b0461066a565b905060025482111561074157935061037592505050565b600054821561076f5761076c610766600354856b033b2e3c9fd0803ce80000006105ac565b8261033d565b90505b8181111561077a5750805b979650505050505050565b60008161035684670de0b6b3a764000061037b565b179056fea2646970667358221220512aadf5dc7ed11ab454f595bf4d2e87b65a79c5175afaeb6b311e4475d64edb64736f6c63430006070033",
        "linkReferences": {}
    },
    "methodIdentifiers": {
        "RAY()": "552033c4",
        "WAD()": "6a146024",
        "addition(uint256,uint256)": "54f363a3",
        "baseUpdateCallerReward()": "1c1f908c",
        "getCallerReward(uint256,uint256)": "f238ffd2",
        "maxRewardIncreaseDelay()": "2009e568",
        "maxUpdateCallerReward()": "69dec276",
        "minimum(uint256,uint256)": "dd2d2a12",
        "multiply(uint256,uint256)": "165c4a16",
        "perSecondCallerRewardIncrease()": "43943b6b",
        "rad(uint256)": "46f3e81c",
        "ray(uint256)": "10213447",
        "rdivide(uint256,uint256)": "a0871637",
        "rmultiply(uint256,uint256)": "056640b7",
        "rpower(uint256,uint256,uint256)": "d6e882dc",
        "subtract(uint256,uint256)": "3ef5e445",
        "treasury()": "61d027b3",
        "treasuryAllowance()": "3425677e",
        "wdivide(uint256,uint256)": "f752fdc3",
        "wmultiply(uint256,uint256)": "3c8bb3e6"
    },
    "id": 21
}