{
    "abi": [
        {
            "inputs": [
                {
                    "internalType": "int256",
                    "name": "Kp_",
                    "type": "int256"
                },
                {
                    "internalType": "int256",
                    "name": "Ki_",
                    "type": "int256"
                },
                {
                    "internalType": "uint256",
                    "name": "perSecondCumulativeLeak_",
                    "type": "uint256"
                },
                {
                    "internalType": "uint256",
                    "name": "integralPeriodSize_",
                    "type": "uint256"
                },
                {
                    "internalType": "uint256",
                    "name": "noiseBarrier_",
                    "type": "uint256"
                },
                {
                    "internalType": "uint256",
                    "name": "feedbackOutputUpperBound_",
                    "type": "uint256"
                },
                {
                    "internalType": "int256",
                    "name": "feedbackOutputLowerBound_",
                    "type": "int256"
                },
                {
                    "internalType": "int256[]",
                    "name": "importedState",
                    "type": "int256[]"
                }
            ],
            "stateMutability": "nonpayable",
            "type": "constructor"
        },
        {
            "inputs": [],
            "name": "adat",
            "outputs": [
                {
                    "internalType": "uint256",
                    "name": "",
                    "type": "uint256"
                }
            ],
            "stateMutability": "view",
            "type": "function"
        },
        {
            "inputs": [
                {
                    "internalType": "address",
                    "name": "account",
                    "type": "address"
                }
            ],
            "name": "addAuthority",
            "outputs": [],
            "stateMutability": "nonpayable",
            "type": "function"
        },
        {
            "inputs": [
                {
                    "internalType": "address",
                    "name": "account",
                    "type": "address"
                }
            ],
            "name": "addReader",
            "outputs": [],
            "stateMutability": "nonpayable",
            "type": "function"
        },
        {
            "inputs": [],
            "name": "ag",
            "outputs": [
                {
                    "internalType": "int256",
                    "name": "",
                    "type": "int256"
                }
            ],
            "stateMutability": "view",
            "type": "function"
        },
        {
            "inputs": [],
            "name": "allReaderToggle",
            "outputs": [
                {
                    "internalType": "uint256",
                    "name": "",
                    "type": "uint256"
                }
            ],
            "stateMutability": "view",
            "type": "function"
        },
        {
            "inputs": [
                {
                    "internalType": "address",
                    "name": "",
                    "type": "address"
                }
            ],
            "name": "authorities",
            "outputs": [
                {
                    "internalType": "uint256",
                    "name": "",
                    "type": "uint256"
                }
            ],
            "stateMutability": "view",
            "type": "function"
        },
        {
            "inputs": [
                {
                    "internalType": "uint256",
                    "name": "piSum",
                    "type": "uint256"
                },
                {
                    "internalType": "uint256",
                    "name": "redemptionPrice",
                    "type": "uint256"
                }
            ],
            "name": "breaksNoiseBarrier",
            "outputs": [
                {
                    "internalType": "bool",
                    "name": "",
                    "type": "bool"
                }
            ],
            "stateMutability": "view",
            "type": "function"
        },
        {
            "inputs": [
                {
                    "internalType": "uint256",
                    "name": "marketPrice",
                    "type": "uint256"
                },
                {
                    "internalType": "uint256",
                    "name": "redemptionPrice",
                    "type": "uint256"
                },
                {
                    "internalType": "uint256",
                    "name": "accumulatedLeak",
                    "type": "uint256"
                }
            ],
            "name": "computeRate",
            "outputs": [
                {
                    "internalType": "uint256",
                    "name": "",
                    "type": "uint256"
                }
            ],
            "stateMutability": "nonpayable",
            "type": "function"
        },
        {
            "inputs": [],
            "name": "dgt",
            "outputs": [
                {
                    "internalType": "uint256",
                    "name": "",
                    "type": "uint256"
                }
            ],
            "stateMutability": "view",
            "type": "function"
        },
        {
            "inputs": [
                {
                    "internalType": "uint256",
                    "name": "i",
                    "type": "uint256"
                }
            ],
            "name": "dos",
            "outputs": [
                {
                    "internalType": "uint256",
                    "name": "",
                    "type": "uint256"
                },
                {
                    "internalType": "int256",
                    "name": "",
                    "type": "int256"
                },
                {
                    "internalType": "int256",
                    "name": "",
                    "type": "int256"
                }
            ],
            "stateMutability": "view",
            "type": "function"
        },
        {
            "inputs": [],
            "name": "drr",
            "outputs": [
                {
                    "internalType": "uint256",
                    "name": "",
                    "type": "uint256"
                }
            ],
            "stateMutability": "view",
            "type": "function"
        },
        {
            "inputs": [],
            "name": "folb",
            "outputs": [
                {
                    "internalType": "int256",
                    "name": "",
                    "type": "int256"
                }
            ],
            "stateMutability": "view",
            "type": "function"
        },
        {
            "inputs": [],
            "name": "foub",
            "outputs": [
                {
                    "internalType": "uint256",
                    "name": "",
                    "type": "uint256"
                }
            ],
            "stateMutability": "view",
            "type": "function"
        },
        {
            "inputs": [
                {
                    "internalType": "int256",
                    "name": "piOutput",
                    "type": "int256"
                }
            ],
            "name": "getBoundedRedemptionRate",
            "outputs": [
                {
                    "internalType": "uint256",
                    "name": "",
                    "type": "uint256"
                },
                {
                    "internalType": "uint256",
                    "name": "",
                    "type": "uint256"
                }
            ],
            "stateMutability": "view",
            "type": "function"
        },
        {
            "inputs": [
                {
                    "internalType": "int256",
                    "name": "proportionalTerm",
                    "type": "int256"
                },
                {
                    "internalType": "int256",
                    "name": "integralTerm",
                    "type": "int256"
                }
            ],
            "name": "getGainAdjustedPIOutput",
            "outputs": [
                {
                    "internalType": "int256",
                    "name": "",
                    "type": "int256"
                }
            ],
            "stateMutability": "view",
            "type": "function"
        },
        {
            "inputs": [
                {
                    "internalType": "int256",
                    "name": "proportionalTerm",
                    "type": "int256"
                },
                {
                    "internalType": "int256",
                    "name": "integralTerm",
                    "type": "int256"
                }
            ],
            "name": "getGainAdjustedTerms",
            "outputs": [
                {
                    "internalType": "int256",
                    "name": "",
                    "type": "int256"
                },
                {
                    "internalType": "int256",
                    "name": "",
                    "type": "int256"
                }
            ],
            "stateMutability": "view",
            "type": "function"
        },
        {
            "inputs": [],
            "name": "getLastIntegralTerm",
            "outputs": [
                {
                    "internalType": "int256",
                    "name": "",
                    "type": "int256"
                }
            ],
            "stateMutability": "view",
            "type": "function"
        },
        {
            "inputs": [],
            "name": "getLastProportionalTerm",
            "outputs": [
                {
                    "internalType": "int256",
                    "name": "",
                    "type": "int256"
                }
            ],
            "stateMutability": "view",
            "type": "function"
        },
        {
            "inputs": [
                {
                    "internalType": "int256",
                    "name": "proportionalTerm",
                    "type": "int256"
                },
                {
                    "internalType": "uint256",
                    "name": "accumulatedLeak",
                    "type": "uint256"
                }
            ],
            "name": "getNextPriceDeviationCumulative",
            "outputs": [
                {
                    "internalType": "int256",
                    "name": "",
                    "type": "int256"
                },
                {
                    "internalType": "int256",
                    "name": "",
                    "type": "int256"
                }
            ],
            "stateMutability": "view",
            "type": "function"
        },
        {
            "inputs": [
                {
                    "internalType": "uint256",
                    "name": "marketPrice",
                    "type": "uint256"
                },
                {
                    "internalType": "uint256",
                    "name": "redemptionPrice",
                    "type": "uint256"
                },
                {
                    "internalType": "uint256",
                    "name": "accumulatedLeak",
                    "type": "uint256"
                }
            ],
            "name": "getNextRedemptionRate",
            "outputs": [
                {
                    "internalType": "uint256",
                    "name": "",
                    "type": "uint256"
                },
                {
                    "internalType": "int256",
                    "name": "",
                    "type": "int256"
                },
                {
                    "internalType": "int256",
                    "name": "",
                    "type": "int256"
                },
                {
                    "internalType": "uint256",
                    "name": "",
                    "type": "uint256"
                }
            ],
            "stateMutability": "view",
            "type": "function"
        },
        {
            "inputs": [
                {
                    "internalType": "uint256",
                    "name": "i",
                    "type": "uint256"
                }
            ],
            "name": "hcd",
            "outputs": [
                {
                    "internalType": "int256",
                    "name": "",
                    "type": "int256"
                }
            ],
            "stateMutability": "view",
            "type": "function"
        },
        {
            "inputs": [],
            "name": "ips",
            "outputs": [
                {
                    "internalType": "uint256",
                    "name": "",
                    "type": "uint256"
                }
            ],
            "stateMutability": "view",
            "type": "function"
        },
        {
            "inputs": [],
            "name": "lut",
            "outputs": [
                {
                    "internalType": "uint256",
                    "name": "",
                    "type": "uint256"
                }
            ],
            "stateMutability": "view",
            "type": "function"
        },
        {
            "inputs": [
                {
                    "internalType": "bytes32",
                    "name": "parameter",
                    "type": "bytes32"
                },
                {
                    "internalType": "int256",
                    "name": "val",
                    "type": "int256"
                }
            ],
            "name": "modifyParameters",
            "outputs": [],
            "stateMutability": "nonpayable",
            "type": "function"
        },
        {
            "inputs": [
                {
                    "internalType": "bytes32",
                    "name": "parameter",
                    "type": "bytes32"
                },
                {
                    "internalType": "address",
                    "name": "addr",
                    "type": "address"
                }
            ],
            "name": "modifyParameters",
            "outputs": [],
            "stateMutability": "nonpayable",
            "type": "function"
        },
        {
            "inputs": [
                {
                    "internalType": "bytes32",
                    "name": "parameter",
                    "type": "bytes32"
                },
                {
                    "internalType": "uint256",
                    "name": "val",
                    "type": "uint256"
                }
            ],
            "name": "modifyParameters",
            "outputs": [],
            "stateMutability": "nonpayable",
            "type": "function"
        },
        {
            "inputs": [],
            "name": "nb",
            "outputs": [
                {
                    "internalType": "uint256",
                    "name": "",
                    "type": "uint256"
                }
            ],
            "stateMutability": "view",
            "type": "function"
        },
        {
            "inputs": [],
            "name": "oll",
            "outputs": [
                {
                    "internalType": "uint256",
                    "name": "",
                    "type": "uint256"
                }
            ],
            "stateMutability": "view",
            "type": "function"
        },
        {
            "inputs": [],
            "name": "pdc",
            "outputs": [
                {
                    "internalType": "int256",
                    "name": "",
                    "type": "int256"
                }
            ],
            "stateMutability": "view",
            "type": "function"
        },
        {
            "inputs": [],
            "name": "pscl",
            "outputs": [
                {
                    "internalType": "uint256",
                    "name": "",
                    "type": "uint256"
                }
            ],
            "stateMutability": "view",
            "type": "function"
        },
        {
            "inputs": [
                {
                    "internalType": "address",
                    "name": "",
                    "type": "address"
                }
            ],
            "name": "readers",
            "outputs": [
                {
                    "internalType": "uint256",
                    "name": "",
                    "type": "uint256"
                }
            ],
            "stateMutability": "view",
            "type": "function"
        },
        {
            "inputs": [
                {
                    "internalType": "address",
                    "name": "account",
                    "type": "address"
                }
            ],
            "name": "removeAuthority",
            "outputs": [],
            "stateMutability": "nonpayable",
            "type": "function"
        },
        {
            "inputs": [
                {
                    "internalType": "address",
                    "name": "account",
                    "type": "address"
                }
            ],
            "name": "removeReader",
            "outputs": [],
            "stateMutability": "nonpayable",
            "type": "function"
        },
        {
            "inputs": [
                {
                    "internalType": "uint256",
                    "name": "marketPrice",
                    "type": "uint256"
                },
                {
                    "internalType": "uint256",
                    "name": "redemptionPrice",
                    "type": "uint256"
                },
                {
                    "internalType": "uint256",
                    "name": "accumulatedLeak",
                    "type": "uint256"
                }
            ],
            "name": "rt",
            "outputs": [
                {
                    "internalType": "uint256",
                    "name": "",
                    "type": "uint256"
                }
            ],
            "stateMutability": "view",
            "type": "function"
        },
        {
            "inputs": [],
            "name": "seedProposer",
            "outputs": [
                {
                    "internalType": "address",
                    "name": "",
                    "type": "address"
                }
            ],
            "stateMutability": "view",
            "type": "function"
        },
        {
            "inputs": [],
            "name": "sg",
            "outputs": [
                {
                    "internalType": "int256",
                    "name": "",
                    "type": "int256"
                }
            ],
            "stateMutability": "view",
            "type": "function"
        },
        {
            "inputs": [],
            "name": "tlv",
            "outputs": [
                {
                    "internalType": "uint256",
                    "name": "",
                    "type": "uint256"
                }
            ],
            "stateMutability": "view",
            "type": "function"
        }
    ],
    "bytecode": {
        "object": "0x60806040523480156200001157600080fd5b5060405162002b3838038062002b3883398181016040526101008110156200003857600080fd5b815160208301516040808501516060860151608087015160a088015160c089015160e08a0180519651989a9799959894979396929591949391820192846401000000008211156200008857600080fd5b9083019060208201858111156200009e57600080fd5b8251866020820283011164010000000082111715620000bc57600080fd5b82525081516020918201928201910280838360005b83811015620000eb578181015183820152602001620000d1565b505050509050016040525050506b033b2e3c9fd0803ce80000006006819055506200014e6200013a620001296000196006546200053c60201b60201c565b60016001600160e01b036200053c16565b84108415156001600160e01b036200058d16565b6200018b5760405162461bcd60e51b815260040180806020018281038252602581526020018062002a7a6025913960400191505060405180910390fd5b620001b3600083126b033b2e3c9fd0803ce7fffffe198412156001600160e01b036200058d16565b620001f05760405162461bcd60e51b815260040180806020018281038252602581526020018062002ae56025913960400191505060405180910390fd5b60008511620002315760405162461bcd60e51b815260040180806020018281038252602481526020018062002a566024913960400191505060405180910390fd5b42816000815181106200024057fe5b60200260200101511115620002875760405162461bcd60e51b815260040180806020018281038252602e81526020018062002b0a602e913960400191505060405180910390fd5b620002a9841515670de0b6b3a76400008611156001600160e01b036200058d16565b620002e65760405162461bcd60e51b815260040180806020018281038252602381526020018062002a336023913960400191505060405180910390fd5b62000312670de0b6b3a763ffff19891215670de0b6b3a76400008a13156001600160e01b036200058d16565b6200034f5760405162461bcd60e51b815260040180806020018281038252602381526020018062002ac26023913960400191505060405180910390fd5b6200037b670de0b6b3a763ffff19881215670de0b6b3a76400008913156001600160e01b036200058d16565b620003b85760405162461bcd60e51b815260040180806020018281038252602381526020018062002a9f6023913960400191505060405180910390fd5b33600090815260208181526040808320600190819055808352928190209290925560078590556008849055600987905581518083019092528982520187905260028890556003878155600d879055815182919081106200041457fe5b6020026020010151600c8190555083600581905550806000815181106200043757fe5b6020026020010151600e819055506000816004815181106200045557fe5b60200260200101511315620004f757600a6040518060600160405280836004815181106200047f57fe5b60200260200101518152602001836001815181106200049a57fe5b6020026020010151815260200183600281518110620004b557fe5b60209081029190910181015190915282546001818101855560009485529382902083516003909202019081559082015192810192909255604001516002909101555b5050600c54600b80546001810182556000919091527f0175b7a638427703f0dbe7bb9bbf987a2551717b34e79f33b5b1008d1fa01db90155506200062c945050505050565b60006200058683836040518060400160405280601e81526020017f536166654d6174683a207375627472616374696f6e206f766572666c6f7700008152506200059160201b60201c565b9392505050565b1690565b60008184841115620006245760405162461bcd60e51b81526004018080602001828103825283818151815260200191508051906020019080838360005b83811015620005e8578181015183820152602001620005ce565b50505050905090810190601f168015620006165780820380516001836020036101000a031916815260200191505b509250505060405180910390fd5b505050900390565b6123f7806200063c6000396000f3fe608060405234801561001057600080fd5b50600436106102275760003560e01c80636e3126ef11610130578063c1b80083116100b8578063e5aa2ed01161007c578063e5aa2ed01461056b578063e85d3bec14610588578063f167a1b814610590578063f6d5924d146105b3578063fe4f5890146105ee57610227565b8063c1b80083146104f6578063c234f25a1461052d578063d2c00e2414610535578063d41fb39c1461053d578063d544e0101461054557610227565b80638d8900bd116100ff5780638d8900bd1461049257806391223d691461049a5780639f180501146104c0578063afd8b1d1146104c8578063b5647d07146104ee57610227565b80636e3126ef1461045157806371c7132e14610459578063803c6ee614610482578063822c530e1461048a57610227565b80634635a4f4116101b35780635f1b0b98116101825780635f1b0b98146103ce578063610a714a146103d65780636531fe7b146103f95780636614f0101461040157806369cb99451461042d57610227565b80634635a4f41461032e57806350473b681461037d57806351e59ffb146103a0578063579e3cb3146103c657610227565b806330d1c515116101fa57806330d1c515146102cd5780633523af48146102d557806337345e63146102dd57806338d65d11146103005780633bd2b97f1461032657610227565b80631f5b30051461022c57806326defa731461026257806328f2d5891461028a5780632af8afca146102c5575b600080fd5b6102496004803603602081101561024257600080fd5b5035610611565b6040805192835260208301919091528051918290030190f35b6102886004803603602081101561027857600080fd5b50356001600160a01b031661072c565b005b6102b3600480360360608110156102a057600080fd5b5080359060208101359060400135610797565b60408051918252519081900360200190f35b6102b3610812565b6102b3610879565b6102b36108e0565b610249600480360360408110156102f357600080fd5b5080359060200135610976565b6102886004803603602081101561031657600080fd5b50356001600160a01b0316610a5a565b6102b3610ac2565b6103576004803603606081101561034457600080fd5b5080359060208101359060400135610b29565b604080519485526020850193909352838301919091526060830152519081900360800190f35b6102496004803603604081101561039357600080fd5b5080359060200135610c3f565b6102b3600480360360208110156103b657600080fd5b50356001600160a01b0316610cec565b6102b3610cfe565b6102b3610da0565b610288600480360360408110156103ec57600080fd5b5080359060200135610e07565b6102b361103e565b6102886004803603604081101561041757600080fd5b50803590602001356001600160a01b0316611044565b6104356110f0565b604080516001600160a01b039092168252519081900360200190f35b6102b36110ff565b6102b36004803603606081101561046f57600080fd5b5080359060208101359060400135611184565b6102b36112ad565b6102b3611314565b6102b361137b565b6102b3600480360360208110156104b057600080fd5b50356001600160a01b03166113e2565b6102b36113f4565b610288600480360360208110156104de57600080fd5b50356001600160a01b031661145b565b6102b36114c6565b6105196004803603604081101561050c57600080fd5b508035906020013561152d565b604080519115158252519081900360200190f35b6102b36115e0565b6102b3611647565b6102b36116ae565b6102886004803603602081101561055b57600080fd5b50356001600160a01b0316611715565b6102b36004803603602081101561058157600080fd5b503561177d565b6102b36117fc565b6102b3600480360360408110156105a657600080fd5b508035906020013561189e565b6105d0600480360360208110156105c957600080fd5b5035611922565b60408051938452602084019290925282820152519081900360600190f35b6102886004803603604081101561060457600080fd5b50803590602001356119ef565b60045433600090815260016020819052604082205491928392610638929182149114611c00565b6106735760405162461bcd60e51b81526004018080602001828103825260258152602001806121926025913960400191505060405180910390fd5b600854839060009082121561068c57600854915061069c565b60075485131561069c5760075491505b600080831280156106b257506006548360000312155b905080156106ce576b033b2e3c9fd0803ce7ffffff9150610720565b6000831280156106eb57506b033b2e3c9fd0803ce7fffffe198313155b156107115760065461070a906b033b2e3c9fd0803ce7fffffe19611c04565b9150610720565b61071d60065484611c04565b91505b50946001945092505050565b3360009081526020819052604090205460011461077a5760405162461bcd60e51b81526004018080602001828103825260298152602001806121b76029913960400191505060405180910390fd5b6001600160a01b0316600090815260208190526040902060019055565b60045433600090815260016020819052604082205491926107bc929082149114611c00565b6107f75760405162461bcd60e51b81526004018080602001828103825260258152602001806121926025913960400191505060405180910390fd5b6000610804858585610b29565b9450505050505b9392505050565b6004543360009081526001602081905260408220549192610837929082149114611c00565b6108725760405162461bcd60e51b81526004018080602001828103825260258152602001806121926025913960400191505060405180910390fd5b5060015b90565b600454336000908152600160208190526040822054919261089e929082149114611c00565b6108d95760405162461bcd60e51b81526004018080602001828103825260258152602001806121926025913960400191505060405180910390fd5b50600e5490565b6004543360009081526001602081905260408220549192610905929082149114611c00565b6109405760405162461bcd60e51b81526004018080602001828103825260258152602001806121926025913960400191505060405180910390fd5b600061094e42600e54611c69565b9050600954811015610964576000915050610876565b61097081600954611c69565b91505090565b6004543360009081526001602081905260408220549192839261099d929182149114611c00565b6109d85760405162461bcd60e51b81526004018080602001828103825260258152602001806121926025913960400191505060405180910390fd5b60006109e2610cfe565b90506000600e54600014610a01576109fc42600e54611c69565b610a04565b60005b90506000610a1b610a158885611cab565b83611cc8565b90506000610a40610a2e88600c54611cc8565b6b033b2e3c9fd0803ce8000000611d71565b9050610a4c8183611c04565b989197509095505050505050565b33600090815260208190526040902054600114610aa85760405162461bcd60e51b81526004018080602001828103825260298152602001806121b76029913960400191505060405180910390fd5b6001600160a01b0316600090815260016020526040812055565b6004543360009081526001602081905260408220549192610ae7929082149114611c00565b610b225760405162461bcd60e51b81526004018080602001828103825260258152602001806121926025913960400191505060405180910390fd5b50600c5490565b600080600080610b6660045460011460016000336001600160a01b03166001600160a01b0316815260200190815260200160002054600114611c00565b610ba15760405162461bcd60e51b81526004018080602001828103825260258152602001806121926025913960400191505060405180910390fd5b6000610bba87610bb58a633b9aca00611cc8565b611e29565b90506000610bc88288610976565b5090506000610bd7838361189e565b9050610beb610be582611e8e565b8a61152d565b8015610bf657508015155b15610c1c57600080610c0783610611565b909950949750929550929350610c3692505050565b506b033b2e3c9fd0803ce800000095509093509150600190505b93509350935093565b60045433600090815260016020819052604082205491928392610c66929182149114611c00565b610ca15760405162461bcd60e51b81526004018080602001828103825260258152602001806121926025913960400191505060405180910390fd5b670de0b6b3a7640000610cb985600260000154611cc8565b81610cc057fe5b05670de0b6b3a7640000610cd985600260010154611cc8565b81610ce057fe5b05915091509250929050565b60016020526000908152604090205481565b6004543360009081526001602081905260408220549192610d23929082149114611c00565b610d5e5760405162461bcd60e51b81526004018080602001828103825260258152602001806121926025913960400191505060405180910390fd5b610d666114c6565b610d7257506000610876565b600a6001610d7e6114c6565b0381548110610d8957fe5b906000526020600020906003020160010154905090565b6004543360009081526001602081905260408220549192610dc5929082149114611c00565b610e005760405162461bcd60e51b81526004018080602001828103825260258152602001806121926025913960400191505060405180910390fd5b50600d5490565b33600090815260208190526040902054600114610e555760405162461bcd60e51b81526004018080602001828103825260298152602001806121b76029913960400191505060405180910390fd5b81633337b63160e11b1415610ec657610e81600082126b033b2e3c9fd0803ce7fffffe19831215611ea4565b610ebc5760405162461bcd60e51b81526004018080602001828103825260258152602001806122d66025913960400191505060405180910390fd5b600881905561103a565b8161736760f01b1415610f3957610ef4670de0b6b3a763ffff19821215670de0b6b3a7640000831315611ea4565b610f2f5760405162461bcd60e51b81526004018080602001828103825260238152602001806122b36023913960400191505060405180910390fd5b600281905561103a565b8161616760f01b1415610fac57610f67670de0b6b3a763ffff19821215670de0b6b3a7640000831315611ea4565b610fa25760405162461bcd60e51b81526004018080602001828103825260238152602001806122266023913960400191505060405180910390fd5b600381905561103a565b816270646360e81b14156110035760035415610ff95760405162461bcd60e51b815260040180806020018281038252602781526020018061214a6027913960400191505060405180910390fd5b600c81905561103a565b60405162461bcd60e51b81526004018080602001828103825260328152602001806123906032913960400191505060405180910390fd5b5050565b60045481565b336000908152602081905260409020546001146110925760405162461bcd60e51b81526004018080602001828103825260298152602001806121b76029913960400191505060405180910390fd5b816b39b2b2b2283937b837b9b2b960a11b141561100357600f80546001600160a01b03908116600090815260016020819052604080832083905584546001600160a01b0319168685161794859055939092168152919091205561103a565b600f546001600160a01b031681565b6004543360009081526001602081905260408220549192611124929082149114611c00565b61115f5760405162461bcd60e51b81526004018080602001828103825260258152602001806121926025913960400191505060405180910390fd5b6000600e5460001461117c5761117742600e54611c69565b610970565b600091505090565b600f546000906001600160a01b031633146111d05760405162461bcd60e51b815260040180806020018281038252602b81526020018061231c602b913960400191505060405180910390fd5b6009546111df42600e54611c69565b1015806111ec5750600e54155b6112275760405162461bcd60e51b815260040180806020018281038252602281526020018061226a6022913960400191505060405180910390fd5b600061123b84610bb587633b9aca00611cc8565b90506112478184611ea8565b42600e81905550600061125c82600c5461189e565b905061127061126a82611e8e565b8661152d565b801561127b57508015155b1561129757600061128b82610611565b50935061080b92505050565b6b033b2e3c9fd0803ce80000009250505061080b565b60045433600090815260016020819052604082205491926112d2929082149114611c00565b61130d5760405162461bcd60e51b81526004018080602001828103825260258152602001806121926025913960400191505060405180910390fd5b5060075490565b6004543360009081526001602081905260408220549192611339929082149114611c00565b6113745760405162461bcd60e51b81526004018080602001828103825260258152602001806121926025913960400191505060405180910390fd5b5060085490565b60045433600090815260016020819052604082205491926113a0929082149114611c00565b6113db5760405162461bcd60e51b81526004018080602001828103825260258152602001806121926025913960400191505060405180910390fd5b5060025490565b60006020819052908152604090205481565b6004543360009081526001602081905260408220549192611419929082149114611c00565b6114545760405162461bcd60e51b81526004018080602001828103825260258152602001806121926025913960400191505060405180910390fd5b5060035490565b336000908152602081905260409020546001146114a95760405162461bcd60e51b81526004018080602001828103825260298152602001806121b76029913960400191505060405180910390fd5b6001600160a01b0316600090815260016020819052604090912055565b60045433600090815260016020819052604082205491926114eb929082149114611c00565b6115265760405162461bcd60e51b81526004018080602001828103825260258152602001806121926025913960400191505060405180910390fd5b50600a5490565b6004543360009081526001602081905260408220549192611552929082149114611c00565b61158d5760405162461bcd60e51b81526004018080602001828103825260258152602001806121926025913960400191505060405180910390fd5b60006115ad6115a56002670de0b6b3a7640000611f8f565b600554611c69565b90506115d36115cd6115bf8584611f8f565b670de0b6b3a7640000611fe8565b84611c69565b8410159150505b92915050565b6004543360009081526001602081905260408220549192611605929082149114611c00565b6116405760405162461bcd60e51b81526004018080602001828103825260258152602001806121926025913960400191505060405180910390fd5b5060095490565b600454336000908152600160208190526040822054919261166c929082149114611c00565b6116a75760405162461bcd60e51b81526004018080602001828103825260258152602001806121926025913960400191505060405180910390fd5b5060055490565b60045433600090815260016020819052604082205491926116d3929082149114611c00565b61170e5760405162461bcd60e51b81526004018080602001828103825260258152602001806121926025913960400191505060405180910390fd5b5060065490565b336000908152602081905260409020546001146117635760405162461bcd60e51b81526004018080602001828103825260298152602001806121b76029913960400191505060405180910390fd5b6001600160a01b0316600090815260208190526040812055565b60045433600090815260016020819052604082205491926117a2929082149114611c00565b6117dd5760405162461bcd60e51b81526004018080602001828103825260258152602001806121926025913960400191505060405180910390fd5b600b82815481106117ea57fe5b90600052602060002001549050919050565b6004543360009081526001602081905260408220549192611821929082149114611c00565b61185c5760405162461bcd60e51b81526004018080602001828103825260258152602001806121926025913960400191505060405180910390fd5b6118646114c6565b61187057506000610876565b600a600161187c6114c6565b038154811061188757fe5b906000526020600020906003020160020154905090565b60045433600090815260016020819052604082205491926118c3929082149114611c00565b6118fe5760405162461bcd60e51b81526004018080602001828103825260258152602001806121926025913960400191505060405180910390fd5b60008061190b8585610c3f565b915091506119198282611c04565b95945050505050565b60045433600090815260016020819052604082205491928392839261194a9281149114611c00565b6119855760405162461bcd60e51b81526004018080602001828103825260258152602001806121926025913960400191505060405180910390fd5b600a848154811061199257fe5b906000526020600020906003020160000154600a85815481106119b157fe5b906000526020600020906003020160010154600a86815481106119d057fe5b9060005260206000209060030201600201549250925092509193909250565b33600090815260208190526040902054600114611a3d5760405162461bcd60e51b81526004018080602001828103825260298152602001806121b76029913960400191505060405180910390fd5b8161373160f11b1415611aa757611a6260008211670de0b6b3a7640000831115611ea4565b611a9d5760405162461bcd60e51b81526004018080602001828103825260238152602001806121276023913960400191505060405180910390fd5b600581905561103a565b816269707360e81b1415611afe5760008111611af45760405162461bcd60e51b81526004018080602001828103825260218152602001806122fb6021913960400191505060405180910390fd5b600981905561103a565b81633337bab160e11b1415611b7857611b33611b28611b21600019600654611c69565b6001611c69565b821060008311611ea4565b611b6e5760405162461bcd60e51b81526004018080602001828103825260258152602001806122016025913960400191505060405180910390fd5b600781905561103a565b81631c1cd8db60e21b1415611bdc576b033b2e3c9fd0803ce8000000811115611bd25760405162461bcd60e51b815260040180806020018281038252602581526020018061236b6025913960400191505060405180910390fd5b600d81905561103a565b816e616c6c526561646572546f67676c6560881b141561100357600481905561103a565b1790565b6000828201818312801590611c195750838112155b80611c2e5750600083128015611c2e57508381125b61080b5760405162461bcd60e51b81526004018080602001828103825260218152602001806121716021913960400191505060405180910390fd5b600061080b83836040518060400160405280601e81526020017f536166654d6174683a207375627472616374696f6e206f766572666c6f77000081525061202a565b60006002611cb98484611c04565b81611cc057fe5b059392505050565b600082611cd7575060006115da565b82600019148015611ceb5750600160ff1b82145b15611d275760405162461bcd60e51b815260040180806020018281038252602781526020018061228c6027913960400191505060405180910390fd5b82820282848281611d3457fe5b051461080b5760405162461bcd60e51b815260040180806020018281038252602781526020018061228c6027913960400191505060405180910390fd5b600081611dc5576040805162461bcd60e51b815260206004820181905260248201527f5369676e6564536166654d6174683a206469766973696f6e206279207a65726f604482015290519081900360640190fd5b81600019148015611dd95750600160ff1b83145b15611e155760405162461bcd60e51b81526004018080602001828103825260218152602001806121e06021913960400191505060405180910390fd5b6000828481611e2057fe5b05949350505050565b6000818303818312801590611e3e5750838113155b80611e535750600083128015611e5357508381135b61080b5760405162461bcd60e51b81526004018080602001828103825260248152602001806123476024913960400191505060405180910390fd5b6000808212611e9d57816115da565b5060000390565b1690565b6000611eb48383610976565b50600c819055600b805460018082019092557f0175b7a638427703f0dbe7bb9bbf987a2551717b34e79f33b5b1008d1fa01db9018290556040805160608101825242815260208101968752908101928352600a80549283018155600052517fc65a7bb8d6351c1cf70c95a316cc6a92839c986682d98bc35f958f4883f9d2a860039092029182015593517fc65a7bb8d6351c1cf70c95a316cc6a92839c986682d98bc35f958f4883f9d2a9850155517fc65a7bb8d6351c1cf70c95a316cc6a92839c986682d98bc35f958f4883f9d2aa909301929092555050565b600082611f9e575060006115da565b82820282848281611fab57fe5b041461080b5760405162461bcd60e51b81526004018080602001828103825260218152602001806122496021913960400191505060405180910390fd5b600061080b83836040518060400160405280601a81526020017f536166654d6174683a206469766973696f6e206279207a65726f0000000000008152506120c1565b600081848411156120b95760405162461bcd60e51b81526004018080602001828103825283818151815260200191508051906020019080838360005b8381101561207e578181015183820152602001612066565b50505050905090810190601f1680156120ab5780820380516001836020036101000a031916815260200191505b509250505060405180910390fd5b505050900390565b600081836121105760405162461bcd60e51b815260206004820181815283516024840152835190928392604490910191908501908083836000831561207e578181015183820152602001612066565b50600083858161211c57fe5b049594505050505056fe50495261775065725365636f6e6443616c63756c61746f722f696e76616c69642d6e6250495261775065725365636f6e6443616c63756c61746f722f63616e6e6f742d7365742d7064635369676e6564536166654d6174683a206164646974696f6e206f766572666c6f7750495261775065725365636f6e6443616c63756c61746f722f6e6f742d612d72656164657250495261775065725365636f6e6443616c63756c61746f722f6e6f742d616e2d617574686f726974795369676e6564536166654d6174683a206469766973696f6e206f766572666c6f7750495261775065725365636f6e6443616c63756c61746f722f696e76616c69642d666f756250495261775065725365636f6e6443616c63756c61746f722f696e76616c69642d6167536166654d6174683a206d756c7469706c69636174696f6e206f766572666c6f7750495261775065725365636f6e6443616c63756c61746f722f776169742d6d6f72655369676e6564536166654d6174683a206d756c7469706c69636174696f6e206f766572666c6f7750495261775065725365636f6e6443616c63756c61746f722f696e76616c69642d736750495261775065725365636f6e6443616c63756c61746f722f696e76616c69642d666f6c6250495261775065725365636f6e6443616c63756c61746f722f6e756c6c2d69707350495261775065725365636f6e6443616c63756c61746f722f696e76616c69642d6d73672d73656e6465725369676e6564536166654d6174683a207375627472616374696f6e206f766572666c6f7750495261775065725365636f6e6443616c63756c61746f722f696e76616c69642d7073636c50495261775065725365636f6e6443616c63756c61746f722f6d6f646966792d756e7265636f676e697a65642d706172616da2646970667358221220832a8665bc3320daa37a336aa46e6036f971c0678d1215a1ec535c4fcb9b92f664736f6c6343000607003350495261775065725365636f6e6443616c63756c61746f722f696e76616c69642d6e6250495261775065725365636f6e6443616c63756c61746f722f696e76616c69642d69707350495261775065725365636f6e6443616c63756c61746f722f696e76616c69642d666f756250495261775065725365636f6e6443616c63756c61746f722f696e76616c69642d616750495261775065725365636f6e6443616c63756c61746f722f696e76616c69642d736750495261775065725365636f6e6443616c63756c61746f722f696e76616c69642d666f6c6250495261775065725365636f6e6443616c63756c61746f722f696e76616c69642d696d706f727465642d74696d65",
        "linkReferences": {}
    },
    "methodIdentifiers": {
        "adat()": "3523af48",
        "addAuthority(address)": "26defa73",
        "addReader(address)": "afd8b1d1",
        "ag()": "9f180501",
        "allReaderToggle()": "6531fe7b",
        "authorities(address)": "91223d69",
        "breaksNoiseBarrier(uint256,uint256)": "c1b80083",
        "computeRate(uint256,uint256,uint256)": "71c7132e",
        "dgt()": "2af8afca",
        "dos(uint256)": "f6d5924d",
        "drr()": "d41fb39c",
        "folb()": "822c530e",
        "foub()": "803c6ee6",
        "getBoundedRedemptionRate(int256)": "1f5b3005",
        "getGainAdjustedPIOutput(int256,int256)": "f167a1b8",
        "getGainAdjustedTerms(int256,int256)": "50473b68",
        "getLastIntegralTerm()": "e85d3bec",
        "getLastProportionalTerm()": "579e3cb3",
        "getNextPriceDeviationCumulative(int256,uint256)": "37345e63",
        "getNextRedemptionRate(uint256,uint256,uint256)": "4635a4f4",
        "hcd(uint256)": "e5aa2ed0",
        "ips()": "c234f25a",
        "lut()": "30d1c515",
        "modifyParameters(bytes32,address)": "6614f010",
        "modifyParameters(bytes32,int256)": "610a714a",
        "modifyParameters(bytes32,uint256)": "fe4f5890",
        "nb()": "d2c00e24",
        "oll()": "b5647d07",
        "pdc()": "3bd2b97f",
        "pscl()": "5f1b0b98",
        "readers(address)": "51e59ffb",
        "removeAuthority(address)": "d544e010",
        "removeReader(address)": "38d65d11",
        "rt(uint256,uint256,uint256)": "28f2d589",
        "seedProposer()": "69cb9945",
        "sg()": "8d8900bd",
        "tlv()": "6e3126ef"
    },
    "id": 31
}