{
    "abi": [
        {
            "inputs": [
                {
                    "internalType": "address[]",
                    "name": "addresses",
                    "type": "address[]"
                }
            ],
            "stateMutability": "nonpayable",
            "type": "constructor"
        },
        {
            "inputs": [],
            "name": "setup",
            "outputs": [],
            "stateMutability": "nonpayable",
            "type": "function"
        },
        {
            "inputs": [
                {
                    "internalType": "bytes32",
                    "name": "collateralType",
                    "type": "bytes32"
                },
                {
                    "internalType": "address",
                    "name": "auctionHouse",
                    "type": "address"
                },
                {
                    "internalType": "address",
                    "name": "adapter",
                    "type": "address"
                },
                {
                    "internalType": "address",
                    "name": "collateralFSM",
                    "type": "address"
                },
                {
                    "internalType": "uint256",
                    "name": "debtCeiling",
                    "type": "uint256"
                },
                {
                    "internalType": "uint256",
                    "name": "debtFloor",
                    "type": "uint256"
                },
                {
                    "internalType": "uint256",
                    "name": "cRatio",
                    "type": "uint256"
                },
                {
                    "internalType": "uint256",
                    "name": "stabilityFee",
                    "type": "uint256"
                },
                {
                    "internalType": "uint256",
                    "name": "liquidationPenalty",
                    "type": "uint256"
                },
                {
                    "internalType": "uint256",
                    "name": "liquidationQuantity",
                    "type": "uint256"
                }
            ],
            "name": "setupCollateral",
            "outputs": [],
            "stateMutability": "nonpayable",
            "type": "function"
        }
    ],
    "bytecode": {
        "object": "0x60056103408181526104006040529061036060a080368337505081516200002e92600092506020019062000533565b503480156200003c57600080fd5b5060405162003d1f38038062003d1f833981810160405260208110156200006257600080fd5b81019080805160405193929190846401000000008211156200008357600080fd5b9083019060208201858111156200009957600080fd5b8251866020820283011164010000000082111715620000b757600080fd5b82525081516020918201928201910280838360005b83811015620000e6578181015183820152602001620000cc565b5050505090500160405250505042620d2f000160808181525050806000815181106200010e57fe5b60200260200101516001600160a01b031660a0816001600160a01b031660601b81525050806001815181106200014057fe5b60200260200101516001600160a01b031660c0816001600160a01b031660601b81525050806002815181106200017257fe5b60200260200101516001600160a01b031660e0816001600160a01b031660601b8152505080600381518110620001a457fe5b60200260200101516001600160a01b0316610100816001600160a01b031660601b8152505080600481518110620001d757fe5b60200260200101516001600160a01b0316610120816001600160a01b031660601b81525050806005815181106200020a57fe5b60200260200101516001600160a01b0316610140816001600160a01b031660601b81525050806006815181106200023d57fe5b60200260200101516001600160a01b0316610160816001600160a01b031660601b81525050806007815181106200027057fe5b60200260200101516001600160a01b0316610180816001600160a01b031660601b8152505080600881518110620002a357fe5b60200260200101516001600160a01b03166101a0816001600160a01b031660601b8152505080600981518110620002d657fe5b60200260200101516001600160a01b03166101c0816001600160a01b031660601b8152505080600a815181106200030957fe5b60200260200101516001600160a01b03166101e0816001600160a01b031660601b8152505080600b815181106200033c57fe5b60200260200101516001600160a01b0316610200816001600160a01b031660601b8152505080600c815181106200036f57fe5b60200260200101516001600160a01b0316610220816001600160a01b031660601b8152505080600d81518110620003a257fe5b60200260200101516001600160a01b0316610240816001600160a01b031660601b8152505080600e81518110620003d557fe5b60200260200101516001600160a01b0316610260816001600160a01b031660601b8152505080600f815181106200040857fe5b60200260200101516001600160a01b0316610280816001600160a01b031660601b81525050806010815181106200043b57fe5b60200260200101516001600160a01b03166102a0816001600160a01b031660601b81525050806011815181106200046e57fe5b60200260200101516001600160a01b03166102c0816001600160a01b031660601b8152505080601281518110620004a157fe5b60200260200101516001600160a01b03166102e0816001600160a01b031660601b8152505080601381518110620004d457fe5b60200260200101516001600160a01b0316610300816001600160a01b031660601b81525050806014815181106200050757fe5b60200260200101516001600160a01b0316610320816001600160a01b031660601b8152505050620005a3565b82805482825590600052602060002090810192821562000571579160200282015b828111156200057157825182559160200191906001019062000554565b506200057f92915062000583565b5090565b620005a091905b808211156200057f57600081556001016200058a565b90565b60805160a05160601c60c05160601c60e05160601c6101005160601c6101205160601c6101405160601c6101605160601c6101805160601c6101a05160601c6101c05160601c6101e05160601c6102005160601c6102205160601c6102405160601c6102605160601c6102805160601c6102a05160601c6102c05160601c6102e05160601c6103005160601c6103205160601c61348e62000891600039806128da528061299a525080610db8525080610de75280610e685280610f1852806116cc52508061332652806133d55250806126c75280612780528061284852806132c3525080612617528061323652508061258552806131a95250806124cf528061311c5250806105175280611afe5280611bc35280611c8f5280611d5a5280611e525280611f4f528061204e52806120fe52806121ae528061225e528061233e528061241e52806124a0528061308f525080611f205280611f7e52806123c052806123ef5280612698528061275152806128ab528061296b52806130025250806101ea52806102e2528061038552806103e8528061048752806118d352806119cd5280611a7d5280611bf252806120cf5280612f755250806113d4528061149f528061156c528061161c528061169d52806117c5528061187052806119025280611a4e5280611cbe528061217f5280612ee8525080610e97528061132452806113a552806115ed5280612e5b525080610f475280611294528061153d5280612dd0525080611e215280611e8152806122de528061230f5280612ce55280612d425250806106bd528061077452806111c852806114705280612c8352508060aa528061015a528061063f52806109af5280610a465280611086528061119952806112f5528061199e5280611b2d528061201f5280612bf652508060d9528061059852806108625280610ae25280610b835280610d2d5280611d89528061222f52806125e85280612b69525080610fc85250806111185280612adc5250806110e95280612a4f52505061348e6000f3fe608060405234801561001057600080fd5b50600436106100365760003560e01c80637f49ccfc1461003b578063ba0bba40146100a0575b600080fd5b61009e600480360361014081101561005257600080fd5b508035906001600160a01b03602082013581169160408101358216916060820135169060808101359060a08101359060c08101359060e0810135906101008101359061012001356100a8565b005b61009e610db6565b7f00000000000000000000000000000000000000000000000000000000000000006001600160a01b03166335b281537f00000000000000000000000000000000000000000000000000000000000000006040518263ffffffff1660e01b815260040180826001600160a01b03166001600160a01b03168152602001915050600060405180830381600087803b15801561014057600080fd5b505af1158015610154573d6000803e3d6000fd5b505050507f00000000000000000000000000000000000000000000000000000000000000006001600160a01b03166335b28153896040518263ffffffff1660e01b815260040180826001600160a01b03166001600160a01b03168152602001915050600060405180830381600087803b1580156101d057600080fd5b505af11580156101e4573d6000803e3d6000fd5b505050507f00000000000000000000000000000000000000000000000000000000000000006001600160a01b031663513a3dba8b8b6040518363ffffffff1660e01b8152600401808381526020018075636f6c6c61746572616c41756374696f6e486f75736560501b815250602001826001600160a01b03166001600160a01b0316815260200192505050600060405180830381600087803b15801561028957600080fd5b505af115801561029d573d6000803e3d6000fd5b50506040805163d4b9311d60e01b8152600481018e9052716c69717569646174696f6e50656e616c747960701b60248201526044810186905290516001600160a01b037f000000000000000000000000000000000000000000000000000000000000000016935063d4b9311d9250606480830192600092919082900301818387803b15801561032b57600080fd5b505af115801561033f573d6000803e3d6000fd5b50506040805163d4b9311d60e01b8152600481018e9052726c69717569646174696f6e5175616e7469747960681b60248201526044810185905290516001600160a01b037f000000000000000000000000000000000000000000000000000000000000000016935063d4b9311d9250606480830192600092919082900301818387803b1580156103ce57600080fd5b505af11580156103e2573d6000803e3d6000fd5b505050507f00000000000000000000000000000000000000000000000000000000000000006001600160a01b03166335b281538a6040518263ffffffff1660e01b815260040180826001600160a01b03166001600160a01b03168152602001915050600060405180830381600087803b15801561045e57600080fd5b505af1158015610472573d6000803e3d6000fd5b50505050886001600160a01b03166335b281537f00000000000000000000000000000000000000000000000000000000000000006040518263ffffffff1660e01b815260040180826001600160a01b03166001600160a01b03168152602001915050600060405180830381600087803b1580156104ee57600080fd5b505af1158015610502573d6000803e3d6000fd5b50505050886001600160a01b03166335b281537f00000000000000000000000000000000000000000000000000000000000000006040518263ffffffff1660e01b815260040180826001600160a01b03166001600160a01b03168152602001915050600060405180830381600087803b15801561057e57600080fd5b505af1158015610592573d6000803e3d6000fd5b505050507f00000000000000000000000000000000000000000000000000000000000000006001600160a01b031663513a3dba8b896040518363ffffffff1660e01b81526004018083815260200180631bdc98db60e21b815250602001826001600160a01b03166001600160a01b0316815260200192505050600060405180830381600087803b15801561062557600080fd5b505af1158015610639573d6000803e3d6000fd5b505050507f00000000000000000000000000000000000000000000000000000000000000006001600160a01b0316635e4128588b6040518263ffffffff1660e01b815260040180828152602001915050600060405180830381600087803b1580156106a357600080fd5b505af11580156106b7573d6000803e3d6000fd5b505050507f00000000000000000000000000000000000000000000000000000000000000006001600160a01b0316635e4128588b6040518263ffffffff1660e01b815260040180828152602001915050600060405180830381600087803b15801561072157600080fd5b505af1158015610735573d6000803e3d6000fd5b50506040805163d4b9311d60e01b8152600481018e90526b73746162696c69747946656560a01b60248201526044810187905290516001600160a01b037f000000000000000000000000000000000000000000000000000000000000000016935063d4b9311d9250606480830192600092919082900301818387803b1580156107bd57600080fd5b505af11580156107d1573d6000803e3d6000fd5b505050506000896001600160a01b031663355a47536040518163ffffffff1660e01b8152600401602060405180830381600087803b15801561081257600080fd5b505af1158015610826573d6000803e3d6000fd5b505050506040513d602081101561083c57600080fd5b505190506608a9c8e9892a6960cb1b811461097357896001600160a01b0316636614f0107f00000000000000000000000000000000000000000000000000000000000000006040518263ffffffff1660e01b815260040180806c37b930b1b632a932b630bcb2b960991b815250602001826001600160a01b03166001600160a01b03168152602001915050600060405180830381600087803b1580156108e157600080fd5b505af11580156108f5573d6000803e3d6000fd5b5050604080516306614f0160e41b81526c636f6c6c61746572616c46534d60981b60048201526001600160a01b038c811660248301529151918e169350636614f010925060448082019260009290919082900301818387803b15801561095a57600080fd5b505af115801561096e573d6000803e3d6000fd5b505050505b6040805163d4b9311d60e01b8152600481018d90526a646562744365696c696e6760a81b60248201526044810189905290516001600160a01b037f0000000000000000000000000000000000000000000000000000000000000000169163d4b9311d91606480830192600092919082900301818387803b1580156109f657600080fd5b505af1158015610a0a573d6000803e3d6000fd5b50506040805163d4b9311d60e01b8152600481018f9052683232b13a233637b7b960b91b6024820152604481018a905290516001600160a01b037f000000000000000000000000000000000000000000000000000000000000000016935063d4b9311d9250606480830192600092919082900301818387803b158015610a8f57600080fd5b505af1158015610aa3573d6000803e3d6000fd5b50506040805163d4b9311d60e01b8152600481018f90526b73616665747943526174696f60a01b60248201526044810189905290516001600160a01b037f000000000000000000000000000000000000000000000000000000000000000016935063d4b9311d9250606480830192600092919082900301818387803b158015610b2b57600080fd5b505af1158015610b3f573d6000803e3d6000fd5b50506040805163d4b9311d60e01b8152600481018f9052706c69717569646174696f6e43526174696f60781b60248201526044810189905290516001600160a01b037f000000000000000000000000000000000000000000000000000000000000000016935063d4b9311d9250606480830192600092919082900301818387803b158015610bcc57600080fd5b505af1158015610be0573d6000803e3d6000fd5b5050604080516394f3f81d60e01b8152600080516020613439833981519152600482015290516001600160a01b038e1693506394f3f81d9250602480830192600092919082900301818387803b158015610c3957600080fd5b505af1158015610c4d573d6000803e3d6000fd5b5050604080516394f3f81d60e01b8152600080516020613439833981519152600482015290516001600160a01b038d1693506394f3f81d9250602480830192600092919082900301818387803b158015610ca657600080fd5b505af1158015610cba573d6000803e3d6000fd5b5050604080516394f3f81d60e01b8152600080516020613439833981519152600482015290516001600160a01b038c1693506394f3f81d9250602480830192600092919082900301818387803b158015610d1357600080fd5b505af1158015610d27573d6000803e3d6000fd5b505050507f00000000000000000000000000000000000000000000000000000000000000006001600160a01b0316636d530fb38c6040518263ffffffff1660e01b815260040180828152602001915050600060405180830381600087803b158015610d9157600080fd5b505af1158015610da5573d6000803e3d6000fd5b505050505050505050505050505050565b7f00000000000000000000000000000000000000000000000000000000000000006001600160a01b0316637a9e5e4b7f00000000000000000000000000000000000000000000000000000000000000006040518263ffffffff1660e01b815260040180826001600160a01b03166001600160a01b03168152602001915050600060405180830381600087803b158015610e4e57600080fd5b505af1158015610e62573d6000803e3d6000fd5b505050507f00000000000000000000000000000000000000000000000000000000000000006001600160a01b03166335b281537f00000000000000000000000000000000000000000000000000000000000000006040518263ffffffff1660e01b815260040180826001600160a01b03166001600160a01b03168152602001915050600060405180830381600087803b158015610efe57600080fd5b505af1158015610f12573d6000803e3d6000fd5b505050507f00000000000000000000000000000000000000000000000000000000000000006001600160a01b03166335b281537f00000000000000000000000000000000000000000000000000000000000000006040518263ffffffff1660e01b815260040180826001600160a01b03166001600160a01b03168152602001915050600060405180830381600087803b158015610fae57600080fd5b505af1158015610fc2573d6000803e3d6000fd5b505050507f00000000000000000000000000000000000000000000000000000000000000006001600160a01b03166382dcc26d678ac7230489e800006040518263ffffffff1660e01b815260040180828152602001915050600060405180830381600087803b15801561103457600080fd5b505af1158015611048573d6000803e3d6000fd5b505060408051630fe4f58960e41b815270676c6f62616c446562744365696c696e6760781b6004820152600019602482015290516001600160a01b037f000000000000000000000000000000000000000000000000000000000000000016935063fe4f58909250604480830192600092919082900301818387803b1580156110cf57600080fd5b505af11580156110e3573d6000803e3d6000fd5b505050507f00000000000000000000000000000000000000000000000000000000000000006001600160a01b03166335b281537f00000000000000000000000000000000000000000000000000000000000000006040518263ffffffff1660e01b815260040180826001600160a01b03166001600160a01b03168152602001915050600060405180830381600087803b15801561117f57600080fd5b505af1158015611193573d6000803e3d6000fd5b505050507f00000000000000000000000000000000000000000000000000000000000000006001600160a01b03166335b281537f00000000000000000000000000000000000000000000000000000000000000006040518263ffffffff1660e01b815260040180826001600160a01b03166001600160a01b03168152602001915050600060405180830381600087803b15801561122f57600080fd5b505af1158015611243573d6000803e3d6000fd5b5061124d92505050565b604080516306614f0160e41b81527f70726f746f636f6c546f6b656e4269645265636569766572000000000000000060048201526001602482015290516001600160a01b037f00000000000000000000000000000000000000000000000000000000000000001691636614f01091604480830192600092919082900301818387803b1580156112db57600080fd5b505af11580156112ef573d6000803e3d6000fd5b505050507f00000000000000000000000000000000000000000000000000000000000000006001600160a01b03166335b281537f00000000000000000000000000000000000000000000000000000000000000006040518263ffffffff1660e01b815260040180826001600160a01b03166001600160a01b03168152602001915050600060405180830381600087803b15801561138b57600080fd5b505af115801561139f573d6000803e3d6000fd5b505050507f00000000000000000000000000000000000000000000000000000000000000006001600160a01b0316636614f0107f00000000000000000000000000000000000000000000000000000000000000006040518263ffffffff1660e01b815260040180806f6163636f756e74696e67456e67696e6560801b815250602001826001600160a01b03166001600160a01b03168152602001915050600060405180830381600087803b15801561145657600080fd5b505af115801561146a573d6000803e3d6000fd5b505050507f00000000000000000000000000000000000000000000000000000000000000006001600160a01b0316636614f0107f00000000000000000000000000000000000000000000000000000000000000006040518263ffffffff1660e01b8152600401808071383934b6b0b93caa30bc2932b1b2b4bb32b960711b815250602001826001600160a01b03166001600160a01b03168152602001915050600060405180830381600087803b15801561152357600080fd5b505af1158015611537573d6000803e3d6000fd5b505050507f00000000000000000000000000000000000000000000000000000000000000006001600160a01b03166335b281537f00000000000000000000000000000000000000000000000000000000000000006040518263ffffffff1660e01b815260040180826001600160a01b03166001600160a01b03168152602001915050600060405180830381600087803b1580156115d357600080fd5b505af11580156115e7573d6000803e3d6000fd5b505050507f00000000000000000000000000000000000000000000000000000000000000006001600160a01b03166335b281537f00000000000000000000000000000000000000000000000000000000000000006040518263ffffffff1660e01b815260040180826001600160a01b03166001600160a01b03168152602001915050600060405180830381600087803b15801561168357600080fd5b505af1158015611697573d6000803e3d6000fd5b505050507f00000000000000000000000000000000000000000000000000000000000000006001600160a01b0316636614f0107f00000000000000000000000000000000000000000000000000000000000000006040518263ffffffff1660e01b815260040180807570726f746f636f6c546f6b656e417574686f7269747960501b815250602001826001600160a01b03166001600160a01b03168152602001915050600060405180830381600087803b15801561175457600080fd5b505af1158015611768573d6000803e3d6000fd5b505060408051630fe4f58960e41b81527f737572706c757341756374696f6e416d6f756e74546f53656c6c000000000000600482015274101b46ef0a30e12310ddb28a484be3c60c5d140000602482015290516001600160a01b037f000000000000000000000000000000000000000000000000000000000000000016935063fe4f58909250604480830192600092919082900301818387803b15801561180e57600080fd5b505af1158015611822573d6000803e3d6000fd5b505060408051630fe4f58960e41b81526c39bab938363ab9a13ab33332b960991b60048201527501561d276ddfdc00a71dd41a08f48af4000000000000602482015290516001600160a01b037f000000000000000000000000000000000000000000000000000000000000000016935063fe4f58909250604480830192600092919082900301818387803b1580156118b957600080fd5b505af11580156118cd573d6000803e3d6000fd5b505050507f00000000000000000000000000000000000000000000000000000000000000006001600160a01b0316636614f0107f00000000000000000000000000000000000000000000000000000000000000006040518263ffffffff1660e01b815260040180806f6163636f756e74696e67456e67696e6560801b815250602001826001600160a01b03166001600160a01b03168152602001915050600060405180830381600087803b15801561198457600080fd5b505af1158015611998573d6000803e3d6000fd5b505050507f00000000000000000000000000000000000000000000000000000000000000006001600160a01b03166335b281537f00000000000000000000000000000000000000000000000000000000000000006040518263ffffffff1660e01b815260040180826001600160a01b03166001600160a01b03168152602001915050600060405180830381600087803b158015611a3457600080fd5b505af1158015611a48573d6000803e3d6000fd5b505050507f00000000000000000000000000000000000000000000000000000000000000006001600160a01b03166335b281537f00000000000000000000000000000000000000000000000000000000000000006040518263ffffffff1660e01b815260040180826001600160a01b03166001600160a01b03168152602001915050600060405180830381600087803b158015611ae457600080fd5b505af1158015611af8573d6000803e3d6000fd5b505050507f00000000000000000000000000000000000000000000000000000000000000006001600160a01b0316636614f0107f00000000000000000000000000000000000000000000000000000000000000006040518263ffffffff1660e01b815260040180806973616665456e67696e6560b01b815250602001826001600160a01b03166001600160a01b03168152602001915050600060405180830381600087803b158015611ba957600080fd5b505af1158015611bbd573d6000803e3d6000fd5b505050507f00000000000000000000000000000000000000000000000000000000000000006001600160a01b0316636614f0107f00000000000000000000000000000000000000000000000000000000000000006040518263ffffffff1660e01b81526004018080706c69717569646174696f6e456e67696e6560781b815250602001826001600160a01b03166001600160a01b03168152602001915050600060405180830381600087803b158015611c7557600080fd5b505af1158015611c89573d6000803e3d6000fd5b505050507f00000000000000000000000000000000000000000000000000000000000000006001600160a01b0316636614f0107f00000000000000000000000000000000000000000000000000000000000000006040518263ffffffff1660e01b815260040180806f6163636f756e74696e67456e67696e6560801b815250602001826001600160a01b03166001600160a01b03168152602001915050600060405180830381600087803b158015611d4057600080fd5b505af1158015611d54573d6000803e3d6000fd5b505050507f00000000000000000000000000000000000000000000000000000000000000006001600160a01b0316636614f0107f00000000000000000000000000000000000000000000000000000000000000006040518263ffffffff1660e01b815260040180806c37b930b1b632a932b630bcb2b960991b815250602001826001600160a01b03166001600160a01b03168152602001915050600060405180830381600087803b158015611e0857600080fd5b505af1158015611e1c573d6000803e3d6000fd5b5050507f00000000000000000000000000000000000000000000000000000000000000006001600160a01b0316159050611f1e577f00000000000000000000000000000000000000000000000000000000000000006001600160a01b0316636614f0107f00000000000000000000000000000000000000000000000000000000000000006040518263ffffffff1660e01b815260040180807118dbda5b94d85d9a5b99dcd058d8dbdd5b9d60721b815250602001826001600160a01b03166001600160a01b03168152602001915050600060405180830381600087803b158015611f0557600080fd5b505af1158015611f19573d6000803e3d6000fd5b505050505b7f00000000000000000000000000000000000000000000000000000000000000006001600160a01b03161561201d577f00000000000000000000000000000000000000000000000000000000000000006001600160a01b0316636614f0107f00000000000000000000000000000000000000000000000000000000000000006040518263ffffffff1660e01b815260040180807373746162696c697479466565547265617375727960601b815250602001826001600160a01b03166001600160a01b03168152602001915050600060405180830381600087803b15801561200457600080fd5b505af1158015612018573d6000803e3d6000fd5b505050505b7f00000000000000000000000000000000000000000000000000000000000000006001600160a01b03166335b281537f00000000000000000000000000000000000000000000000000000000000000006040518263ffffffff1660e01b815260040180826001600160a01b03166001600160a01b03168152602001915050600060405180830381600087803b1580156120b557600080fd5b505af11580156120c9573d6000803e3d6000fd5b505050507f00000000000000000000000000000000000000000000000000000000000000006001600160a01b03166335b281537f00000000000000000000000000000000000000000000000000000000000000006040518263ffffffff1660e01b815260040180826001600160a01b03166001600160a01b03168152602001915050600060405180830381600087803b15801561216557600080fd5b505af1158015612179573d6000803e3d6000fd5b505050507f00000000000000000000000000000000000000000000000000000000000000006001600160a01b03166335b281537f00000000000000000000000000000000000000000000000000000000000000006040518263ffffffff1660e01b815260040180826001600160a01b03166001600160a01b03168152602001915050600060405180830381600087803b15801561221557600080fd5b505af1158015612229573d6000803e3d6000fd5b505050507f00000000000000000000000000000000000000000000000000000000000000006001600160a01b03166335b281537f00000000000000000000000000000000000000000000000000000000000000006040518263ffffffff1660e01b815260040180826001600160a01b03166001600160a01b03168152602001915050600060405180830381600087803b1580156122c557600080fd5b505af11580156122d9573d6000803e3d6000fd5b5050507f00000000000000000000000000000000000000000000000000000000000000006001600160a01b03161590506123be577f00000000000000000000000000000000000000000000000000000000000000006001600160a01b03166335b281537f00000000000000000000000000000000000000000000000000000000000000006040518263ffffffff1660e01b815260040180826001600160a01b03166001600160a01b03168152602001915050600060405180830381600087803b1580156123a557600080fd5b505af11580156123b9573d6000803e3d6000fd5b505050505b7f00000000000000000000000000000000000000000000000000000000000000006001600160a01b03161561249e577f00000000000000000000000000000000000000000000000000000000000000006001600160a01b03166335b281537f00000000000000000000000000000000000000000000000000000000000000006040518263ffffffff1660e01b815260040180826001600160a01b03166001600160a01b03168152602001915050600060405180830381600087803b15801561248557600080fd5b505af1158015612499573d6000803e3d6000fd5b505050505b7f00000000000000000000000000000000000000000000000000000000000000006001600160a01b03166335b281537f00000000000000000000000000000000000000000000000000000000000000006040518263ffffffff1660e01b815260040180826001600160a01b03166001600160a01b03168152602001915050600060405180830381600087803b15801561253657600080fd5b505af115801561254a573d6000803e3d6000fd5b505060408051630fe4f58960e41b81526e616c6c526561646572546f67676c6560881b60048201526001602482015290516001600160a01b037f000000000000000000000000000000000000000000000000000000000000000016935063fe4f58909250604480830192600092919082900301818387803b1580156125ce57600080fd5b505af11580156125e2573d6000803e3d6000fd5b505050507f00000000000000000000000000000000000000000000000000000000000000006001600160a01b03166335b281537f00000000000000000000000000000000000000000000000000000000000000006040518263ffffffff1660e01b815260040180826001600160a01b03166001600160a01b03168152602001915050600060405180830381600087803b15801561267e57600080fd5b505af1158015612692573d6000803e3d6000fd5b505050507f00000000000000000000000000000000000000000000000000000000000000006001600160a01b0316633d285a6f7f000000000000000000000000000000000000000000000000000000000000000060c86040518363ffffffff1660e01b815260040180836001600160a01b03166001600160a01b0316815260200182815260200192505050600060405180830381600087803b15801561273757600080fd5b505af115801561274b573d6000803e3d6000fd5b505050507f00000000000000000000000000000000000000000000000000000000000000006001600160a01b03166343e9c6b07f00000000000000000000000000000000000000000000000000000000000000006000196040518363ffffffff1660e01b815260040180836001600160a01b03166001600160a01b0316815260200182815260200192505050600060405180830381600087803b1580156127f157600080fd5b505af1158015612805573d6000803e3d6000fd5b505060408051630fe4f58960e41b8152756d6178526577617264496e63726561736544656c617960501b6004820152615460602482015290516001600160a01b037f000000000000000000000000000000000000000000000000000000000000000016935063fe4f58909250604480830192600092919082900301818387803b15801561289157600080fd5b505af11580156128a5573d6000803e3d6000fd5b505050507f00000000000000000000000000000000000000000000000000000000000000006001600160a01b0316633d285a6f7f0000000000000000000000000000000000000000000000000000000000000000676ffaa311263102956040518363ffffffff1660e01b815260040180836001600160a01b03166001600160a01b0316815260200182815260200192505050600060405180830381600087803b15801561295157600080fd5b505af1158015612965573d6000803e3d6000fd5b505050507f00000000000000000000000000000000000000000000000000000000000000006001600160a01b03166343e9c6b07f00000000000000000000000000000000000000000000000000000000000000006000196040518363ffffffff1660e01b815260040180836001600160a01b03166001600160a01b0316815260200182815260200192505050600060405180830381600087803b158015612a0b57600080fd5b505af1158015612a1f573d6000803e3d6000fd5b5050604080516394f3f81d60e01b8152600080516020613439833981519152600482015290516001600160a01b037f00000000000000000000000000000000000000000000000000000000000000001693506394f3f81d9250602480830192600092919082900301818387803b158015612a9857600080fd5b505af1158015612aac573d6000803e3d6000fd5b5050604080516394f3f81d60e01b8152600080516020613439833981519152600482015290516001600160a01b037f00000000000000000000000000000000000000000000000000000000000000001693506394f3f81d9250602480830192600092919082900301818387803b158015612b2557600080fd5b505af1158015612b39573d6000803e3d6000fd5b5050604080516394f3f81d60e01b8152600080516020613439833981519152600482015290516001600160a01b037f00000000000000000000000000000000000000000000000000000000000000001693506394f3f81d9250602480830192600092919082900301818387803b158015612bb257600080fd5b505af1158015612bc6573d6000803e3d6000fd5b5050604080516394f3f81d60e01b8152600080516020613439833981519152600482015290516001600160a01b037f00000000000000000000000000000000000000000000000000000000000000001693506394f3f81d9250602480830192600092919082900301818387803b158015612c3f57600080fd5b505af1158015612c53573d6000803e3d6000fd5b5050604080516394f3f81d60e01b8152600080516020613439833981519152600482015290516001600160a01b037f00000000000000000000000000000000000000000000000000000000000000001693506394f3f81d9250602480830192600092919082900301818387803b158015612ccc57600080fd5b505af1158015612ce0573d6000803e3d6000fd5b5050507f00000000000000000000000000000000000000000000000000000000000000006001600160a01b0316159050612da257604080516394f3f81d60e01b8152600080516020613439833981519152600482015290516001600160a01b037f000000000000000000000000000000000000000000000000000000000000000016916394f3f81d91602480830192600092919082900301818387803b158015612d8957600080fd5b505af1158015612d9d573d6000803e3d6000fd5b505050505b604080516394f3f81d60e01b8152600080516020613439833981519152600482015290516001600160a01b037f000000000000000000000000000000000000000000000000000000000000000016916394f3f81d91602480830192600092919082900301818387803b158015612e1757600080fd5b505af1158015612e2b573d6000803e3d6000fd5b5050604080516394f3f81d60e01b8152600080516020613439833981519152600482015290516001600160a01b037f00000000000000000000000000000000000000000000000000000000000000001693506394f3f81d9250602480830192600092919082900301818387803b158015612ea457600080fd5b505af1158015612eb8573d6000803e3d6000fd5b5050604080516394f3f81d60e01b8152600080516020613439833981519152600482015290516001600160a01b037f00000000000000000000000000000000000000000000000000000000000000001693506394f3f81d9250602480830192600092919082900301818387803b158015612f3157600080fd5b505af1158015612f45573d6000803e3d6000fd5b5050604080516394f3f81d60e01b8152600080516020613439833981519152600482015290516001600160a01b037f00000000000000000000000000000000000000000000000000000000000000001693506394f3f81d9250602480830192600092919082900301818387803b158015612fbe57600080fd5b505af1158015612fd2573d6000803e3d6000fd5b5050604080516394f3f81d60e01b8152600080516020613439833981519152600482015290516001600160a01b037f00000000000000000000000000000000000000000000000000000000000000001693506394f3f81d9250602480830192600092919082900301818387803b15801561304b57600080fd5b505af115801561305f573d6000803e3d6000fd5b5050604080516394f3f81d60e01b8152600080516020613439833981519152600482015290516001600160a01b037f00000000000000000000000000000000000000000000000000000000000000001693506394f3f81d9250602480830192600092919082900301818387803b1580156130d857600080fd5b505af11580156130ec573d6000803e3d6000fd5b5050604080516394f3f81d60e01b8152600080516020613439833981519152600482015290516001600160a01b037f00000000000000000000000000000000000000000000000000000000000000001693506394f3f81d9250602480830192600092919082900301818387803b15801561316557600080fd5b505af1158015613179573d6000803e3d6000fd5b505060408051630d544e0160e41b8152600080516020613439833981519152600482015290516001600160a01b037f000000000000000000000000000000000000000000000000000000000000000016935063d544e0109250602480830192600092919082900301818387803b1580156131f257600080fd5b505af1158015613206573d6000803e3d6000fd5b5050604080516394f3f81d60e01b8152600080516020613439833981519152600482015290516001600160a01b037f00000000000000000000000000000000000000000000000000000000000000001693506394f3f81d9250602480830192600092919082900301818387803b15801561327f57600080fd5b505af1158015613293573d6000803e3d6000fd5b5050604080516394f3f81d60e01b8152600080516020613439833981519152600482015290516001600160a01b037f00000000000000000000000000000000000000000000000000000000000000001693506394f3f81d9250602480830192600092919082900301818387803b15801561330c57600080fd5b505af1158015613320573d6000803e3d6000fd5b505050507f00000000000000000000000000000000000000000000000000000000000000006001600160a01b031663e177246e60006040518263ffffffff1660e01b815260040180828152602001915050600060405180830381600087803b15801561338b57600080fd5b505af115801561339f573d6000803e3d6000fd5b5050604080516313af403560e01b815273336281cb29d22914242edfc4467e1f458fb378c7600482015290516001600160a01b037f00000000000000000000000000000000000000000000000000000000000000001693506313af40359250602480830192600092919082900301818387803b15801561341e57600080fd5b505af1158015613432573d6000803e3d6000fd5b5050505056fe000000000000000000000000f39fd6e51aad88f6f4ce6ab8827279cfffb92266a2646970667358221220790a1670c701c4e2bed7b7fbb00cd1f58bcf1d9b702bdbe4d684c2b850f33b3d64736f6c63430006070033",
        "linkReferences": {}
    },
    "methodIdentifiers": {
        "setup()": "ba0bba40",
        "setupCollateral(bytes32,address,address,address,uint256,uint256,uint256,uint256,uint256,uint256)": "7f49ccfc"
    },
    "id": 56
}