{
    "abi": [
        {
            "inputs": [
                {
                    "internalType": "string",
                    "name": "name_",
                    "type": "string"
                },
                {
                    "internalType": "string",
                    "name": "symbol_",
                    "type": "string"
                },
                {
                    "internalType": "uint256",
                    "name": "chainId_",
                    "type": "uint256"
                }
            ],
            "stateMutability": "nonpayable",
            "type": "constructor"
        },
        {
            "anonymous": false,
            "inputs": [
                {
                    "indexed": false,
                    "internalType": "address",
                    "name": "account",
                    "type": "address"
                }
            ],
            "name": "AddAuthorization",
            "type": "event"
        },
        {
            "anonymous": false,
            "inputs": [
                {
                    "indexed": true,
                    "internalType": "address",
                    "name": "src",
                    "type": "address"
                },
                {
                    "indexed": true,
                    "internalType": "address",
                    "name": "guy",
                    "type": "address"
                },
                {
                    "indexed": false,
                    "internalType": "uint256",
                    "name": "amount",
                    "type": "uint256"
                }
            ],
            "name": "Approval",
            "type": "event"
        },
        {
            "anonymous": false,
            "inputs": [
                {
                    "indexed": false,
                    "internalType": "address",
                    "name": "account",
                    "type": "address"
                }
            ],
            "name": "RemoveAuthorization",
            "type": "event"
        },
        {
            "anonymous": false,
            "inputs": [
                {
                    "indexed": true,
                    "internalType": "address",
                    "name": "src",
                    "type": "address"
                },
                {
                    "indexed": true,
                    "internalType": "address",
                    "name": "dst",
                    "type": "address"
                },
                {
                    "indexed": false,
                    "internalType": "uint256",
                    "name": "amount",
                    "type": "uint256"
                }
            ],
            "name": "Transfer",
            "type": "event"
        },
        {
            "inputs": [],
            "name": "DOMAIN_SEPARATOR",
            "outputs": [
                {
                    "internalType": "bytes32",
                    "name": "",
                    "type": "bytes32"
                }
            ],
            "stateMutability": "view",
            "type": "function"
        },
        {
            "inputs": [],
            "name": "PERMIT_TYPEHASH",
            "outputs": [
                {
                    "internalType": "bytes32",
                    "name": "",
                    "type": "bytes32"
                }
            ],
            "stateMutability": "view",
            "type": "function"
        },
        {
            "inputs": [
                {
                    "internalType": "address",
                    "name": "account",
                    "type": "address"
                }
            ],
            "name": "addAuthorization",
            "outputs": [],
            "stateMutability": "nonpayable",
            "type": "function"
        },
        {
            "inputs": [
                {
                    "internalType": "address",
                    "name": "",
                    "type": "address"
                },
                {
                    "internalType": "address",
                    "name": "",
                    "type": "address"
                }
            ],
            "name": "allowance",
            "outputs": [
                {
                    "internalType": "uint256",
                    "name": "",
                    "type": "uint256"
                }
            ],
            "stateMutability": "view",
            "type": "function"
        },
        {
            "inputs": [
                {
                    "internalType": "address",
                    "name": "usr",
                    "type": "address"
                },
                {
                    "internalType": "uint256",
                    "name": "amount",
                    "type": "uint256"
                }
            ],
            "name": "approve",
            "outputs": [
                {
                    "internalType": "bool",
                    "name": "",
                    "type": "bool"
                }
            ],
            "stateMutability": "nonpayable",
            "type": "function"
        },
        {
            "inputs": [
                {
                    "internalType": "address",
                    "name": "",
                    "type": "address"
                }
            ],
            "name": "authorizedAccounts",
            "outputs": [
                {
                    "internalType": "uint256",
                    "name": "",
                    "type": "uint256"
                }
            ],
            "stateMutability": "view",
            "type": "function"
        },
        {
            "inputs": [
                {
                    "internalType": "address",
                    "name": "",
                    "type": "address"
                }
            ],
            "name": "balanceOf",
            "outputs": [
                {
                    "internalType": "uint256",
                    "name": "",
                    "type": "uint256"
                }
            ],
            "stateMutability": "view",
            "type": "function"
        },
        {
            "inputs": [
                {
                    "internalType": "address",
                    "name": "usr",
                    "type": "address"
                },
                {
                    "internalType": "uint256",
                    "name": "amount",
                    "type": "uint256"
                }
            ],
            "name": "burn",
            "outputs": [],
            "stateMutability": "nonpayable",
            "type": "function"
        },
        {
            "inputs": [],
            "name": "chainId",
            "outputs": [
                {
                    "internalType": "uint256",
                    "name": "",
                    "type": "uint256"
                }
            ],
            "stateMutability": "view",
            "type": "function"
        },
        {
            "inputs": [],
            "name": "decimals",
            "outputs": [
                {
                    "internalType": "uint8",
                    "name": "",
                    "type": "uint8"
                }
            ],
            "stateMutability": "view",
            "type": "function"
        },
        {
            "inputs": [
                {
                    "internalType": "address",
                    "name": "usr",
                    "type": "address"
                },
                {
                    "internalType": "uint256",
                    "name": "amount",
                    "type": "uint256"
                }
            ],
            "name": "mint",
            "outputs": [],
            "stateMutability": "nonpayable",
            "type": "function"
        },
        {
            "inputs": [
                {
                    "internalType": "address",
                    "name": "src",
                    "type": "address"
                },
                {
                    "internalType": "address",
                    "name": "dst",
                    "type": "address"
                },
                {
                    "internalType": "uint256",
                    "name": "amount",
                    "type": "uint256"
                }
            ],
            "name": "move",
            "outputs": [],
            "stateMutability": "nonpayable",
            "type": "function"
        },
        {
            "inputs": [],
            "name": "name",
            "outputs": [
                {
                    "internalType": "string",
                    "name": "",
                    "type": "string"
                }
            ],
            "stateMutability": "view",
            "type": "function"
        },
        {
            "inputs": [
                {
                    "internalType": "address",
                    "name": "",
                    "type": "address"
                }
            ],
            "name": "nonces",
            "outputs": [
                {
                    "internalType": "uint256",
                    "name": "",
                    "type": "uint256"
                }
            ],
            "stateMutability": "view",
            "type": "function"
        },
        {
            "inputs": [
                {
                    "internalType": "address",
                    "name": "holder",
                    "type": "address"
                },
                {
                    "internalType": "address",
                    "name": "spender",
                    "type": "address"
                },
                {
                    "internalType": "uint256",
                    "name": "nonce",
                    "type": "uint256"
                },
                {
                    "internalType": "uint256",
                    "name": "expiry",
                    "type": "uint256"
                },
                {
                    "internalType": "bool",
                    "name": "allowed",
                    "type": "bool"
                },
                {
                    "internalType": "uint8",
                    "name": "v",
                    "type": "uint8"
                },
                {
                    "internalType": "bytes32",
                    "name": "r",
                    "type": "bytes32"
                },
                {
                    "internalType": "bytes32",
                    "name": "s",
                    "type": "bytes32"
                }
            ],
            "name": "permit",
            "outputs": [],
            "stateMutability": "nonpayable",
            "type": "function"
        },
        {
            "inputs": [
                {
                    "internalType": "address",
                    "name": "usr",
                    "type": "address"
                },
                {
                    "internalType": "uint256",
                    "name": "amount",
                    "type": "uint256"
                }
            ],
            "name": "pull",
            "outputs": [],
            "stateMutability": "nonpayable",
            "type": "function"
        },
        {
            "inputs": [
                {
                    "internalType": "address",
                    "name": "usr",
                    "type": "address"
                },
                {
                    "internalType": "uint256",
                    "name": "amount",
                    "type": "uint256"
                }
            ],
            "name": "push",
            "outputs": [],
            "stateMutability": "nonpayable",
            "type": "function"
        },
        {
            "inputs": [
                {
                    "internalType": "address",
                    "name": "account",
                    "type": "address"
                }
            ],
            "name": "removeAuthorization",
            "outputs": [],
            "stateMutability": "nonpayable",
            "type": "function"
        },
        {
            "inputs": [],
            "name": "symbol",
            "outputs": [
                {
                    "internalType": "string",
                    "name": "",
                    "type": "string"
                }
            ],
            "stateMutability": "view",
            "type": "function"
        },
        {
            "inputs": [],
            "name": "totalSupply",
            "outputs": [
                {
                    "internalType": "uint256",
                    "name": "",
                    "type": "uint256"
                }
            ],
            "stateMutability": "view",
            "type": "function"
        },
        {
            "inputs": [
                {
                    "internalType": "address",
                    "name": "dst",
                    "type": "address"
                },
                {
                    "internalType": "uint256",
                    "name": "amount",
                    "type": "uint256"
                }
            ],
            "name": "transfer",
            "outputs": [
                {
                    "internalType": "bool",
                    "name": "",
                    "type": "bool"
                }
            ],
            "stateMutability": "nonpayable",
            "type": "function"
        },
        {
            "inputs": [
                {
                    "internalType": "address",
                    "name": "src",
                    "type": "address"
                },
                {
                    "internalType": "address",
                    "name": "dst",
                    "type": "address"
                },
                {
                    "internalType": "uint256",
                    "name": "amount",
                    "type": "uint256"
                }
            ],
            "name": "transferFrom",
            "outputs": [
                {
                    "internalType": "bool",
                    "name": "",
                    "type": "bool"
                }
            ],
            "stateMutability": "nonpayable",
            "type": "function"
        },
        {
            "inputs": [],
            "name": "version",
            "outputs": [
                {
                    "internalType": "string",
                    "name": "",
                    "type": "string"
                }
            ],
            "stateMutability": "view",
            "type": "function"
        }
    ],
    "bytecode": {
        "object": "0x60c060405260016080819052603160f81b60a09081526200002491600391906200037b565b503480156200003257600080fd5b50604051620016fd380380620016fd833981810160405260608110156200005857600080fd5b81019080805160405193929190846401000000008211156200007957600080fd5b9083019060208201858111156200008f57600080fd5b8251640100000000811182820188101715620000aa57600080fd5b82525081516020918201929091019080838360005b83811015620000d9578181015183820152602001620000bf565b50505050905090810190601f168015620001075780820380516001836020036101000a031916815260200191505b50604052602001805160405193929190846401000000008211156200012b57600080fd5b9083019060208201858111156200014157600080fd5b82516401000000008111828201881017156200015c57600080fd5b82525081516020918201929091019080838360005b838110156200018b57818101518382015260200162000171565b50505050905090810190601f168015620001b95780820380516001836020036101000a031916815260200191505b506040908152602091820151336000908152808452919091206001908190558651919450620001ed9350918601906200037b565b508151620002039060029060208501906200037b565b506004819055604051806052620016ab82396052019050604051809103902060016040518082805460018160011615610100020316600290048015620002835780601f106200026057610100808354040283529182019162000283565b820191906000526020600020905b8154815290600101906020018083116200026e575b5050915050604051809103902060036040518082805460018160011615610100020316600290048015620002f15780601f10620002ce576101008083540402835291820191620002f1565b820191906000526020600020905b815481529060010190602001808311620002dc575b505060408051918290038220602080840197909752828201959095526060820194909452608081018690523060a0808301919091528451808303909101815260c0820180865281519190960120600955339094525050517f599a298163e1678bb1c676052a8930bf0b8a1261ed6e01b8a2391e55f70001029181900360e00190a150505062000420565b828054600181600116156101000203166002900490600052602060002090601f016020900481019282601f10620003be57805160ff1916838001178555620003ee565b82800160010185558215620003ee579182015b82811115620003ee578251825591602001919060010190620003d1565b50620003fc92915062000400565b5090565b6200041d91905b80821115620003fc576000815560010162000407565b90565b61127b80620004306000396000f3fe608060405234801561001057600080fd5b506004361061014d5760003560e01c806370a08231116100c35780639dc29fac1161007c5780639dc29fac146103eb578063a9059cbb14610417578063b753a98c14610443578063bb35783b1461046f578063dd62ed3e146104a5578063f2d5d56b146104d35761014d565b806370a082311461030f5780637ecebe00146103355780638fcbaf0c1461035b57806394f3f81d146103b557806395d89b41146103db5780639a8a0592146103e35761014d565b806330adf81f1161011557806330adf81f14610285578063313ce5671461028d57806335b28153146102ab5780633644e515146102d357806340c10f19146102db57806354fd4d50146103075761014d565b806306fdde0314610152578063095ea7b3146101cf57806318160ddd1461020f57806323b872dd1461022957806324ba58841461025f575b600080fd5b61015a6104ff565b6040805160208082528351818301528351919283929083019185019080838360005b8381101561019457818101518382015260200161017c565b50505050905090810190601f1680156101c15780820380516001836020036101000a031916815260200191505b509250505060405180910390f35b6101fb600480360360408110156101e557600080fd5b506001600160a01b03813516906020013561058c565b604080519115158252519081900360200190f35b6102176105f3565b60408051918252519081900360200190f35b6101fb6004803603606081101561023f57600080fd5b506001600160a01b038135811691602081013590911690604001356105f9565b6102176004803603602081101561027557600080fd5b50356001600160a01b03166108ce565b6102176108e0565b610295610904565b6040805160ff9092168252519081900360200190f35b6102d1600480360360208110156102c157600080fd5b50356001600160a01b0316610909565b005b6102176109bf565b6102d1600480360360408110156102f157600080fd5b506001600160a01b0381351690602001356109c5565b61015a610aba565b6102176004803603602081101561032557600080fd5b50356001600160a01b0316610b15565b6102176004803603602081101561034b57600080fd5b50356001600160a01b0316610b27565b6102d1600480360361010081101561037257600080fd5b506001600160a01b038135811691602081013590911690604081013590606081013590608081013515159060ff60a0820135169060c08101359060e00135610b39565b6102d1600480360360208110156103cb57600080fd5b50356001600160a01b0316610e34565b61015a610ee9565b610217610f41565b6102d16004803603604081101561040157600080fd5b506001600160a01b038135169060200135610f47565b6101fb6004803603604081101561042d57600080fd5b506001600160a01b03813516906020013561114f565b6102d16004803603604081101561045957600080fd5b506001600160a01b038135169060200135611163565b6102d16004803603606081101561048557600080fd5b506001600160a01b03813581169160208101359091169060400135611173565b610217600480360360408110156104bb57600080fd5b506001600160a01b0381358116916020013516611184565b6102d1600480360360408110156104e957600080fd5b506001600160a01b0381351690602001356111a1565b60018054604080516020600284861615610100026000190190941693909304601f810184900484028201840190925281815292918301828280156105845780601f1061055957610100808354040283529160200191610584565b820191906000526020600020905b81548152906001019060200180831161056757829003601f168201915b505050505081565b3360008181526007602090815260408083206001600160a01b038716808552908352818420869055815186815291519394909390927f8c5be1e5ebec7d5bd14f71427d1e84f3dd0314c0f7b2291e5b200ac8c7c3b925928290030190a35060015b92915050565b60055481565b60006001600160a01b038316610646576040805162461bcd60e51b815260206004820152600d60248201526c10dbda5b8bdb9d5b1b0b591cdd609a1b604482015290519081900360640190fd5b6001600160a01b0383163014156106a4576040805162461bcd60e51b815260206004820181905260248201527f436f696e2f6473742d63616e6e6f742d62652d746869732d636f6e7472616374604482015290519081900360640190fd5b6001600160a01b03841660009081526006602052604090205482111561070d576040805162461bcd60e51b8152602060048201526019602482015278436f696e2f696e73756666696369656e742d62616c616e636560381b604482015290519081900360640190fd5b6001600160a01b038416331480159061074b57506001600160a01b038416600090815260076020908152604080832033845290915290205460001914155b1561081b576001600160a01b03841660009081526007602090815260408083203384529091529020548211156107c8576040805162461bcd60e51b815260206004820152601b60248201527f436f696e2f696e73756666696369656e742d616c6c6f77616e63650000000000604482015290519081900360640190fd5b6001600160a01b03841660009081526007602090815260408083203384529091529020546107f690836111ac565b6001600160a01b03851660009081526007602090815260408083203384529091529020555b6001600160a01b03841660009081526006602052604090205461083e90836111ac565b6001600160a01b03808616600090815260066020526040808220939093559085168152205461086d90836111f9565b6001600160a01b0380851660008181526006602090815260409182902094909455805186815290519193928816927fddf252ad1be2c89b69c2b068fc378daa952ba7f163c4a11628f55a4df523b3ef92918290030190a35060019392505050565b60006020819052908152604090205481565b7fea2aa0a1be11a07ed86d755c93467f4f82362b452371d1ba94d1715123511acb81565b601281565b3360009081526020819052604090205460011461096d576040805162461bcd60e51b815260206004820152601b60248201527f436f696e2f6163636f756e742d6e6f742d617574686f72697a65640000000000604482015290519081900360640190fd5b6001600160a01b0381166000818152602081815260409182902060019055815192835290517f599a298163e1678bb1c676052a8930bf0b8a1261ed6e01b8a2391e55f70001029281900390910190a150565b60095481565b33600090815260208190526040902054600114610a29576040805162461bcd60e51b815260206004820152601b60248201527f436f696e2f6163636f756e742d6e6f742d617574686f72697a65640000000000604482015290519081900360640190fd5b6001600160a01b038216600090815260066020526040902054610a4c90826111f9565b6001600160a01b038316600090815260066020526040902055600554610a7290826111f9565b6005556040805182815290516001600160a01b038416916000917fddf252ad1be2c89b69c2b068fc378daa952ba7f163c4a11628f55a4df523b3ef9181900360200190a35050565b6003805460408051602060026001851615610100026000190190941693909304601f810184900484028201840190925281815292918301828280156105845780601f1061055957610100808354040283529160200191610584565b60066020526000908152604090205481565b60086020526000908152604090205481565b600954604080517fea2aa0a1be11a07ed86d755c93467f4f82362b452371d1ba94d1715123511acb6020808301919091526001600160a01b03808d16838501819052908c166060840152608083018b905260a083018a905288151560c0808501919091528451808503909101815260e08401855280519083012061190160f01b61010085015261010284019590955261012280840195909552835180840390950185526101429092019092528251929091019190912090610c3a576040805162461bcd60e51b81526020600482015260166024820152750436f696e2f696e76616c69642d616464726573732d360541b604482015290519081900360640190fd5b6040805160008152602080820180845284905260ff8716828401526060820186905260808201859052915160019260a0808401939192601f1981019281900390910190855afa158015610c91573d6000803e3d6000fd5b505050602060405103516001600160a01b0316896001600160a01b031614610cf6576040805162461bcd60e51b815260206004820152601360248201527210dbda5b8bda5b9d985b1a590b5c195c9b5a5d606a1b604482015290519081900360640190fd5b851580610d035750854211155b610d4a576040805162461bcd60e51b815260206004820152601360248201527210dbda5b8bdc195c9b5a5d0b595e1c1a5c9959606a1b604482015290519081900360640190fd5b6001600160a01b03891660009081526008602052604090208054600181019091558714610db3576040805162461bcd60e51b8152602060048201526012602482015271436f696e2f696e76616c69642d6e6f6e636560701b604482015290519081900360640190fd5b600085610dc1576000610dc5565b6000195b6001600160a01b03808c166000818152600760209081526040808320948f168084529482529182902085905581518581529151949550929391927f8c5be1e5ebec7d5bd14f71427d1e84f3dd0314c0f7b2291e5b200ac8c7c3b92592918290030190a350505050505050505050565b33600090815260208190526040902054600114610e98576040805162461bcd60e51b815260206004820152601b60248201527f436f696e2f6163636f756e742d6e6f742d617574686f72697a65640000000000604482015290519081900360640190fd5b6001600160a01b03811660008181526020818152604080832092909255815192835290517f8834a87e641e9716be4f34527af5d23e11624f1ddeefede6ad75a9acfc31b9039281900390910190a150565b6002805460408051602060018416156101000260001901909316849004601f810184900484028201840190925281815292918301828280156105845780601f1061055957610100808354040283529160200191610584565b60045481565b6001600160a01b038216600090815260066020526040902054811115610fb0576040805162461bcd60e51b8152602060048201526019602482015278436f696e2f696e73756666696369656e742d62616c616e636560381b604482015290519081900360640190fd5b6001600160a01b0382163314801590610fee57506001600160a01b038216600090815260076020908152604080832033845290915290205460001914155b156110be576001600160a01b038216600090815260076020908152604080832033845290915290205481111561106b576040805162461bcd60e51b815260206004820152601b60248201527f436f696e2f696e73756666696369656e742d616c6c6f77616e63650000000000604482015290519081900360640190fd5b6001600160a01b038216600090815260076020908152604080832033845290915290205461109990826111ac565b6001600160a01b03831660009081526007602090815260408083203384529091529020555b6001600160a01b0382166000908152600660205260409020546110e190826111ac565b6001600160a01b03831660009081526006602052604090205560055461110790826111ac565b6005556040805182815290516000916001600160a01b038516917fddf252ad1be2c89b69c2b068fc378daa952ba7f163c4a11628f55a4df523b3ef9181900360200190a35050565b600061115c3384846105f9565b9392505050565b61116e3383836105f9565b505050565b61117e8383836105f9565b50505050565b600760209081526000928352604080842090915290825290205481565b61116e8233836105f9565b808203828111156105ed576040805162461bcd60e51b8152602060048201526012602482015271436f696e2f7375622d756e646572666c6f7760701b604482015290519081900360640190fd5b808201828110156105ed576040805162461bcd60e51b8152602060048201526011602482015270436f696e2f6164642d6f766572666c6f7760781b604482015290519081900360640190fdfea26469706673582212206125f61c468345eef7f52fe7662b1085f2c1ec37dd33ff3993ab0de4bd60fdd164736f6c63430006070033454950373132446f6d61696e28737472696e67206e616d652c737472696e672076657273696f6e2c75696e7432353620636861696e49642c6164647265737320766572696679696e67436f6e747261637429",
        "linkReferences": {}
    },
    "methodIdentifiers": {
        "DOMAIN_SEPARATOR()": "3644e515",
        "PERMIT_TYPEHASH()": "30adf81f",
        "addAuthorization(address)": "35b28153",
        "allowance(address,address)": "dd62ed3e",
        "approve(address,uint256)": "095ea7b3",
        "authorizedAccounts(address)": "24ba5884",
        "balanceOf(address)": "70a08231",
        "burn(address,uint256)": "9dc29fac",
        "chainId()": "9a8a0592",
        "decimals()": "313ce567",
        "mint(address,uint256)": "40c10f19",
        "move(address,address,uint256)": "bb35783b",
        "name()": "06fdde03",
        "nonces(address)": "7ecebe00",
        "permit(address,address,uint256,uint256,bool,uint8,bytes32,bytes32)": "8fcbaf0c",
        "pull(address,uint256)": "f2d5d56b",
        "push(address,uint256)": "b753a98c",
        "removeAuthorization(address)": "94f3f81d",
        "symbol()": "95d89b41",
        "totalSupply()": "18160ddd",
        "transfer(address,uint256)": "a9059cbb",
        "transferFrom(address,address,uint256)": "23b872dd",
        "version()": "54fd4d50"
    },
    "id": 39
}