{
    "abi": [
        {
            "inputs": [],
            "name": "accountingEngine",
            "outputs": [
                {
                    "internalType": "contract AccountingEngineLike",
                    "name": "",
                    "type": "address"
                }
            ],
            "stateMutability": "view",
            "type": "function"
        },
        {
            "inputs": [],
            "name": "coinJoin",
            "outputs": [
                {
                    "internalType": "contract CoinJoinLike",
                    "name": "",
                    "type": "address"
                }
            ],
            "stateMutability": "view",
            "type": "function"
        },
        {
            "inputs": [],
            "name": "collateralAuctionHouseEthA",
            "outputs": [
                {
                    "internalType": "contract IncreasingDiscountCollateralAuctionHouseLike",
                    "name": "",
                    "type": "address"
                }
            ],
            "stateMutability": "view",
            "type": "function"
        },
        {
            "inputs": [],
            "name": "debtAuctionHouse",
            "outputs": [
                {
                    "internalType": "contract DebtAuctionHouseLike",
                    "name": "",
                    "type": "address"
                }
            ],
            "stateMutability": "view",
            "type": "function"
        },
        {
            "inputs": [],
            "name": "debtPopperRewards",
            "outputs": [
                {
                    "internalType": "contract DebtPopperRewardsLike",
                    "name": "",
                    "type": "address"
                }
            ],
            "stateMutability": "view",
            "type": "function"
        },
        {
            "inputs": [],
            "name": "esm",
            "outputs": [
                {
                    "internalType": "contract ESMLike",
                    "name": "",
                    "type": "address"
                }
            ],
            "stateMutability": "view",
            "type": "function"
        },
        {
            "inputs": [],
            "name": "ethAJoin",
            "outputs": [
                {
                    "internalType": "contract CollateralJoinLike",
                    "name": "",
                    "type": "address"
                }
            ],
            "stateMutability": "view",
            "type": "function"
        },
        {
            "inputs": [],
            "name": "globalSettlement",
            "outputs": [
                {
                    "internalType": "contract GlobalSettlementLike",
                    "name": "",
                    "type": "address"
                }
            ],
            "stateMutability": "view",
            "type": "function"
        },
        {
            "inputs": [
                {
                    "internalType": "address",
                    "name": "deployScript",
                    "type": "address"
                }
            ],
            "name": "initializeContracts",
            "outputs": [],
            "stateMutability": "nonpayable",
            "type": "function"
        },
        {
            "inputs": [],
            "name": "liquidationEngine",
            "outputs": [
                {
                    "internalType": "contract LiquidationEngineLike",
                    "name": "",
                    "type": "address"
                }
            ],
            "stateMutability": "view",
            "type": "function"
        },
        {
            "inputs": [],
            "name": "oracleRelayer",
            "outputs": [
                {
                    "internalType": "contract OracleRelayerLike",
                    "name": "",
                    "type": "address"
                }
            ],
            "stateMutability": "view",
            "type": "function"
        },
        {
            "inputs": [],
            "name": "pause",
            "outputs": [
                {
                    "internalType": "contract DSPauseLike",
                    "name": "",
                    "type": "address"
                }
            ],
            "stateMutability": "view",
            "type": "function"
        },
        {
            "inputs": [],
            "name": "pauseAuthority",
            "outputs": [
                {
                    "internalType": "contract DSRolesLike",
                    "name": "",
                    "type": "address"
                }
            ],
            "stateMutability": "view",
            "type": "function"
        },
        {
            "inputs": [],
            "name": "protocolToken",
            "outputs": [
                {
                    "internalType": "contract ProtocolTokenLike",
                    "name": "",
                    "type": "address"
                }
            ],
            "stateMutability": "view",
            "type": "function"
        },
        {
            "inputs": [],
            "name": "protocolTokenAuthority",
            "outputs": [
                {
                    "internalType": "contract DSRolesLike",
                    "name": "",
                    "type": "address"
                }
            ],
            "stateMutability": "view",
            "type": "function"
        },
        {
            "inputs": [],
            "name": "proxyRegistry",
            "outputs": [
                {
                    "internalType": "contract ProxyRegistryLike",
                    "name": "",
                    "type": "address"
                }
            ],
            "stateMutability": "view",
            "type": "function"
        },
        {
            "inputs": [],
            "name": "rateCalculator",
            "outputs": [
                {
                    "internalType": "contract PIRawPerSecondCalculatorLike",
                    "name": "",
                    "type": "address"
                }
            ],
            "stateMutability": "view",
            "type": "function"
        },
        {
            "inputs": [],
            "name": "rateSetter",
            "outputs": [
                {
                    "internalType": "contract RateSetterLike",
                    "name": "",
                    "type": "address"
                }
            ],
            "stateMutability": "view",
            "type": "function"
        },
        {
            "inputs": [],
            "name": "rateSetterRelayer",
            "outputs": [
                {
                    "internalType": "contract RateSetterRelayerLike",
                    "name": "",
                    "type": "address"
                }
            ],
            "stateMutability": "view",
            "type": "function"
        },
        {
            "inputs": [],
            "name": "safeEngine",
            "outputs": [
                {
                    "internalType": "contract SAFEEngineLike",
                    "name": "",
                    "type": "address"
                }
            ],
            "stateMutability": "view",
            "type": "function"
        },
        {
            "inputs": [],
            "name": "safeManager",
            "outputs": [
                {
                    "internalType": "contract GebSafeManagerLike",
                    "name": "",
                    "type": "address"
                }
            ],
            "stateMutability": "view",
            "type": "function"
        },
        {
            "inputs": [],
            "name": "surplusAuctionHouse",
            "outputs": [
                {
                    "internalType": "contract SurplusAuctionHouseLike",
                    "name": "",
                    "type": "address"
                }
            ],
            "stateMutability": "view",
            "type": "function"
        },
        {
            "inputs": [],
            "name": "systemCoin",
            "outputs": [
                {
                    "internalType": "contract SystemCoinLike",
                    "name": "",
                    "type": "address"
                }
            ],
            "stateMutability": "view",
            "type": "function"
        },
        {
            "inputs": [],
            "name": "taxCollector",
            "outputs": [
                {
                    "internalType": "contract TaxCollectorLike",
                    "name": "",
                    "type": "address"
                }
            ],
            "stateMutability": "view",
            "type": "function"
        },
        {
            "inputs": [],
            "name": "treasury",
            "outputs": [
                {
                    "internalType": "contract StabilityFeeTreasuryLike",
                    "name": "",
                    "type": "address"
                }
            ],
            "stateMutability": "view",
            "type": "function"
        },
        {
            "inputs": [],
            "name": "weth",
            "outputs": [
                {
                    "internalType": "contract TokenLike",
                    "name": "",
                    "type": "address"
                }
            ],
            "stateMutability": "view",
            "type": "function"
        }
    ],
    "bytecode": {
        "object": "0x608060405234801561001057600080fd5b50610d91806100206000396000f3fe608060405234801561001057600080fd5b506004361061018e5760003560e01c806395a540e6116100de578063b50cbd9f11610097578063cc54f5e811610071578063cc54f5e81461027f578063cdacaaca14610287578063dd8efbdf1461028f578063f265d351146102975761018e565b8063b50cbd9f14610267578063bea1dcf81461026f578063bfd02720146102775761018e565b806395a540e614610237578063961d45c41461023f578063a7e9445514610247578063ad28f6c61461024f578063af41b24814610257578063b39f841c1461025f5761018e565b806344bf3c721161014b57806361d027b31161012557806361d027b31461021757806367aea3131461021f578063735eb8d2146102275780638456cb591461022f5761018e565b806344bf3c72146101ff5780634faf61ab1461020757806357c904411461020f5761018e565b8063037b7d79146101935780630df8dfac146101b757806312bb0604146101bf5780631a465fe1146101e757806330413a2a146101ef5780633fc8cef3146101f7575b600080fd5b61019b61029f565b604080516001600160a01b039092168252519081900360200190f35b61019b6102ae565b6101e5600480360360208110156101d557600080fd5b50356001600160a01b03166102bd565b005b61019b610be0565b61019b610bef565b61019b610bfe565b61019b610c0d565b61019b610c1c565b61019b610c2b565b61019b610c3a565b61019b610c49565b61019b610c58565b61019b610c67565b61019b610c76565b61019b610c85565b61019b610c94565b61019b610ca3565b61019b610cb2565b61019b610cc1565b61019b610cd0565b61019b610cdf565b61019b610cee565b61019b610cfd565b61019b610d0c565b61019b610d1b565b61019b610d2a565b6005546001600160a01b031681565b6014546001600160a01b031681565b60008190506000816001600160a01b031663d63044386040518163ffffffff1660e01b815260040160206040518083038186803b1580156102fd57600080fd5b505afa158015610311573d6000803e3d6000fd5b505050506040513d602081101561032757600080fd5b5051905060005b818110156105c5576060836001600160a01b031663b810fb43836040518263ffffffff1660e01b81526004018082815260200191505060006040518083038186803b15801561037c57600080fd5b505afa158015610390573d6000803e3d6000fd5b505050506040513d6000823e601f3d908101601f1916820160405260208110156103b957600080fd5b81019080805160405193929190846401000000008211156103d957600080fd5b9083019060208201858111156103ee57600080fd5b825164010000000081118282018810171561040857600080fd5b82525081516020918201929091019080838360005b8381101561043557818101518382015260200161041d565b50505050905090810190601f1680156104625780820380516001836020036101000a031916815260200191505b50604081905263511b1df960e01b81526020600482018181528651602484015286519697506001600160a01b038b169663511b1df9965088955090935083926044019185019080838360005b838110156104c65781810151838201526020016104ae565b50505050905090810190601f1680156104f35780820380516001836020036101000a031916815260200191505b509250505060206040518083038186803b15801561051057600080fd5b505afa158015610524573d6000803e3d6000fd5b505050506040513d602081101561053a57600080fd5b50516040518251601b918491819060208401908083835b602083106105705780518252601f199092019160209182019101610551565b51815160209384036101000a6000190180199092169116179052920194855250604051938490030190922080546001600160a01b0319166001600160a01b03949094169390931790925550505060010161032e565b5060408051684745425f504155534560b81b8152601b6009808301829052835192839003602901832054600080546001600160a01b03199081166001600160a01b0393841617909155724745425f50415553455f415554484f5249545960681b8552601385018490528551948590036033018520546001805483169184169190911790556e4745425f534146455f454e47494e4560881b8552600f808601859052865195869003602f01862054600280548416918516919091179055744745425f4143434f554e54494e475f454e47494e4560581b8652601580870186905287519687900360359081018820546003805486169187169190911781556d50524f58595f524547495354525960901b8952600e808a018990528a51998a9003602e9081018b2054600480548916918a169190911790557411d15097d1d313d0905317d4d15515131153515395605a1b8b52938a018990528a51998a90039092018920546005805487169188169190911790556723a2a12fa1a7a4a760c11b89526008808a018990528a51998a900360289081018b2054600680548916918a169190911790556b29a0a322afa6a0a720a3a2a960a11b8b52600c808c018b90528c519b8c9003602c018c2054600780548a16918b169190911790557023a2a12faa20ac2fa1a7a62622a1aa27a960791b8c5260118c018b90528c519b8c90036031018c205483548916908a161783556c23a2a12fa1a7a4a72fa527a4a760991b8c52600d808d018c90528d519c8d9003602d018d20548b548a16908b1617909a556d4745425f4a4f494e5f4554485f4160901b8c528b85018b90528c519b8c90039095018b2054600a80548916918a169190911790556208aa8960eb1b8b52918a018990528a51998a90036023018a2054600b80548816918916919091179055754745425f4c49515549444154494f4e5f454e47494e4560501b8a5260168a018990528a51998a90036036018a205484548716908816179093556711d15097d41493d560c21b895291880187905288519788900390910187205485548416908516179094557f50524f544f434f4c5f544f4b454e5f415554484f52495459000000000000000086526018860185905286519586900360380186205484548316908416179093557f4745425f53544142494c4954595f4645455f54524541535552590000000000008552601a8501849052945193849003603a018420548254909516941693909317909255806022610d3a82396022810192909252506040805191829003604201822054601080546001600160a01b03199081166001600160a01b03938416179091557123a2a12fa7a920a1a622afa922a620aca2a960711b8452601b6012808601829052845195869003603290810187205482548516908616178255754745425f444542545f41554354494f4e5f484f55534560501b875260168088018490528651978890036036018820546011805487169188169190911790557f4745425f535552504c55535f41554354494f4e5f484f55534500000000000000885260198089018590528751988990036039018920546013805488169189169190911781557223a2a12fa9292326afa1a0a621aaa620aa27a960691b8a52808a018690528851998a900360339081018b2054601480548a16918b169190911790556e23a2a12fa9292326afa9a2aa2a22a960891b8b52600f8b0187905289519a8b9003602f018b2054601580548a16918b169190911790557f4745425f5252464d5f5345545445525f52454c415945520000000000000000008b526017808c018890528a519b8c90036037018c205485548a16908b161790945572444542545f504f505045525f5245574152445360681b8b52908a018690528851998a9003018920548254871690881617909155664745425f45534d60c81b8852600788018490528651978890036027018820546018805487169188169190911781557f4745425f45534d5f5448524553484f4c445f534554544552000000000000000089528801849052865197889003603801882054815486169087161790557153595354454d5f434f494e5f4f5241434c4560701b87529086019190915292519384900390920190922054601a80549092169216919091179055505050565b600d546001600160a01b031681565b6009546001600160a01b031681565b600b546001600160a01b031681565b600c546001600160a01b031681565b6012546001600160a01b031681565b6007546001600160a01b031681565b600f546001600160a01b031681565b6002546001600160a01b031681565b6017546001600160a01b031681565b6000546001600160a01b031681565b600a546001600160a01b031681565b6003546001600160a01b031681565b6006546001600160a01b031681565b6016546001600160a01b031681565b6018546001600160a01b031681565b6011546001600160a01b031681565b6004546001600160a01b031681565b6008546001600160a01b031681565b6010546001600160a01b031681565b600e546001600160a01b031681565b6013546001600160a01b031681565b6001546001600160a01b031681565b6015546001600160a01b03168156fe4745425f434f4c4c41544552414c5f41554354494f4e5f484f5553455f4554485f41a26469706673582212202faf76722279bbe55dbd3b032585f0c5f142d9d3bfb0080398c2dd63d026d43464736f6c63430006070033",
        "linkReferences": {}
    },
    "methodIdentifiers": {
        "accountingEngine()": "961d45c4",
        "coinJoin()": "30413a2a",
        "collateralAuctionHouseEthA()": "bfd02720",
        "debtAuctionHouse()": "b39f841c",
        "debtPopperRewards()": "735eb8d2",
        "esm()": "af41b248",
        "ethAJoin()": "95a540e6",
        "globalSettlement()": "037b7d79",
        "initializeContracts(address)": "12bb0604",
        "liquidationEngine()": "44bf3c72",
        "oracleRelayer()": "4faf61ab",
        "pause()": "8456cb59",
        "pauseAuthority()": "dd8efbdf",
        "protocolToken()": "1a465fe1",
        "protocolTokenAuthority()": "cc54f5e8",
        "proxyRegistry()": "b50cbd9f",
        "rateCalculator()": "0df8dfac",
        "rateSetter()": "f265d351",
        "rateSetterRelayer()": "ad28f6c6",
        "safeEngine()": "67aea313",
        "safeManager()": "57c90441",
        "surplusAuctionHouse()": "cdacaaca",
        "systemCoin()": "a7e94455",
        "taxCollector()": "bea1dcf8",
        "treasury()": "61d027b3",
        "weth()": "3fc8cef3"
    },
    "id": 65
}