{
    "abi": [
        {
            "inputs": [],
            "stateMutability": "nonpayable",
            "type": "constructor"
        },
        {
            "anonymous": false,
            "inputs": [
                {
                    "indexed": true,
                    "internalType": "address",
                    "name": "authority",
                    "type": "address"
                }
            ],
            "name": "LogSetAuthority",
            "type": "event"
        },
        {
            "anonymous": false,
            "inputs": [
                {
                    "indexed": true,
                    "internalType": "address",
                    "name": "owner",
                    "type": "address"
                }
            ],
            "name": "LogSetOwner",
            "type": "event"
        },
        {
            "inputs": [],
            "name": "authority",
            "outputs": [
                {
                    "internalType": "contract DSAuthority",
                    "name": "",
                    "type": "address"
                }
            ],
            "stateMutability": "view",
            "type": "function"
        },
        {
            "inputs": [],
            "name": "owner",
            "outputs": [
                {
                    "internalType": "address",
                    "name": "",
                    "type": "address"
                }
            ],
            "stateMutability": "view",
            "type": "function"
        },
        {
            "inputs": [
                {
                    "internalType": "contract DSAuthority",
                    "name": "authority_",
                    "type": "address"
                }
            ],
            "name": "setAuthority",
            "outputs": [],
            "stateMutability": "nonpayable",
            "type": "function"
        },
        {
            "inputs": [
                {
                    "internalType": "address",
                    "name": "owner_",
                    "type": "address"
                }
            ],
            "name": "setOwner",
            "outputs": [],
            "stateMutability": "nonpayable",
            "type": "function"
        }
    ],
    "bytecode": {
        "object": "0x608060405234801561001057600080fd5b50600180546001600160a01b031916339081179091556040517fce241d7ca1f669fee44b6fc00b8eba2df3bb514eed0f6f668f8f89096e81ed9490600090a26103608061005e6000396000f3fe608060405234801561001057600080fd5b506004361061004c5760003560e01c806313af4035146100515780637a9e5e4b146100795780638da5cb5b1461009f578063bf7e214f146100c3575b600080fd5b6100776004803603602081101561006757600080fd5b50356001600160a01b03166100cb565b005b6100776004803603602081101561008f57600080fd5b50356001600160a01b0316610179565b6100a7610223565b604080516001600160a01b039092168252519081900360200190f35b6100a7610232565b6100e1336000356001600160e01b031916610241565b610129576040805162461bcd60e51b8152602060048201526014602482015273191ccb585d5d1a0b5d5b985d5d1a1bdc9a5e995960621b604482015290519081900360640190fd5b600180546001600160a01b0319166001600160a01b0383811691909117918290556040519116907fce241d7ca1f669fee44b6fc00b8eba2df3bb514eed0f6f668f8f89096e81ed9490600090a250565b61018f336000356001600160e01b031916610241565b6101d7576040805162461bcd60e51b8152602060048201526014602482015273191ccb585d5d1a0b5d5b985d5d1a1bdc9a5e995960621b604482015290519081900360640190fd5b600080546001600160a01b0319166001600160a01b03838116919091178083556040519116917f1abebea81bfa2637f28358c371278fb15ede7ea8dd28d2e03b112ff6d936ada491a250565b6001546001600160a01b031681565b6000546001600160a01b031681565b60006001600160a01b03831630141561025c57506001610324565b6001546001600160a01b038481169116141561027a57506001610324565b6000546001600160a01b031661029257506000610324565b6000546040805163b700961360e01b81526001600160a01b0386811660048301523060248301526001600160e01b0319861660448301529151919092169163b7009613916064808301926020929190829003018186803b1580156102f557600080fd5b505afa158015610309573d6000803e3d6000fd5b505050506040513d602081101561031f57600080fd5b505190505b9291505056fea2646970667358221220985c0a1077ca8736b57052b16fca269044398faeb6b5368c4f38bad2707af32c64736f6c63430006070033",
        "linkReferences": {}
    },
    "methodIdentifiers": {
        "authority()": "bf7e214f",
        "owner()": "8da5cb5b",
        "setAuthority(address)": "7a9e5e4b",
        "setOwner(address)": "13af4035"
    },
    "id": 2
}