{
    "abi": [
        {
            "inputs": [
                {
                    "internalType": "string",
                    "name": "name_",
                    "type": "string"
                },
                {
                    "internalType": "string",
                    "name": "symbol_",
                    "type": "string"
                }
            ],
            "stateMutability": "nonpayable",
            "type": "constructor"
        },
        {
            "anonymous": false,
            "inputs": [
                {
                    "indexed": true,
                    "internalType": "address",
                    "name": "src",
                    "type": "address"
                },
                {
                    "indexed": true,
                    "internalType": "address",
                    "name": "guy",
                    "type": "address"
                },
                {
                    "indexed": false,
                    "internalType": "uint256",
                    "name": "wad",
                    "type": "uint256"
                }
            ],
            "name": "Approval",
            "type": "event"
        },
        {
            "anonymous": false,
            "inputs": [
                {
                    "indexed": true,
                    "internalType": "address",
                    "name": "guy",
                    "type": "address"
                },
                {
                    "indexed": false,
                    "internalType": "uint256",
                    "name": "wad",
                    "type": "uint256"
                }
            ],
            "name": "Burn",
            "type": "event"
        },
        {
            "anonymous": false,
            "inputs": [
                {
                    "indexed": true,
                    "internalType": "address",
                    "name": "delegator",
                    "type": "address"
                },
                {
                    "indexed": true,
                    "internalType": "address",
                    "name": "fromDelegate",
                    "type": "address"
                },
                {
                    "indexed": true,
                    "internalType": "address",
                    "name": "toDelegate",
                    "type": "address"
                }
            ],
            "name": "DelegateChanged",
            "type": "event"
        },
        {
            "anonymous": false,
            "inputs": [
                {
                    "indexed": true,
                    "internalType": "address",
                    "name": "delegate",
                    "type": "address"
                },
                {
                    "indexed": false,
                    "internalType": "uint256",
                    "name": "previousBalance",
                    "type": "uint256"
                },
                {
                    "indexed": false,
                    "internalType": "uint256",
                    "name": "newBalance",
                    "type": "uint256"
                }
            ],
            "name": "DelegateVotesChanged",
            "type": "event"
        },
        {
            "anonymous": true,
            "inputs": [
                {
                    "indexed": true,
                    "internalType": "bytes4",
                    "name": "sig",
                    "type": "bytes4"
                },
                {
                    "indexed": true,
                    "internalType": "address",
                    "name": "guy",
                    "type": "address"
                },
                {
                    "indexed": true,
                    "internalType": "bytes32",
                    "name": "foo",
                    "type": "bytes32"
                },
                {
                    "indexed": true,
                    "internalType": "bytes32",
                    "name": "bar",
                    "type": "bytes32"
                },
                {
                    "indexed": false,
                    "internalType": "uint256",
                    "name": "wad",
                    "type": "uint256"
                },
                {
                    "indexed": false,
                    "internalType": "bytes",
                    "name": "fax",
                    "type": "bytes"
                }
            ],
            "name": "LogNote",
            "type": "event"
        },
        {
            "anonymous": false,
            "inputs": [
                {
                    "indexed": true,
                    "internalType": "address",
                    "name": "authority",
                    "type": "address"
                }
            ],
            "name": "LogSetAuthority",
            "type": "event"
        },
        {
            "anonymous": false,
            "inputs": [
                {
                    "indexed": true,
                    "internalType": "address",
                    "name": "owner",
                    "type": "address"
                }
            ],
            "name": "LogSetOwner",
            "type": "event"
        },
        {
            "anonymous": false,
            "inputs": [
                {
                    "indexed": true,
                    "internalType": "address",
                    "name": "guy",
                    "type": "address"
                },
                {
                    "indexed": false,
                    "internalType": "uint256",
                    "name": "wad",
                    "type": "uint256"
                }
            ],
            "name": "Mint",
            "type": "event"
        },
        {
            "anonymous": false,
            "inputs": [
                {
                    "indexed": true,
                    "internalType": "address",
                    "name": "src",
                    "type": "address"
                },
                {
                    "indexed": true,
                    "internalType": "address",
                    "name": "dst",
                    "type": "address"
                },
                {
                    "indexed": false,
                    "internalType": "uint256",
                    "name": "wad",
                    "type": "uint256"
                }
            ],
            "name": "Transfer",
            "type": "event"
        },
        {
            "inputs": [],
            "name": "DELEGATION_TYPEHASH",
            "outputs": [
                {
                    "internalType": "bytes32",
                    "name": "",
                    "type": "bytes32"
                }
            ],
            "stateMutability": "view",
            "type": "function"
        },
        {
            "inputs": [],
            "name": "DOMAIN_TYPEHASH",
            "outputs": [
                {
                    "internalType": "bytes32",
                    "name": "",
                    "type": "bytes32"
                }
            ],
            "stateMutability": "view",
            "type": "function"
        },
        {
            "inputs": [
                {
                    "internalType": "address",
                    "name": "src",
                    "type": "address"
                },
                {
                    "internalType": "address",
                    "name": "guy",
                    "type": "address"
                }
            ],
            "name": "allowance",
            "outputs": [
                {
                    "internalType": "uint256",
                    "name": "",
                    "type": "uint256"
                }
            ],
            "stateMutability": "view",
            "type": "function"
        },
        {
            "inputs": [
                {
                    "internalType": "address",
                    "name": "guy",
                    "type": "address"
                },
                {
                    "internalType": "uint256",
                    "name": "wad",
                    "type": "uint256"
                }
            ],
            "name": "approve",
            "outputs": [
                {
                    "internalType": "bool",
                    "name": "",
                    "type": "bool"
                }
            ],
            "stateMutability": "nonpayable",
            "type": "function"
        },
        {
            "inputs": [
                {
                    "internalType": "address",
                    "name": "guy",
                    "type": "address"
                }
            ],
            "name": "approve",
            "outputs": [
                {
                    "internalType": "bool",
                    "name": "",
                    "type": "bool"
                }
            ],
            "stateMutability": "nonpayable",
            "type": "function"
        },
        {
            "inputs": [],
            "name": "authority",
            "outputs": [
                {
                    "internalType": "contract DSAuthority",
                    "name": "",
                    "type": "address"
                }
            ],
            "stateMutability": "view",
            "type": "function"
        },
        {
            "inputs": [
                {
                    "internalType": "address",
                    "name": "src",
                    "type": "address"
                }
            ],
            "name": "balanceOf",
            "outputs": [
                {
                    "internalType": "uint256",
                    "name": "",
                    "type": "uint256"
                }
            ],
            "stateMutability": "view",
            "type": "function"
        },
        {
            "inputs": [
                {
                    "internalType": "uint256",
                    "name": "wad",
                    "type": "uint256"
                }
            ],
            "name": "burn",
            "outputs": [],
            "stateMutability": "nonpayable",
            "type": "function"
        },
        {
            "inputs": [
                {
                    "internalType": "address",
                    "name": "guy",
                    "type": "address"
                },
                {
                    "internalType": "uint256",
                    "name": "wad",
                    "type": "uint256"
                }
            ],
            "name": "burn",
            "outputs": [],
            "stateMutability": "nonpayable",
            "type": "function"
        },
        {
            "inputs": [
                {
                    "internalType": "address",
                    "name": "",
                    "type": "address"
                },
                {
                    "internalType": "uint32",
                    "name": "",
                    "type": "uint32"
                }
            ],
            "name": "checkpoints",
            "outputs": [
                {
                    "internalType": "uint256",
                    "name": "fromBlock",
                    "type": "uint256"
                },
                {
                    "internalType": "uint256",
                    "name": "votes",
                    "type": "uint256"
                }
            ],
            "stateMutability": "view",
            "type": "function"
        },
        {
            "inputs": [],
            "name": "decimals",
            "outputs": [
                {
                    "internalType": "uint256",
                    "name": "",
                    "type": "uint256"
                }
            ],
            "stateMutability": "view",
            "type": "function"
        },
        {
            "inputs": [
                {
                    "internalType": "address",
                    "name": "delegatee",
                    "type": "address"
                }
            ],
            "name": "delegate",
            "outputs": [],
            "stateMutability": "nonpayable",
            "type": "function"
        },
        {
            "inputs": [
                {
                    "internalType": "address",
                    "name": "delegatee",
                    "type": "address"
                },
                {
                    "internalType": "uint256",
                    "name": "nonce",
                    "type": "uint256"
                },
                {
                    "internalType": "uint256",
                    "name": "expiry",
                    "type": "uint256"
                },
                {
                    "internalType": "uint8",
                    "name": "v",
                    "type": "uint8"
                },
                {
                    "internalType": "bytes32",
                    "name": "r",
                    "type": "bytes32"
                },
                {
                    "internalType": "bytes32",
                    "name": "s",
                    "type": "bytes32"
                }
            ],
            "name": "delegateBySig",
            "outputs": [],
            "stateMutability": "nonpayable",
            "type": "function"
        },
        {
            "inputs": [
                {
                    "internalType": "address",
                    "name": "",
                    "type": "address"
                }
            ],
            "name": "delegates",
            "outputs": [
                {
                    "internalType": "address",
                    "name": "",
                    "type": "address"
                }
            ],
            "stateMutability": "view",
            "type": "function"
        },
        {
            "inputs": [
                {
                    "internalType": "address",
                    "name": "account",
                    "type": "address"
                }
            ],
            "name": "getCurrentVotes",
            "outputs": [
                {
                    "internalType": "uint256",
                    "name": "",
                    "type": "uint256"
                }
            ],
            "stateMutability": "view",
            "type": "function"
        },
        {
            "inputs": [
                {
                    "internalType": "address",
                    "name": "account",
                    "type": "address"
                },
                {
                    "internalType": "uint256",
                    "name": "blockNumber",
                    "type": "uint256"
                }
            ],
            "name": "getPriorVotes",
            "outputs": [
                {
                    "internalType": "uint256",
                    "name": "",
                    "type": "uint256"
                }
            ],
            "stateMutability": "view",
            "type": "function"
        },
        {
            "inputs": [
                {
                    "internalType": "address",
                    "name": "guy",
                    "type": "address"
                },
                {
                    "internalType": "uint256",
                    "name": "wad",
                    "type": "uint256"
                }
            ],
            "name": "mint",
            "outputs": [],
            "stateMutability": "nonpayable",
            "type": "function"
        },
        {
            "inputs": [
                {
                    "internalType": "uint256",
                    "name": "wad",
                    "type": "uint256"
                }
            ],
            "name": "mint",
            "outputs": [],
            "stateMutability": "nonpayable",
            "type": "function"
        },
        {
            "inputs": [
                {
                    "internalType": "address",
                    "name": "src",
                    "type": "address"
                },
                {
                    "internalType": "address",
                    "name": "dst",
                    "type": "address"
                },
                {
                    "internalType": "uint256",
                    "name": "wad",
                    "type": "uint256"
                }
            ],
            "name": "move",
            "outputs": [],
            "stateMutability": "nonpayable",
            "type": "function"
        },
        {
            "inputs": [],
            "name": "name",
            "outputs": [
                {
                    "internalType": "string",
                    "name": "",
                    "type": "string"
                }
            ],
            "stateMutability": "view",
            "type": "function"
        },
        {
            "inputs": [
                {
                    "internalType": "address",
                    "name": "",
                    "type": "address"
                }
            ],
            "name": "nonces",
            "outputs": [
                {
                    "internalType": "uint256",
                    "name": "",
                    "type": "uint256"
                }
            ],
            "stateMutability": "view",
            "type": "function"
        },
        {
            "inputs": [
                {
                    "internalType": "address",
                    "name": "",
                    "type": "address"
                }
            ],
            "name": "numCheckpoints",
            "outputs": [
                {
                    "internalType": "uint32",
                    "name": "",
                    "type": "uint32"
                }
            ],
            "stateMutability": "view",
            "type": "function"
        },
        {
            "inputs": [],
            "name": "owner",
            "outputs": [
                {
                    "internalType": "address",
                    "name": "",
                    "type": "address"
                }
            ],
            "stateMutability": "view",
            "type": "function"
        },
        {
            "inputs": [
                {
                    "internalType": "address",
                    "name": "src",
                    "type": "address"
                },
                {
                    "internalType": "uint256",
                    "name": "wad",
                    "type": "uint256"
                }
            ],
            "name": "pull",
            "outputs": [],
            "stateMutability": "nonpayable",
            "type": "function"
        },
        {
            "inputs": [
                {
                    "internalType": "address",
                    "name": "dst",
                    "type": "address"
                },
                {
                    "internalType": "uint256",
                    "name": "wad",
                    "type": "uint256"
                }
            ],
            "name": "push",
            "outputs": [],
            "stateMutability": "nonpayable",
            "type": "function"
        },
        {
            "inputs": [
                {
                    "internalType": "contract DSAuthority",
                    "name": "authority_",
                    "type": "address"
                }
            ],
            "name": "setAuthority",
            "outputs": [],
            "stateMutability": "nonpayable",
            "type": "function"
        },
        {
            "inputs": [
                {
                    "internalType": "address",
                    "name": "owner_",
                    "type": "address"
                }
            ],
            "name": "setOwner",
            "outputs": [],
            "stateMutability": "nonpayable",
            "type": "function"
        },
        {
            "inputs": [],
            "name": "start",
            "outputs": [],
            "stateMutability": "nonpayable",
            "type": "function"
        },
        {
            "inputs": [],
            "name": "stop",
            "outputs": [],
            "stateMutability": "nonpayable",
            "type": "function"
        },
        {
            "inputs": [],
            "name": "stopped",
            "outputs": [
                {
                    "internalType": "bool",
                    "name": "",
                    "type": "bool"
                }
            ],
            "stateMutability": "view",
            "type": "function"
        },
        {
            "inputs": [],
            "name": "symbol",
            "outputs": [
                {
                    "internalType": "string",
                    "name": "",
                    "type": "string"
                }
            ],
            "stateMutability": "view",
            "type": "function"
        },
        {
            "inputs": [],
            "name": "totalSupply",
            "outputs": [
                {
                    "internalType": "uint256",
                    "name": "",
                    "type": "uint256"
                }
            ],
            "stateMutability": "view",
            "type": "function"
        },
        {
            "inputs": [
                {
                    "internalType": "address",
                    "name": "dst",
                    "type": "address"
                },
                {
                    "internalType": "uint256",
                    "name": "wad",
                    "type": "uint256"
                }
            ],
            "name": "transfer",
            "outputs": [
                {
                    "internalType": "bool",
                    "name": "",
                    "type": "bool"
                }
            ],
            "stateMutability": "nonpayable",
            "type": "function"
        },
        {
            "inputs": [
                {
                    "internalType": "address",
                    "name": "src",
                    "type": "address"
                },
                {
                    "internalType": "address",
                    "name": "dst",
                    "type": "address"
                },
                {
                    "internalType": "uint256",
                    "name": "wad",
                    "type": "uint256"
                }
            ],
            "name": "transferFrom",
            "outputs": [
                {
                    "internalType": "bool",
                    "name": "",
                    "type": "bool"
                }
            ],
            "stateMutability": "nonpayable",
            "type": "function"
        }
    ],
    "bytecode": {
        "object": "0x608060405260126007553480156200001657600080fd5b50604051620022d0380380620022d0833981810160405260408110156200003c57600080fd5b81019080805160405193929190846401000000008211156200005d57600080fd5b9083019060208201858111156200007357600080fd5b82516401000000008111828201881017156200008e57600080fd5b82525081516020918201929091019080838360005b83811015620000bd578181015183820152602001620000a3565b50505050905090810190601f168015620000eb5780820380516001836020036101000a031916815260200191505b50604052602001805160405193929190846401000000008211156200010f57600080fd5b9083019060208201858111156200012557600080fd5b82516401000000008111828201881017156200014057600080fd5b82525081516020918201929091019080838360005b838110156200016f57818101518382015260200162000155565b50505050905090810190601f1680156200019d5780820380516001836020036101000a031916815260200191505b5060408181523360008181526001602052918220829055818055600480546001600160a01b0319168217905594507fce241d7ca1f669fee44b6fc00b8eba2df3bb514eed0f6f668f8f89096e81ed9493509150a281516200020690600690602085019062000225565b5080516200021c90600590602084019062000225565b505050620002ca565b828054600181600116156101000203166002900490600052602060002090601f016020900481019282601f106200026857805160ff191683800117855562000298565b8280016001018555821562000298579182015b82811115620002985782518255916020019190600101906200027b565b50620002a6929150620002aa565b5090565b620002c791905b80821115620002a65760008155600101620002b1565b90565b611ff680620002da6000396000f3fe608060405234801561001057600080fd5b50600436106102065760003560e01c80637ecebe001161011a578063bb35783b116100ad578063daea85c51161007c578063daea85c514610652578063dd62ed3e14610678578063e7a324dc146106a6578063f1127ed8146106ae578063f2d5d56b146106f957610206565b8063bb35783b146105c5578063be9a6555146105fb578063bf7e214f14610603578063c3cda5201461060b57610206565b8063a0712d68116100e9578063a0712d681461052a578063a9059cbb14610547578063b4b5ea5714610573578063b753a98c1461059957610206565b80637ecebe00146104c85780638da5cb5b146104ee57806395d89b41146104f65780639dc29fac146104fe57610206565b806340c10f191161019d5780636fcfff451161016c5780636fcfff451461040957806370a082311461044857806375f12b211461046e578063782d6fe1146104765780637a9e5e4b146104a257610206565b806340c10f191461035857806342966c6814610384578063587cde1e146103a15780635c19a95c146103e357610206565b806318160ddd116101d957806318160ddd146102f857806320606b701461031257806323b872dd1461031a578063313ce5671461035057610206565b806306fdde031461020b57806307da68f514610288578063095ea7b31461029257806313af4035146102d2575b600080fd5b610213610725565b6040805160208082528351818301528351919283929083019185019080838360005b8381101561024d578181015183820152602001610235565b50505050905090810190601f16801561027a5780820380516001836020036101000a031916815260200191505b509250505060405180910390f35b6102906107b3565b005b6102be600480360360408110156102a857600080fd5b506001600160a01b038135169060200135610891565b604080519115158252519081900360200190f35b610290600480360360208110156102e857600080fd5b50356001600160a01b03166108fb565b6103006109a9565b60408051918252519081900360200190f35b6103006109af565b6102be6004803603606081101561033057600080fd5b506001600160a01b038135811691602081013590911690604001356109ca565b610300610c55565b6102906004803603604081101561036e57600080fd5b506001600160a01b038135169060200135610c5b565b6102906004803603602081101561039a57600080fd5b5035610de7565b6103c7600480360360208110156103b757600080fd5b50356001600160a01b0316610df4565b604080516001600160a01b039092168252519081900360200190f35b610290600480360360208110156103f957600080fd5b50356001600160a01b0316610e0f565b61042f6004803603602081101561041f57600080fd5b50356001600160a01b0316610e19565b6040805163ffffffff9092168252519081900360200190f35b6103006004803603602081101561045e57600080fd5b50356001600160a01b0316610e31565b6102be610e4c565b6103006004803603604081101561048c57600080fd5b506001600160a01b038135169060200135610e5c565b610290600480360360208110156104b857600080fd5b50356001600160a01b0316611050565b610300600480360360208110156104de57600080fd5b50356001600160a01b03166110fe565b6103c7611110565b61021361111f565b6102906004803603604081101561051457600080fd5b506001600160a01b03813516906020013561117a565b6102906004803603602081101561054057600080fd5b5035611455565b6102be6004803603604081101561055d57600080fd5b506001600160a01b03813516906020013561145f565b6103006004803603602081101561058957600080fd5b50356001600160a01b031661146c565b610290600480360360408110156105af57600080fd5b506001600160a01b0381351690602001356114d0565b610290600480360360608110156105db57600080fd5b506001600160a01b038135811691602081013590911690604001356114e0565b6102906114f1565b6103c76115c7565b610290600480360360c081101561062157600080fd5b506001600160a01b038135169060208101359060408101359060ff6060820135169060808101359060a001356115d6565b6102be6004803603602081101561066857600080fd5b50356001600160a01b03166118ce565b6103006004803603604081101561068e57600080fd5b506001600160a01b0381358116916020013516611931565b61030061195c565b6106e0600480360360408110156106c457600080fd5b5080356001600160a01b0316906020013563ffffffff16611977565b6040805192835260208301919091528051918290030190f35b6102906004803603604081101561070f57600080fd5b506001600160a01b03813516906020013561199b565b6006805460408051602060026001851615610100026000190190941693909304601f810184900484028201840190925281815292918301828280156107ab5780601f10610780576101008083540402835291602001916107ab565b820191906000526020600020905b81548152906001019060200180831161078e57829003601f168201915b505050505081565b6107c9336000356001600160e01b0319166119a6565b610811576040805162461bcd60e51b8152602060048201526014602482015273191ccb585d5d1a0b5d5b985d5d1a1bdc9a5e995960621b604482015290519081900360640190fd5b60048054600160a01b60ff60a01b1990911617815560408051348082526020820183815236938301849052933593602435939192849286923392600080356001600160e01b0319169388939192909160608201848480828437600083820152604051601f909101601f1916909201829003965090945050505050a4505050565b600454600090600160a01b900460ff16156108e8576040805162461bcd60e51b8152602060048201526012602482015271191ccb5cdd1bdc0b5a5ccb5cdd1bdc1c195960721b604482015290519081900360640190fd5b6108f28383611a8d565b90505b92915050565b610911336000356001600160e01b0319166119a6565b610959576040805162461bcd60e51b8152602060048201526014602482015273191ccb585d5d1a0b5d5b985d5d1a1bdc9a5e995960621b604482015290519081900360640190fd5b600480546001600160a01b0319166001600160a01b0383811691909117918290556040519116907fce241d7ca1f669fee44b6fc00b8eba2df3bb514eed0f6f668f8f89096e81ed9490600090a250565b60005490565b604051806043611ed782396043019050604051809103902081565b600454600090600160a01b900460ff1615610a21576040805162461bcd60e51b8152602060048201526012602482015271191ccb5cdd1bdc0b5a5ccb5cdd1bdc1c195960721b604482015290519081900360640190fd5b6001600160a01b0384163314801590610a5f57506001600160a01b038416600090815260026020908152604080832033845290915290205460001914155b15610b19576001600160a01b0384166000908152600260209081526040808320338452909152902054821115610ac65760405162461bcd60e51b8152600401808060200182810382526027815260200180611e8d6027913960400191505060405180910390fd5b6001600160a01b0384166000908152600260209081526040808320338452909152902054610af49083611af3565b6001600160a01b03851660009081526002602090815260408083203384529091529020555b6001600160a01b038416600090815260016020526040902054821115610b705760405162461bcd60e51b8152600401808060200182810382526026815260200180611f1a6026913960400191505060405180910390fd5b6001600160a01b038416600090815260016020526040902054610b939083611af3565b6001600160a01b038086166000908152600160205260408082209390935590851681522054610bc29083611b43565b6001600160a01b0380851660008181526001602090815260409182902094909455805186815290519193928816927fddf252ad1be2c89b69c2b068fc378daa952ba7f163c4a11628f55a4df523b3ef92918290030190a36001600160a01b03808516600090815260086020526040808220548684168352912054610c4b92918216911684611b92565b5060019392505050565b60075481565b610c71336000356001600160e01b0319166119a6565b610cb9576040805162461bcd60e51b8152602060048201526014602482015273191ccb585d5d1a0b5d5b985d5d1a1bdc9a5e995960621b604482015290519081900360640190fd5b600454600160a01b900460ff1615610d0d576040805162461bcd60e51b8152602060048201526012602482015271191ccb5cdd1bdc0b5a5ccb5cdd1bdc1c195960721b604482015290519081900360640190fd5b6001600160a01b038216600090815260016020526040902054610d309082611b43565b6001600160a01b03831660009081526001602052604081209190915554610d579082611b43565b6000556040805182815290516001600160a01b038416917f0f6798a560793a54c3bcfe86a93cde1e73087d944c0ea20544137d4121396885919081900360200190a260086020527f5eff886ea0ce6ca488a3d6e336d6c0f75f46d19b42c06ce5ee98e42c96d256c7546001600160a01b0383811660009081526040902054610de3928216911683611b92565b5050565b610df1338261117a565b50565b6008602052600090815260409020546001600160a01b031681565b610df13382611ccf565b600a6020526000908152604090205463ffffffff1681565b6001600160a01b031660009081526001602052604090205490565b600454600160a01b900460ff1681565b6000438210610e9c5760405162461bcd60e51b8152600401808060200182810382526024815260200180611f9d6024913960400191505060405180910390fd5b6001600160a01b0383166000908152600a602052604090205463ffffffff1680610eca5760009150506108f5565b6001600160a01b038416600090815260096020908152604080832063ffffffff60001986011684529091529020548310610f37576001600160a01b03841660009081526009602090815260408083206000199490940163ffffffff168352929052206001015490506108f5565b6001600160a01b0384166000908152600960209081526040808320838052909152902054831015610f6c5760009150506108f5565b600060001982015b8163ffffffff168163ffffffff16111561101957600282820363ffffffff16048103610f9e611e72565b506001600160a01b038716600090815260096020908152604080832063ffffffff851684528252918290208251808401909352805480845260019091015491830191909152871415610ffa576020015194506108f59350505050565b805187111561100b57819350611012565b6001820392505b5050610f74565b506001600160a01b038516600090815260096020908152604080832063ffffffff9094168352929052206001015491505092915050565b611066336000356001600160e01b0319166119a6565b6110ae576040805162461bcd60e51b8152602060048201526014602482015273191ccb585d5d1a0b5d5b985d5d1a1bdc9a5e995960621b604482015290519081900360640190fd5b600380546001600160a01b0319166001600160a01b0383811691909117918290556040519116907f1abebea81bfa2637f28358c371278fb15ede7ea8dd28d2e03b112ff6d936ada490600090a250565b600b6020526000908152604090205481565b6004546001600160a01b031681565b6005805460408051602060026001851615610100026000190190941693909304601f810184900484028201840190925281815292918301828280156107ab5780601f10610780576101008083540402835291602001916107ab565b611190336000356001600160e01b0319166119a6565b6111d8576040805162461bcd60e51b8152602060048201526014602482015273191ccb585d5d1a0b5d5b985d5d1a1bdc9a5e995960621b604482015290519081900360640190fd5b600454600160a01b900460ff161561122c576040805162461bcd60e51b8152602060048201526012602482015271191ccb5cdd1bdc0b5a5ccb5cdd1bdc1c195960721b604482015290519081900360640190fd5b6001600160a01b038216331480159061126a57506001600160a01b038216600090815260026020908152604080832033845290915290205460001914155b15611324576001600160a01b03821660009081526002602090815260408083203384529091529020548111156112d15760405162461bcd60e51b8152600401808060200182810382526027815260200180611e8d6027913960400191505060405180910390fd5b6001600160a01b03821660009081526002602090815260408083203384529091529020546112ff9082611af3565b6001600160a01b03831660009081526002602090815260408083203384529091529020555b6001600160a01b03821660009081526001602052604090205481111561137b5760405162461bcd60e51b8152600401808060200182810382526026815260200180611f1a6026913960400191505060405180910390fd5b6001600160a01b03821660009081526001602052604090205461139e9082611af3565b6001600160a01b038316600090815260016020526040812091909155546113c59082611af3565b6000556040805182815290516001600160a01b038416917fcc16f5dbb4873280815c1ee09dbd06736cffcc184412cf7a71a0fdb75d397ca5919081900360200190a26001600160a01b038083166000908152600860205260408120549080527f5eff886ea0ce6ca488a3d6e336d6c0f75f46d19b42c06ce5ee98e42c96d256c754610de392918216911683611b92565b610df13382610c5b565b60006108f23384846109ca565b6001600160a01b0381166000908152600a602052604081205463ffffffff16806114975760006114c9565b6001600160a01b038316600090815260096020908152604080832063ffffffff60001986011684529091529020600101545b9392505050565b6114db3383836109ca565b505050565b6114eb8383836109ca565b50505050565b611507336000356001600160e01b0319166119a6565b61154f576040805162461bcd60e51b8152602060048201526014602482015273191ccb585d5d1a0b5d5b985d5d1a1bdc9a5e995960621b604482015290519081900360640190fd5b6004805460ff60a01b1916815560408051348082526020820183815236938301849052933593602435939192849286923392600080356001600160e01b0319169388939192909160608201848480828437600083820152604051601f909101601f1916909201829003965090945050505050a4505050565b6003546001600160a01b031681565b60006040518080611ed76043913960430190506040518091039020600660405160200180828054600181600116156101000203166002900480156116515780601f1061162f576101008083540402835291820191611651565b820191906000526020600020905b81548152906001019060200180831161163d575b505091505060405160208183030381529060405280519060200120611674611d41565b3060405160200180858152602001848152602001838152602001826001600160a01b03166001600160a01b0316815260200194505050505060405160208183030381529060405280519060200120905060006040518080611f63603a91396040805191829003603a0182206020808401919091526001600160a01b038c1683830152606083018b905260808084018b90528251808503909101815260a08401835280519082012061190160f01b60c085015260c2840187905260e2808501829052835180860390910181526101028501808552815191840191909120600091829052610122860180865281905260ff8c1661014287015261016286018b905261018286018a9052935191965092945091926001926101a28083019392601f198301929081900390910190855afa1580156117b2573d6000803e3d6000fd5b5050604051601f1901519150506001600160a01b0381166118045760405162461bcd60e51b8152600401808060200182810382526023815260200180611f406023913960400191505060405180910390fd5b6001600160a01b0381166000908152600b602052604090208054600181019091558914611878576040805162461bcd60e51b815260206004820152601f60248201527f64732d64656c65676174652d746f6b656e2d696e76616c69642d6e6f6e636500604482015290519081900360640190fd5b874211156118b75760405162461bcd60e51b8152600401808060200182810382526023815260200180611eb46023913960400191505060405180910390fd5b6118c1818b611ccf565b505050505b505050505050565b600454600090600160a01b900460ff1615611925576040805162461bcd60e51b8152602060048201526012602482015271191ccb5cdd1bdc0b5a5ccb5cdd1bdc1c195960721b604482015290519081900360640190fd5b6108f582600019611a8d565b6001600160a01b03918216600090815260026020908152604080832093909416825291909152205490565b60405180603a611f638239603a019050604051809103902081565b60096020908152600092835260408084209091529082529020805460019091015482565b6114db8233836109ca565b60006001600160a01b0383163014156119c1575060016108f5565b6004546001600160a01b03848116911614156119df575060016108f5565b6003546001600160a01b03166119f7575060006108f5565b6003546040805163b700961360e01b81526001600160a01b0386811660048301523060248301526001600160e01b0319861660448301529151919092169163b7009613916064808301926020929190829003018186803b158015611a5a57600080fd5b505afa158015611a6e573d6000803e3d6000fd5b505050506040513d6020811015611a8457600080fd5b505190506108f5565b3360008181526002602090815260408083206001600160a01b038716808552908352818420869055815186815291519394909390927f8c5be1e5ebec7d5bd14f71427d1e84f3dd0314c0f7b2291e5b200ac8c7c3b925928290030190a350600192915050565b808203828111156108f5576040805162461bcd60e51b815260206004820152601560248201527464732d6d6174682d7375622d756e646572666c6f7760581b604482015290519081900360640190fd5b808201828110156108f5576040805162461bcd60e51b815260206004820152601460248201527364732d6d6174682d6164642d6f766572666c6f7760601b604482015290519081900360640190fd5b816001600160a01b0316836001600160a01b031614158015611bb45750600081115b156114db576001600160a01b03831615611c46576001600160a01b0383166000908152600a602052604081205463ffffffff169081611bf4576000611c26565b6001600160a01b038516600090815260096020908152604080832063ffffffff60001987011684529091529020600101545b90506000611c348285611af3565b9050611c4286848484611d45565b5050505b6001600160a01b038216156114db576001600160a01b0382166000908152600a602052604081205463ffffffff169081611c81576000611cb3565b6001600160a01b038416600090815260096020908152604080832063ffffffff60001987011684529091529020600101545b90506000611cc18285611b43565b90506118c685848484611d45565b6001600160a01b0380831660008181526008602052604080822080548686166001600160a01b0319821681179092559151919094169392849290917f3134e8a2e6d97e929a7e54011ea5485d7d196dd5f0ba4d4ef95803e8e3fc257f9190a46114db8183611d3c86610e31565b611b92565b4690565b4363ffffffff841615801590611d8757506001600160a01b038516600090815260096020908152604080832063ffffffff600019890116845290915290205481145b15611dc4576001600160a01b038516600090815260096020908152604080832063ffffffff60001989011684529091529020600101829055611e28565b60408051808201825282815260208082018581526001600160a01b03891660008181526009845285812063ffffffff8b81168352908552868220955186559251600195860155908152600a909252929020805463ffffffff19169187019092161790555b604080518481526020810184905281516001600160a01b038816927fdec2bacdd2f05b59de34da9b523dff8be42e5e38e818c82fdb0bae774387a724928290030190a25050505050565b60405180604001604052806000815260200160008152509056fe64732d64656c65676174652d746f6b656e2d696e73756666696369656e742d617070726f76616c64732d64656c65676174652d746f6b656e2d7369676e61747572652d65787069726564454950373132446f6d61696e28737472696e67206e616d652c75696e7432353620636861696e49642c6164647265737320766572696679696e67436f6e74726163742964732d64656c65676174652d746f6b656e2d696e73756666696369656e742d62616c616e636564732d64656c65676174652d746f6b656e2d696e76616c69642d7369676e617475726544656c65676174696f6e28616464726573732064656c6567617465652c75696e74323536206e6f6e63652c75696e74323536206578706972792964732d64656c65676174652d746f6b656e2d6e6f742d7965742d64657465726d696e6564a2646970667358221220bfb3808927fee26d93b7a98e62ffa94783230a5e03f15559fe2709105c6608d164736f6c63430006070033",
        "linkReferences": {}
    },
    "methodIdentifiers": {
        "DELEGATION_TYPEHASH()": "e7a324dc",
        "DOMAIN_TYPEHASH()": "20606b70",
        "allowance(address,address)": "dd62ed3e",
        "approve(address)": "daea85c5",
        "approve(address,uint256)": "095ea7b3",
        "authority()": "bf7e214f",
        "balanceOf(address)": "70a08231",
        "burn(address,uint256)": "9dc29fac",
        "burn(uint256)": "42966c68",
        "checkpoints(address,uint32)": "f1127ed8",
        "decimals()": "313ce567",
        "delegate(address)": "5c19a95c",
        "delegateBySig(address,uint256,uint256,uint8,bytes32,bytes32)": "c3cda520",
        "delegates(address)": "587cde1e",
        "getCurrentVotes(address)": "b4b5ea57",
        "getPriorVotes(address,uint256)": "782d6fe1",
        "mint(address,uint256)": "40c10f19",
        "mint(uint256)": "a0712d68",
        "move(address,address,uint256)": "bb35783b",
        "name()": "06fdde03",
        "nonces(address)": "7ecebe00",
        "numCheckpoints(address)": "6fcfff45",
        "owner()": "8da5cb5b",
        "pull(address,uint256)": "f2d5d56b",
        "push(address,uint256)": "b753a98c",
        "setAuthority(address)": "7a9e5e4b",
        "setOwner(address)": "13af4035",
        "start()": "be9a6555",
        "stop()": "07da68f5",
        "stopped()": "75f12b21",
        "symbol()": "95d89b41",
        "totalSupply()": "18160ddd",
        "transfer(address,uint256)": "a9059cbb",
        "transferFrom(address,address,uint256)": "23b872dd"
    },
    "id": 10
}