{
    "abi": [
        {
            "inputs": [
                {
                    "internalType": "address",
                    "name": "priceSource_",
                    "type": "address"
                }
            ],
            "stateMutability": "nonpayable",
            "type": "constructor"
        },
        {
            "anonymous": false,
            "inputs": [
                {
                    "indexed": false,
                    "internalType": "address",
                    "name": "account",
                    "type": "address"
                }
            ],
            "name": "AddAuthorization",
            "type": "event"
        },
        {
            "anonymous": false,
            "inputs": [
                {
                    "indexed": false,
                    "internalType": "uint16",
                    "name": "delay",
                    "type": "uint16"
                }
            ],
            "name": "ChangeDelay",
            "type": "event"
        },
        {
            "anonymous": false,
            "inputs": [
                {
                    "indexed": false,
                    "internalType": "address",
                    "name": "priceSource",
                    "type": "address"
                }
            ],
            "name": "ChangePriceSource",
            "type": "event"
        },
        {
            "anonymous": false,
            "inputs": [
                {
                    "indexed": false,
                    "internalType": "address",
                    "name": "wrapper",
                    "type": "address"
                },
                {
                    "indexed": false,
                    "internalType": "address",
                    "name": "caller",
                    "type": "address"
                }
            ],
            "name": "FailRenumerateCaller",
            "type": "event"
        },
        {
            "anonymous": false,
            "inputs": [
                {
                    "indexed": false,
                    "internalType": "bytes32",
                    "name": "parameter",
                    "type": "bytes32"
                },
                {
                    "indexed": false,
                    "internalType": "uint256",
                    "name": "val",
                    "type": "uint256"
                }
            ],
            "name": "ModifyParameters",
            "type": "event"
        },
        {
            "anonymous": false,
            "inputs": [
                {
                    "indexed": false,
                    "internalType": "bytes32",
                    "name": "parameter",
                    "type": "bytes32"
                },
                {
                    "indexed": false,
                    "internalType": "address",
                    "name": "val",
                    "type": "address"
                }
            ],
            "name": "ModifyParameters",
            "type": "event"
        },
        {
            "anonymous": false,
            "inputs": [
                {
                    "indexed": false,
                    "internalType": "address",
                    "name": "account",
                    "type": "address"
                }
            ],
            "name": "RemoveAuthorization",
            "type": "event"
        },
        {
            "anonymous": false,
            "inputs": [],
            "name": "RestartValue",
            "type": "event"
        },
        {
            "anonymous": false,
            "inputs": [],
            "name": "Start",
            "type": "event"
        },
        {
            "anonymous": false,
            "inputs": [],
            "name": "Stop",
            "type": "event"
        },
        {
            "anonymous": false,
            "inputs": [
                {
                    "indexed": false,
                    "internalType": "uint256",
                    "name": "newMedian",
                    "type": "uint256"
                },
                {
                    "indexed": false,
                    "internalType": "uint256",
                    "name": "lastUpdateTime",
                    "type": "uint256"
                }
            ],
            "name": "UpdateResult",
            "type": "event"
        },
        {
            "inputs": [
                {
                    "internalType": "address",
                    "name": "account",
                    "type": "address"
                }
            ],
            "name": "addAuthorization",
            "outputs": [],
            "stateMutability": "nonpayable",
            "type": "function"
        },
        {
            "inputs": [
                {
                    "internalType": "address",
                    "name": "",
                    "type": "address"
                }
            ],
            "name": "authorizedAccounts",
            "outputs": [
                {
                    "internalType": "uint256",
                    "name": "",
                    "type": "uint256"
                }
            ],
            "stateMutability": "view",
            "type": "function"
        },
        {
            "inputs": [
                {
                    "internalType": "uint16",
                    "name": "delay",
                    "type": "uint16"
                }
            ],
            "name": "changeDelay",
            "outputs": [],
            "stateMutability": "nonpayable",
            "type": "function"
        },
        {
            "inputs": [
                {
                    "internalType": "address",
                    "name": "priceSource_",
                    "type": "address"
                }
            ],
            "name": "changePriceSource",
            "outputs": [],
            "stateMutability": "nonpayable",
            "type": "function"
        },
        {
            "inputs": [],
            "name": "fsmWrapper",
            "outputs": [
                {
                    "internalType": "contract FSMWrapperLike",
                    "name": "",
                    "type": "address"
                }
            ],
            "stateMutability": "view",
            "type": "function"
        },
        {
            "inputs": [],
            "name": "getNextResultWithValidity",
            "outputs": [
                {
                    "internalType": "uint256",
                    "name": "",
                    "type": "uint256"
                },
                {
                    "internalType": "bool",
                    "name": "",
                    "type": "bool"
                }
            ],
            "stateMutability": "view",
            "type": "function"
        },
        {
            "inputs": [],
            "name": "getResultWithValidity",
            "outputs": [
                {
                    "internalType": "uint256",
                    "name": "",
                    "type": "uint256"
                },
                {
                    "internalType": "bool",
                    "name": "",
                    "type": "bool"
                }
            ],
            "stateMutability": "view",
            "type": "function"
        },
        {
            "inputs": [],
            "name": "lastUpdateTime",
            "outputs": [
                {
                    "internalType": "uint64",
                    "name": "",
                    "type": "uint64"
                }
            ],
            "stateMutability": "view",
            "type": "function"
        },
        {
            "inputs": [
                {
                    "internalType": "bytes32",
                    "name": "parameter",
                    "type": "bytes32"
                },
                {
                    "internalType": "address",
                    "name": "val",
                    "type": "address"
                }
            ],
            "name": "modifyParameters",
            "outputs": [],
            "stateMutability": "nonpayable",
            "type": "function"
        },
        {
            "inputs": [],
            "name": "passedDelay",
            "outputs": [
                {
                    "internalType": "bool",
                    "name": "ok",
                    "type": "bool"
                }
            ],
            "stateMutability": "view",
            "type": "function"
        },
        {
            "inputs": [],
            "name": "priceSource",
            "outputs": [
                {
                    "internalType": "address",
                    "name": "",
                    "type": "address"
                }
            ],
            "stateMutability": "view",
            "type": "function"
        },
        {
            "inputs": [],
            "name": "read",
            "outputs": [
                {
                    "internalType": "uint256",
                    "name": "",
                    "type": "uint256"
                }
            ],
            "stateMutability": "view",
            "type": "function"
        },
        {
            "inputs": [
                {
                    "internalType": "address",
                    "name": "account",
                    "type": "address"
                }
            ],
            "name": "removeAuthorization",
            "outputs": [],
            "stateMutability": "nonpayable",
            "type": "function"
        },
        {
            "inputs": [],
            "name": "restartValue",
            "outputs": [],
            "stateMutability": "nonpayable",
            "type": "function"
        },
        {
            "inputs": [],
            "name": "start",
            "outputs": [],
            "stateMutability": "nonpayable",
            "type": "function"
        },
        {
            "inputs": [],
            "name": "stop",
            "outputs": [],
            "stateMutability": "nonpayable",
            "type": "function"
        },
        {
            "inputs": [],
            "name": "stopped",
            "outputs": [
                {
                    "internalType": "uint256",
                    "name": "",
                    "type": "uint256"
                }
            ],
            "stateMutability": "view",
            "type": "function"
        },
        {
            "inputs": [],
            "name": "updateDelay",
            "outputs": [
                {
                    "internalType": "uint16",
                    "name": "",
                    "type": "uint16"
                }
            ],
            "stateMutability": "view",
            "type": "function"
        },
        {
            "inputs": [],
            "name": "updateResult",
            "outputs": [],
            "stateMutability": "nonpayable",
            "type": "function"
        }
    ],
    "bytecode": {
        "object": "0x60806040526002805461ffff60a01b191660e160a41b1790553480156200002557600080fd5b506040516200129a3803806200129a833981810160405260208110156200004b57600080fd5b505133600090815260208190526040902060019055600280546001600160a01b0319166001600160a01b03808416919091179182905582911615620001ae57600080620000a06001600160e01b036200022816565b915091508015620001ab57604080518082019091526001600160801b038084168083526001602090930192909252600480546001600160801b03199081169093178216600160801b90811791829055600380548284048516909202919094169183169190911790911617905562000132620001236001600160e01b03620002ec16565b6001600160e01b03620002f016565b60028054600160b01b600160f01b031916600160b01b6001600160401b0393841681029190911791829055600354604080516001600160801b03909216825291909204909216602082015281517ff85e44c6c3597d176b8d59bfbf500dfdb2badfc8cf91e6d960b16583a5807e48929181900390910190a15b50505b6040805133815290517f599a298163e1678bb1c676052a8930bf0b8a1261ed6e01b8a2391e55f70001029181900360200190a1600254604080516001600160a01b039092168252517fe64aaa084ff9fb9651f314c5d25888701090b34db4f4809b517e863c62bd85089181900360200190a1505062000373565b600254604080516309fa15b560e31b8152815160009384936001600160a01b0390911692634fd0ada89260048083019392829003018186803b1580156200026e57600080fd5b505afa9250505080156200029c57506040513d60408110156200029057600080fd5b50805160209091015160015b620002e2573d808015620002cd576040519150601f19603f3d011682016040523d82523d6000602084013e620002d2565b606091505b5060009250829150620002e89050565b90925090505b9091565b4290565b600254600090600160a01b900461ffff1662000353576040805162461bcd60e51b815260206004820152601860248201527f4f534d2f7570646174652d64656c61792d69732d7a65726f0000000000000000604482015290519081900360640190fd5b600254600160a01b900461ffff1682816200036a57fe5b06909103919050565b610f1780620003836000396000f3fe608060405234801561001057600080fd5b50600436106101215760003560e01c806357de26a4116100ad57806381db59171161007157806381db5917146102a157806394f3f81d146102a9578063be9a6555146102cf578063c8f33c91146102d7578063ceedd63d146102fc57610121565b806357de26a41461024157806363bfa88b146102495780636614f0101461026557806375f12b211461029157806380ebb08e1461029957610121565b806335b28153116100f457806335b28153146101ad5780633fcdfe26146101d35780634f0a32de146101f95780634fd0ada81461021a578063554f94db1461022257610121565b806307da68f51461012657806320531bc91461013057806324ba5884146101545780632b9c7ee31461018c575b600080fd5b61012e610304565b005b610138610385565b604080516001600160a01b039092168252519081900360200190f35b61017a6004803603602081101561016a57600080fd5b50356001600160a01b0316610394565b60408051918252519081900360200190f35b61012e600480360360208110156101a257600080fd5b503561ffff166103a6565b61012e600480360360208110156101c357600080fd5b50356001600160a01b03166104a3565b61012e600480360360208110156101e957600080fd5b50356001600160a01b0316610547565b6102016105f3565b6040805192835290151560208301528051918290030190f35b610201610612565b61022a610630565b6040805161ffff9092168252519081900360200190f35b61017a610641565b6102516106b2565b604080519115158252519081900360200190f35b61012e6004803603604081101561027b57600080fd5b50803590602001356001600160a01b03166106f7565b61017a610841565b61012e610847565b610138610b1f565b61012e600480360360208110156102bf57600080fd5b50356001600160a01b0316610b2e565b61012e610bd1565b6102df610c53565b6040805167ffffffffffffffff9092168252519081900360200190f35b61012e610c6a565b33600090815260208190526040902054600114610356576040805162461bcd60e51b815260206004820152601a6024820152600080516020610ec2833981519152604482015290519081900360640190fd5b600180556040517fbedf0f4abfe86d4ffad593d9607fe70e83ea706033d44d24b3b6283cf3fc4f6b90600090a1565b6002546001600160a01b031681565b60006020819052908152604090205481565b336000908152602081905260409020546001146103f8576040805162461bcd60e51b815260206004820152601a6024820152600080516020610ec2833981519152604482015290519081900360640190fd5b60008161ffff1611610445576040805162461bcd60e51b81526020600482015260116024820152704f534d2f64656c61792d69732d7a65726f60781b604482015290519081900360640190fd5b6002805461ffff808416600160a01b90810261ffff60a01b199093169290921792839055604080519290930416815290517fe5e55d7a00a8da3c2d2be2af849b5680612dc299cf26e12a879220d5f42ea2319181900360200190a150565b336000908152602081905260409020546001146104f5576040805162461bcd60e51b815260206004820152601a6024820152600080516020610ec2833981519152604482015290519081900360640190fd5b6001600160a01b0381166000818152602081815260409182902060019055815192835290517f599a298163e1678bb1c676052a8930bf0b8a1261ed6e01b8a2391e55f70001029281900390910190a150565b33600090815260208190526040902054600114610599576040805162461bcd60e51b815260206004820152601a6024820152600080516020610ec2833981519152604482015290519081900360640190fd5b600280546001600160a01b0319166001600160a01b03838116919091179182905560408051929091168252517fe64aaa084ff9fb9651f314c5d25888701090b34db4f4809b517e863c62bd8508916020908290030190a150565b6004546001600160801b0380821691600160801b9004166001145b9091565b6003546001600160801b0380821691600160801b9004166001149091565b600254600160a01b900461ffff1681565b600354600090600160801b90046001600160801b03166001146106a2576040805162461bcd60e51b81526020600482015260146024820152734f534d2f6e6f2d63757272656e742d76616c756560601b604482015290519081900360640190fd5b506003546001600160801b031690565b6002546000906106de90600160b01b810467ffffffffffffffff1690600160a01b900461ffff16610d08565b67ffffffffffffffff166106f0610d2b565b1015905090565b33600090815260208190526040902054600114610749576040805162461bcd60e51b815260206004820152601a6024820152600080516020610ec2833981519152604482015290519081900360640190fd5b81693339b6abb930b83832b960b11b14156107c3576001600160a01b0381166107a35760405162461bcd60e51b8152600401808060200182810382526027815260200180610e6e6027913960400191505060405180910390fd5b600580546001600160a01b0319166001600160a01b0383161790556107fa565b60405162461bcd60e51b815260040180806020018281038252602d815260200180610e95602d913960400191505060405180910390fd5b604080518381526001600160a01b038316602082015281517fd91f38cf03346b5dc15fb60f9076f866295231ad3c3841a1051f8443f25170d1929181900390910190a15050565b60015481565b6001541561088d576040805162461bcd60e51b815260206004820152600e60248201526d13d4d34bda5ccb5cdd1bdc1c195960921b604482015290519081900360640190fd5b6108956106b2565b6108e6576040805162461bcd60e51b815260206004820152601e60248201527f45787465726e616c6c7946756e6465644f534d2f6e6f742d7061737365640000604482015290519081900360640190fd5b6005546001600160a01b0316610943576040805162461bcd60e51b815260206004820181905260248201527f45787465726e616c6c7946756e6465644f534d2f6e756c6c2d77726170706572604482015290519081900360640190fd5b60008061094e610d2f565b915091508015610b1b576004805460038054600160801b8084046001600160801b0390811682026fffffffffffffffffffffffffffffffff19938416828716178216179093556040805180820190915287841680825260016020909201919091529190931617161790556109c86109c3610d2b565b610dec565b6002805467ffffffffffffffff60b01b1916600160b01b67ffffffffffffffff93841681029190911791829055600354604080516001600160801b03909216825291909204909216602082015281517ff85e44c6c3597d176b8d59bfbf500dfdb2badfc8cf91e6d960b16583a5807e48929181900390910190a160055460408051632761f27b60e01b815233600482015290516001600160a01b0390921691632761f27b9160248082019260009290919082900301818387803b158015610a8e57600080fd5b505af1925050508015610a9f575060015b610b1b573d808015610acd576040519150601f19603f3d011682016040523d82523d6000602084013e610ad2565b606091505b50600554604080516001600160a01b03909216825233602083015280517f96957874bf643b6d75552ddf6e2f265e2c481209f5b12355e64caede7201b7409281900390910190a1505b5050565b6005546001600160a01b031681565b33600090815260208190526040902054600114610b80576040805162461bcd60e51b815260206004820152601a6024820152600080516020610ec2833981519152604482015290519081900360640190fd5b6001600160a01b03811660008181526020818152604080832092909255815192835290517f8834a87e641e9716be4f34527af5d23e11624f1ddeefede6ad75a9acfc31b9039281900390910190a150565b33600090815260208190526040902054600114610c23576040805162461bcd60e51b815260206004820152601a6024820152600080516020610ec2833981519152604482015290519081900360640190fd5b600060018190556040517f1b55ba3aa851a46be3b365aee5b5c140edd620d578922f3e8466d2cbd96f954b9190a1565b600254600160b01b900467ffffffffffffffff1681565b33600090815260208190526040902054600114610cbc576040805162461bcd60e51b815260206004820152601a6024820152600080516020610ec2833981519152604482015290519081900360640190fd5b60408051808201825260008082526020909101819052600481905560038190556001805590517f34cd470f8814066090f532fe3cb8158c5d974d7a01f4ada846dc9869e7e9d59a9190a1565b81810167ffffffffffffffff8084169082161015610d2557600080fd5b92915050565b4290565b600254604080516309fa15b560e31b8152815160009384936001600160a01b0390911692634fd0ada89260048083019392829003018186803b158015610d7457600080fd5b505afa925050508015610da057506040513d6040811015610d9457600080fd5b50805160209091015160015b610de2573d808015610dce576040519150601f19603f3d011682016040523d82523d6000602084013e610dd3565b606091505b506000925082915061060e9050565b909250905061060e565b600254600090600160a01b900461ffff16610e4e576040805162461bcd60e51b815260206004820152601860248201527f4f534d2f7570646174652d64656c61792d69732d7a65726f0000000000000000604482015290519081900360640190fd5b600254600160a01b900461ffff168281610e6457fe5b0690910391905056fe45787465726e616c6c7946756e6465644f534d2f696e76616c69642d66736d2d7772617070657245787465726e616c6c7946756e6465644f534d2f6d6f646966792d756e7265636f676e697a65642d706172616d4f534d2f6163636f756e742d6e6f742d617574686f72697a6564000000000000a26469706673582212208efeac8e4de6dc44f96df671bf345b4bea961eea548c329c5aa63d59af37d34164736f6c63430006070033",
        "linkReferences": {}
    },
    "methodIdentifiers": {
        "addAuthorization(address)": "35b28153",
        "authorizedAccounts(address)": "24ba5884",
        "changeDelay(uint16)": "2b9c7ee3",
        "changePriceSource(address)": "3fcdfe26",
        "fsmWrapper()": "81db5917",
        "getNextResultWithValidity()": "4f0a32de",
        "getResultWithValidity()": "4fd0ada8",
        "lastUpdateTime()": "c8f33c91",
        "modifyParameters(bytes32,address)": "6614f010",
        "passedDelay()": "63bfa88b",
        "priceSource()": "20531bc9",
        "read()": "57de26a4",
        "removeAuthorization(address)": "94f3f81d",
        "restartValue()": "ceedd63d",
        "start()": "be9a6555",
        "stop()": "07da68f5",
        "stopped()": "75f12b21",
        "updateDelay()": "554f94db",
        "updateResult()": "80ebb08e"
    },
    "id": 26
}