{
    "abi": [
        {
            "inputs": [],
            "name": "RAY",
            "outputs": [
                {
                    "internalType": "uint256",
                    "name": "",
                    "type": "uint256"
                }
            ],
            "stateMutability": "view",
            "type": "function"
        },
        {
            "inputs": [],
            "name": "WAD",
            "outputs": [
                {
                    "internalType": "uint256",
                    "name": "",
                    "type": "uint256"
                }
            ],
            "stateMutability": "view",
            "type": "function"
        },
        {
            "inputs": [
                {
                    "internalType": "uint256",
                    "name": "x",
                    "type": "uint256"
                },
                {
                    "internalType": "uint256",
                    "name": "y",
                    "type": "uint256"
                }
            ],
            "name": "addition",
            "outputs": [
                {
                    "internalType": "uint256",
                    "name": "z",
                    "type": "uint256"
                }
            ],
            "stateMutability": "pure",
            "type": "function"
        },
        {
            "inputs": [
                {
                    "internalType": "uint256",
                    "name": "x",
                    "type": "uint256"
                },
                {
                    "internalType": "uint256",
                    "name": "y",
                    "type": "uint256"
                }
            ],
            "name": "minimum",
            "outputs": [
                {
                    "internalType": "uint256",
                    "name": "z",
                    "type": "uint256"
                }
            ],
            "stateMutability": "pure",
            "type": "function"
        },
        {
            "inputs": [
                {
                    "internalType": "uint256",
                    "name": "x",
                    "type": "uint256"
                },
                {
                    "internalType": "uint256",
                    "name": "y",
                    "type": "uint256"
                }
            ],
            "name": "multiply",
            "outputs": [
                {
                    "internalType": "uint256",
                    "name": "z",
                    "type": "uint256"
                }
            ],
            "stateMutability": "pure",
            "type": "function"
        },
        {
            "inputs": [
                {
                    "internalType": "uint256",
                    "name": "x",
                    "type": "uint256"
                }
            ],
            "name": "rad",
            "outputs": [
                {
                    "internalType": "uint256",
                    "name": "z",
                    "type": "uint256"
                }
            ],
            "stateMutability": "pure",
            "type": "function"
        },
        {
            "inputs": [
                {
                    "internalType": "uint256",
                    "name": "x",
                    "type": "uint256"
                }
            ],
            "name": "ray",
            "outputs": [
                {
                    "internalType": "uint256",
                    "name": "z",
                    "type": "uint256"
                }
            ],
            "stateMutability": "pure",
            "type": "function"
        },
        {
            "inputs": [
                {
                    "internalType": "uint256",
                    "name": "x",
                    "type": "uint256"
                },
                {
                    "internalType": "uint256",
                    "name": "y",
                    "type": "uint256"
                }
            ],
            "name": "rdivide",
            "outputs": [
                {
                    "internalType": "uint256",
                    "name": "z",
                    "type": "uint256"
                }
            ],
            "stateMutability": "pure",
            "type": "function"
        },
        {
            "inputs": [
                {
                    "internalType": "uint256",
                    "name": "x",
                    "type": "uint256"
                },
                {
                    "internalType": "uint256",
                    "name": "y",
                    "type": "uint256"
                }
            ],
            "name": "rmultiply",
            "outputs": [
                {
                    "internalType": "uint256",
                    "name": "z",
                    "type": "uint256"
                }
            ],
            "stateMutability": "pure",
            "type": "function"
        },
        {
            "inputs": [
                {
                    "internalType": "uint256",
                    "name": "x",
                    "type": "uint256"
                },
                {
                    "internalType": "uint256",
                    "name": "n",
                    "type": "uint256"
                },
                {
                    "internalType": "uint256",
                    "name": "base",
                    "type": "uint256"
                }
            ],
            "name": "rpower",
            "outputs": [
                {
                    "internalType": "uint256",
                    "name": "z",
                    "type": "uint256"
                }
            ],
            "stateMutability": "pure",
            "type": "function"
        },
        {
            "inputs": [
                {
                    "internalType": "uint256",
                    "name": "x",
                    "type": "uint256"
                },
                {
                    "internalType": "uint256",
                    "name": "y",
                    "type": "uint256"
                }
            ],
            "name": "subtract",
            "outputs": [
                {
                    "internalType": "uint256",
                    "name": "z",
                    "type": "uint256"
                }
            ],
            "stateMutability": "pure",
            "type": "function"
        },
        {
            "inputs": [
                {
                    "internalType": "uint256",
                    "name": "x",
                    "type": "uint256"
                },
                {
                    "internalType": "uint256",
                    "name": "y",
                    "type": "uint256"
                }
            ],
            "name": "wdivide",
            "outputs": [
                {
                    "internalType": "uint256",
                    "name": "z",
                    "type": "uint256"
                }
            ],
            "stateMutability": "pure",
            "type": "function"
        },
        {
            "inputs": [
                {
                    "internalType": "uint256",
                    "name": "x",
                    "type": "uint256"
                },
                {
                    "internalType": "uint256",
                    "name": "y",
                    "type": "uint256"
                }
            ],
            "name": "wmultiply",
            "outputs": [
                {
                    "internalType": "uint256",
                    "name": "z",
                    "type": "uint256"
                }
            ],
            "stateMutability": "pure",
            "type": "function"
        }
    ],
    "bytecode": {
        "object": "0x608060405234801561001057600080fd5b50610541806100206000396000f3fe608060405234801561001057600080fd5b50600436106100cf5760003560e01c806354f363a31161008c578063a087163711610066578063a0871637146101df578063d6e882dc14610202578063dd2d2a121461022b578063f752fdc31461024e576100cf565b806354f363a3146101ac578063552033c4146101cf5780636a146024146101d7576100cf565b8063056640b7146100d45780631021344714610109578063165c4a16146101265780633c8bb3e6146101495780633ef5e4451461016c57806346f3e81c1461018f575b600080fd5b6100f7600480360360408110156100ea57600080fd5b5080359060200135610271565b60408051918252519081900360200190f35b6100f76004803603602081101561011f57600080fd5b5035610299565b6100f76004803603604081101561013c57600080fd5b50803590602001356102af565b6100f76004803603604081101561015f57600080fd5b5080359060200135610314565b6100f76004803603604081101561018257600080fd5b5080359060200135610329565b6100f7600480360360208110156101a557600080fd5b5035610381565b6100f7600480360360408110156101c257600080fd5b5080359060200135610399565b6100f76103ea565b6100f76103fa565b6100f7600480360360408110156101f557600080fd5b5080359060200135610406565b6100f76004803603606081101561021857600080fd5b508035906020810135906040013561041f565b6100f76004803603604081101561024157600080fd5b50803590602001356104dd565b6100f76004803603604081101561026457600080fd5b50803590602001356104f6565b60006b033b2e3c9fd0803ce800000061028a84846102af565b8161029157fe5b049392505050565b60006102a982633b9aca006102af565b92915050565b60008115806102ca575050808202828282816102c757fe5b04145b6102a9576040805162461bcd60e51b815260206004820152601660248201527575696e742d75696e742d6d756c2d6f766572666c6f7760501b604482015290519081900360640190fd5b6000670de0b6b3a764000061028a84846102af565b808203828111156102a9576040805162461bcd60e51b815260206004820152601760248201527f75696e742d75696e742d7375622d756e646572666c6f77000000000000000000604482015290519081900360640190fd5b60006102a9826b033b2e3c9fd0803ce80000006102af565b818101828110156102a9576040805162461bcd60e51b815260206004820152601660248201527575696e742d75696e742d6164642d6f766572666c6f7760501b604482015290519081900360640190fd5b6b033b2e3c9fd0803ce800000081565b670de0b6b3a764000081565b60008161028a846b033b2e3c9fd0803ce80000006102af565b60008380156104bf5760018416801561043a5785925061043e565b8392505b50600283046002850494505b84156104b957858602868782041461046157600080fd5b8181018181101561047157600080fd5b85900496505060018516156104ae57858302838782041415871515161561049757600080fd5b818101818110156104a757600080fd5b8590049350505b60028504945061044a565b506104d5565b8380156104cf57600092506104d3565b8392505b505b509392505050565b6000818311156104ed57816104ef565b825b9392505050565b60008161028a84670de0b6b3a76400006102af56fea26469706673582212207debe3e94ad3e7a337e1de984ee23d2f1c2c45afe91763e5c0e901d30821ff4b64736f6c63430006070033",
        "linkReferences": {}
    },
    "methodIdentifiers": {
        "RAY()": "552033c4",
        "WAD()": "6a146024",
        "addition(uint256,uint256)": "54f363a3",
        "minimum(uint256,uint256)": "dd2d2a12",
        "multiply(uint256,uint256)": "165c4a16",
        "rad(uint256)": "46f3e81c",
        "ray(uint256)": "10213447",
        "rdivide(uint256,uint256)": "a0871637",
        "rmultiply(uint256,uint256)": "056640b7",
        "rpower(uint256,uint256,uint256)": "d6e882dc",
        "subtract(uint256,uint256)": "3ef5e445",
        "wdivide(uint256,uint256)": "f752fdc3",
        "wmultiply(uint256,uint256)": "3c8bb3e6"
    },
    "id": 18
}