{
    "abi": [
        {
            "inputs": [
                {
                    "internalType": "address",
                    "name": "manager",
                    "type": "address"
                },
                {
                    "internalType": "address",
                    "name": "usr",
                    "type": "address"
                },
                {
                    "internalType": "uint256",
                    "name": "ok",
                    "type": "uint256"
                }
            ],
            "name": "allowHandler",
            "outputs": [],
            "stateMutability": "nonpayable",
            "type": "function"
        },
        {
            "inputs": [
                {
                    "internalType": "address",
                    "name": "manager",
                    "type": "address"
                },
                {
                    "internalType": "uint256",
                    "name": "safe",
                    "type": "uint256"
                },
                {
                    "internalType": "address",
                    "name": "usr",
                    "type": "address"
                },
                {
                    "internalType": "uint256",
                    "name": "ok",
                    "type": "uint256"
                }
            ],
            "name": "allowSAFE",
            "outputs": [],
            "stateMutability": "nonpayable",
            "type": "function"
        },
        {
            "inputs": [
                {
                    "internalType": "address",
                    "name": "safeEngine",
                    "type": "address"
                },
                {
                    "internalType": "address",
                    "name": "usr",
                    "type": "address"
                }
            ],
            "name": "approveSAFEModification",
            "outputs": [],
            "stateMutability": "nonpayable",
            "type": "function"
        },
        {
            "inputs": [
                {
                    "internalType": "address",
                    "name": "apt",
                    "type": "address"
                },
                {
                    "internalType": "address",
                    "name": "safeHandler",
                    "type": "address"
                },
                {
                    "internalType": "uint256",
                    "name": "wad",
                    "type": "uint256"
                }
            ],
            "name": "coinJoin_join",
            "outputs": [],
            "stateMutability": "nonpayable",
            "type": "function"
        },
        {
            "inputs": [
                {
                    "internalType": "address",
                    "name": "safeEngine",
                    "type": "address"
                },
                {
                    "internalType": "address",
                    "name": "usr",
                    "type": "address"
                }
            ],
            "name": "denySAFEModification",
            "outputs": [],
            "stateMutability": "nonpayable",
            "type": "function"
        },
        {
            "inputs": [
                {
                    "internalType": "address",
                    "name": "manager",
                    "type": "address"
                },
                {
                    "internalType": "address",
                    "name": "src",
                    "type": "address"
                },
                {
                    "internalType": "uint256",
                    "name": "safe",
                    "type": "uint256"
                }
            ],
            "name": "enterSystem",
            "outputs": [],
            "stateMutability": "nonpayable",
            "type": "function"
        },
        {
            "inputs": [
                {
                    "internalType": "address",
                    "name": "apt",
                    "type": "address"
                },
                {
                    "internalType": "address",
                    "name": "safe",
                    "type": "address"
                }
            ],
            "name": "ethJoin_join",
            "outputs": [],
            "stateMutability": "payable",
            "type": "function"
        },
        {
            "inputs": [
                {
                    "internalType": "address",
                    "name": "apt",
                    "type": "address"
                },
                {
                    "internalType": "address",
                    "name": "safe",
                    "type": "address"
                },
                {
                    "internalType": "uint256",
                    "name": "value",
                    "type": "uint256"
                }
            ],
            "name": "ethJoin_join",
            "outputs": [],
            "stateMutability": "payable",
            "type": "function"
        },
        {
            "inputs": [
                {
                    "internalType": "address",
                    "name": "manager",
                    "type": "address"
                },
                {
                    "internalType": "address",
                    "name": "ethJoin",
                    "type": "address"
                },
                {
                    "internalType": "uint256",
                    "name": "safe",
                    "type": "uint256"
                },
                {
                    "internalType": "uint256",
                    "name": "wad",
                    "type": "uint256"
                }
            ],
            "name": "exitETH",
            "outputs": [],
            "stateMutability": "nonpayable",
            "type": "function"
        },
        {
            "inputs": [
                {
                    "internalType": "address",
                    "name": "manager",
                    "type": "address"
                },
                {
                    "internalType": "address",
                    "name": "collateralJoin",
                    "type": "address"
                },
                {
                    "internalType": "uint256",
                    "name": "safe",
                    "type": "uint256"
                },
                {
                    "internalType": "uint256",
                    "name": "amt",
                    "type": "uint256"
                }
            ],
            "name": "exitTokenCollateral",
            "outputs": [],
            "stateMutability": "nonpayable",
            "type": "function"
        },
        {
            "inputs": [
                {
                    "internalType": "address",
                    "name": "manager",
                    "type": "address"
                },
                {
                    "internalType": "address",
                    "name": "ethJoin",
                    "type": "address"
                },
                {
                    "internalType": "uint256",
                    "name": "safe",
                    "type": "uint256"
                },
                {
                    "internalType": "uint256",
                    "name": "wad",
                    "type": "uint256"
                }
            ],
            "name": "freeETH",
            "outputs": [],
            "stateMutability": "nonpayable",
            "type": "function"
        },
        {
            "inputs": [
                {
                    "internalType": "address",
                    "name": "manager",
                    "type": "address"
                },
                {
                    "internalType": "address",
                    "name": "collateralJoin",
                    "type": "address"
                },
                {
                    "internalType": "uint256",
                    "name": "safe",
                    "type": "uint256"
                },
                {
                    "internalType": "uint256",
                    "name": "amt",
                    "type": "uint256"
                }
            ],
            "name": "freeTokenCollateral",
            "outputs": [],
            "stateMutability": "nonpayable",
            "type": "function"
        },
        {
            "inputs": [
                {
                    "internalType": "address",
                    "name": "manager",
                    "type": "address"
                },
                {
                    "internalType": "address",
                    "name": "taxCollector",
                    "type": "address"
                },
                {
                    "internalType": "address",
                    "name": "coinJoin",
                    "type": "address"
                },
                {
                    "internalType": "uint256",
                    "name": "safe",
                    "type": "uint256"
                },
                {
                    "internalType": "uint256",
                    "name": "wad",
                    "type": "uint256"
                }
            ],
            "name": "generateDebt",
            "outputs": [],
            "stateMutability": "nonpayable",
            "type": "function"
        },
        {
            "inputs": [
                {
                    "internalType": "address",
                    "name": "manager",
                    "type": "address"
                },
                {
                    "internalType": "address",
                    "name": "taxCollector",
                    "type": "address"
                },
                {
                    "internalType": "address",
                    "name": "coinJoin",
                    "type": "address"
                },
                {
                    "internalType": "uint256",
                    "name": "safe",
                    "type": "uint256"
                },
                {
                    "internalType": "uint256",
                    "name": "wad",
                    "type": "uint256"
                },
                {
                    "internalType": "address",
                    "name": "liquidationEngine",
                    "type": "address"
                },
                {
                    "internalType": "address",
                    "name": "saviour",
                    "type": "address"
                }
            ],
            "name": "generateDebtAndProtectSAFE",
            "outputs": [],
            "stateMutability": "nonpayable",
            "type": "function"
        },
        {
            "inputs": [
                {
                    "internalType": "address",
                    "name": "manager",
                    "type": "address"
                },
                {
                    "internalType": "address",
                    "name": "ethJoin",
                    "type": "address"
                },
                {
                    "internalType": "uint256",
                    "name": "safe",
                    "type": "uint256"
                }
            ],
            "name": "lockETH",
            "outputs": [],
            "stateMutability": "payable",
            "type": "function"
        },
        {
            "inputs": [
                {
                    "internalType": "address",
                    "name": "manager",
                    "type": "address"
                },
                {
                    "internalType": "address",
                    "name": "taxCollector",
                    "type": "address"
                },
                {
                    "internalType": "address",
                    "name": "ethJoin",
                    "type": "address"
                },
                {
                    "internalType": "address",
                    "name": "coinJoin",
                    "type": "address"
                },
                {
                    "internalType": "uint256",
                    "name": "safe",
                    "type": "uint256"
                },
                {
                    "internalType": "uint256",
                    "name": "deltaWad",
                    "type": "uint256"
                }
            ],
            "name": "lockETHAndGenerateDebt",
            "outputs": [],
            "stateMutability": "payable",
            "type": "function"
        },
        {
            "inputs": [
                {
                    "internalType": "address",
                    "name": "manager",
                    "type": "address"
                },
                {
                    "internalType": "address",
                    "name": "collateralJoin",
                    "type": "address"
                },
                {
                    "internalType": "uint256",
                    "name": "safe",
                    "type": "uint256"
                },
                {
                    "internalType": "uint256",
                    "name": "amt",
                    "type": "uint256"
                },
                {
                    "internalType": "bool",
                    "name": "transferFrom",
                    "type": "bool"
                }
            ],
            "name": "lockTokenCollateral",
            "outputs": [],
            "stateMutability": "nonpayable",
            "type": "function"
        },
        {
            "inputs": [
                {
                    "internalType": "address",
                    "name": "manager",
                    "type": "address"
                },
                {
                    "internalType": "address",
                    "name": "taxCollector",
                    "type": "address"
                },
                {
                    "internalType": "address",
                    "name": "collateralJoin",
                    "type": "address"
                },
                {
                    "internalType": "address",
                    "name": "coinJoin",
                    "type": "address"
                },
                {
                    "internalType": "uint256",
                    "name": "safe",
                    "type": "uint256"
                },
                {
                    "internalType": "uint256",
                    "name": "collateralAmount",
                    "type": "uint256"
                },
                {
                    "internalType": "uint256",
                    "name": "deltaWad",
                    "type": "uint256"
                },
                {
                    "internalType": "bool",
                    "name": "transferFrom",
                    "type": "bool"
                }
            ],
            "name": "lockTokenCollateralAndGenerateDebt",
            "outputs": [],
            "stateMutability": "nonpayable",
            "type": "function"
        },
        {
            "inputs": [
                {
                    "internalType": "address",
                    "name": "manager",
                    "type": "address"
                },
                {
                    "internalType": "address",
                    "name": "taxCollector",
                    "type": "address"
                },
                {
                    "internalType": "address",
                    "name": "collateralJoin",
                    "type": "address"
                },
                {
                    "internalType": "address",
                    "name": "coinJoin",
                    "type": "address"
                },
                {
                    "internalType": "uint256",
                    "name": "safe",
                    "type": "uint256"
                },
                {
                    "internalType": "uint256",
                    "name": "collateralAmount",
                    "type": "uint256"
                },
                {
                    "internalType": "uint256",
                    "name": "deltaWad",
                    "type": "uint256"
                },
                {
                    "internalType": "bool",
                    "name": "transferFrom",
                    "type": "bool"
                },
                {
                    "internalType": "address",
                    "name": "liquidationEngine",
                    "type": "address"
                },
                {
                    "internalType": "address",
                    "name": "saviour",
                    "type": "address"
                }
            ],
            "name": "lockTokenCollateralGenerateDebtAndProtectSAFE",
            "outputs": [],
            "stateMutability": "nonpayable",
            "type": "function"
        },
        {
            "inputs": [
                {
                    "internalType": "address",
                    "name": "collateralJoin",
                    "type": "address"
                }
            ],
            "name": "makeCollateralBag",
            "outputs": [
                {
                    "internalType": "address",
                    "name": "bag",
                    "type": "address"
                }
            ],
            "stateMutability": "nonpayable",
            "type": "function"
        },
        {
            "inputs": [
                {
                    "internalType": "address",
                    "name": "manager",
                    "type": "address"
                },
                {
                    "internalType": "uint256",
                    "name": "safe",
                    "type": "uint256"
                },
                {
                    "internalType": "int256",
                    "name": "deltaCollateral",
                    "type": "int256"
                },
                {
                    "internalType": "int256",
                    "name": "deltaDebt",
                    "type": "int256"
                }
            ],
            "name": "modifySAFECollateralization",
            "outputs": [],
            "stateMutability": "nonpayable",
            "type": "function"
        },
        {
            "inputs": [
                {
                    "internalType": "address",
                    "name": "manager",
                    "type": "address"
                },
                {
                    "internalType": "uint256",
                    "name": "safeSrc",
                    "type": "uint256"
                },
                {
                    "internalType": "uint256",
                    "name": "safeDst",
                    "type": "uint256"
                }
            ],
            "name": "moveSAFE",
            "outputs": [],
            "stateMutability": "nonpayable",
            "type": "function"
        },
        {
            "inputs": [
                {
                    "internalType": "address",
                    "name": "manager",
                    "type": "address"
                },
                {
                    "internalType": "address",
                    "name": "taxCollector",
                    "type": "address"
                },
                {
                    "internalType": "address",
                    "name": "ethJoin",
                    "type": "address"
                },
                {
                    "internalType": "address",
                    "name": "coinJoin",
                    "type": "address"
                },
                {
                    "internalType": "bytes32",
                    "name": "collateralType",
                    "type": "bytes32"
                },
                {
                    "internalType": "uint256",
                    "name": "deltaWad",
                    "type": "uint256"
                }
            ],
            "name": "openLockETHAndGenerateDebt",
            "outputs": [
                {
                    "internalType": "uint256",
                    "name": "safe",
                    "type": "uint256"
                }
            ],
            "stateMutability": "payable",
            "type": "function"
        },
        {
            "inputs": [
                {
                    "internalType": "address",
                    "name": "manager",
                    "type": "address"
                },
                {
                    "internalType": "address",
                    "name": "taxCollector",
                    "type": "address"
                },
                {
                    "internalType": "address",
                    "name": "ethJoin",
                    "type": "address"
                },
                {
                    "internalType": "address",
                    "name": "coinJoin",
                    "type": "address"
                },
                {
                    "internalType": "bytes32",
                    "name": "collateralType",
                    "type": "bytes32"
                },
                {
                    "internalType": "uint256",
                    "name": "deltaWad",
                    "type": "uint256"
                },
                {
                    "internalType": "address",
                    "name": "liquidationEngine",
                    "type": "address"
                },
                {
                    "internalType": "address",
                    "name": "saviour",
                    "type": "address"
                }
            ],
            "name": "openLockETHGenerateDebtAndProtectSAFE",
            "outputs": [
                {
                    "internalType": "uint256",
                    "name": "safe",
                    "type": "uint256"
                }
            ],
            "stateMutability": "payable",
            "type": "function"
        },
        {
            "inputs": [
                {
                    "internalType": "address",
                    "name": "manager",
                    "type": "address"
                },
                {
                    "internalType": "address",
                    "name": "taxCollector",
                    "type": "address"
                },
                {
                    "internalType": "address",
                    "name": "gntJoin",
                    "type": "address"
                },
                {
                    "internalType": "address",
                    "name": "coinJoin",
                    "type": "address"
                },
                {
                    "internalType": "bytes32",
                    "name": "collateralType",
                    "type": "bytes32"
                },
                {
                    "internalType": "uint256",
                    "name": "collateralAmount",
                    "type": "uint256"
                },
                {
                    "internalType": "uint256",
                    "name": "deltaWad",
                    "type": "uint256"
                }
            ],
            "name": "openLockGNTAndGenerateDebt",
            "outputs": [
                {
                    "internalType": "address",
                    "name": "bag",
                    "type": "address"
                },
                {
                    "internalType": "uint256",
                    "name": "safe",
                    "type": "uint256"
                }
            ],
            "stateMutability": "nonpayable",
            "type": "function"
        },
        {
            "inputs": [
                {
                    "internalType": "address",
                    "name": "manager",
                    "type": "address"
                },
                {
                    "internalType": "address",
                    "name": "taxCollector",
                    "type": "address"
                },
                {
                    "internalType": "address",
                    "name": "gntJoin",
                    "type": "address"
                },
                {
                    "internalType": "address",
                    "name": "coinJoin",
                    "type": "address"
                },
                {
                    "internalType": "bytes32",
                    "name": "collateralType",
                    "type": "bytes32"
                },
                {
                    "internalType": "uint256",
                    "name": "collateralAmount",
                    "type": "uint256"
                },
                {
                    "internalType": "uint256",
                    "name": "deltaWad",
                    "type": "uint256"
                },
                {
                    "internalType": "address",
                    "name": "liquidationEngine",
                    "type": "address"
                },
                {
                    "internalType": "address",
                    "name": "saviour",
                    "type": "address"
                }
            ],
            "name": "openLockGNTGenerateDebtAndProtectSAFE",
            "outputs": [
                {
                    "internalType": "address",
                    "name": "bag",
                    "type": "address"
                },
                {
                    "internalType": "uint256",
                    "name": "safe",
                    "type": "uint256"
                }
            ],
            "stateMutability": "nonpayable",
            "type": "function"
        },
        {
            "inputs": [
                {
                    "internalType": "address",
                    "name": "manager",
                    "type": "address"
                },
                {
                    "internalType": "address",
                    "name": "taxCollector",
                    "type": "address"
                },
                {
                    "internalType": "address",
                    "name": "collateralJoin",
                    "type": "address"
                },
                {
                    "internalType": "address",
                    "name": "coinJoin",
                    "type": "address"
                },
                {
                    "internalType": "bytes32",
                    "name": "collateralType",
                    "type": "bytes32"
                },
                {
                    "internalType": "uint256",
                    "name": "collateralAmount",
                    "type": "uint256"
                },
                {
                    "internalType": "uint256",
                    "name": "deltaWad",
                    "type": "uint256"
                },
                {
                    "internalType": "bool",
                    "name": "transferFrom",
                    "type": "bool"
                }
            ],
            "name": "openLockTokenCollateralAndGenerateDebt",
            "outputs": [
                {
                    "internalType": "uint256",
                    "name": "safe",
                    "type": "uint256"
                }
            ],
            "stateMutability": "nonpayable",
            "type": "function"
        },
        {
            "inputs": [
                {
                    "internalType": "address",
                    "name": "manager",
                    "type": "address"
                },
                {
                    "internalType": "address",
                    "name": "taxCollector",
                    "type": "address"
                },
                {
                    "internalType": "address",
                    "name": "collateralJoin",
                    "type": "address"
                },
                {
                    "internalType": "address",
                    "name": "coinJoin",
                    "type": "address"
                },
                {
                    "internalType": "bytes32",
                    "name": "collateralType",
                    "type": "bytes32"
                },
                {
                    "internalType": "uint256",
                    "name": "collateralAmount",
                    "type": "uint256"
                },
                {
                    "internalType": "uint256",
                    "name": "deltaWad",
                    "type": "uint256"
                },
                {
                    "internalType": "bool",
                    "name": "transferFrom",
                    "type": "bool"
                },
                {
                    "internalType": "address",
                    "name": "liquidationEngine",
                    "type": "address"
                },
                {
                    "internalType": "address",
                    "name": "saviour",
                    "type": "address"
                }
            ],
            "name": "openLockTokenCollateralGenerateDebtAndProtectSAFE",
            "outputs": [
                {
                    "internalType": "uint256",
                    "name": "safe",
                    "type": "uint256"
                }
            ],
            "stateMutability": "nonpayable",
            "type": "function"
        },
        {
            "inputs": [
                {
                    "internalType": "address",
                    "name": "manager",
                    "type": "address"
                },
                {
                    "internalType": "bytes32",
                    "name": "collateralType",
                    "type": "bytes32"
                },
                {
                    "internalType": "address",
                    "name": "usr",
                    "type": "address"
                }
            ],
            "name": "openSAFE",
            "outputs": [
                {
                    "internalType": "uint256",
                    "name": "safe",
                    "type": "uint256"
                }
            ],
            "stateMutability": "nonpayable",
            "type": "function"
        },
        {
            "inputs": [
                {
                    "internalType": "address",
                    "name": "manager",
                    "type": "address"
                },
                {
                    "internalType": "uint256",
                    "name": "safe",
                    "type": "uint256"
                },
                {
                    "internalType": "address",
                    "name": "liquidationEngine",
                    "type": "address"
                },
                {
                    "internalType": "address",
                    "name": "saviour",
                    "type": "address"
                }
            ],
            "name": "protectSAFE",
            "outputs": [],
            "stateMutability": "nonpayable",
            "type": "function"
        },
        {
            "inputs": [
                {
                    "internalType": "address",
                    "name": "manager",
                    "type": "address"
                },
                {
                    "internalType": "uint256",
                    "name": "safe",
                    "type": "uint256"
                },
                {
                    "internalType": "address",
                    "name": "dst",
                    "type": "address"
                }
            ],
            "name": "quitSystem",
            "outputs": [],
            "stateMutability": "nonpayable",
            "type": "function"
        },
        {
            "inputs": [
                {
                    "internalType": "address",
                    "name": "manager",
                    "type": "address"
                },
                {
                    "internalType": "address",
                    "name": "coinJoin",
                    "type": "address"
                },
                {
                    "internalType": "uint256",
                    "name": "safe",
                    "type": "uint256"
                }
            ],
            "name": "repayAllDebt",
            "outputs": [],
            "stateMutability": "nonpayable",
            "type": "function"
        },
        {
            "inputs": [
                {
                    "internalType": "address",
                    "name": "manager",
                    "type": "address"
                },
                {
                    "internalType": "address",
                    "name": "ethJoin",
                    "type": "address"
                },
                {
                    "internalType": "address",
                    "name": "coinJoin",
                    "type": "address"
                },
                {
                    "internalType": "uint256",
                    "name": "safe",
                    "type": "uint256"
                },
                {
                    "internalType": "uint256",
                    "name": "collateralWad",
                    "type": "uint256"
                }
            ],
            "name": "repayAllDebtAndFreeETH",
            "outputs": [],
            "stateMutability": "nonpayable",
            "type": "function"
        },
        {
            "inputs": [
                {
                    "internalType": "address",
                    "name": "manager",
                    "type": "address"
                },
                {
                    "internalType": "address",
                    "name": "collateralJoin",
                    "type": "address"
                },
                {
                    "internalType": "address",
                    "name": "coinJoin",
                    "type": "address"
                },
                {
                    "internalType": "uint256",
                    "name": "safe",
                    "type": "uint256"
                },
                {
                    "internalType": "uint256",
                    "name": "collateralAmount",
                    "type": "uint256"
                }
            ],
            "name": "repayAllDebtAndFreeTokenCollateral",
            "outputs": [],
            "stateMutability": "nonpayable",
            "type": "function"
        },
        {
            "inputs": [
                {
                    "internalType": "address",
                    "name": "manager",
                    "type": "address"
                },
                {
                    "internalType": "address",
                    "name": "coinJoin",
                    "type": "address"
                },
                {
                    "internalType": "uint256",
                    "name": "safe",
                    "type": "uint256"
                },
                {
                    "internalType": "uint256",
                    "name": "wad",
                    "type": "uint256"
                }
            ],
            "name": "repayDebt",
            "outputs": [],
            "stateMutability": "nonpayable",
            "type": "function"
        },
        {
            "inputs": [
                {
                    "internalType": "address",
                    "name": "manager",
                    "type": "address"
                },
                {
                    "internalType": "address",
                    "name": "ethJoin",
                    "type": "address"
                },
                {
                    "internalType": "address",
                    "name": "coinJoin",
                    "type": "address"
                },
                {
                    "internalType": "uint256",
                    "name": "safe",
                    "type": "uint256"
                },
                {
                    "internalType": "uint256",
                    "name": "collateralWad",
                    "type": "uint256"
                },
                {
                    "internalType": "uint256",
                    "name": "deltaWad",
                    "type": "uint256"
                }
            ],
            "name": "repayDebtAndFreeETH",
            "outputs": [],
            "stateMutability": "nonpayable",
            "type": "function"
        },
        {
            "inputs": [
                {
                    "internalType": "address",
                    "name": "manager",
                    "type": "address"
                },
                {
                    "internalType": "address",
                    "name": "collateralJoin",
                    "type": "address"
                },
                {
                    "internalType": "address",
                    "name": "coinJoin",
                    "type": "address"
                },
                {
                    "internalType": "uint256",
                    "name": "safe",
                    "type": "uint256"
                },
                {
                    "internalType": "uint256",
                    "name": "collateralAmount",
                    "type": "uint256"
                },
                {
                    "internalType": "uint256",
                    "name": "deltaWad",
                    "type": "uint256"
                }
            ],
            "name": "repayDebtAndFreeTokenCollateral",
            "outputs": [],
            "stateMutability": "nonpayable",
            "type": "function"
        },
        {
            "inputs": [
                {
                    "internalType": "address",
                    "name": "manager",
                    "type": "address"
                },
                {
                    "internalType": "address",
                    "name": "ethJoin",
                    "type": "address"
                },
                {
                    "internalType": "uint256",
                    "name": "safe",
                    "type": "uint256"
                },
                {
                    "internalType": "address",
                    "name": "owner",
                    "type": "address"
                }
            ],
            "name": "safeLockETH",
            "outputs": [],
            "stateMutability": "payable",
            "type": "function"
        },
        {
            "inputs": [
                {
                    "internalType": "address",
                    "name": "manager",
                    "type": "address"
                },
                {
                    "internalType": "address",
                    "name": "collateralJoin",
                    "type": "address"
                },
                {
                    "internalType": "uint256",
                    "name": "safe",
                    "type": "uint256"
                },
                {
                    "internalType": "uint256",
                    "name": "amt",
                    "type": "uint256"
                },
                {
                    "internalType": "bool",
                    "name": "transferFrom",
                    "type": "bool"
                },
                {
                    "internalType": "address",
                    "name": "owner",
                    "type": "address"
                }
            ],
            "name": "safeLockTokenCollateral",
            "outputs": [],
            "stateMutability": "nonpayable",
            "type": "function"
        },
        {
            "inputs": [
                {
                    "internalType": "address",
                    "name": "manager",
                    "type": "address"
                },
                {
                    "internalType": "address",
                    "name": "coinJoin",
                    "type": "address"
                },
                {
                    "internalType": "uint256",
                    "name": "safe",
                    "type": "uint256"
                },
                {
                    "internalType": "address",
                    "name": "owner",
                    "type": "address"
                }
            ],
            "name": "safeRepayAllDebt",
            "outputs": [],
            "stateMutability": "nonpayable",
            "type": "function"
        },
        {
            "inputs": [
                {
                    "internalType": "address",
                    "name": "manager",
                    "type": "address"
                },
                {
                    "internalType": "address",
                    "name": "coinJoin",
                    "type": "address"
                },
                {
                    "internalType": "uint256",
                    "name": "safe",
                    "type": "uint256"
                },
                {
                    "internalType": "uint256",
                    "name": "wad",
                    "type": "uint256"
                },
                {
                    "internalType": "address",
                    "name": "owner",
                    "type": "address"
                }
            ],
            "name": "safeRepayDebt",
            "outputs": [],
            "stateMutability": "nonpayable",
            "type": "function"
        },
        {
            "inputs": [
                {
                    "internalType": "address",
                    "name": "apt",
                    "type": "address"
                },
                {
                    "internalType": "address",
                    "name": "safe",
                    "type": "address"
                },
                {
                    "internalType": "uint256",
                    "name": "amt",
                    "type": "uint256"
                },
                {
                    "internalType": "bool",
                    "name": "transferFrom",
                    "type": "bool"
                }
            ],
            "name": "tokenCollateralJoin_join",
            "outputs": [],
            "stateMutability": "nonpayable",
            "type": "function"
        },
        {
            "inputs": [
                {
                    "internalType": "address",
                    "name": "collateral",
                    "type": "address"
                },
                {
                    "internalType": "address",
                    "name": "dst",
                    "type": "address"
                },
                {
                    "internalType": "uint256",
                    "name": "amt",
                    "type": "uint256"
                }
            ],
            "name": "transfer",
            "outputs": [],
            "stateMutability": "nonpayable",
            "type": "function"
        },
        {
            "inputs": [
                {
                    "internalType": "address",
                    "name": "manager",
                    "type": "address"
                },
                {
                    "internalType": "uint256",
                    "name": "safe",
                    "type": "uint256"
                },
                {
                    "internalType": "address",
                    "name": "dst",
                    "type": "address"
                },
                {
                    "internalType": "uint256",
                    "name": "wad",
                    "type": "uint256"
                }
            ],
            "name": "transferCollateral",
            "outputs": [],
            "stateMutability": "nonpayable",
            "type": "function"
        },
        {
            "inputs": [
                {
                    "internalType": "address",
                    "name": "manager",
                    "type": "address"
                },
                {
                    "internalType": "uint256",
                    "name": "safe",
                    "type": "uint256"
                },
                {
                    "internalType": "address",
                    "name": "dst",
                    "type": "address"
                },
                {
                    "internalType": "uint256",
                    "name": "rad",
                    "type": "uint256"
                }
            ],
            "name": "transferInternalCoins",
            "outputs": [],
            "stateMutability": "nonpayable",
            "type": "function"
        },
        {
            "inputs": [
                {
                    "internalType": "address",
                    "name": "manager",
                    "type": "address"
                },
                {
                    "internalType": "uint256",
                    "name": "safe",
                    "type": "uint256"
                },
                {
                    "internalType": "address",
                    "name": "usr",
                    "type": "address"
                }
            ],
            "name": "transferSAFEOwnership",
            "outputs": [],
            "stateMutability": "nonpayable",
            "type": "function"
        },
        {
            "inputs": [
                {
                    "internalType": "address",
                    "name": "proxyRegistry",
                    "type": "address"
                },
                {
                    "internalType": "address",
                    "name": "manager",
                    "type": "address"
                },
                {
                    "internalType": "uint256",
                    "name": "safe",
                    "type": "uint256"
                },
                {
                    "internalType": "address",
                    "name": "dst",
                    "type": "address"
                }
            ],
            "name": "transferSAFEOwnershipToProxy",
            "outputs": [],
            "stateMutability": "nonpayable",
            "type": "function"
        }
    ],
    "bytecode": {
        "object": "0x608060405234801561001057600080fd5b50614bc6806100206000396000f3fe6080604052600436106102885760003560e01c806373f1ff691161015a578063b2be9117116100c1578063e205c1081161007a578063e205c10814610f29578063e25187c114610f5f578063ee28457614610fc7578063f19d3b4114611003578063f7f898b014611048578063ff08ec261461108b57610288565b8063b2be911714610d6c578063beabacc814610dbb578063c42e34e714610dfe578063d723323b14610e39578063d97ebbd514610e6f578063dbf83cde14610ee057610288565b80638a58060c116101135780638a58060c14610bb55780639edd720714610bfc578063a033df1214610c51578063a72d3ab014610c7f578063ac8b81de14610cc2578063b02f9e3d14610d1d57610288565b806373f1ff69146109e95780637b5a3b4314610a4a5780637b65158f14610a935780637f6a7acf14610ada57806384efae8314610b31578063861b15eb14610b7a57610288565b80632dc469a3116101fe5780634cac3da1116101b75780634cac3da11461082e57806352e83c6d1461087157806354523249146108b45780636093c9751461090057806360eba4f11461094957806364e506a01461099857610288565b80632dc469a3146106345780633664fa711461068357806339c1f126146106c25780633c6dc59a1461073a578063437c050d1461078357806343847b21146107eb57610288565b80631c145dcd116102505780631c145dcd146104435780631c25ff121461048e578063230eeac0146104df578063252fa0f61461056157806325817008146105a45780632d418a33146105ed57610288565b806303f2cd051461028d57806308f00e34146102d857806313cc55e4146103215780631a8678d9146103765780631c005fda14610400575b600080fd5b34801561029957600080fd5b506102d6600480360360808110156102b057600080fd5b506001600160a01b038135811691602081013590911690604081013590606001356110d7565b005b3480156102e457600080fd5b506102d6600480360360808110156102fb57600080fd5b506001600160a01b03813581169160208101359091169060408101359060600135611158565b34801561032d57600080fd5b506102d6600480360360c081101561034457600080fd5b506001600160a01b03813581169160208101358216916040820135169060608101359060808101359060a001356112c7565b34801561038257600080fd5b506103ee600480360361014081101561039a57600080fd5b506001600160a01b03813581169160208101358216916040820135811691606081013582169160808201359160a08101359160c08201359160e08101351515916101008201358116916101200135166115bd565b60408051918252519081900360200190f35b34801561040c57600080fd5b506102d66004803603606081101561042357600080fd5b506001600160a01b038135811691602081013590911690604001356115f6565b34801561044f57600080fd5b506102d66004803603608081101561046657600080fd5b506001600160a01b0381358116916020810135909116906040810135906060013515156116f1565b34801561049a57600080fd5b506102d6600480360360a08110156104b157600080fd5b506001600160a01b0381358116916020810135821691604082013591606081013591608090910135166118fe565b3480156104eb57600080fd5b5061053e600480360360e081101561050257600080fd5b506001600160a01b0381358116916020810135821691604082013581169160608101359091169060808101359060a08101359060c001356119d1565b604080516001600160a01b03909316835260208301919091528051918290030190f35b34801561056d57600080fd5b506103ee6004803603606081101561058457600080fd5b506001600160a01b03813581169160208101359160409091013516611b54565b3480156105b057600080fd5b506102d6600480360360808110156105c757600080fd5b506001600160a01b03813581169160208101359091169060408101359060600135611bdb565b3480156105f957600080fd5b506102d66004803603608081101561061057600080fd5b506001600160a01b0381358116916020810135916040820135169060600135611bef565b34801561064057600080fd5b506102d6600480360360a081101561065757600080fd5b506001600160a01b03813581169160208101358216916040820135169060608101359060800135611c48565b34801561068f57600080fd5b506102d6600480360360608110156106a657600080fd5b506001600160a01b038135169060208101359060400135611ee0565b3480156106ce57600080fd5b506102d660048036036101408110156106e657600080fd5b506001600160a01b03813581169160208101358216916040820135811691606081013582169160808201359160a08101359160c08201359160e0810135151591610100820135811691610120013516611f4b565b34801561074657600080fd5b506102d66004803603608081101561075d57600080fd5b506001600160a01b03813581169160208101358216916040820135916060013516611f73565b34801561078f57600080fd5b506102d660048036036101008110156107a757600080fd5b506001600160a01b0381358116916020810135821691604082013581169160608101359091169060808101359060a08101359060c08101359060e001351515612166565b3480156107f757600080fd5b506102d66004803603606081101561080e57600080fd5b506001600160a01b0381358116916020810135909116906040013561246d565b34801561083a57600080fd5b506102d66004803603606081101561085157600080fd5b506001600160a01b038135811691602081013590911690604001356124cd565b34801561087d57600080fd5b506102d66004803603606081101561089457600080fd5b506001600160a01b0381358116916020810135916040909101351661252d565b6103ee600480360360c08110156108ca57600080fd5b506001600160a01b0381358116916020810135821691604082013581169160608101359091169060808101359060a0013561258d565b34801561090c57600080fd5b506102d66004803603608081101561092357600080fd5b506001600160a01b038135811691602081013590911690604081013590606001356125b4565b34801561095557600080fd5b506102d6600480360360a081101561096c57600080fd5b506001600160a01b03813581169160208101358216916040820135169060608101359060800135612653565b3480156109a457600080fd5b506102d6600480360360a08110156109bb57600080fd5b506001600160a01b0381358116916020810135909116906040810135906060810135906080013515156129c2565b3480156109f557600080fd5b506102d6600480360360e0811015610a0c57600080fd5b506001600160a01b0381358116916020810135821691604082013581169160608101359160808201359160a081013582169160c09091013516612b9e565b348015610a5657600080fd5b506102d660048036036080811015610a6d57600080fd5b506001600160a01b03813581169160208101359091169060408101359060600135612bb7565b348015610a9f57600080fd5b506102d660048036036080811015610ab657600080fd5b506001600160a01b0381358116916020810135916040820135169060600135612bc5565b348015610ae657600080fd5b506102d6600480360360c0811015610afd57600080fd5b506001600160a01b0381358116916020810135821691604082013591606081013591608082013515159160a0013516612c1e565b348015610b3d57600080fd5b506102d660048036036080811015610b5457600080fd5b506001600160a01b03813581169160208101358216916040820135916060013516612cfa565b348015610b8657600080fd5b506102d660048036036040811015610b9d57600080fd5b506001600160a01b0381358116916020013516612dcc565b348015610bc157600080fd5b506102d660048036036080811015610bd857600080fd5b506001600160a01b0381358116916020810135916040820135169060600135612e38565b348015610c0857600080fd5b506102d6600480360360c0811015610c1f57600080fd5b506001600160a01b03813581169160208101358216916040820135169060608101359060808101359060a00135612e91565b6102d660048036036040811015610c6757600080fd5b506001600160a01b0381358116916020013516612ece565b348015610c8b57600080fd5b506102d660048036036060811015610ca257600080fd5b506001600160a01b03813581169160208101359160409091013516612edd565b6103ee6004803603610100811015610cd957600080fd5b506001600160a01b03813581169160208101358216916040820135811691606081013582169160808201359160a08101359160c082013581169160e0013516612f3d565b348015610d2957600080fd5b506102d6600480360360a0811015610d4057600080fd5b506001600160a01b03813581169160208101358216916040820135169060608101359060800135612f72565b348015610d7857600080fd5b50610d9f60048036036020811015610d8f57600080fd5b50356001600160a01b0316612f80565b604080516001600160a01b039092168252519081900360200190f35b348015610dc757600080fd5b506102d660048036036060811015610dde57600080fd5b506001600160a01b03813581169160208101359091169060400135612ffd565b348015610e0a57600080fd5b506102d660048036036040811015610e2157600080fd5b506001600160a01b038135811691602001351661305d565b6102d660048036036060811015610e4f57600080fd5b506001600160a01b038135811691602081013590911690604001356130b5565b348015610e7b57600080fd5b5061053e6004803603610120811015610e9357600080fd5b506001600160a01b03813581169160208101358216916040820135811691606081013582169160808201359160a08101359160c08201359160e081013582169161010090910135166132aa565b348015610eec57600080fd5b506102d660048036036080811015610f0357600080fd5b506001600160a01b038135811691602081013591604082013581169160600135166132db565b6102d660048036036060811015610f3f57600080fd5b506001600160a01b03813581169160208101359091169060400135613335565b348015610f6b57600080fd5b506103ee6004803603610100811015610f8357600080fd5b506001600160a01b0381358116916020810135821691604082013581169160608101359091169060808101359060a08101359060c08101359060e001351515613341565b6102d660048036036080811015610fdd57600080fd5b506001600160a01b03813581169160208101358216916040820135916060013516613360565b34801561100f57600080fd5b506102d66004803603608081101561102657600080fd5b506001600160a01b038135169060208101359060408101359060600135613432565b34801561105457600080fd5b506102d66004803603606081101561106b57600080fd5b506001600160a01b03813581169160208101359091169060400135613488565b6102d6600480360360c08110156110a157600080fd5b506001600160a01b0381358116916020810135821691604082013581169160608101359091169060808101359060a0013561381c565b6110ec8483306110e78786613836565b612bc5565b6040805163ef693bed60e01b81523360048201526024810183905290516001600160a01b0385169163ef693bed91604480830192600092919082900301818387803b15801561113a57600080fd5b505af115801561114e573d6000803e3d6000fd5b5050505050505050565b61116484833084612bc5565b6040805163ef693bed60e01b81523060048201526024810183905290516001600160a01b0385169163ef693bed91604480830192600092919082900301818387803b1580156111b257600080fd5b505af11580156111c6573d6000803e3d6000fd5b50505050826001600160a01b031663d8dfeb456040518163ffffffff1660e01b8152600401602060405180830381600087803b15801561120557600080fd5b505af1158015611219573d6000803e3d6000fd5b505050506040513d602081101561122f57600080fd5b505160408051632e1a7d4d60e01b81526004810184905290516001600160a01b0390921691632e1a7d4d9160248082019260009290919082900301818387803b15801561127b57600080fd5b505af115801561128f573d6000803e3d6000fd5b505060405133925083156108fc02915083906000818181858888f193505050501580156112c0573d6000803e3d6000fd5b5050505050565b6000866001600160a01b031663434efcbd856040518263ffffffff1660e01b81526004018082815260200191505060206040518083038186803b15801561130d57600080fd5b505afa158015611321573d6000803e3d6000fd5b505050506040513d602081101561133757600080fd5b505190506113468582846115f6565b60006113528785613836565b90506115418886611362846138e8565b60000361153c8c6001600160a01b03166367aea3136040518163ffffffff1660e01b815260040160206040518083038186803b1580156113a157600080fd5b505afa1580156113b5573d6000803e3d6000fd5b505050506040513d60208110156113cb57600080fd5b81019080805190602001909291905050508d6001600160a01b03166367aea3136040518163ffffffff1660e01b815260040160206040518083038186803b15801561141557600080fd5b505afa158015611429573d6000803e3d6000fd5b505050506040513d602081101561143f57600080fd5b505160408051633eaf7a0360e21b81526001600160a01b038b811660048301529151919092169163fabde80c916024808301926020929190829003018186803b15801561148b57600080fd5b505afa15801561149f573d6000803e3d6000fd5b505050506040513d60208110156114b557600080fd5b8101908080519060200190929190505050888f6001600160a01b031663918b7cfe8e6040518263ffffffff1660e01b81526004018082815260200191505060206040518083038186803b15801561150b57600080fd5b505afa15801561151f573d6000803e3d6000fd5b505050506040513d602081101561153557600080fd5b5051613933565b613432565b61154d88863084612bc5565b6040805163ef693bed60e01b81523360048201526024810186905290516001600160a01b0389169163ef693bed91604480830192600092919082900301818387803b15801561159b57600080fd5b505af11580156115af573d6000803e3d6000fd5b505050505050505050505050565b60006115ca8b8830611b54565b90506115dc8b8b8b8b858b8b8b612166565b6115e88b8285856132db565b9a9950505050505050505050565b826001600160a01b031663a7e944556040518163ffffffff1660e01b8152600401602060405180830381600087803b15801561163157600080fd5b505af1158015611645573d6000803e3d6000fd5b505050506040513d602081101561165b57600080fd5b5051604080516323b872dd60e01b81523360048201523060248201526044810184905290516001600160a01b03909216916323b872dd916064808201926020929091908290030181600087803b1580156116b457600080fd5b505af11580156116c8573d6000803e3d6000fd5b505050506040513d60208110156116de57600080fd5b506116ec9050838383613ab5565b505050565b801561189e57836001600160a01b031663d8dfeb456040518163ffffffff1660e01b8152600401602060405180830381600087803b15801561173257600080fd5b505af1158015611746573d6000803e3d6000fd5b505050506040513d602081101561175c57600080fd5b5051604080516323b872dd60e01b81523360048201523060248201526044810185905290516001600160a01b03909216916323b872dd9160648082019260009290919082900301818387803b1580156117b457600080fd5b505af11580156117c8573d6000803e3d6000fd5b50505050836001600160a01b031663d8dfeb456040518163ffffffff1660e01b8152600401602060405180830381600087803b15801561180757600080fd5b505af115801561181b573d6000803e3d6000fd5b505050506040513d602081101561183157600080fd5b50516040805163095ea7b360e01b81526001600160a01b038781166004830152602482018690529151919092169163095ea7b391604480830192600092919082900301818387803b15801561188557600080fd5b505af1158015611899573d6000803e3d6000fd5b505050505b836001600160a01b0316633b4da69f84846040518363ffffffff1660e01b815260040180836001600160a01b03166001600160a01b0316815260200182815260200192505050600060405180830381600087803b15801561113a57600080fd5b806001600160a01b0316856001600160a01b031663a2a4d76e856040518263ffffffff1660e01b81526004018082815260200191505060206040518083038186803b15801561194c57600080fd5b505afa158015611960573d6000803e3d6000fd5b505050506040513d602081101561197657600080fd5b50516001600160a01b0316146119c5576040805162461bcd60e51b815260206004820152600f60248201526e0deeedccae45adad2e6e6dac2e8c6d608b1b604482015290519081900360640190fd5b6112c085858585611bdb565b60408051638c4c280160e01b8152306004820152905160009182916001600160a01b03891691638c4c2801916024808301926020929190829003018186803b158015611a1c57600080fd5b505afa158015611a30573d6000803e3d6000fd5b505050506040513d6020811015611a4657600080fd5b505191506001600160a01b038216611a6457611a6187612f80565b91505b866001600160a01b031663d8dfeb456040518163ffffffff1660e01b8152600401602060405180830381600087803b158015611a9f57600080fd5b505af1158015611ab3573d6000803e3d6000fd5b505050506040513d6020811015611ac957600080fd5b50516040805163a9059cbb60e01b81526001600160a01b038581166004830152602482018890529151919092169163a9059cbb91604480830192600092919082900301818387803b158015611b1d57600080fd5b505af1158015611b31573d6000803e3d6000fd5b50505050611b46898989898989896000613341565b905097509795505050505050565b6040805163d983ff9560e01b8152600481018490526001600160a01b038381166024830152915160009286169163d983ff9591604480830192602092919082900301818787803b158015611ba757600080fd5b505af1158015611bbb573d6000803e3d6000fd5b505050506040513d6020811015611bd157600080fd5b5051949350505050565b611be9848484846001613af0565b50505050565b6040805163660e160760e01b8152600481018590526001600160a01b0384811660248301526044820184905291519186169163660e16079160648082019260009290919082900301818387803b15801561113a57600080fd5b6000856001600160a01b03166367aea3136040518163ffffffff1660e01b815260040160206040518083038186803b158015611c8357600080fd5b505afa158015611c97573d6000803e3d6000fd5b505050506040513d6020811015611cad57600080fd5b50516040805163434efcbd60e01b81526004810186905290519192506000916001600160a01b0389169163434efcbd916024808301926020929190829003018186803b158015611cfc57600080fd5b505afa158015611d10573d6000803e3d6000fd5b505050506040513d6020811015611d2657600080fd5b5051604080516348c5be7f60e11b81526004810187905290519192506000916001600160a01b038a169163918b7cfe916024808301926020929190829003018186803b158015611d7557600080fd5b505afa158015611d89573d6000803e3d6000fd5b505050506040513d6020811015611d9f57600080fd5b505160408051630f50894160e21b8152600481018390526001600160a01b038581166024830152825193945060009390871692633d4225049260448082019391829003018186803b158015611df357600080fd5b505afa158015611e07573d6000803e3d6000fd5b505050506040513d6040811015611e1d57600080fd5b50602001519050611e3a8784611e3587828088613f1d565b6115f6565b6000611e468987613836565b9050611e628a88611e56846138e8565b60000385600003613432565b611e6e8a883084612bc5565b6040805163ef693bed60e01b81523360048201526024810188905290516001600160a01b038b169163ef693bed91604480830192600092919082900301818387803b158015611ebc57600080fd5b505af1158015611ed0573d6000803e3d6000fd5b5050505050505050505050505050565b826001600160a01b031663018477a583836040518363ffffffff1660e01b81526004018083815260200182815260200192505050600060405180830381600087803b158015611f2e57600080fd5b505af1158015611f42573d6000803e3d6000fd5b50505050505050565b611f5b8a8a8a8a8a8a8a8a612166565b611f678a8784846132db565b50505050505050505050565b6000846001600160a01b031663c4552791836040518263ffffffff1660e01b815260040180826001600160a01b03166001600160a01b0316815260200191505060206040518083038186803b158015611fcb57600080fd5b505afa158015611fdf573d6000803e3d6000fd5b505050506040513d6020811015611ff557600080fd5b505190506001600160a01b03811615806120855750816001600160a01b0316816001600160a01b0316638da5cb5b6040518163ffffffff1660e01b815260040160206040518083038186803b15801561204d57600080fd5b505afa158015612061573d6000803e3d6000fd5b505050506040513d602081101561207757600080fd5b50516001600160a01b031614155b1561215b57813b80156120d3576040805162461bcd60e51b8152602060048201526011602482015270191cdd0b5a5ccb584b58dbdb9d1c9858dd607a1b604482015290519081900360640190fd5b856001600160a01b031663f3701da2846040518263ffffffff1660e01b815260040180826001600160a01b03166001600160a01b03168152602001915050602060405180830381600087803b15801561212b57600080fd5b505af115801561213f573d6000803e3d6000fd5b505050506040513d602081101561215557600080fd5b50519150505b6112c0848483612edd565b6000886001600160a01b031663434efcbd866040518263ffffffff1660e01b81526004018082815260200191505060206040518083038186803b1580156121ac57600080fd5b505afa1580156121c0573d6000803e3d6000fd5b505050506040513d60208110156121d657600080fd5b5051604080516367aea31360e01b815290519192506000916001600160a01b038c16916367aea313916004808301926020929190829003018186803b15801561221e57600080fd5b505afa158015612232573d6000803e3d6000fd5b505050506040513d602081101561224857600080fd5b5051604080516348c5be7f60e11b81526004810189905290519192506000916001600160a01b038d169163918b7cfe916024808301926020929190829003018186803b15801561229757600080fd5b505afa1580156122ab573d6000803e3d6000fd5b505050506040513d60208110156122c157600080fd5b505190506122d1898488876116f1565b6122f58b886122e86122e38d8b613836565b6138e8565b61153c868f89888d6140eb565b6123098b8830612304896142b8565b611bef565b604080516350de215d60e01b81523060048201526001600160a01b038a811660248301529151918416916350de215d91604480820192602092909190829003018186803b15801561235957600080fd5b505afa15801561236d573d6000803e3d6000fd5b505050506040513d602081101561238357600080fd5b50516123fa57816001600160a01b031663d94d4208896040518263ffffffff1660e01b815260040180826001600160a01b03166001600160a01b03168152602001915050600060405180830381600087803b1580156123e157600080fd5b505af11580156123f5573d6000803e3d6000fd5b505050505b6040805163ef693bed60e01b81523360048201526024810187905290516001600160a01b038a169163ef693bed91604480830192600092919082900301818387803b15801561244857600080fd5b505af115801561245c573d6000803e3d6000fd5b505050505050505050505050505050565b826001600160a01b031663391735c183836040518363ffffffff1660e01b815260040180836001600160a01b03166001600160a01b0316815260200182815260200192505050600060405180830381600087803b158015611f2e57600080fd5b826001600160a01b0316636ffdabbf83836040518363ffffffff1660e01b815260040180836001600160a01b03166001600160a01b0316815260200182815260200192505050600060405180830381600087803b158015611f2e57600080fd5b826001600160a01b031663a26292db83836040518363ffffffff1660e01b815260040180838152602001826001600160a01b03166001600160a01b0316815260200192505050600060405180830381600087803b158015611f2e57600080fd5b600061259a878430611b54565b90506125aa87878787858761381c565b9695505050505050565b60006125c08483613836565b90506125da85846125d0846138e8565b6000036000613432565b6125e685843084612bc5565b6040805163ef693bed60e01b81523360048201526024810184905290516001600160a01b0386169163ef693bed91604480830192600092919082900301818387803b15801561263457600080fd5b505af1158015612648573d6000803e3d6000fd5b505050505050505050565b6000856001600160a01b03166367aea3136040518163ffffffff1660e01b815260040160206040518083038186803b15801561268e57600080fd5b505afa1580156126a2573d6000803e3d6000fd5b505050506040513d60208110156126b857600080fd5b50516040805163434efcbd60e01b81526004810186905290519192506000916001600160a01b0389169163434efcbd916024808301926020929190829003018186803b15801561270757600080fd5b505afa15801561271b573d6000803e3d6000fd5b505050506040513d602081101561273157600080fd5b5051604080516348c5be7f60e11b81526004810187905290519192506000916001600160a01b038a169163918b7cfe916024808301926020929190829003018186803b15801561278057600080fd5b505afa158015612794573d6000803e3d6000fd5b505050506040513d60208110156127aa57600080fd5b505160408051630f50894160e21b8152600481018390526001600160a01b038581166024830152825193945060009390871692633d4225049260448082019391829003018186803b1580156127fe57600080fd5b505afa158015612812573d6000803e3d6000fd5b505050506040513d604081101561282857600080fd5b506020015190506128408784611e3587828088613f1d565b61285a898761284e886138e8565b60000384600003613432565b61286689873088612bc5565b6040805163ef693bed60e01b81523060048201526024810187905290516001600160a01b038a169163ef693bed91604480830192600092919082900301818387803b1580156128b457600080fd5b505af11580156128c8573d6000803e3d6000fd5b50505050876001600160a01b031663d8dfeb456040518163ffffffff1660e01b8152600401602060405180830381600087803b15801561290757600080fd5b505af115801561291b573d6000803e3d6000fd5b505050506040513d602081101561293157600080fd5b505160408051632e1a7d4d60e01b81526004810188905290516001600160a01b0390921691632e1a7d4d9160248082019260009290919082900301818387803b15801561297d57600080fd5b505af1158015612991573d6000803e3d6000fd5b505060405133925087156108fc02915087906000818181858888f19350505050158015611f67573d6000803e3d6000fd5b6129ce843084846116f1565b846001600160a01b03166367aea3136040518163ffffffff1660e01b815260040160206040518083038186803b158015612a0757600080fd5b505afa158015612a1b573d6000803e3d6000fd5b505050506040513d6020811015612a3157600080fd5b5051604080516348c5be7f60e11b81526004810186905290516001600160a01b03928316926399bec315929089169163918b7cfe91602480820192602092909190829003018186803b158015612a8657600080fd5b505afa158015612a9a573d6000803e3d6000fd5b505050506040513d6020811015612ab057600080fd5b50516040805163434efcbd60e01b81526004810188905290516001600160a01b038a169163434efcbd916024808301926020929190829003018186803b158015612af957600080fd5b505afa158015612b0d573d6000803e3d6000fd5b505050506040513d6020811015612b2357600080fd5b50513080612b346122e38b8a613836565b604080516001600160e01b031960e089901b16815260048101969096526001600160a01b0394851660248701529284166044860152921660648401526084830191909152600060a48301819052905160c48084019382900301818387803b15801561263457600080fd5b612bab8787878787612f72565b611f42878584846132db565b61115884836125d0846138e8565b6040805163438ac0d160e11b8152600481018590526001600160a01b0384811660248301526044820184905291519186169163871581a29160648082019260009290919082900301818387803b15801561113a57600080fd5b806001600160a01b0316866001600160a01b031663a2a4d76e866040518263ffffffff1660e01b81526004018082815260200191505060206040518083038186803b158015612c6c57600080fd5b505afa158015612c80573d6000803e3d6000fd5b505050506040513d6020811015612c9657600080fd5b50516001600160a01b031614612ce5576040805162461bcd60e51b815260206004820152600f60248201526e0deeedccae45adad2e6e6dac2e8c6d608b1b604482015290519081900360640190fd5b612cf286868686866129c2565b505050505050565b806001600160a01b0316846001600160a01b031663a2a4d76e846040518263ffffffff1660e01b81526004018082815260200191505060206040518083038186803b158015612d4857600080fd5b505afa158015612d5c573d6000803e3d6000fd5b505050506040513d6020811015612d7257600080fd5b50516001600160a01b031614612dc1576040805162461bcd60e51b815260206004820152600f60248201526e0deeedccae45adad2e6e6dac2e8c6d608b1b604482015290519081900360640190fd5b611be9848484613488565b816001600160a01b031663d94d4208826040518263ffffffff1660e01b815260040180826001600160a01b03166001600160a01b03168152602001915050600060405180830381600087803b158015612e2457600080fd5b505af1158015612cf2573d6000803e3d6000fd5b6040805163e0decbcd60e01b8152600481018590526001600160a01b0384811660248301526044820184905291519186169163e0decbcd9160648082019260009290919082900301818387803b15801561113a57600080fd5b612ea186868686868660016142d5565b604051339083156108fc029084906000818181858888f19350505050158015611f42573d6000803e3d6000fd5b612ed98282346130b5565b5050565b826001600160a01b03166380bdb6b283836040518363ffffffff1660e01b815260040180838152602001826001600160a01b03166001600160a01b0316815260200192505050600060405180830381600087803b158015611f2e57600080fd5b6000612f4a898630611b54565b9050612f5a89898989858961381c565b612f66898285856132db565b98975050505050505050565b6112c0858585858533614644565b60408051631060930d60e01b815230600482015290516000916001600160a01b03841691631060930d9160248082019260209290919082900301818787803b158015612fcb57600080fd5b505af1158015612fdf573d6000803e3d6000fd5b505050506040513d6020811015612ff557600080fd5b505192915050565b826001600160a01b031663a9059cbb83836040518363ffffffff1660e01b815260040180836001600160a01b03166001600160a01b0316815260200182815260200192505050600060405180830381600087803b158015611f2e57600080fd5b816001600160a01b031663d49d7867826040518263ffffffff1660e01b815260040180826001600160a01b03166001600160a01b03168152602001915050600060405180830381600087803b158015612e2457600080fd5b826001600160a01b031663d8dfeb456040518163ffffffff1660e01b8152600401602060405180830381600087803b1580156130f057600080fd5b505af1158015613104573d6000803e3d6000fd5b505050506040513d602081101561311a57600080fd5b505160408051630d0e30db60e41b815290516001600160a01b039092169163d0e30db0918491600480830192600092919082900301818588803b15801561316057600080fd5b505af1158015613174573d6000803e3d6000fd5b5050505050826001600160a01b031663d8dfeb456040518163ffffffff1660e01b8152600401602060405180830381600087803b1580156131b457600080fd5b505af11580156131c8573d6000803e3d6000fd5b505050506040513d60208110156131de57600080fd5b50516040805163095ea7b360e01b81526001600160a01b038681166004830152602482018590529151919092169163095ea7b391604480830192600092919082900301818387803b15801561323257600080fd5b505af1158015613246573d6000803e3d6000fd5b50505050826001600160a01b0316633b4da69f83836040518363ffffffff1660e01b815260040180836001600160a01b03166001600160a01b0316815260200182815260200192505050600060405180830381600087803b158015611f2e57600080fd5b6000806132bc8b8b8b8b8b8b8b6119d1565b90925090506132cd8b8286866132db565b995099975050505050505050565b60408051631bc250a960e21b8152600481018590526001600160a01b0384811660248301528381166044830152915191861691636f0942a49160648082019260009290919082900301818387803b15801561113a57600080fd5b6116ec83838334614917565b600061334e898630611b54565b9050612f668989898985898989612166565b806001600160a01b0316846001600160a01b031663a2a4d76e846040518263ffffffff1660e01b81526004018082815260200191505060206040518083038186803b1580156133ae57600080fd5b505afa1580156133c2573d6000803e3d6000fd5b505050506040513d60208110156133d857600080fd5b50516001600160a01b031614613427576040805162461bcd60e51b815260206004820152600f60248201526e0deeedccae45adad2e6e6dac2e8c6d608b1b604482015290519081900360640190fd5b611be9848484613335565b836001600160a01b031663c78101f88484846040518463ffffffff1660e01b8152600401808481526020018381526020018281526020019350505050600060405180830381600087803b15801561113a57600080fd5b6000836001600160a01b03166367aea3136040518163ffffffff1660e01b815260040160206040518083038186803b1580156134c357600080fd5b505afa1580156134d7573d6000803e3d6000fd5b505050506040513d60208110156134ed57600080fd5b50516040805163434efcbd60e01b81526004810185905290519192506000916001600160a01b0387169163434efcbd916024808301926020929190829003018186803b15801561353c57600080fd5b505afa158015613550573d6000803e3d6000fd5b505050506040513d602081101561356657600080fd5b5051604080516348c5be7f60e11b81526004810186905290519192506000916001600160a01b0388169163918b7cfe916024808301926020929190829003018186803b1580156135b557600080fd5b505afa1580156135c9573d6000803e3d6000fd5b505050506040513d60208110156135df57600080fd5b505160408051630f50894160e21b8152600481018390526001600160a01b038581166024830152825193945060009390871692633d4225049260448082019391829003018186803b15801561363357600080fd5b505afa158015613647573d6000803e3d6000fd5b505050506040513d604081101561365d57600080fd5b50602090810151604080516351526bb760e11b81526004810189905290519193506000926001600160a01b038b169263a2a4d76e926024808201939291829003018186803b1580156136ae57600080fd5b505afa1580156136c2573d6000803e3d6000fd5b505050506040513d60208110156136d857600080fd5b505190506001600160a01b038116301480613775575060408051634fa053b160e01b81526001600160a01b038381166004830152602482018990523060448301529151918a1691634fa053b191606480820192602092909190829003018186803b15801561374557600080fd5b505afa158015613759573d6000803e3d6000fd5b505050506040513d602081101561376f57600080fd5b50516001145b156137a05761378b8785611e3588888989613f1d565b61379b8887600085600003613432565b61114e565b6137b18730611e3588308989613f1d565b604080516399bec31560e01b8152600481018590526001600160a01b0386811660248301523060448301819052606483015260006084830181905285810360a48401529251908816926399bec3159260c4808201939182900301818387803b15801561159b57600080fd5b61382886858434614917565b612cf2868685858533614644565b600080836001600160a01b031663313ce5676040518163ffffffff1660e01b8152600401602060405180830381600087803b15801561387457600080fd5b505af1158015613888573d6000803e3d6000fd5b505050506040513d602081101561389e57600080fd5b5051839250905060128110156138c5576138be8382601203600a0a614aee565b91506138e1565b60128111156138e15760128103600a0a83816138dd57fe5b0491505b5092915050565b80600081121561392e576040805162461bcd60e51b815260206004820152600c60248201526b696e742d6f766572666c6f7760a01b604482015290519081900360640190fd5b919050565b600080856001600160a01b031663d07900bb846040518263ffffffff1660e01b81526004018082815260200191505060a06040518083038186803b15801561397a57600080fd5b505afa15801561398e573d6000803e3d6000fd5b505050506040513d60a08110156139a457600080fd5b50602001519050806139f7576040805162461bcd60e51b8152602060048201526017602482015276696e76616c69642d636f6c6c61746572616c2d7479706560481b604482015290519081900360640190fd5b60408051630f50894160e21b8152600481018590526001600160a01b0386811660248301528251600093918a1692633d422504926044808301939192829003018186803b158015613a4757600080fd5b505afa158015613a5b573d6000803e3d6000fd5b505050506040513d6040811015613a7157600080fd5b50602001519050613a8a828781613a8457fe5b046138e8565b925080831115613aa557613a9d816138e8565b600003613aaa565b826000035b979650505050505050565b826001600160a01b031663a7e944556040518163ffffffff1660e01b8152600401602060405180830381600087803b1580156131b457600080fd5b6000856001600160a01b03166367aea3136040518163ffffffff1660e01b815260040160206040518083038186803b158015613b2b57600080fd5b505afa158015613b3f573d6000803e3d6000fd5b505050506040513d6020811015613b5557600080fd5b50516040805163434efcbd60e01b81526004810187905290519192506000916001600160a01b0389169163434efcbd916024808301926020929190829003018186803b158015613ba457600080fd5b505afa158015613bb8573d6000803e3d6000fd5b505050506040513d6020811015613bce57600080fd5b5051604080516348c5be7f60e11b81526004810188905290519192506000916001600160a01b038a169163918b7cfe916024808301926020929190829003018186803b158015613c1d57600080fd5b505afa158015613c31573d6000803e3d6000fd5b505050506040513d6020811015613c4757600080fd5b5051604080516351526bb760e11b81526004810189905290519192506000916001600160a01b038b169163a2a4d76e916024808301926020929190829003018186803b158015613c9657600080fd5b505afa158015613caa573d6000803e3d6000fd5b505050506040513d6020811015613cc057600080fd5b505190506001600160a01b038116301480613d5d575060408051634fa053b160e01b81526001600160a01b038381166004830152602482018a90523060448301529151918b1691634fa053b191606480820192602092909190829003018186803b158015613d2d57600080fd5b505afa158015613d41573d6000803e3d6000fd5b505050506040513d6020811015613d5757600080fd5b50516001145b15613e1c578415613d7857613d738884886115f6565b613d83565b613d83888488613ab5565b613e178988600061153c88896001600160a01b031663fabde80c8a6040518263ffffffff1660e01b815260040180826001600160a01b03166001600160a01b0316815260200191505060206040518083038186803b158015613de457600080fd5b505afa158015613df8573d6000803e3d6000fd5b505050506040513d6020811015613e0e57600080fd5b50518989613933565b612648565b8415613e3257613e2d8830886115f6565b613e3d565b613e3d883088613ab5565b836001600160a01b03166399bec315838530306000613e6b8b676765c793fa10079d601b1b8f028c8c613933565b6040518763ffffffff1660e01b815260040180878152602001866001600160a01b03166001600160a01b03168152602001856001600160a01b03166001600160a01b03168152602001846001600160a01b03166001600160a01b031681526020018381526020018281526020019650505050505050600060405180830381600087803b158015613efa57600080fd5b505af1158015613f0e573d6000803e3d6000fd5b50505050505050505050505050565b600080856001600160a01b031663d07900bb846040518263ffffffff1660e01b81526004018082815260200191505060a06040518083038186803b158015613f6457600080fd5b505afa158015613f78573d6000803e3d6000fd5b505050506040513d60a0811015613f8e57600080fd5b506020015160408051630f50894160e21b8152600481018690526001600160a01b0387811660248301528251939450600093908a1692633d4225049260448082019391829003018186803b158015613fe557600080fd5b505afa158015613ff9573d6000803e3d6000fd5b505050506040513d604081101561400f57600080fd5b5060209081015160408051633eaf7a0360e21b81526001600160a01b038a811660048301529151929450600093918b169263fabde80c92602480840193919291829003018186803b15801561406357600080fd5b505afa158015614077573d6000803e3d6000fd5b505050506040513d602081101561408d57600080fd5b5051905060006140a66140a08486614aee565b83614b49565b9050676765c793fa10079d601b1b81049450806140ce86676765c793fa10079d601b1b614aee565b106140d957846140de565b846001015b9998505050505050505050565b600080856001600160a01b0316636c50dbba856040518263ffffffff1660e01b815260040180828152602001915050602060405180830381600087803b15801561413457600080fd5b505af1158015614148573d6000803e3d6000fd5b505050506040513d602081101561415e57600080fd5b50519050806141ae576040805162461bcd60e51b8152602060048201526017602482015276696e76616c69642d636f6c6c61746572616c2d7479706560481b604482015290519081900360640190fd5b6000876001600160a01b031663fabde80c876040518263ffffffff1660e01b815260040180826001600160a01b03166001600160a01b0316815260200191505060206040518083038186803b15801561420657600080fd5b505afa15801561421a573d6000803e3d6000fd5b505050506040513d602081101561423057600080fd5b5051905061424984676765c793fa10079d601b1b614aee565b8110156142ad576142798261427261426c87676765c793fa10079d601b1b614aee565b84614b49565b81613a8457fe5b925061429084676765c793fa10079d601b1b614aee565b61429a8484614aee565b106142a557826142aa565b826001015b92505b505095945050505050565b60006142cf82676765c793fa10079d601b1b614aee565b92915050565b6000876001600160a01b031663434efcbd866040518263ffffffff1660e01b81526004018082815260200191505060206040518083038186803b15801561431b57600080fd5b505afa15801561432f573d6000803e3d6000fd5b505050506040513d602081101561434557600080fd5b50519050811561435f5761435a8682856115f6565b61436a565b61436a868285613ab5565b6145218886614378876138e8565b60000361153c8c6001600160a01b03166367aea3136040518163ffffffff1660e01b815260040160206040518083038186803b1580156143b757600080fd5b505afa1580156143cb573d6000803e3d6000fd5b505050506040513d60208110156143e157600080fd5b81019080805190602001909291905050508d6001600160a01b03166367aea3136040518163ffffffff1660e01b815260040160206040518083038186803b15801561442b57600080fd5b505afa15801561443f573d6000803e3d6000fd5b505050506040513d602081101561445557600080fd5b505160408051633eaf7a0360e21b81526001600160a01b038a811660048301529151919092169163fabde80c916024808301926020929190829003018186803b1580156144a157600080fd5b505afa1580156144b5573d6000803e3d6000fd5b505050506040513d60208110156144cb57600080fd5b8101908080519060200190929190505050878f6001600160a01b031663918b7cfe8e6040518263ffffffff1660e01b81526004018082815260200191505060206040518083038186803b15801561150b57600080fd5b61452d88863087612bc5565b6040805163ef693bed60e01b81523060048201526024810186905290516001600160a01b0389169163ef693bed91604480830192600092919082900301818387803b15801561457b57600080fd5b505af115801561458f573d6000803e3d6000fd5b50505050866001600160a01b031663d8dfeb456040518163ffffffff1660e01b8152600401602060405180830381600087803b1580156145ce57600080fd5b505af11580156145e2573d6000803e3d6000fd5b505050506040513d60208110156145f857600080fd5b505160408051632e1a7d4d60e01b81526004810187905290516001600160a01b0390921691632e1a7d4d9160248082019260009290919082900301818387803b15801561159b57600080fd5b6000866001600160a01b031663434efcbd856040518263ffffffff1660e01b81526004018082815260200191505060206040518083038186803b15801561468a57600080fd5b505afa15801561469e573d6000803e3d6000fd5b505050506040513d60208110156146b457600080fd5b5051604080516367aea31360e01b815290519192506000916001600160a01b038a16916367aea313916004808301926020929190829003018186803b1580156146fc57600080fd5b505afa158015614710573d6000803e3d6000fd5b505050506040513d602081101561472657600080fd5b5051604080516348c5be7f60e11b81526004810188905290519192506000916001600160a01b038b169163918b7cfe916024808301926020929190829003018186803b15801561477557600080fd5b505afa158015614789573d6000803e3d6000fd5b505050506040513d602081101561479f57600080fd5b505190506147b78987600061153c868d89888d6140eb565b6147c6898730612304896142b8565b604080516350de215d60e01b81523060048201526001600160a01b0389811660248301529151918416916350de215d91604480820192602092909190829003018186803b15801561481657600080fd5b505afa15801561482a573d6000803e3d6000fd5b505050506040513d602081101561484057600080fd5b50516148b757816001600160a01b031663d94d4208886040518263ffffffff1660e01b815260040180826001600160a01b03166001600160a01b03168152602001915050600060405180830381600087803b15801561489e57600080fd5b505af11580156148b2573d6000803e3d6000fd5b505050505b866001600160a01b031663ef693bed85876040518363ffffffff1660e01b815260040180836001600160a01b03166001600160a01b0316815260200182815260200192505050600060405180830381600087803b158015613efa57600080fd5b6149228330836130b5565b836001600160a01b03166367aea3136040518163ffffffff1660e01b815260040160206040518083038186803b15801561495b57600080fd5b505afa15801561496f573d6000803e3d6000fd5b505050506040513d602081101561498557600080fd5b5051604080516348c5be7f60e11b81526004810185905290516001600160a01b03928316926399bec315929088169163918b7cfe91602480820192602092909190829003018186803b1580156149da57600080fd5b505afa1580156149ee573d6000803e3d6000fd5b505050506040513d6020811015614a0457600080fd5b50516040805163434efcbd60e01b81526004810187905290516001600160a01b0389169163434efcbd916024808301926020929190829003018186803b158015614a4d57600080fd5b505afa158015614a61573d6000803e3d6000fd5b505050506040513d6020811015614a7757600080fd5b50513080614a84876138e8565b604080516001600160e01b031960e089901b16815260048101969096526001600160a01b0394851660248701529284166044860152921660648401526084830191909152600060a48301819052905160c48084019382900301818387803b15801561113a57600080fd5b6000811580614b0957505080820282828281614b0657fe5b04145b6142cf576040805162461bcd60e51b815260206004820152600c60248201526b6d756c2d6f766572666c6f7760a01b604482015290519081900360640190fd5b808203828111156142cf576040805162461bcd60e51b815260206004820152600c60248201526b7375622d6f766572666c6f7760a01b604482015290519081900360640190fdfea2646970667358221220104f9fd8b30403aec6f6fa77607388ea56fec59d65a5d1a6de4d1411ce1a346764736f6c63430006070033",
        "linkReferences": {}
    },
    "methodIdentifiers": {
        "allowHandler(address,address,uint256)": "43847b21",
        "allowSAFE(address,uint256,address,uint256)": "8a58060c",
        "approveSAFEModification(address,address)": "861b15eb",
        "coinJoin_join(address,address,uint256)": "1c005fda",
        "denySAFEModification(address,address)": "c42e34e7",
        "enterSystem(address,address,uint256)": "4cac3da1",
        "ethJoin_join(address,address)": "a033df12",
        "ethJoin_join(address,address,uint256)": "d723323b",
        "exitETH(address,address,uint256,uint256)": "08f00e34",
        "exitTokenCollateral(address,address,uint256,uint256)": "03f2cd05",
        "freeETH(address,address,uint256,uint256)": "7b5a3b43",
        "freeTokenCollateral(address,address,uint256,uint256)": "6093c975",
        "generateDebt(address,address,address,uint256,uint256)": "b02f9e3d",
        "generateDebtAndProtectSAFE(address,address,address,uint256,uint256,address,address)": "73f1ff69",
        "lockETH(address,address,uint256)": "e205c108",
        "lockETHAndGenerateDebt(address,address,address,address,uint256,uint256)": "ff08ec26",
        "lockTokenCollateral(address,address,uint256,uint256,bool)": "64e506a0",
        "lockTokenCollateralAndGenerateDebt(address,address,address,address,uint256,uint256,uint256,bool)": "437c050d",
        "lockTokenCollateralGenerateDebtAndProtectSAFE(address,address,address,address,uint256,uint256,uint256,bool,address,address)": "39c1f126",
        "makeCollateralBag(address)": "b2be9117",
        "modifySAFECollateralization(address,uint256,int256,int256)": "f19d3b41",
        "moveSAFE(address,uint256,uint256)": "3664fa71",
        "openLockETHAndGenerateDebt(address,address,address,address,bytes32,uint256)": "54523249",
        "openLockETHGenerateDebtAndProtectSAFE(address,address,address,address,bytes32,uint256,address,address)": "ac8b81de",
        "openLockGNTAndGenerateDebt(address,address,address,address,bytes32,uint256,uint256)": "230eeac0",
        "openLockGNTGenerateDebtAndProtectSAFE(address,address,address,address,bytes32,uint256,uint256,address,address)": "d97ebbd5",
        "openLockTokenCollateralAndGenerateDebt(address,address,address,address,bytes32,uint256,uint256,bool)": "e25187c1",
        "openLockTokenCollateralGenerateDebtAndProtectSAFE(address,address,address,address,bytes32,uint256,uint256,bool,address,address)": "1a8678d9",
        "openSAFE(address,bytes32,address)": "252fa0f6",
        "protectSAFE(address,uint256,address,address)": "dbf83cde",
        "quitSystem(address,uint256,address)": "52e83c6d",
        "repayAllDebt(address,address,uint256)": "f7f898b0",
        "repayAllDebtAndFreeETH(address,address,address,uint256,uint256)": "60eba4f1",
        "repayAllDebtAndFreeTokenCollateral(address,address,address,uint256,uint256)": "2dc469a3",
        "repayDebt(address,address,uint256,uint256)": "25817008",
        "repayDebtAndFreeETH(address,address,address,uint256,uint256,uint256)": "9edd7207",
        "repayDebtAndFreeTokenCollateral(address,address,address,uint256,uint256,uint256)": "13cc55e4",
        "safeLockETH(address,address,uint256,address)": "ee284576",
        "safeLockTokenCollateral(address,address,uint256,uint256,bool,address)": "7f6a7acf",
        "safeRepayAllDebt(address,address,uint256,address)": "84efae83",
        "safeRepayDebt(address,address,uint256,uint256,address)": "1c25ff12",
        "tokenCollateralJoin_join(address,address,uint256,bool)": "1c145dcd",
        "transfer(address,address,uint256)": "beabacc8",
        "transferCollateral(address,uint256,address,uint256)": "7b65158f",
        "transferInternalCoins(address,uint256,address,uint256)": "2d418a33",
        "transferSAFEOwnership(address,uint256,address)": "a72d3ab0",
        "transferSAFEOwnershipToProxy(address,address,uint256,address)": "3c6dc59a"
    },
    "id": 29
}