{
    "abi": [
        {
            "inputs": [],
            "stateMutability": "nonpayable",
            "type": "constructor"
        },
        {
            "anonymous": false,
            "inputs": [
                {
                    "indexed": false,
                    "internalType": "address",
                    "name": "account",
                    "type": "address"
                }
            ],
            "name": "AddAuthorization",
            "type": "event"
        },
        {
            "anonymous": false,
            "inputs": [
                {
                    "indexed": true,
                    "internalType": "bytes32",
                    "name": "collateralType",
                    "type": "bytes32"
                },
                {
                    "indexed": false,
                    "internalType": "uint256",
                    "name": "collateralCashPrice",
                    "type": "uint256"
                }
            ],
            "name": "CalculateCashPrice",
            "type": "event"
        },
        {
            "anonymous": false,
            "inputs": [
                {
                    "indexed": true,
                    "internalType": "bytes32",
                    "name": "collateralType",
                    "type": "bytes32"
                },
                {
                    "indexed": false,
                    "internalType": "uint256",
                    "name": "auctionId",
                    "type": "uint256"
                },
                {
                    "indexed": false,
                    "internalType": "uint256",
                    "name": "collateralTotalDebt",
                    "type": "uint256"
                }
            ],
            "name": "FastTrackAuction",
            "type": "event"
        },
        {
            "anonymous": false,
            "inputs": [
                {
                    "indexed": true,
                    "internalType": "bytes32",
                    "name": "collateralType",
                    "type": "bytes32"
                },
                {
                    "indexed": false,
                    "internalType": "address",
                    "name": "sender",
                    "type": "address"
                },
                {
                    "indexed": false,
                    "internalType": "int256",
                    "name": "collateralAmount",
                    "type": "int256"
                }
            ],
            "name": "FreeCollateral",
            "type": "event"
        },
        {
            "anonymous": false,
            "inputs": [
                {
                    "indexed": true,
                    "internalType": "bytes32",
                    "name": "collateralType",
                    "type": "bytes32"
                },
                {
                    "indexed": false,
                    "internalType": "uint256",
                    "name": "finalCoinPerCollateralPrice",
                    "type": "uint256"
                }
            ],
            "name": "FreezeCollateralType",
            "type": "event"
        },
        {
            "anonymous": false,
            "inputs": [
                {
                    "indexed": false,
                    "internalType": "bytes32",
                    "name": "parameter",
                    "type": "bytes32"
                },
                {
                    "indexed": false,
                    "internalType": "uint256",
                    "name": "data",
                    "type": "uint256"
                }
            ],
            "name": "ModifyParameters",
            "type": "event"
        },
        {
            "anonymous": false,
            "inputs": [
                {
                    "indexed": false,
                    "internalType": "bytes32",
                    "name": "parameter",
                    "type": "bytes32"
                },
                {
                    "indexed": false,
                    "internalType": "address",
                    "name": "data",
                    "type": "address"
                }
            ],
            "name": "ModifyParameters",
            "type": "event"
        },
        {
            "anonymous": false,
            "inputs": [
                {
                    "indexed": true,
                    "internalType": "address",
                    "name": "sender",
                    "type": "address"
                },
                {
                    "indexed": false,
                    "internalType": "uint256",
                    "name": "coinBag",
                    "type": "uint256"
                }
            ],
            "name": "PrepareCoinsForRedeeming",
            "type": "event"
        },
        {
            "anonymous": false,
            "inputs": [
                {
                    "indexed": true,
                    "internalType": "bytes32",
                    "name": "collateralType",
                    "type": "bytes32"
                },
                {
                    "indexed": false,
                    "internalType": "address",
                    "name": "safe",
                    "type": "address"
                },
                {
                    "indexed": false,
                    "internalType": "uint256",
                    "name": "collateralShortfall",
                    "type": "uint256"
                }
            ],
            "name": "ProcessSAFE",
            "type": "event"
        },
        {
            "anonymous": false,
            "inputs": [
                {
                    "indexed": true,
                    "internalType": "bytes32",
                    "name": "collateralType",
                    "type": "bytes32"
                },
                {
                    "indexed": true,
                    "internalType": "address",
                    "name": "sender",
                    "type": "address"
                },
                {
                    "indexed": false,
                    "internalType": "uint256",
                    "name": "coinsAmount",
                    "type": "uint256"
                },
                {
                    "indexed": false,
                    "internalType": "uint256",
                    "name": "collateralAmount",
                    "type": "uint256"
                }
            ],
            "name": "RedeemCollateral",
            "type": "event"
        },
        {
            "anonymous": false,
            "inputs": [
                {
                    "indexed": false,
                    "internalType": "address",
                    "name": "account",
                    "type": "address"
                }
            ],
            "name": "RemoveAuthorization",
            "type": "event"
        },
        {
            "anonymous": false,
            "inputs": [
                {
                    "indexed": false,
                    "internalType": "uint256",
                    "name": "outstandingCoinSupply",
                    "type": "uint256"
                }
            ],
            "name": "SetOutstandingCoinSupply",
            "type": "event"
        },
        {
            "anonymous": false,
            "inputs": [],
            "name": "ShutdownSystem",
            "type": "event"
        },
        {
            "inputs": [],
            "name": "accountingEngine",
            "outputs": [
                {
                    "internalType": "contract AccountingEngineLike",
                    "name": "",
                    "type": "address"
                }
            ],
            "stateMutability": "view",
            "type": "function"
        },
        {
            "inputs": [
                {
                    "internalType": "address",
                    "name": "account",
                    "type": "address"
                }
            ],
            "name": "addAuthorization",
            "outputs": [],
            "stateMutability": "nonpayable",
            "type": "function"
        },
        {
            "inputs": [
                {
                    "internalType": "address",
                    "name": "",
                    "type": "address"
                }
            ],
            "name": "authorizedAccounts",
            "outputs": [
                {
                    "internalType": "uint256",
                    "name": "",
                    "type": "uint256"
                }
            ],
            "stateMutability": "view",
            "type": "function"
        },
        {
            "inputs": [
                {
                    "internalType": "bytes32",
                    "name": "collateralType",
                    "type": "bytes32"
                }
            ],
            "name": "calculateCashPrice",
            "outputs": [],
            "stateMutability": "nonpayable",
            "type": "function"
        },
        {
            "inputs": [
                {
                    "internalType": "address",
                    "name": "",
                    "type": "address"
                }
            ],
            "name": "coinBag",
            "outputs": [
                {
                    "internalType": "uint256",
                    "name": "",
                    "type": "uint256"
                }
            ],
            "stateMutability": "view",
            "type": "function"
        },
        {
            "inputs": [],
            "name": "coinSavingsAccount",
            "outputs": [
                {
                    "internalType": "contract CoinSavingsAccountLike",
                    "name": "",
                    "type": "address"
                }
            ],
            "stateMutability": "view",
            "type": "function"
        },
        {
            "inputs": [
                {
                    "internalType": "bytes32",
                    "name": "",
                    "type": "bytes32"
                },
                {
                    "internalType": "address",
                    "name": "",
                    "type": "address"
                }
            ],
            "name": "coinsUsedToRedeem",
            "outputs": [
                {
                    "internalType": "uint256",
                    "name": "",
                    "type": "uint256"
                }
            ],
            "stateMutability": "view",
            "type": "function"
        },
        {
            "inputs": [
                {
                    "internalType": "bytes32",
                    "name": "",
                    "type": "bytes32"
                }
            ],
            "name": "collateralCashPrice",
            "outputs": [
                {
                    "internalType": "uint256",
                    "name": "",
                    "type": "uint256"
                }
            ],
            "stateMutability": "view",
            "type": "function"
        },
        {
            "inputs": [
                {
                    "internalType": "bytes32",
                    "name": "",
                    "type": "bytes32"
                }
            ],
            "name": "collateralShortfall",
            "outputs": [
                {
                    "internalType": "uint256",
                    "name": "",
                    "type": "uint256"
                }
            ],
            "stateMutability": "view",
            "type": "function"
        },
        {
            "inputs": [
                {
                    "internalType": "bytes32",
                    "name": "",
                    "type": "bytes32"
                }
            ],
            "name": "collateralTotalDebt",
            "outputs": [
                {
                    "internalType": "uint256",
                    "name": "",
                    "type": "uint256"
                }
            ],
            "stateMutability": "view",
            "type": "function"
        },
        {
            "inputs": [],
            "name": "contractEnabled",
            "outputs": [
                {
                    "internalType": "uint256",
                    "name": "",
                    "type": "uint256"
                }
            ],
            "stateMutability": "view",
            "type": "function"
        },
        {
            "inputs": [
                {
                    "internalType": "bytes32",
                    "name": "collateralType",
                    "type": "bytes32"
                },
                {
                    "internalType": "uint256",
                    "name": "auctionId",
                    "type": "uint256"
                }
            ],
            "name": "fastTrackAuction",
            "outputs": [],
            "stateMutability": "nonpayable",
            "type": "function"
        },
        {
            "inputs": [
                {
                    "internalType": "bytes32",
                    "name": "",
                    "type": "bytes32"
                }
            ],
            "name": "finalCoinPerCollateralPrice",
            "outputs": [
                {
                    "internalType": "uint256",
                    "name": "",
                    "type": "uint256"
                }
            ],
            "stateMutability": "view",
            "type": "function"
        },
        {
            "inputs": [
                {
                    "internalType": "bytes32",
                    "name": "collateralType",
                    "type": "bytes32"
                }
            ],
            "name": "freeCollateral",
            "outputs": [],
            "stateMutability": "nonpayable",
            "type": "function"
        },
        {
            "inputs": [
                {
                    "internalType": "bytes32",
                    "name": "collateralType",
                    "type": "bytes32"
                }
            ],
            "name": "freezeCollateralType",
            "outputs": [],
            "stateMutability": "nonpayable",
            "type": "function"
        },
        {
            "inputs": [],
            "name": "liquidationEngine",
            "outputs": [
                {
                    "internalType": "contract LiquidationEngineLike",
                    "name": "",
                    "type": "address"
                }
            ],
            "stateMutability": "view",
            "type": "function"
        },
        {
            "inputs": [
                {
                    "internalType": "bytes32",
                    "name": "parameter",
                    "type": "bytes32"
                },
                {
                    "internalType": "address",
                    "name": "data",
                    "type": "address"
                }
            ],
            "name": "modifyParameters",
            "outputs": [],
            "stateMutability": "nonpayable",
            "type": "function"
        },
        {
            "inputs": [
                {
                    "internalType": "bytes32",
                    "name": "parameter",
                    "type": "bytes32"
                },
                {
                    "internalType": "uint256",
                    "name": "data",
                    "type": "uint256"
                }
            ],
            "name": "modifyParameters",
            "outputs": [],
            "stateMutability": "nonpayable",
            "type": "function"
        },
        {
            "inputs": [],
            "name": "oracleRelayer",
            "outputs": [
                {
                    "internalType": "contract OracleRelayerLike",
                    "name": "",
                    "type": "address"
                }
            ],
            "stateMutability": "view",
            "type": "function"
        },
        {
            "inputs": [],
            "name": "outstandingCoinSupply",
            "outputs": [
                {
                    "internalType": "uint256",
                    "name": "",
                    "type": "uint256"
                }
            ],
            "stateMutability": "view",
            "type": "function"
        },
        {
            "inputs": [
                {
                    "internalType": "uint256",
                    "name": "coinAmount",
                    "type": "uint256"
                }
            ],
            "name": "prepareCoinsForRedeeming",
            "outputs": [],
            "stateMutability": "nonpayable",
            "type": "function"
        },
        {
            "inputs": [
                {
                    "internalType": "bytes32",
                    "name": "collateralType",
                    "type": "bytes32"
                },
                {
                    "internalType": "address",
                    "name": "safe",
                    "type": "address"
                }
            ],
            "name": "processSAFE",
            "outputs": [],
            "stateMutability": "nonpayable",
            "type": "function"
        },
        {
            "inputs": [
                {
                    "internalType": "bytes32",
                    "name": "collateralType",
                    "type": "bytes32"
                },
                {
                    "internalType": "uint256",
                    "name": "coinsAmount",
                    "type": "uint256"
                }
            ],
            "name": "redeemCollateral",
            "outputs": [],
            "stateMutability": "nonpayable",
            "type": "function"
        },
        {
            "inputs": [
                {
                    "internalType": "address",
                    "name": "account",
                    "type": "address"
                }
            ],
            "name": "removeAuthorization",
            "outputs": [],
            "stateMutability": "nonpayable",
            "type": "function"
        },
        {
            "inputs": [],
            "name": "safeEngine",
            "outputs": [
                {
                    "internalType": "contract SAFEEngineLike",
                    "name": "",
                    "type": "address"
                }
            ],
            "stateMutability": "view",
            "type": "function"
        },
        {
            "inputs": [],
            "name": "setOutstandingCoinSupply",
            "outputs": [],
            "stateMutability": "nonpayable",
            "type": "function"
        },
        {
            "inputs": [],
            "name": "shutdownCooldown",
            "outputs": [
                {
                    "internalType": "uint256",
                    "name": "",
                    "type": "uint256"
                }
            ],
            "stateMutability": "view",
            "type": "function"
        },
        {
            "inputs": [],
            "name": "shutdownSystem",
            "outputs": [],
            "stateMutability": "nonpayable",
            "type": "function"
        },
        {
            "inputs": [],
            "name": "shutdownTime",
            "outputs": [
                {
                    "internalType": "uint256",
                    "name": "",
                    "type": "uint256"
                }
            ],
            "stateMutability": "view",
            "type": "function"
        },
        {
            "inputs": [],
            "name": "stabilityFeeTreasury",
            "outputs": [
                {
                    "internalType": "contract StabilityFeeTreasuryLike",
                    "name": "",
                    "type": "address"
                }
            ],
            "stateMutability": "view",
            "type": "function"
        }
    ],
    "bytecode": {
        "object": "0x608060405234801561001057600080fd5b503360008181526020818152604091829020600190819055600755815192835290517f599a298163e1678bb1c676052a8930bf0b8a1261ed6e01b8a2391e55f70001029281900390910190a16128288061006b6000396000f3fe608060405234801561001057600080fd5b50600436106101da5760003560e01c806367aea31311610104578063a3d291ba116100a2578063d8f28cf111610071578063d8f28cf11461044d578063da0f90d714610479578063f42029c81461049c578063fe4f5890146104b9576101da565b8063a3d291ba146103df578063ba91fd3714610405578063c0fb6e511461040d578063c7eb5bd91461042a576101da565b806394f3f81d116100de57806394f3f81d14610377578063961d45c41461039d57806399ab8ae2146103a55780639d7db94e146103c2576101da565b806367aea3131461033b5780636d82962a1461034357806372b6f12a1461036f576101da565b80633e81afc51161017c57806353467d221161014b57806353467d22146102cd57806358569081146102ea5780635da6a9ff146102f25780636614f0101461030f576101da565b80633e81afc51461029857806341b3a0d9146102b557806344bf3c72146102bd5780634faf61ab146102c5576101da565b806324ba5884116101b857806324ba58841461022a57806329309d5e14610262578063354af9191461026a57806335b2815314610272576101da565b806306a4bb0c146101df57806309716d60146101fe57806310231d1214610222575b600080fd5b6101fc600480360360208110156101f557600080fd5b50356104dc565b005b6102066106b9565b604080516001600160a01b039092168252519081900360200190f35b6101fc6106c8565b6102506004803603602081101561024057600080fd5b50356001600160a01b03166108fe565b60408051918252519081900360200190f35b610250610910565b6101fc610916565b6101fc6004803603602081101561028857600080fd5b50356001600160a01b0316610c56565b610250600480360360208110156102ae57600080fd5b5035610cf6565b610250610d08565b610206610d0e565b610206610d1d565b6101fc600480360360208110156102e357600080fd5b5035610d2c565b610250610e83565b6101fc6004803603602081101561030857600080fd5b5035610e89565b6101fc6004803603604081101561032557600080fd5b50803590602001356001600160a01b03166110b3565b610206611320565b6102506004803603604081101561035957600080fd5b50803590602001356001600160a01b031661132f565b61020661134c565b6101fc6004803603602081101561038d57600080fd5b50356001600160a01b031661135b565b6102066113fa565b610250600480360360208110156103bb57600080fd5b5035611409565b610250600480360360208110156103d857600080fd5b503561141b565b610250600480360360208110156103f557600080fd5b50356001600160a01b031661142d565b61025061143f565b6101fc6004803603602081101561042357600080fd5b5035611445565b6101fc6004803603604081101561044057600080fd5b5080359060200135611703565b6101fc6004803603604081101561046357600080fd5b50803590602001356001600160a01b03166118ae565b6101fc6004803603604081101561048f57600080fd5b5080359060200135611bb6565b610250600480360360208110156104b257600080fd5b50356122b9565b6101fc600480360360408110156104cf57600080fd5b50803590602001356122cb565b600a5461051a5760405162461bcd60e51b815260040180806020018281038252602d8152602001806125f0602d913960400191505060405180910390fd5b6000818152600e6020526040902054156105655760405162461bcd60e51b81526004018080602001828103825260368152602001806126f96036913960400191505060405180910390fd5b6001546040805163d07900bb60e01b81526004810184905290516000926001600160a01b03169163d07900bb9160248083019260c0929190829003018186803b1580156105b157600080fd5b505afa1580156105c5573d6000803e3d6000fd5b505050506040513d60c08110156105db57600080fd5b506020908101516000848152600d90925260408220549092506106169061060290846123b9565b6000858152600b60205260409020546123b9565b90506b033b2e3c9fd0803ce8000000600a548161062f57fe5b0461066261065083600c6000888152602001908152602001600020546123e1565b6b033b2e3c9fd0803ce800000061243f565b8161066957fe5b6000858152600e6020908152604091829020939092049283905580519283525185927fd848235429b00d20885d01b7a28d4a5c534460ce965226128a6411ed9a2616b192908290030190a2505050565b6005546001600160a01b031681565b600754156107075760405162461bcd60e51b815260040180806020018281038252602781526020018061272f6027913960400191505060405180910390fd5b600a54156107465760405162461bcd60e51b81526004018080602001828103825260318152602001806126466031913960400191505060405180910390fd5b60015460035460408051633eaf7a0360e21b81526001600160a01b0392831660048201529051919092169163fabde80c916024808301926020929190829003018186803b15801561079657600080fd5b505afa1580156107aa573d6000803e3d6000fd5b505050506040513d60208110156107c057600080fd5b5051156107fe5760405162461bcd60e51b81526004018080602001828103825260218152602001806126776021913960400191505060405180910390fd5b61080c6008546009546124ab565b42101561084a5760405162461bcd60e51b815260040180806020018281038252602f815260200180612698602f913960400191505060405180910390fd5b600160009054906101000a90046001600160a01b03166001600160a01b0316638543d5e06040518163ffffffff1660e01b8152600401602060405180830381600087803b15801561089a57600080fd5b505af11580156108ae573d6000803e3d6000fd5b505050506040513d60208110156108c457600080fd5b5051600a81905560408051918252517e1fcf1f022b5e84afd6a87cb33e553137cac8c8d8e0a940c417e63a61674ab89181900360200190a1565b60006020819052908152604090205481565b600a5481565b336000908152602081905260409020546001146109645760405162461bcd60e51b81526004018080602001828103825260278152602001806127566027913960400191505060405180910390fd5b6007546001146109a55760405162461bcd60e51b81526004018080602001828103825260258152602001806127ce6025913960400191505060405180910390fd5b60006007819055426008556001546040805163894ba83360e01b815290516001600160a01b039092169263894ba8339260048084019382900301818387803b1580156109f057600080fd5b505af1158015610a04573d6000803e3d6000fd5b50505050600260009054906101000a90046001600160a01b03166001600160a01b031663894ba8336040518163ffffffff1660e01b8152600401600060405180830381600087803b158015610a5857600080fd5b505af1158015610a6c573d6000803e3d6000fd5b50506006546001600160a01b0316159150610aec905057600660009054906101000a90046001600160a01b03166001600160a01b031663894ba8336040518163ffffffff1660e01b8152600401600060405180830381600087803b158015610ad357600080fd5b505af1158015610ae7573d6000803e3d6000fd5b505050505b600360009054906101000a90046001600160a01b03166001600160a01b031663894ba8336040518163ffffffff1660e01b8152600401600060405180830381600087803b158015610b3c57600080fd5b505af1158015610b50573d6000803e3d6000fd5b5050600480546040805163894ba83360e01b815290516001600160a01b03909216945063894ba8339350808301926000929182900301818387803b158015610b9757600080fd5b505af1158015610bab573d6000803e3d6000fd5b50506005546001600160a01b0316159150610c2b905057600560009054906101000a90046001600160a01b03166001600160a01b031663894ba8336040518163ffffffff1660e01b8152600401600060405180830381600087803b158015610c1257600080fd5b505af1158015610c26573d6000803e3d6000fd5b505050505b6040517ff3cf538e02532541ddf87ca981c158e18dbac102c31a0c481d3033e9de7f0fea90600090a1565b33600090815260208190526040902054600114610ca45760405162461bcd60e51b81526004018080602001828103825260278152602001806127566027913960400191505060405180910390fd5b6001600160a01b0381166000818152602081815260409182902060019055815192835290517f599a298163e1678bb1c676052a8930bf0b8a1261ed6e01b8a2391e55f70001029281900390910190a150565b600d6020526000908152604090205481565b60075481565b6002546001600160a01b031681565b6004546001600160a01b031681565b600a54610d6a5760405162461bcd60e51b815260040180806020018281038252602d8152602001806125f0602d913960400191505060405180910390fd5b6001546003546001600160a01b039182169163efabcadc91339116610d9b856b033b2e3c9fd0803ce800000061243f565b6040518463ffffffff1660e01b815260040180846001600160a01b03166001600160a01b03168152602001836001600160a01b03166001600160a01b031681526020018281526020019350505050600060405180830381600087803b158015610e0357600080fd5b505af1158015610e17573d6000803e3d6000fd5b5050336000908152600f6020526040902054610e3692509050826124ab565b336000818152600f60209081526040918290208490558151938452905191927fc30fd1506396e0b631b304a1c052ef0d31bd680846d9a48de24e25364377418f929081900390910190a250565b60085481565b60075415610ec85760405162461bcd60e51b815260040180806020018281038252602781526020018061272f6027913960400191505060405180910390fd5b60015460408051630f50894160e21b815260048101849052336024820152815160009384936001600160a01b0390911692633d4225049260448083019392829003018186803b158015610f1a57600080fd5b505afa158015610f2e573d6000803e3d6000fd5b505050506040513d6040811015610f4457600080fd5b50805160209091015190925090508015610f8f5760405162461bcd60e51b81526004018080602001828103825260238152602001806127ab6023913960400191505060405180910390fd5b600160ff1b821115610fe4576040805162461bcd60e51b8152602060048201526019602482015278476c6f62616c536574746c656d656e742f6f766572666c6f7760381b604482015290519081900360640190fd5b60015460035460408051634e14a96760e01b815260048101879052336024820181905260448201526001600160a01b0392831660648201526000868103608483015260a4820181905291519290931692634e14a9679260c4808301939282900301818387803b15801561105657600080fd5b505af115801561106a573d6000803e3d6000fd5b5050604080513381526000869003602082015281518794507f3703023c9e2652d21ad2ccb3bf9cc8de914d4e68f1057f132ee753bae02b798193509081900390910190a2505050565b336000908152602081905260409020546001146111015760405162461bcd60e51b81526004018080602001828103825260278152602001806127566027913960400191505060405180910390fd5b6007546001146111425760405162461bcd60e51b81526004018080602001828103825260258152602001806127ce6025913960400191505060405180910390fd5b816973616665456e67696e6560b01b141561117757600180546001600160a01b0319166001600160a01b0383161790556112d9565b81706c69717569646174696f6e456e67696e6560781b14156111b357600280546001600160a01b0319166001600160a01b0383161790556112d9565b816f6163636f756e74696e67456e67696e6560801b14156111ee57600380546001600160a01b0319166001600160a01b0383161790556112d9565b816c37b930b1b632a932b630bcb2b960991b141561122657600480546001600160a01b0319166001600160a01b0383161790556112d9565b817118dbda5b94d85d9a5b99dcd058d8dbdd5b9d60721b141561126357600580546001600160a01b0319166001600160a01b0383161790556112d9565b817373746162696c697479466565547265617375727960601b14156112a257600680546001600160a01b0319166001600160a01b0383161790556112d9565b60405162461bcd60e51b815260040180806020018281038252602e81526020018061277d602e913960400191505060405180910390fd5b604080518381526001600160a01b038316602082015281517fd91f38cf03346b5dc15fb60f9076f866295231ad3c3841a1051f8443f25170d1929181900390910190a15050565b6001546001600160a01b031681565b601060209081526000928352604080842090915290825290205481565b6006546001600160a01b031681565b336000908152602081905260409020546001146113a95760405162461bcd60e51b81526004018080602001828103825260278152602001806127566027913960400191505060405180910390fd5b6001600160a01b03811660008181526020818152604080832092909255815192835290517f8834a87e641e9716be4f34527af5d23e11624f1ddeefede6ad75a9acfc31b9039281900390910190a150565b6003546001600160a01b031681565b600c6020526000908152604090205481565b600e6020526000908152604090205481565b600f6020526000908152604090205481565b60095481565b600754156114845760405162461bcd60e51b815260040180806020018281038252602781526020018061272f6027913960400191505060405180910390fd5b6000818152600b6020526040902054156114cf5760405162461bcd60e51b81526004018080602001828103825260378152602001806125866037913960400191505060405180910390fd5b6001546040805163d07900bb60e01b81526004810184905290516001600160a01b039092169163d07900bb9160248082019260c092909190829003018186803b15801561151b57600080fd5b505afa15801561152f573d6000803e3d6000fd5b505050506040513d60c081101561154557600080fd5b50516000828152600d60205260408082209290925560048054835163d07900bb60e01b8152918201859052925191926001600160a01b03169163d07900bb91602480820192606092909190829003018186803b1580156115a457600080fd5b505afa1580156115b8573d6000803e3d6000fd5b505050506040513d60608110156115ce57600080fd5b50516004805460408051630316dd2360e61b815290519394506116b8936001600160a01b039092169263c5b748c09282820192602092908290030181600087803b15801561161b57600080fd5b505af115801561162f573d6000803e3d6000fd5b505050506040513d602081101561164557600080fd5b5051604080516315f789a960e21b815290516001600160a01b038516916357de26a4916004808301926020929190829003018186803b15801561168757600080fd5b505afa15801561169b573d6000803e3d6000fd5b505050506040513d60208110156116b157600080fd5b5051612503565b6000838152600b60209081526040918290208390558151928352905184927f3d95ab876931faa65df8d1540fbf92d188012936ec873c86e1b53de242de540b92908290030190a25050565b6000828152600e602052604090205461174d5760405162461bcd60e51b81526004018080602001828103825260328152602001806126c76032913960400191505060405180910390fd5b6000828152600e60205260408120546117679083906123b9565b6001546040805163272888d360e11b8152600481018790523060248201523360448201526064810184905290519293506001600160a01b0390911691634e5111a69160848082019260009290919082900301818387803b1580156117ca57600080fd5b505af11580156117de573d6000803e3d6000fd5b50505060008481526010602090815260408083203384529091529020546118069150836124ab565b6000848152601060209081526040808320338452808352818420859055600f8352922054919052101561186a5760405162461bcd60e51b815260040180806020018281038252602981526020018061261d6029913960400191505060405180910390fd5b60408051838152602081018390528151339286927f89c89edec8e0ee71b9e33d9839f47624e63469c2e905beacf808a1328831a5e2929081900390910190a3505050565b6000828152600b60205260409020546118f85760405162461bcd60e51b81526004018080602001828103825260338152602001806125bd6033913960400191505060405180910390fd5b6001546040805163d07900bb60e01b81526004810185905290516000926001600160a01b03169163d07900bb9160248083019260c0929190829003018186803b15801561194457600080fd5b505afa158015611958573d6000803e3d6000fd5b505050506040513d60c081101561196e57600080fd5b506020015160015460408051630f50894160e21b8152600481018790526001600160a01b038681166024830152825194955060009485949190911692633d4225049260448082019391829003018186803b1580156119cb57600080fd5b505afa1580156119df573d6000803e3d6000fd5b505050506040513d60408110156119f557600080fd5b50805160209091015190925090506000611a26611a1283866123b9565b6000888152600b60205260409020546123b9565b90506000611a34848361256c565b6000888152600c6020526040902054909150611a5990611a5484846123e1565b6124ab565b6000888152600c6020526040902055600160ff1b8111801590611a805750600160ff1b8311155b611acd576040805162461bcd60e51b8152602060048201526019602482015278476c6f62616c536574746c656d656e742f6f766572666c6f7760381b604482015290519081900360640190fd5b60015460035460408051634e14a96760e01b8152600481018b90526001600160a01b038a8116602483015230604483015292831660648201526000858103608483015287810360a483015291519290931692634e14a9679260c4808301939282900301818387803b158015611b4157600080fd5b505af1158015611b55573d6000803e3d6000fd5b5050506000888152600c60209081526040918290205482516001600160a01b038b1681529182015281518a93507fd77929653e21635d2a3c6d6d56ab6ae74a9ea5906417bc24868492c54dc7e23c929181900390910190a250505050505050565b6000828152600b6020526040902054611c005760405162461bcd60e51b81526004018080602001828103825260338152602001806125bd6033913960400191505060405180910390fd5b6002546040805163d07900bb60e01b81526004810185905290516000926001600160a01b03169163d07900bb916024808301926060929190829003018186803b158015611c4c57600080fd5b505afa158015611c60573d6000803e3d6000fd5b505050506040513d6060811015611c7657600080fd5b50516001546040805163d07900bb60e01b815260048101879052905192935083926000926001600160a01b03169163d07900bb9160248083019260c0929190829003018186803b158015611cc957600080fd5b505afa158015611cdd573d6000803e3d6000fd5b505050506040513d60c0811015611cf357600080fd5b506020908101516040805163246cdf0b60e11b81526004810188905290519193506000926001600160a01b038616926348d9be16926024808201939291829003018186803b158015611d4457600080fd5b505afa158015611d58573d6000803e3d6000fd5b505050506040513d6020811015611d6e57600080fd5b505160408051637635362760e01b81526004810188905290519192506000916001600160a01b038616916376353627916024808301926020929190829003018186803b158015611dbd57600080fd5b505afa158015611dd1573d6000803e3d6000fd5b505050506040513d6020811015611de757600080fd5b50516040805163f16e0fc160e01b81526004810189905290519192506000916001600160a01b0387169163f16e0fc1916024808301926020929190829003018186803b158015611e3657600080fd5b505afa158015611e4a573d6000803e3d6000fd5b505050506040513d6020811015611e6057600080fd5b5051604080516345edd29b60e01b8152600481018a905290519192506000916001600160a01b038816916345edd29b916024808301926020929190829003018186803b158015611eaf57600080fd5b505afa158015611ec3573d6000803e3d6000fd5b505050506040513d6020811015611ed957600080fd5b505160408051635e3a02cb60e01b8152600481018b905290519192506000916001600160a01b03891691635e3a02cb916024808301926020929190829003018186803b158015611f2857600080fd5b505afa158015611f3c573d6000803e3d6000fd5b505050506040513d6020811015611f5257600080fd5b50516001546003549192506001600160a01b0390811691631b142820911680611f7b85896123e1565b6040518463ffffffff1660e01b815260040180846001600160a01b03166001600160a01b03168152602001836001600160a01b03166001600160a01b031681526020018281526020019350505050600060405180830381600087803b158015611fe357600080fd5b505af1158015611ff7573d6000803e3d6000fd5b50506001546003546040805162d8a14160e51b81526001600160a01b039283166004820152306024820152604481018b90529051919092169350631b1428209250606480830192600092919082900301818387803b15801561205857600080fd5b505af115801561206c573d6000803e3d6000fd5b505060015460408051631b29a84160e31b81526001600160a01b038c81166004830152915191909216935063d94d42089250602480830192600092919082900301818387803b1580156120be57600080fd5b505af11580156120d2573d6000803e3d6000fd5b50505050866001600160a01b031663933f76088a6040518263ffffffff1660e01b815260040180828152602001915050600060405180830381600087803b15801561211c57600080fd5b505af1158015612130573d6000803e3d6000fd5b5050505060008661214183876123e1565b8161214857fe5b60008d8152600d6020526040902054919004915061216690826124ab565b60008c8152600d60205260408120919091558412801590612188575060008112155b6121d5576040805162461bcd60e51b8152602060048201526019602482015278476c6f62616c536574746c656d656e742f6f766572666c6f7760381b604482015290519081900360640190fd5b60015460035460408051634e14a96760e01b8152600481018f90526001600160a01b03878116602483015230604483015292831660648201526084810188905260a4810185905290519190921691634e14a9679160c480830192600092919082900301818387803b15801561224957600080fd5b505af115801561225d573d6000803e3d6000fd5b50505060008c8152600d60209081526040918290205482518e81529182015281518e93507f7d784e3e4a9b69d510aac038e3c3ba7c6ee1cc96fbbdae4a958349313cca9cd4929181900390910190a25050505050505050505050565b600b6020526000908152604090205481565b336000908152602081905260409020546001146123195760405162461bcd60e51b81526004018080602001828103825260278152602001806127566027913960400191505060405180910390fd5b60075460011461235a5760405162461bcd60e51b81526004018080602001828103825260258152602001806127ce6025913960400191505060405180910390fd5b816f39b43aba3237bbb721b7b7b63237bbb760811b14156112a2576009819055604080518381526020810183905281517fac7c5c1afaef770ec56ac6268cd3f2fbb1035858ead2601d6553157c33036c3a929181900390910190a15050565b60006b033b2e3c9fd0803ce80000006123d2848461243f565b816123d957fe5b049392505050565b80820382811115612439576040805162461bcd60e51b815260206004820152601e60248201527f476c6f62616c536574746c656d656e742f7375622d756e646572666c6f770000604482015290519081900360640190fd5b92915050565b600081158061245a5750508082028282828161245757fe5b04145b612439576040805162461bcd60e51b815260206004820152601d60248201527f476c6f62616c536574746c656d656e742f6d756c2d6f766572666c6f77000000604482015290519081900360640190fd5b81810182811015612439576040805162461bcd60e51b815260206004820152601d60248201527f476c6f62616c536574746c656d656e742f6164642d6f766572666c6f77000000604482015290519081900360640190fd5b6000808211612559576040805162461bcd60e51b815260206004820152601d60248201527f476c6f62616c536574746c656d656e742f776469762d62792d7a65726f000000604482015290519081900360640190fd5b816123d284670de0b6b3a764000061243f565b60008183111561257c578161257e565b825b939250505056fe476c6f62616c536574746c656d656e742f66696e616c2d636f6c6c61746572616c2d70726963652d616c72656164792d646566696e6564476c6f62616c536574746c656d656e742f66696e616c2d636f6c6c61746572616c2d70726963652d6e6f742d646566696e6564476c6f62616c536574746c656d656e742f6f75747374616e64696e672d636f696e2d737570706c792d7a65726f476c6f62616c536574746c656d656e742f696e73756666696369656e742d6261672d62616c616e6365476c6f62616c536574746c656d656e742f6f75747374616e64696e672d636f696e2d737570706c792d6e6f742d7a65726f476c6f62616c536574746c656d656e742f737572706c75732d6e6f742d7a65726f476c6f62616c536574746c656d656e742f73687574646f776e2d636f6f6c646f776e2d6e6f742d66696e6973686564476c6f62616c536574746c656d656e742f636f6c6c61746572616c2d636173682d70726963652d6e6f742d646566696e6564476c6f62616c536574746c656d656e742f636f6c6c61746572616c2d636173682d70726963652d616c72656164792d646566696e6564476c6f62616c536574746c656d656e742f636f6e74726163742d7374696c6c2d656e61626c6564476c6f62616c536574746c656d656e742f6163636f756e742d6e6f742d617574686f72697a6564476c6f62616c536574746c656d656e742f6d6f646966792d756e7265636f676e697a65642d706172616d65746572476c6f62616c536574746c656d656e742f736166652d646562742d6e6f742d7a65726f476c6f62616c536574746c656d656e742f636f6e74726163742d6e6f742d656e61626c6564a264697066735822122078ce5274cb7723bfa79f367e9d37de378a90941a017463db8f5edce2c47f988964736f6c63430006070033",
        "linkReferences": {}
    },
    "methodIdentifiers": {
        "accountingEngine()": "961d45c4",
        "addAuthorization(address)": "35b28153",
        "authorizedAccounts(address)": "24ba5884",
        "calculateCashPrice(bytes32)": "06a4bb0c",
        "coinBag(address)": "a3d291ba",
        "coinSavingsAccount()": "09716d60",
        "coinsUsedToRedeem(bytes32,address)": "6d82962a",
        "collateralCashPrice(bytes32)": "9d7db94e",
        "collateralShortfall(bytes32)": "99ab8ae2",
        "collateralTotalDebt(bytes32)": "3e81afc5",
        "contractEnabled()": "41b3a0d9",
        "fastTrackAuction(bytes32,uint256)": "da0f90d7",
        "finalCoinPerCollateralPrice(bytes32)": "f42029c8",
        "freeCollateral(bytes32)": "5da6a9ff",
        "freezeCollateralType(bytes32)": "c0fb6e51",
        "liquidationEngine()": "44bf3c72",
        "modifyParameters(bytes32,address)": "6614f010",
        "modifyParameters(bytes32,uint256)": "fe4f5890",
        "oracleRelayer()": "4faf61ab",
        "outstandingCoinSupply()": "29309d5e",
        "prepareCoinsForRedeeming(uint256)": "53467d22",
        "processSAFE(bytes32,address)": "d8f28cf1",
        "redeemCollateral(bytes32,uint256)": "c7eb5bd9",
        "removeAuthorization(address)": "94f3f81d",
        "safeEngine()": "67aea313",
        "setOutstandingCoinSupply()": "10231d12",
        "shutdownCooldown()": "ba91fd37",
        "shutdownSystem()": "354af919",
        "shutdownTime()": "58569081",
        "stabilityFeeTreasury()": "72b6f12a"
    },
    "id": 45
}