{
    "abi": [
        {
            "inputs": [
                {
                    "internalType": "address",
                    "name": "treasury_",
                    "type": "address"
                },
                {
                    "internalType": "uint256",
                    "name": "baseUpdateCallerReward_",
                    "type": "uint256"
                },
                {
                    "internalType": "uint256",
                    "name": "maxUpdateCallerReward_",
                    "type": "uint256"
                },
                {
                    "internalType": "uint256",
                    "name": "perSecondCallerRewardIncrease_",
                    "type": "uint256"
                }
            ],
            "stateMutability": "nonpayable",
            "type": "constructor"
        },
        {
            "anonymous": false,
            "inputs": [
                {
                    "indexed": false,
                    "internalType": "address",
                    "name": "account",
                    "type": "address"
                }
            ],
            "name": "AddAuthorization",
            "type": "event"
        },
        {
            "anonymous": false,
            "inputs": [
                {
                    "indexed": false,
                    "internalType": "bytes",
                    "name": "revertReason",
                    "type": "bytes"
                },
                {
                    "indexed": false,
                    "internalType": "address",
                    "name": "feeReceiver",
                    "type": "address"
                },
                {
                    "indexed": false,
                    "internalType": "uint256",
                    "name": "amount",
                    "type": "uint256"
                }
            ],
            "name": "FailRewardCaller",
            "type": "event"
        },
        {
            "anonymous": false,
            "inputs": [
                {
                    "indexed": false,
                    "internalType": "bytes32",
                    "name": "parameter",
                    "type": "bytes32"
                },
                {
                    "indexed": false,
                    "internalType": "address",
                    "name": "addr",
                    "type": "address"
                }
            ],
            "name": "ModifyParameters",
            "type": "event"
        },
        {
            "anonymous": false,
            "inputs": [
                {
                    "indexed": false,
                    "internalType": "bytes32",
                    "name": "parameter",
                    "type": "bytes32"
                },
                {
                    "indexed": false,
                    "internalType": "uint256",
                    "name": "val",
                    "type": "uint256"
                }
            ],
            "name": "ModifyParameters",
            "type": "event"
        },
        {
            "anonymous": false,
            "inputs": [
                {
                    "indexed": false,
                    "internalType": "address",
                    "name": "account",
                    "type": "address"
                }
            ],
            "name": "RemoveAuthorization",
            "type": "event"
        },
        {
            "inputs": [],
            "name": "RAY",
            "outputs": [
                {
                    "internalType": "uint256",
                    "name": "",
                    "type": "uint256"
                }
            ],
            "stateMutability": "view",
            "type": "function"
        },
        {
            "inputs": [],
            "name": "WAD",
            "outputs": [
                {
                    "internalType": "uint256",
                    "name": "",
                    "type": "uint256"
                }
            ],
            "stateMutability": "view",
            "type": "function"
        },
        {
            "inputs": [
                {
                    "internalType": "address",
                    "name": "account",
                    "type": "address"
                }
            ],
            "name": "addAuthorization",
            "outputs": [],
            "stateMutability": "nonpayable",
            "type": "function"
        },
        {
            "inputs": [
                {
                    "internalType": "uint256",
                    "name": "x",
                    "type": "uint256"
                },
                {
                    "internalType": "uint256",
                    "name": "y",
                    "type": "uint256"
                }
            ],
            "name": "addition",
            "outputs": [
                {
                    "internalType": "uint256",
                    "name": "z",
                    "type": "uint256"
                }
            ],
            "stateMutability": "pure",
            "type": "function"
        },
        {
            "inputs": [
                {
                    "internalType": "address",
                    "name": "",
                    "type": "address"
                }
            ],
            "name": "authorizedAccounts",
            "outputs": [
                {
                    "internalType": "uint256",
                    "name": "",
                    "type": "uint256"
                }
            ],
            "stateMutability": "view",
            "type": "function"
        },
        {
            "inputs": [],
            "name": "baseUpdateCallerReward",
            "outputs": [
                {
                    "internalType": "uint256",
                    "name": "",
                    "type": "uint256"
                }
            ],
            "stateMutability": "view",
            "type": "function"
        },
        {
            "inputs": [
                {
                    "internalType": "uint256",
                    "name": "timeOfLastUpdate",
                    "type": "uint256"
                },
                {
                    "internalType": "uint256",
                    "name": "defaultDelayBetweenCalls",
                    "type": "uint256"
                }
            ],
            "name": "getCallerReward",
            "outputs": [
                {
                    "internalType": "uint256",
                    "name": "",
                    "type": "uint256"
                }
            ],
            "stateMutability": "view",
            "type": "function"
        },
        {
            "inputs": [],
            "name": "maxRewardIncreaseDelay",
            "outputs": [
                {
                    "internalType": "uint256",
                    "name": "",
                    "type": "uint256"
                }
            ],
            "stateMutability": "view",
            "type": "function"
        },
        {
            "inputs": [],
            "name": "maxUpdateCallerReward",
            "outputs": [
                {
                    "internalType": "uint256",
                    "name": "",
                    "type": "uint256"
                }
            ],
            "stateMutability": "view",
            "type": "function"
        },
        {
            "inputs": [
                {
                    "internalType": "uint256",
                    "name": "x",
                    "type": "uint256"
                },
                {
                    "internalType": "uint256",
                    "name": "y",
                    "type": "uint256"
                }
            ],
            "name": "minimum",
            "outputs": [
                {
                    "internalType": "uint256",
                    "name": "z",
                    "type": "uint256"
                }
            ],
            "stateMutability": "pure",
            "type": "function"
        },
        {
            "inputs": [
                {
                    "internalType": "uint256",
                    "name": "x",
                    "type": "uint256"
                },
                {
                    "internalType": "uint256",
                    "name": "y",
                    "type": "uint256"
                }
            ],
            "name": "multiply",
            "outputs": [
                {
                    "internalType": "uint256",
                    "name": "z",
                    "type": "uint256"
                }
            ],
            "stateMutability": "pure",
            "type": "function"
        },
        {
            "inputs": [],
            "name": "perSecondCallerRewardIncrease",
            "outputs": [
                {
                    "internalType": "uint256",
                    "name": "",
                    "type": "uint256"
                }
            ],
            "stateMutability": "view",
            "type": "function"
        },
        {
            "inputs": [
                {
                    "internalType": "uint256",
                    "name": "x",
                    "type": "uint256"
                }
            ],
            "name": "rad",
            "outputs": [
                {
                    "internalType": "uint256",
                    "name": "z",
                    "type": "uint256"
                }
            ],
            "stateMutability": "pure",
            "type": "function"
        },
        {
            "inputs": [
                {
                    "internalType": "uint256",
                    "name": "x",
                    "type": "uint256"
                }
            ],
            "name": "ray",
            "outputs": [
                {
                    "internalType": "uint256",
                    "name": "z",
                    "type": "uint256"
                }
            ],
            "stateMutability": "pure",
            "type": "function"
        },
        {
            "inputs": [
                {
                    "internalType": "uint256",
                    "name": "x",
                    "type": "uint256"
                },
                {
                    "internalType": "uint256",
                    "name": "y",
                    "type": "uint256"
                }
            ],
            "name": "rdivide",
            "outputs": [
                {
                    "internalType": "uint256",
                    "name": "z",
                    "type": "uint256"
                }
            ],
            "stateMutability": "pure",
            "type": "function"
        },
        {
            "inputs": [
                {
                    "internalType": "address",
                    "name": "account",
                    "type": "address"
                }
            ],
            "name": "removeAuthorization",
            "outputs": [],
            "stateMutability": "nonpayable",
            "type": "function"
        },
        {
            "inputs": [
                {
                    "internalType": "uint256",
                    "name": "x",
                    "type": "uint256"
                },
                {
                    "internalType": "uint256",
                    "name": "y",
                    "type": "uint256"
                }
            ],
            "name": "rmultiply",
            "outputs": [
                {
                    "internalType": "uint256",
                    "name": "z",
                    "type": "uint256"
                }
            ],
            "stateMutability": "pure",
            "type": "function"
        },
        {
            "inputs": [
                {
                    "internalType": "uint256",
                    "name": "x",
                    "type": "uint256"
                },
                {
                    "internalType": "uint256",
                    "name": "n",
                    "type": "uint256"
                },
                {
                    "internalType": "uint256",
                    "name": "base",
                    "type": "uint256"
                }
            ],
            "name": "rpower",
            "outputs": [
                {
                    "internalType": "uint256",
                    "name": "z",
                    "type": "uint256"
                }
            ],
            "stateMutability": "pure",
            "type": "function"
        },
        {
            "inputs": [
                {
                    "internalType": "uint256",
                    "name": "x",
                    "type": "uint256"
                },
                {
                    "internalType": "uint256",
                    "name": "y",
                    "type": "uint256"
                }
            ],
            "name": "subtract",
            "outputs": [
                {
                    "internalType": "uint256",
                    "name": "z",
                    "type": "uint256"
                }
            ],
            "stateMutability": "pure",
            "type": "function"
        },
        {
            "inputs": [],
            "name": "treasury",
            "outputs": [
                {
                    "internalType": "contract StabilityFeeTreasuryLike",
                    "name": "",
                    "type": "address"
                }
            ],
            "stateMutability": "view",
            "type": "function"
        },
        {
            "inputs": [],
            "name": "treasuryAllowance",
            "outputs": [
                {
                    "internalType": "uint256",
                    "name": "",
                    "type": "uint256"
                }
            ],
            "stateMutability": "view",
            "type": "function"
        },
        {
            "inputs": [
                {
                    "internalType": "uint256",
                    "name": "x",
                    "type": "uint256"
                },
                {
                    "internalType": "uint256",
                    "name": "y",
                    "type": "uint256"
                }
            ],
            "name": "wdivide",
            "outputs": [
                {
                    "internalType": "uint256",
                    "name": "z",
                    "type": "uint256"
                }
            ],
            "stateMutability": "pure",
            "type": "function"
        },
        {
            "inputs": [
                {
                    "internalType": "uint256",
                    "name": "x",
                    "type": "uint256"
                },
                {
                    "internalType": "uint256",
                    "name": "y",
                    "type": "uint256"
                }
            ],
            "name": "wmultiply",
            "outputs": [
                {
                    "internalType": "uint256",
                    "name": "z",
                    "type": "uint256"
                }
            ],
            "stateMutability": "pure",
            "type": "function"
        }
    ],
    "bytecode": {
        "object": "0x608060405234801561001057600080fd5b50604051610e11380380610e118339818101604052608081101561003357600080fd5b50805160208201516040830151606090930151919290916001600160a01b0384161561010f5760006001600160a01b0316846001600160a01b031663a7e944556040518163ffffffff1660e01b815260040160206040518083038186803b15801561009d57600080fd5b505afa1580156100b1573d6000803e3d6000fd5b505050506040513d60208110156100c757600080fd5b50516001600160a01b0316141561010f5760405162461bcd60e51b8152600401808060200182810382526035815260200180610da36035913960400191505060405180910390fd5b8282101561014e5760405162461bcd60e51b8152600401808060200182810382526039815260200180610dd86039913960400191505060405180910390fd5b6b033b2e3c9fd0803ce80000008110156101995760405162461bcd60e51b8152600401808060200182810382526042815260200180610d416042913960600191505060405180910390fd5b3360008181526020818152604091829020600190819055600580546001600160a01b0319166001600160a01b038a1617905586905560028590556004849055600019600355815192835290517f599a298163e1678bb1c676052a8930bf0b8a1261ed6e01b8a2391e55f70001029281900390910190a16040805167747265617375727960c01b81526001600160a01b038616602082015281517fd91f38cf03346b5dc15fb60f9076f866295231ad3c3841a1051f8443f25170d1929181900390910190a1600154604080517f6261736555706461746543616c6c657252657761726400000000000000000000815260208101929092528051600080516020610d838339815191529281900390910190a1600254604080517f6d617855706461746543616c6c65725265776172640000000000000000000000815260208101929092528051600080516020610d838339815191529281900390910190a1600454604080517f7065725365636f6e6443616c6c6572526577617264496e637265617365000000815260208101929092528051600080516020610d838339815191529281900390910190a1505050506109ed806103546000396000f3fe608060405234801561001057600080fd5b506004361061014d5760003560e01c806346f3e81c116100c357806394f3f81d1161007c57806394f3f81d146102f7578063a08716371461031d578063d6e882dc14610340578063dd2d2a1214610369578063f238ffd21461038c578063f752fdc3146103af5761014d565b806346f3e81c1461027b57806354f363a314610298578063552033c4146102bb57806361d027b3146102c357806369dec276146102e75780636a146024146102ef5761014d565b806324ba58841161011557806324ba5884146101d75780633425677e146101fd57806335b28153146102055780633c8bb3e61461022d5780633ef5e4451461025057806343943b6b146102735761014d565b8063056640b7146101525780631021344714610187578063165c4a16146101a45780631c1f908c146101c75780632009e568146101cf575b600080fd5b6101756004803603604081101561016857600080fd5b50803590602001356103d2565b60408051918252519081900360200190f35b6101756004803603602081101561019d57600080fd5b50356103fa565b610175600480360360408110156101ba57600080fd5b5080359060200135610410565b610175610475565b61017561047b565b610175600480360360208110156101ed57600080fd5b50356001600160a01b0316610481565b610175610493565b61022b6004803603602081101561021b57600080fd5b50356001600160a01b031661052a565b005b6101756004803603604081101561024357600080fd5b50803590602001356105ca565b6101756004803603604081101561026657600080fd5b50803590602001356105df565b610175610637565b6101756004803603602081101561029157600080fd5b503561063d565b610175600480360360408110156102ae57600080fd5b5080359060200135610655565b6101756106a6565b6102cb6106b6565b604080516001600160a01b039092168252519081900360200190f35b6101756106c5565b6101756106cb565b61022b6004803603602081101561030d57600080fd5b50356001600160a01b03166106d7565b6101756004803603604081101561033357600080fd5b5080359060200135610776565b6101756004803603606081101561035657600080fd5b508035906020810135906040013561078f565b6101756004803603604081101561037f57600080fd5b508035906020013561084d565b610175600480360360408110156103a257600080fd5b5080359060200135610866565b610175600480360360408110156103c557600080fd5b5080359060200135610968565b60006b033b2e3c9fd0803ce80000006103eb8484610410565b816103f257fe5b049392505050565b600061040a82633b9aca00610410565b92915050565b600081158061042b5750508082028282828161042857fe5b04145b61040a576040805162461bcd60e51b815260206004820152601660248201527575696e742d75696e742d6d756c2d6f766572666c6f7760501b604482015290519081900360640190fd5b60015481565b60035481565b60006020819052908152604090205481565b600554604080516375ad331760e11b81523060048201528151600093849384936001600160a01b039092169263eb5a662e926024808201939291829003018186803b1580156104e157600080fd5b505afa1580156104f5573d6000803e3d6000fd5b505050506040513d604081101561050b57600080fd5b5080516020909101519092509050610523828261084d565b9250505090565b336000908152602081905260409020546001146105785760405162461bcd60e51b81526004018080602001828103825260368152602001806109826036913960400191505060405180910390fd5b6001600160a01b0381166000818152602081815260409182902060019055815192835290517f599a298163e1678bb1c676052a8930bf0b8a1261ed6e01b8a2391e55f70001029281900390910190a150565b6000670de0b6b3a76400006103eb8484610410565b8082038281111561040a576040805162461bcd60e51b815260206004820152601760248201527f75696e742d75696e742d7375622d756e646572666c6f77000000000000000000604482015290519081900360640190fd5b60045481565b600061040a826b033b2e3c9fd0803ce8000000610410565b8181018281101561040a576040805162461bcd60e51b815260206004820152601660248201527575696e742d75696e742d6164642d6f766572666c6f7760501b604482015290519081900360640190fd5b6b033b2e3c9fd0803ce800000081565b6005546001600160a01b031681565b60025481565b670de0b6b3a764000081565b336000908152602081905260409020546001146107255760405162461bcd60e51b81526004018080602001828103825260368152602001806109826036913960400191505060405180910390fd5b6001600160a01b03811660008181526020818152604080832092909255815192835290517f8834a87e641e9716be4f34527af5d23e11624f1ddeefede6ad75a9acfc31b9039281900390910190a150565b6000816103eb846b033b2e3c9fd0803ce8000000610410565b600083801561082f576001841680156107aa578592506107ae565b8392505b50600283046002850494505b84156108295785860286878204146107d157600080fd5b818101818110156107e157600080fd5b859004965050600185161561081e57858302838782041415871515161561080757600080fd5b8181018181101561081757600080fd5b8590049350505b6002850494506107ba565b50610845565b83801561083f5760009250610843565b8392505b505b509392505050565b60008183111561085d578161085f565b825b9392505050565b600080600154600014801561087b5750600254155b905061088a428510158261097d565b1561089957600091505061040a565b600084156108b0576108ab42866105df565b6108b2565b835b90506108c584821060015460001461097d565b156108d55760009250505061040a565b60006108e182866105df565b9050600061090d6002546b033b2e3c9fd0803ce8000000610900610493565b8161090757fe5b0461084d565b905060035482111561092457935061040a92505050565b60015482156109525761094f610949600454856b033b2e3c9fd0803ce800000061078f565b826103d2565b90505b8181111561095d5750805b979650505050505050565b6000816103eb84670de0b6b3a7640000610410565b179056fe496e6372656173696e6754726561737572795265696d62757273656d656e742f6163636f756e742d6e6f742d617574686f72697a6564a2646970667358221220aed9d3c6a3b1273ad5fe329466a4c01fe86be8b70a2630eb334d7826240360dc64736f6c63430006070033496e6372656173696e6754726561737572795265696d62757273656d656e742f696e76616c69642d7065722d7365636f6e642d7265776172642d696e637265617365ac7c5c1afaef770ec56ac6268cd3f2fbb1035858ead2601d6553157c33036c3a496e6372656173696e6754726561737572795265696d62757273656d656e742f74726561737572792d636f696e2d6e6f742d736574496e6372656173696e6754726561737572795265696d62757273656d656e742f696e76616c69642d6d61782d63616c6c65722d726577617264",
        "linkReferences": {}
    },
    "methodIdentifiers": {
        "RAY()": "552033c4",
        "WAD()": "6a146024",
        "addAuthorization(address)": "35b28153",
        "addition(uint256,uint256)": "54f363a3",
        "authorizedAccounts(address)": "24ba5884",
        "baseUpdateCallerReward()": "1c1f908c",
        "getCallerReward(uint256,uint256)": "f238ffd2",
        "maxRewardIncreaseDelay()": "2009e568",
        "maxUpdateCallerReward()": "69dec276",
        "minimum(uint256,uint256)": "dd2d2a12",
        "multiply(uint256,uint256)": "165c4a16",
        "perSecondCallerRewardIncrease()": "43943b6b",
        "rad(uint256)": "46f3e81c",
        "ray(uint256)": "10213447",
        "rdivide(uint256,uint256)": "a0871637",
        "removeAuthorization(address)": "94f3f81d",
        "rmultiply(uint256,uint256)": "056640b7",
        "rpower(uint256,uint256,uint256)": "d6e882dc",
        "subtract(uint256,uint256)": "3ef5e445",
        "treasury()": "61d027b3",
        "treasuryAllowance()": "3425677e",
        "wdivide(uint256,uint256)": "f752fdc3",
        "wmultiply(uint256,uint256)": "3c8bb3e6"
    },
    "id": 19
}