{
    "abi": [
        {
            "inputs": [
                {
                    "internalType": "address",
                    "name": "treasury_",
                    "type": "address"
                },
                {
                    "internalType": "uint256",
                    "name": "fixedReward_",
                    "type": "uint256"
                }
            ],
            "stateMutability": "nonpayable",
            "type": "constructor"
        },
        {
            "anonymous": false,
            "inputs": [
                {
                    "indexed": false,
                    "internalType": "address",
                    "name": "account",
                    "type": "address"
                }
            ],
            "name": "AddAuthorization",
            "type": "event"
        },
        {
            "anonymous": false,
            "inputs": [
                {
                    "indexed": false,
                    "internalType": "bytes32",
                    "name": "parameter",
                    "type": "bytes32"
                },
                {
                    "indexed": false,
                    "internalType": "address",
                    "name": "addr",
                    "type": "address"
                }
            ],
            "name": "ModifyParameters",
            "type": "event"
        },
        {
            "anonymous": false,
            "inputs": [
                {
                    "indexed": false,
                    "internalType": "bytes32",
                    "name": "parameter",
                    "type": "bytes32"
                },
                {
                    "indexed": false,
                    "internalType": "uint256",
                    "name": "val",
                    "type": "uint256"
                }
            ],
            "name": "ModifyParameters",
            "type": "event"
        },
        {
            "anonymous": false,
            "inputs": [
                {
                    "indexed": false,
                    "internalType": "address",
                    "name": "account",
                    "type": "address"
                }
            ],
            "name": "RemoveAuthorization",
            "type": "event"
        },
        {
            "anonymous": false,
            "inputs": [
                {
                    "indexed": true,
                    "internalType": "address",
                    "name": "finalFeeReceiver",
                    "type": "address"
                },
                {
                    "indexed": false,
                    "internalType": "uint256",
                    "name": "fixedReward",
                    "type": "uint256"
                }
            ],
            "name": "RewardCaller",
            "type": "event"
        },
        {
            "inputs": [],
            "name": "RAY",
            "outputs": [
                {
                    "internalType": "uint256",
                    "name": "",
                    "type": "uint256"
                }
            ],
            "stateMutability": "view",
            "type": "function"
        },
        {
            "inputs": [],
            "name": "WAD",
            "outputs": [
                {
                    "internalType": "uint256",
                    "name": "",
                    "type": "uint256"
                }
            ],
            "stateMutability": "view",
            "type": "function"
        },
        {
            "inputs": [
                {
                    "internalType": "address",
                    "name": "account",
                    "type": "address"
                }
            ],
            "name": "addAuthorization",
            "outputs": [],
            "stateMutability": "nonpayable",
            "type": "function"
        },
        {
            "inputs": [
                {
                    "internalType": "uint256",
                    "name": "x",
                    "type": "uint256"
                },
                {
                    "internalType": "uint256",
                    "name": "y",
                    "type": "uint256"
                }
            ],
            "name": "addition",
            "outputs": [
                {
                    "internalType": "uint256",
                    "name": "z",
                    "type": "uint256"
                }
            ],
            "stateMutability": "pure",
            "type": "function"
        },
        {
            "inputs": [
                {
                    "internalType": "address",
                    "name": "",
                    "type": "address"
                }
            ],
            "name": "authorizedAccounts",
            "outputs": [
                {
                    "internalType": "uint256",
                    "name": "",
                    "type": "uint256"
                }
            ],
            "stateMutability": "view",
            "type": "function"
        },
        {
            "inputs": [],
            "name": "fixedReward",
            "outputs": [
                {
                    "internalType": "uint256",
                    "name": "",
                    "type": "uint256"
                }
            ],
            "stateMutability": "view",
            "type": "function"
        },
        {
            "inputs": [],
            "name": "getCallerReward",
            "outputs": [
                {
                    "internalType": "uint256",
                    "name": "reward",
                    "type": "uint256"
                }
            ],
            "stateMutability": "view",
            "type": "function"
        },
        {
            "inputs": [
                {
                    "internalType": "uint256",
                    "name": "x",
                    "type": "uint256"
                },
                {
                    "internalType": "uint256",
                    "name": "y",
                    "type": "uint256"
                }
            ],
            "name": "minimum",
            "outputs": [
                {
                    "internalType": "uint256",
                    "name": "z",
                    "type": "uint256"
                }
            ],
            "stateMutability": "pure",
            "type": "function"
        },
        {
            "inputs": [
                {
                    "internalType": "uint256",
                    "name": "x",
                    "type": "uint256"
                },
                {
                    "internalType": "uint256",
                    "name": "y",
                    "type": "uint256"
                }
            ],
            "name": "multiply",
            "outputs": [
                {
                    "internalType": "uint256",
                    "name": "z",
                    "type": "uint256"
                }
            ],
            "stateMutability": "pure",
            "type": "function"
        },
        {
            "inputs": [
                {
                    "internalType": "uint256",
                    "name": "x",
                    "type": "uint256"
                }
            ],
            "name": "rad",
            "outputs": [
                {
                    "internalType": "uint256",
                    "name": "z",
                    "type": "uint256"
                }
            ],
            "stateMutability": "pure",
            "type": "function"
        },
        {
            "inputs": [
                {
                    "internalType": "uint256",
                    "name": "x",
                    "type": "uint256"
                }
            ],
            "name": "ray",
            "outputs": [
                {
                    "internalType": "uint256",
                    "name": "z",
                    "type": "uint256"
                }
            ],
            "stateMutability": "pure",
            "type": "function"
        },
        {
            "inputs": [
                {
                    "internalType": "uint256",
                    "name": "x",
                    "type": "uint256"
                },
                {
                    "internalType": "uint256",
                    "name": "y",
                    "type": "uint256"
                }
            ],
            "name": "rdivide",
            "outputs": [
                {
                    "internalType": "uint256",
                    "name": "z",
                    "type": "uint256"
                }
            ],
            "stateMutability": "pure",
            "type": "function"
        },
        {
            "inputs": [
                {
                    "internalType": "address",
                    "name": "account",
                    "type": "address"
                }
            ],
            "name": "removeAuthorization",
            "outputs": [],
            "stateMutability": "nonpayable",
            "type": "function"
        },
        {
            "inputs": [
                {
                    "internalType": "uint256",
                    "name": "x",
                    "type": "uint256"
                },
                {
                    "internalType": "uint256",
                    "name": "y",
                    "type": "uint256"
                }
            ],
            "name": "rmultiply",
            "outputs": [
                {
                    "internalType": "uint256",
                    "name": "z",
                    "type": "uint256"
                }
            ],
            "stateMutability": "pure",
            "type": "function"
        },
        {
            "inputs": [
                {
                    "internalType": "uint256",
                    "name": "x",
                    "type": "uint256"
                },
                {
                    "internalType": "uint256",
                    "name": "n",
                    "type": "uint256"
                },
                {
                    "internalType": "uint256",
                    "name": "base",
                    "type": "uint256"
                }
            ],
            "name": "rpower",
            "outputs": [
                {
                    "internalType": "uint256",
                    "name": "z",
                    "type": "uint256"
                }
            ],
            "stateMutability": "pure",
            "type": "function"
        },
        {
            "inputs": [
                {
                    "internalType": "uint256",
                    "name": "x",
                    "type": "uint256"
                },
                {
                    "internalType": "uint256",
                    "name": "y",
                    "type": "uint256"
                }
            ],
            "name": "subtract",
            "outputs": [
                {
                    "internalType": "uint256",
                    "name": "z",
                    "type": "uint256"
                }
            ],
            "stateMutability": "pure",
            "type": "function"
        },
        {
            "inputs": [],
            "name": "treasury",
            "outputs": [
                {
                    "internalType": "contract StabilityFeeTreasuryLike",
                    "name": "",
                    "type": "address"
                }
            ],
            "stateMutability": "view",
            "type": "function"
        },
        {
            "inputs": [],
            "name": "treasuryAllowance",
            "outputs": [
                {
                    "internalType": "uint256",
                    "name": "",
                    "type": "uint256"
                }
            ],
            "stateMutability": "view",
            "type": "function"
        },
        {
            "inputs": [
                {
                    "internalType": "uint256",
                    "name": "x",
                    "type": "uint256"
                },
                {
                    "internalType": "uint256",
                    "name": "y",
                    "type": "uint256"
                }
            ],
            "name": "wdivide",
            "outputs": [
                {
                    "internalType": "uint256",
                    "name": "z",
                    "type": "uint256"
                }
            ],
            "stateMutability": "pure",
            "type": "function"
        },
        {
            "inputs": [
                {
                    "internalType": "uint256",
                    "name": "x",
                    "type": "uint256"
                },
                {
                    "internalType": "uint256",
                    "name": "y",
                    "type": "uint256"
                }
            ],
            "name": "wmultiply",
            "outputs": [
                {
                    "internalType": "uint256",
                    "name": "z",
                    "type": "uint256"
                }
            ],
            "stateMutability": "pure",
            "type": "function"
        }
    ],
    "bytecode": {
        "object": "0x608060405234801561001057600080fd5b50604051610ae2380380610ae28339818101604052604081101561003357600080fd5b508051602090910151806100785760405162461bcd60e51b815260040180806020018281038252602f815260200180610ab3602f913960400191505060405180910390fd5b6001600160a01b0382166100bd5760405162461bcd60e51b8152600401808060200182810382526031815260200180610a826031913960400191505060405180910390fd5b3360008181526020818152604091829020600190819055600280546001600160a01b0319166001600160a01b038816179055849055815192835290517f599a298163e1678bb1c676052a8930bf0b8a1261ed6e01b8a2391e55f70001029281900390910190a16040805167747265617375727960c01b81526001600160a01b038416602082015281517fd91f38cf03346b5dc15fb60f9076f866295231ad3c3841a1051f8443f25170d1929181900390910190a1600154604080516a199a5e195914995dd85c9960aa1b8152602081019290925280517fac7c5c1afaef770ec56ac6268cd3f2fbb1035858ead2601d6553157c33036c3a9281900390910190a150506108b4806101ce6000396000f3fe608060405234801561001057600080fd5b506004361061012c5760003560e01c8063552033c4116100ad578063a087163711610071578063a0871637146102e4578063b7ae03c014610307578063d6e882dc1461030f578063dd2d2a1214610338578063f752fdc31461035b5761012c565b8063552033c414610282578063573059201461028a57806361d027b3146102925780636a146024146102b657806394f3f81d146102be5761012c565b806335b28153116100f457806335b28153146101d45780633c8bb3e6146101fc5780633ef5e4451461021f57806346f3e81c1461024257806354f363a31461025f5761012c565b8063056640b7146101315780631021344714610166578063165c4a161461018357806324ba5884146101a65780633425677e146101cc575b600080fd5b6101546004803603604081101561014757600080fd5b508035906020013561037e565b60408051918252519081900360200190f35b6101546004803603602081101561017c57600080fd5b50356103a6565b6101546004803603604081101561019957600080fd5b50803590602001356103bc565b610154600480360360208110156101bc57600080fd5b50356001600160a01b0316610421565b610154610433565b6101fa600480360360208110156101ea57600080fd5b50356001600160a01b03166104ca565b005b6101546004803603604081101561021257600080fd5b508035906020013561056a565b6101546004803603604081101561023557600080fd5b508035906020013561057f565b6101546004803603602081101561025857600080fd5b50356105d7565b6101546004803603604081101561027557600080fd5b50803590602001356105ef565b610154610640565b610154610650565b61029a610656565b604080516001600160a01b039092168252519081900360200190f35b610154610665565b6101fa600480360360208110156102d457600080fd5b50356001600160a01b0316610671565b610154600480360360408110156102fa57600080fd5b5080359060200135610710565b610154610729565b6101546004803603606081101561032557600080fd5b5080359060208101359060400135610758565b6101546004803603604081101561034e57600080fd5b5080359060200135610816565b6101546004803603604081101561037157600080fd5b508035906020013561082f565b60006b033b2e3c9fd0803ce800000061039784846103bc565b8161039e57fe5b049392505050565b60006103b682633b9aca006103bc565b92915050565b60008115806103d7575050808202828282816103d457fe5b04145b6103b6576040805162461bcd60e51b815260206004820152601660248201527575696e742d75696e742d6d756c2d6f766572666c6f7760501b604482015290519081900360640190fd5b60006020819052908152604090205481565b600254604080516375ad331760e11b81523060048201528151600093849384936001600160a01b039092169263eb5a662e926024808201939291829003018186803b15801561048157600080fd5b505afa158015610495573d6000803e3d6000fd5b505050506040513d60408110156104ab57600080fd5b50805160209091015190925090506104c38282610816565b9250505090565b336000908152602081905260409020546001146105185760405162461bcd60e51b815260040180806020018281038252603a815260200180610845603a913960400191505060405180910390fd5b6001600160a01b0381166000818152602081815260409182902060019055815192835290517f599a298163e1678bb1c676052a8930bf0b8a1261ed6e01b8a2391e55f70001029281900390910190a150565b6000670de0b6b3a764000061039784846103bc565b808203828111156103b6576040805162461bcd60e51b815260206004820152601760248201527f75696e742d75696e742d7375622d756e646572666c6f77000000000000000000604482015290519081900360640190fd5b60006103b6826b033b2e3c9fd0803ce80000006103bc565b818101828110156103b6576040805162461bcd60e51b815260206004820152601660248201527575696e742d75696e742d6164642d6f766572666c6f7760501b604482015290519081900360640190fd5b6b033b2e3c9fd0803ce800000081565b60015481565b6002546001600160a01b031681565b670de0b6b3a764000081565b336000908152602081905260409020546001146106bf5760405162461bcd60e51b815260040180806020018281038252603a815260200180610845603a913960400191505060405180910390fd5b6001600160a01b03811660008181526020818152604080832092909255815192835290517f8834a87e641e9716be4f34527af5d23e11624f1ddeefede6ad75a9acfc31b9039281900390910190a150565b600081610397846b033b2e3c9fd0803ce80000006103bc565b60006107536001546b033b2e3c9fd0803ce8000000610746610433565b8161074d57fe5b04610816565b905090565b60008380156107f85760018416801561077357859250610777565b8392505b50600283046002850494505b84156107f257858602868782041461079a57600080fd5b818101818110156107aa57600080fd5b85900496505060018516156107e75785830283878204141587151516156107d057600080fd5b818101818110156107e057600080fd5b8590049350505b600285049450610783565b5061080e565b838015610808576000925061080c565b8392505b505b509392505050565b6000818311156108265781610828565b825b9392505050565b60008161039784670de0b6b3a76400006103bc56fe4d616e6461746f7279466978656454726561737572795265696d62757273656d656e742f6163636f756e742d6e6f742d617574686f72697a6564a26469706673582212203e1551625a89e4a26b10b5e1f96af161fa55c59e551650bc004a1bfa9d4aceb864736f6c634300060700334d616e6461746f7279466978656454726561737572795265696d62757273656d656e742f6e756c6c2d74726561737572794d616e6461746f7279466978656454726561737572795265696d62757273656d656e742f6e756c6c2d726577617264",
        "linkReferences": {}
    },
    "methodIdentifiers": {
        "RAY()": "552033c4",
        "WAD()": "6a146024",
        "addAuthorization(address)": "35b28153",
        "addition(uint256,uint256)": "54f363a3",
        "authorizedAccounts(address)": "24ba5884",
        "fixedReward()": "57305920",
        "getCallerReward()": "b7ae03c0",
        "minimum(uint256,uint256)": "dd2d2a12",
        "multiply(uint256,uint256)": "165c4a16",
        "rad(uint256)": "46f3e81c",
        "ray(uint256)": "10213447",
        "rdivide(uint256,uint256)": "a0871637",
        "removeAuthorization(address)": "94f3f81d",
        "rmultiply(uint256,uint256)": "056640b7",
        "rpower(uint256,uint256,uint256)": "d6e882dc",
        "subtract(uint256,uint256)": "3ef5e445",
        "treasury()": "61d027b3",
        "treasuryAllowance()": "3425677e",
        "wdivide(uint256,uint256)": "f752fdc3",
        "wmultiply(uint256,uint256)": "3c8bb3e6"
    },
    "id": 20
}