{
    "abi": [
        {
            "inputs": [
                {
                    "internalType": "address",
                    "name": "safeEngine_",
                    "type": "address"
                }
            ],
            "stateMutability": "nonpayable",
            "type": "constructor"
        },
        {
            "anonymous": false,
            "inputs": [
                {
                    "indexed": false,
                    "internalType": "address",
                    "name": "account",
                    "type": "address"
                }
            ],
            "name": "AddAuthorization",
            "type": "event"
        },
        {
            "anonymous": false,
            "inputs": [],
            "name": "DisableContract",
            "type": "event"
        },
        {
            "anonymous": false,
            "inputs": [
                {
                    "indexed": false,
                    "internalType": "bytes32",
                    "name": "collateralType",
                    "type": "bytes32"
                },
                {
                    "indexed": false,
                    "internalType": "bytes32",
                    "name": "parameter",
                    "type": "bytes32"
                },
                {
                    "indexed": false,
                    "internalType": "address",
                    "name": "addr",
                    "type": "address"
                }
            ],
            "name": "ModifyParameters",
            "type": "event"
        },
        {
            "anonymous": false,
            "inputs": [
                {
                    "indexed": false,
                    "internalType": "bytes32",
                    "name": "parameter",
                    "type": "bytes32"
                },
                {
                    "indexed": false,
                    "internalType": "uint256",
                    "name": "data",
                    "type": "uint256"
                }
            ],
            "name": "ModifyParameters",
            "type": "event"
        },
        {
            "anonymous": false,
            "inputs": [
                {
                    "indexed": false,
                    "internalType": "bytes32",
                    "name": "collateralType",
                    "type": "bytes32"
                },
                {
                    "indexed": false,
                    "internalType": "bytes32",
                    "name": "parameter",
                    "type": "bytes32"
                },
                {
                    "indexed": false,
                    "internalType": "uint256",
                    "name": "data",
                    "type": "uint256"
                }
            ],
            "name": "ModifyParameters",
            "type": "event"
        },
        {
            "anonymous": false,
            "inputs": [
                {
                    "indexed": false,
                    "internalType": "address",
                    "name": "account",
                    "type": "address"
                }
            ],
            "name": "RemoveAuthorization",
            "type": "event"
        },
        {
            "anonymous": false,
            "inputs": [
                {
                    "indexed": true,
                    "internalType": "bytes32",
                    "name": "collateralType",
                    "type": "bytes32"
                },
                {
                    "indexed": false,
                    "internalType": "uint256",
                    "name": "priceFeedValue",
                    "type": "uint256"
                },
                {
                    "indexed": false,
                    "internalType": "uint256",
                    "name": "safetyPrice",
                    "type": "uint256"
                },
                {
                    "indexed": false,
                    "internalType": "uint256",
                    "name": "liquidationPrice",
                    "type": "uint256"
                }
            ],
            "name": "UpdateCollateralPrice",
            "type": "event"
        },
        {
            "anonymous": false,
            "inputs": [
                {
                    "indexed": false,
                    "internalType": "uint256",
                    "name": "redemptionPrice",
                    "type": "uint256"
                }
            ],
            "name": "UpdateRedemptionPrice",
            "type": "event"
        },
        {
            "inputs": [
                {
                    "internalType": "address",
                    "name": "account",
                    "type": "address"
                }
            ],
            "name": "addAuthorization",
            "outputs": [],
            "stateMutability": "nonpayable",
            "type": "function"
        },
        {
            "inputs": [
                {
                    "internalType": "address",
                    "name": "",
                    "type": "address"
                }
            ],
            "name": "authorizedAccounts",
            "outputs": [
                {
                    "internalType": "uint256",
                    "name": "",
                    "type": "uint256"
                }
            ],
            "stateMutability": "view",
            "type": "function"
        },
        {
            "inputs": [
                {
                    "internalType": "bytes32",
                    "name": "",
                    "type": "bytes32"
                }
            ],
            "name": "collateralTypes",
            "outputs": [
                {
                    "internalType": "contract OracleLike",
                    "name": "orcl",
                    "type": "address"
                },
                {
                    "internalType": "uint256",
                    "name": "safetyCRatio",
                    "type": "uint256"
                },
                {
                    "internalType": "uint256",
                    "name": "liquidationCRatio",
                    "type": "uint256"
                }
            ],
            "stateMutability": "view",
            "type": "function"
        },
        {
            "inputs": [],
            "name": "contractEnabled",
            "outputs": [
                {
                    "internalType": "uint256",
                    "name": "",
                    "type": "uint256"
                }
            ],
            "stateMutability": "view",
            "type": "function"
        },
        {
            "inputs": [],
            "name": "disableContract",
            "outputs": [],
            "stateMutability": "nonpayable",
            "type": "function"
        },
        {
            "inputs": [
                {
                    "internalType": "bytes32",
                    "name": "collateralType",
                    "type": "bytes32"
                }
            ],
            "name": "liquidationCRatio",
            "outputs": [
                {
                    "internalType": "uint256",
                    "name": "",
                    "type": "uint256"
                }
            ],
            "stateMutability": "view",
            "type": "function"
        },
        {
            "inputs": [
                {
                    "internalType": "bytes32",
                    "name": "collateralType",
                    "type": "bytes32"
                },
                {
                    "internalType": "bytes32",
                    "name": "parameter",
                    "type": "bytes32"
                },
                {
                    "internalType": "address",
                    "name": "addr",
                    "type": "address"
                }
            ],
            "name": "modifyParameters",
            "outputs": [],
            "stateMutability": "nonpayable",
            "type": "function"
        },
        {
            "inputs": [
                {
                    "internalType": "bytes32",
                    "name": "collateralType",
                    "type": "bytes32"
                },
                {
                    "internalType": "bytes32",
                    "name": "parameter",
                    "type": "bytes32"
                },
                {
                    "internalType": "uint256",
                    "name": "data",
                    "type": "uint256"
                }
            ],
            "name": "modifyParameters",
            "outputs": [],
            "stateMutability": "nonpayable",
            "type": "function"
        },
        {
            "inputs": [
                {
                    "internalType": "bytes32",
                    "name": "parameter",
                    "type": "bytes32"
                },
                {
                    "internalType": "uint256",
                    "name": "data",
                    "type": "uint256"
                }
            ],
            "name": "modifyParameters",
            "outputs": [],
            "stateMutability": "nonpayable",
            "type": "function"
        },
        {
            "inputs": [
                {
                    "internalType": "bytes32",
                    "name": "collateralType",
                    "type": "bytes32"
                }
            ],
            "name": "orcl",
            "outputs": [
                {
                    "internalType": "address",
                    "name": "",
                    "type": "address"
                }
            ],
            "stateMutability": "view",
            "type": "function"
        },
        {
            "inputs": [],
            "name": "redemptionPrice",
            "outputs": [
                {
                    "internalType": "uint256",
                    "name": "",
                    "type": "uint256"
                }
            ],
            "stateMutability": "nonpayable",
            "type": "function"
        },
        {
            "inputs": [],
            "name": "redemptionPriceUpdateTime",
            "outputs": [
                {
                    "internalType": "uint256",
                    "name": "",
                    "type": "uint256"
                }
            ],
            "stateMutability": "view",
            "type": "function"
        },
        {
            "inputs": [],
            "name": "redemptionRate",
            "outputs": [
                {
                    "internalType": "uint256",
                    "name": "",
                    "type": "uint256"
                }
            ],
            "stateMutability": "view",
            "type": "function"
        },
        {
            "inputs": [],
            "name": "redemptionRateLowerBound",
            "outputs": [
                {
                    "internalType": "uint256",
                    "name": "",
                    "type": "uint256"
                }
            ],
            "stateMutability": "view",
            "type": "function"
        },
        {
            "inputs": [],
            "name": "redemptionRateUpperBound",
            "outputs": [
                {
                    "internalType": "uint256",
                    "name": "",
                    "type": "uint256"
                }
            ],
            "stateMutability": "view",
            "type": "function"
        },
        {
            "inputs": [
                {
                    "internalType": "address",
                    "name": "account",
                    "type": "address"
                }
            ],
            "name": "removeAuthorization",
            "outputs": [],
            "stateMutability": "nonpayable",
            "type": "function"
        },
        {
            "inputs": [],
            "name": "safeEngine",
            "outputs": [
                {
                    "internalType": "contract SAFEEngineLike",
                    "name": "",
                    "type": "address"
                }
            ],
            "stateMutability": "view",
            "type": "function"
        },
        {
            "inputs": [
                {
                    "internalType": "bytes32",
                    "name": "collateralType",
                    "type": "bytes32"
                }
            ],
            "name": "safetyCRatio",
            "outputs": [
                {
                    "internalType": "uint256",
                    "name": "",
                    "type": "uint256"
                }
            ],
            "stateMutability": "view",
            "type": "function"
        },
        {
            "inputs": [
                {
                    "internalType": "bytes32",
                    "name": "collateralType",
                    "type": "bytes32"
                }
            ],
            "name": "updateCollateralPrice",
            "outputs": [],
            "stateMutability": "nonpayable",
            "type": "function"
        }
    ],
    "bytecode": {
        "object": "0x608060405234801561001057600080fd5b506040516113083803806113088339818101604052602081101561003357600080fd5b50513360008181526020818152604091829020600190819055600280546001600160a01b0319166001600160a01b0387161790556b033b2e3c9fd0803ce8000000600481905560055542600655722cd76fe086b93ce2f768a00b22a000000000006007556008819055600355815192835290517f599a298163e1678bb1c676052a8930bf0b8a1261ed6e01b8a2391e55f70001029281900390910190a150611228806100e06000396000f3fe608060405234801561001057600080fd5b50600436106101215760003560e01c806375502d3c116100ad57806394f3f81d1161007157806394f3f81d14610280578063c5b748c0146102a6578063d07900bb146102ae578063d4b9311d146102f3578063fe4f58901461031c57610121565b806375502d3c14610243578063894ba833146102605780638b5a7dba146102685780638e42e4b514610270578063925270371461027857610121565b8063513a3dba116100f4578063513a3dba146101ab578063540385a3146101dd578063667641cb146101e557806367aea3131461021e5780636d530fb31461022657610121565b806324ba5884146101265780633443106d1461015e57806335b281531461017b57806341b3a0d9146101a3575b600080fd5b61014c6004803603602081101561013c57600080fd5b50356001600160a01b031661033f565b60408051918252519081900360200190f35b61014c6004803603602081101561017457600080fd5b5035610351565b6101a16004803603602081101561019157600080fd5b50356001600160a01b0316610367565b005b61014c610407565b6101a1600480360360608110156101c157600080fd5b50803590602081013590604001356001600160a01b031661040d565b61014c61055b565b610202600480360360208110156101fb57600080fd5b5035610561565b604080516001600160a01b039092168252519081900360200190f35b61020261057c565b6101a16004803603602081101561023c57600080fd5b503561058b565b61014c6004803603602081101561025957600080fd5b50356107f0565b6101a1610805565b61014c610893565b61014c610899565b61014c61089f565b6101a16004803603602081101561029657600080fd5b50356001600160a01b03166108a5565b61014c610944565b6102cb600480360360208110156102c457600080fd5b5035610967565b604080516001600160a01b039094168452602084019290925282820152519081900360600190f35b6101a16004803603606081101561030957600080fd5b5080359060208101359060400135610993565b6101a16004803603604081101561033257600080fd5b5080359060200135610b6a565b60006020819052908152604090205481565b6000908152600160208190526040909120015490565b336000908152602081905260409020546001146103b55760405162461bcd60e51b81526004018080602001828103825260248152602001806111426024913960400191505060405180910390fd5b6001600160a01b0381166000818152602081815260409182902060019055815192835290517f599a298163e1678bb1c676052a8930bf0b8a1261ed6e01b8a2391e55f70001029281900390910190a150565b60035481565b3360009081526020819052604090205460011461045b5760405162461bcd60e51b81526004018080602001828103825260248152602001806111426024913960400191505060405180910390fd5b60035460011461049c5760405162461bcd60e51b81526004018080602001828103825260228152602001806110ef6022913960400191505060405180910390fd5b81631bdc98db60e21b14156104d757600083815260016020526040902080546001600160a01b0319166001600160a01b03831617905561050e565b60405162461bcd60e51b81526004018080602001828103825260278152602001806110c86027913960400191505060405180910390fd5b60408051848152602081018490526001600160a01b0383168183015290517f87c209b94b27bfe8cb3329ca996f854fc16f2ec485116b0932eccd15fac50a409181900360600190a1505050565b60055481565b6000908152600160205260409020546001600160a01b031690565b6002546001600160a01b031681565b6000818152600160205260408082205481516309fa15b560e31b8152825184936001600160a01b0390931692634fd0ada89260048082019391829003018186803b1580156105d857600080fd5b505afa1580156105ec573d6000803e3d6000fd5b505050506040513d604081101561060257600080fd5b5080516020909101519092509050600061061a610944565b905060008261062a57600061065c565b61065c61064461063e86633b9aca00610e2a565b84610e9c565b60008781526001602081905260409091200154610e9c565b905060008361066c57600061069d565b61069d61068661068087633b9aca00610e2a565b85610e9c565b600088815260016020526040902060020154610e9c565b6002546040805163d4b9311d60e01b8152600481018a90526a736166657479507269636560a81b60248201526044810186905290519293506001600160a01b039091169163d4b9311d9160648082019260009290919082900301818387803b15801561070857600080fd5b505af115801561071c573d6000803e3d6000fd5b50506002546040805163d4b9311d60e01b8152600481018b90526f6c69717569646174696f6e507269636560801b60248201526044810186905290516001600160a01b03909216935063d4b9311d925060648082019260009290919082900301818387803b15801561078d57600080fd5b505af11580156107a1573d6000803e3d6000fd5b5050604080518881526020810186905280820185905290518993507f37f13f22a2174c79144ffda4c6b7ad416951d5a41171bec961f53ef4c049014e92509081900360600190a2505050505050565b60009081526001602052604090206002015490565b336000908152602081905260409020546001146108535760405162461bcd60e51b81526004018080602001828103825260248152602001806111426024913960400191505060405180910390fd5b600060038190556b033b2e3c9fd0803ce80000006005556040517f2d4b4ecff7bd7503135271925520a2f6c0d98c9473ffc1a1e72c92502f51b25e9190a1565b60065481565b60085481565b60075481565b336000908152602081905260409020546001146108f35760405162461bcd60e51b81526004018080602001828103825260248152602001806111426024913960400191505060405180910390fd5b6001600160a01b03811660008181526020818152604080832092909255815192835290517f8834a87e641e9716be4f34527af5d23e11624f1ddeefede6ad75a9acfc31b9039281900390910190a150565b600060065442111561095f57610958610f18565b9050610964565b506004545b90565b60016020819052600091825260409091208054918101546002909101546001600160a01b039092169183565b336000908152602081905260409020546001146109e15760405162461bcd60e51b81526004018080602001828103825260248152602001806111426024913960400191505060405180910390fd5b600354600114610a225760405162461bcd60e51b81526004018080602001828103825260228152602001806110ef6022913960400191505060405180910390fd5b816b73616665747943526174696f60a01b1415610aa357600083815260016020526040902060020154811015610a895760405162461bcd60e51b81526004018080602001828103825260328152602001806111666032913960400191505060405180910390fd5b600083815260016020819052604090912001819055610b25565b81706c69717569646174696f6e43526174696f60781b14156104d75760008381526001602081905260409091200154811115610b105760405162461bcd60e51b81526004018080602001828103825260328152602001806111666032913960400191505060405180910390fd5b60008381526001602052604090206002018190555b604080518481526020810184905280820183905290517fc59b1109b54f213212d2f5af5c1dae5e887f9daa63b595578fae847cb048e8f49181900360600190a1505050565b33600090815260208190526040902054600114610bb85760405162461bcd60e51b81526004018080602001828103825260248152602001806111426024913960400191505060405180910390fd5b600354600114610bf95760405162461bcd60e51b81526004018080602001828103825260228152602001806110ef6022913960400191505060405180910390fd5b60008111610c4e576040805162461bcd60e51b815260206004820152601760248201527f4f7261636c6552656c617965722f6e756c6c2d64617461000000000000000000604482015290519081900360640190fd5b816e726564656d7074696f6e507269636560881b1415610c72576004819055610deb565b816d726564656d7074696f6e5261746560901b1415610cf7576006544214610ccb5760405162461bcd60e51b815260040180806020018281038252602a815260200180611198602a913960400191505060405180910390fd5b6007548190811115610ce05750600754610cef565b600854821015610cef57506008545b600555610deb565b817f726564656d7074696f6e526174655570706572426f756e6400000000000000001415610d73576b033b2e3c9fd0803ce80000008111610d695760405162461bcd60e51b81526004018080602001828103825260318152602001806111c26031913960400191505060405180910390fd5b6007819055610deb565b817f726564656d7074696f6e526174654c6f776572426f756e64000000000000000014156104d7576b033b2e3c9fd0803ce80000008110610de55760405162461bcd60e51b81526004018080602001828103825260318152602001806111116031913960400191505060405180910390fd5b60088190555b604080518381526020810183905281517fac7c5c1afaef770ec56ac6268cd3f2fbb1035858ead2601d6553157c33036c3a929181900390910190a15050565b6000811580610e4557505080820282828281610e4257fe5b04145b610e96576040805162461bcd60e51b815260206004820152601a60248201527f4f7261636c6552656c617965722f6d756c2d6f766572666c6f77000000000000604482015290519081900360640190fd5b92915050565b6000808211610ef2576040805162461bcd60e51b815260206004820152601a60248201527f4f7261636c6552656c617965722f726469762d62792d7a65726f000000000000604482015290519081900360640190fd5b81610f09846b033b2e3c9fd0803ce8000000610e2a565b81610f1057fe5b049392505050565b6000610f49610f41600554610f2f42600654610f98565b6b033b2e3c9fd0803ce8000000610ff0565b6004546110ae565b6004819055610f585760016004555b4260065560045460408051918252517f9e2c1201748a5c10b659169e27843c246931edf32ccc126c79505db2352fbc3b9181900360200190a15060045490565b80820382811115610e96576040805162461bcd60e51b815260206004820152601b60248201527f4f7261636c6552656c617965722f7375622d756e646572666c6f770000000000604482015290519081900360640190fd5b60008380156110905760018416801561100b5785925061100f565b8392505b50600283046002850494505b841561108a57858602868782041461103257600080fd5b8181018181101561104257600080fd5b859004965050600185161561107f57858302838782041415871515161561106857600080fd5b8181018181101561107857600080fd5b8590049350505b60028504945061101b565b506110a6565b8380156110a057600092506110a4565b8392505b505b509392505050565b60006b033b2e3c9fd0803ce8000000610f098484610e2a56fe4f7261636c6552656c617965722f6d6f646966792d756e7265636f676e697a65642d706172616d4f7261636c6552656c617965722f636f6e74726163742d6e6f742d656e61626c65644f7261636c6552656c617965722f696e76616c69642d726564656d7074696f6e2d726174652d6c6f7765722d626f756e644f7261636c6552656c617965722f6163636f756e742d6e6f742d617574686f72697a65644f7261636c6552656c617965722f7361666574792d6c6f7765722d7468616e2d6c69717569646174696f6e2d63726174696f4f7261636c6552656c617965722f726564656d7074696f6e2d70726963652d6e6f742d757064617465644f7261636c6552656c617965722f696e76616c69642d726564656d7074696f6e2d726174652d75707065722d626f756e64a2646970667358221220f3718e5ec8834fc171dfc0baefeb82eaac94747c1aa849b1c46b4a4c5cbc15ee64736f6c63430006070033",
        "linkReferences": {}
    },
    "methodIdentifiers": {
        "addAuthorization(address)": "35b28153",
        "authorizedAccounts(address)": "24ba5884",
        "collateralTypes(bytes32)": "d07900bb",
        "contractEnabled()": "41b3a0d9",
        "disableContract()": "894ba833",
        "liquidationCRatio(bytes32)": "75502d3c",
        "modifyParameters(bytes32,bytes32,address)": "513a3dba",
        "modifyParameters(bytes32,bytes32,uint256)": "d4b9311d",
        "modifyParameters(bytes32,uint256)": "fe4f5890",
        "orcl(bytes32)": "667641cb",
        "redemptionPrice()": "c5b748c0",
        "redemptionPriceUpdateTime()": "8b5a7dba",
        "redemptionRate()": "540385a3",
        "redemptionRateLowerBound()": "8e42e4b5",
        "redemptionRateUpperBound()": "92527037",
        "removeAuthorization(address)": "94f3f81d",
        "safeEngine()": "67aea313",
        "safetyCRatio(bytes32)": "3443106d",
        "updateCollateralPrice(bytes32)": "6d530fb3"
    },
    "id": 47
}