{
    "abi": [
        {
            "inputs": [],
            "stateMutability": "nonpayable",
            "type": "constructor"
        },
        {
            "inputs": [
                {
                    "internalType": "address",
                    "name": "pause",
                    "type": "address"
                },
                {
                    "internalType": "address",
                    "name": "usr",
                    "type": "address"
                },
                {
                    "internalType": "bytes",
                    "name": "data",
                    "type": "bytes"
                }
            ],
            "name": "executePauseTransaction",
            "outputs": [],
            "stateMutability": "nonpayable",
            "type": "function"
        }
    ],
    "bytecode": {
        "object": "0x608060405234801561001057600080fd5b50600080546001600160a01b031916331790556102ad806100326000396000f3fe608060405234801561001057600080fd5b506004361061002b5760003560e01c80639570a6ef14610030575b600080fd5b61004361003e36600461015d565b610045565b005b6000546001600160a01b031633146100785760405162461bcd60e51b815260040161006f9061023d565b60405180910390fd5b600061008384610159565b604051633d0629d960e11b81529091506001600160a01b03861690637a0c53b2906100ba90879085908890889042906004016101ec565b600060405180830381600087803b1580156100d457600080fd5b505af11580156100e8573d6000803e3d6000fd5b5050604051638176292f60e01b81526001600160a01b0388169250638176292f915061012090879085908890889042906004016101ec565b600060405180830381600087803b15801561013a57600080fd5b505af115801561014e573d6000803e3d6000fd5b505050505050505050565b3f90565b60008060008060608587031215610172578384fd5b843561017d8161025f565b9350602085013561018d8161025f565b9250604085013567ffffffffffffffff808211156101a9578384fd5b81870188601f8201126101ba578485fd5b80359250818311156101ca578485fd5b8860208483010111156101db578485fd5b959894975050602090940194505050565b6001600160a01b03861681526020810185905260806040820181905281018390526000838560a08401378060a0858401015260a0601f19601f86011683010190508260608301529695505050505050565b6020808252600890820152671d5b985d5d1a195960c21b604082015260600190565b6001600160a01b038116811461027457600080fd5b5056fea2646970667358221220fae7b5e2f461e3f02e881db49808498f0c11d3d2c1c958ba7ac6d7ab073f0f7d64736f6c63430006070033",
        "linkReferences": {}
    },
    "methodIdentifiers": {
        "executePauseTransaction(address,address,bytes)": "9570a6ef"
    },
    "id": 55
}