{
    "abi": [
        {
            "inputs": [],
            "stateMutability": "nonpayable",
            "type": "constructor"
        },
        {
            "anonymous": false,
            "inputs": [
                {
                    "indexed": false,
                    "internalType": "address",
                    "name": "account",
                    "type": "address"
                }
            ],
            "name": "AddAuthorization",
            "type": "event"
        },
        {
            "anonymous": false,
            "inputs": [
                {
                    "indexed": false,
                    "internalType": "address",
                    "name": "sender",
                    "type": "address"
                },
                {
                    "indexed": false,
                    "internalType": "address",
                    "name": "account",
                    "type": "address"
                }
            ],
            "name": "ApproveSAFEModification",
            "type": "event"
        },
        {
            "anonymous": false,
            "inputs": [
                {
                    "indexed": true,
                    "internalType": "bytes32",
                    "name": "collateralType",
                    "type": "bytes32"
                },
                {
                    "indexed": true,
                    "internalType": "address",
                    "name": "safe",
                    "type": "address"
                },
                {
                    "indexed": false,
                    "internalType": "address",
                    "name": "collateralCounterparty",
                    "type": "address"
                },
                {
                    "indexed": false,
                    "internalType": "address",
                    "name": "debtCounterparty",
                    "type": "address"
                },
                {
                    "indexed": false,
                    "internalType": "int256",
                    "name": "deltaCollateral",
                    "type": "int256"
                },
                {
                    "indexed": false,
                    "internalType": "int256",
                    "name": "deltaDebt",
                    "type": "int256"
                },
                {
                    "indexed": false,
                    "internalType": "uint256",
                    "name": "globalUnbackedDebt",
                    "type": "uint256"
                }
            ],
            "name": "ConfiscateSAFECollateralAndDebt",
            "type": "event"
        },
        {
            "anonymous": false,
            "inputs": [
                {
                    "indexed": true,
                    "internalType": "address",
                    "name": "debtDestination",
                    "type": "address"
                },
                {
                    "indexed": true,
                    "internalType": "address",
                    "name": "coinDestination",
                    "type": "address"
                },
                {
                    "indexed": false,
                    "internalType": "uint256",
                    "name": "rad",
                    "type": "uint256"
                },
                {
                    "indexed": false,
                    "internalType": "uint256",
                    "name": "debtDstBalance",
                    "type": "uint256"
                },
                {
                    "indexed": false,
                    "internalType": "uint256",
                    "name": "coinDstBalance",
                    "type": "uint256"
                },
                {
                    "indexed": false,
                    "internalType": "uint256",
                    "name": "globalUnbackedDebt",
                    "type": "uint256"
                },
                {
                    "indexed": false,
                    "internalType": "uint256",
                    "name": "globalDebt",
                    "type": "uint256"
                }
            ],
            "name": "CreateUnbackedDebt",
            "type": "event"
        },
        {
            "anonymous": false,
            "inputs": [
                {
                    "indexed": false,
                    "internalType": "address",
                    "name": "sender",
                    "type": "address"
                },
                {
                    "indexed": false,
                    "internalType": "address",
                    "name": "account",
                    "type": "address"
                }
            ],
            "name": "DenySAFEModification",
            "type": "event"
        },
        {
            "anonymous": false,
            "inputs": [],
            "name": "DisableContract",
            "type": "event"
        },
        {
            "anonymous": false,
            "inputs": [
                {
                    "indexed": false,
                    "internalType": "bytes32",
                    "name": "collateralType",
                    "type": "bytes32"
                }
            ],
            "name": "InitializeCollateralType",
            "type": "event"
        },
        {
            "anonymous": false,
            "inputs": [
                {
                    "indexed": true,
                    "internalType": "bytes32",
                    "name": "collateralType",
                    "type": "bytes32"
                },
                {
                    "indexed": true,
                    "internalType": "address",
                    "name": "account",
                    "type": "address"
                },
                {
                    "indexed": false,
                    "internalType": "int256",
                    "name": "wad",
                    "type": "int256"
                }
            ],
            "name": "ModifyCollateralBalance",
            "type": "event"
        },
        {
            "anonymous": false,
            "inputs": [
                {
                    "indexed": false,
                    "internalType": "bytes32",
                    "name": "parameter",
                    "type": "bytes32"
                },
                {
                    "indexed": false,
                    "internalType": "uint256",
                    "name": "data",
                    "type": "uint256"
                }
            ],
            "name": "ModifyParameters",
            "type": "event"
        },
        {
            "anonymous": false,
            "inputs": [
                {
                    "indexed": false,
                    "internalType": "bytes32",
                    "name": "collateralType",
                    "type": "bytes32"
                },
                {
                    "indexed": false,
                    "internalType": "bytes32",
                    "name": "parameter",
                    "type": "bytes32"
                },
                {
                    "indexed": false,
                    "internalType": "uint256",
                    "name": "data",
                    "type": "uint256"
                }
            ],
            "name": "ModifyParameters",
            "type": "event"
        },
        {
            "anonymous": false,
            "inputs": [
                {
                    "indexed": true,
                    "internalType": "bytes32",
                    "name": "collateralType",
                    "type": "bytes32"
                },
                {
                    "indexed": true,
                    "internalType": "address",
                    "name": "safe",
                    "type": "address"
                },
                {
                    "indexed": false,
                    "internalType": "address",
                    "name": "collateralSource",
                    "type": "address"
                },
                {
                    "indexed": false,
                    "internalType": "address",
                    "name": "debtDestination",
                    "type": "address"
                },
                {
                    "indexed": false,
                    "internalType": "int256",
                    "name": "deltaCollateral",
                    "type": "int256"
                },
                {
                    "indexed": false,
                    "internalType": "int256",
                    "name": "deltaDebt",
                    "type": "int256"
                },
                {
                    "indexed": false,
                    "internalType": "uint256",
                    "name": "lockedCollateral",
                    "type": "uint256"
                },
                {
                    "indexed": false,
                    "internalType": "uint256",
                    "name": "generatedDebt",
                    "type": "uint256"
                },
                {
                    "indexed": false,
                    "internalType": "uint256",
                    "name": "globalDebt",
                    "type": "uint256"
                }
            ],
            "name": "ModifySAFECollateralization",
            "type": "event"
        },
        {
            "anonymous": false,
            "inputs": [
                {
                    "indexed": false,
                    "internalType": "address",
                    "name": "account",
                    "type": "address"
                }
            ],
            "name": "RemoveAuthorization",
            "type": "event"
        },
        {
            "anonymous": false,
            "inputs": [
                {
                    "indexed": true,
                    "internalType": "address",
                    "name": "account",
                    "type": "address"
                },
                {
                    "indexed": false,
                    "internalType": "uint256",
                    "name": "rad",
                    "type": "uint256"
                },
                {
                    "indexed": false,
                    "internalType": "uint256",
                    "name": "debtBalance",
                    "type": "uint256"
                },
                {
                    "indexed": false,
                    "internalType": "uint256",
                    "name": "coinBalance",
                    "type": "uint256"
                },
                {
                    "indexed": false,
                    "internalType": "uint256",
                    "name": "globalUnbackedDebt",
                    "type": "uint256"
                },
                {
                    "indexed": false,
                    "internalType": "uint256",
                    "name": "globalDebt",
                    "type": "uint256"
                }
            ],
            "name": "SettleDebt",
            "type": "event"
        },
        {
            "anonymous": false,
            "inputs": [
                {
                    "indexed": true,
                    "internalType": "bytes32",
                    "name": "collateralType",
                    "type": "bytes32"
                },
                {
                    "indexed": true,
                    "internalType": "address",
                    "name": "src",
                    "type": "address"
                },
                {
                    "indexed": true,
                    "internalType": "address",
                    "name": "dst",
                    "type": "address"
                },
                {
                    "indexed": false,
                    "internalType": "uint256",
                    "name": "wad",
                    "type": "uint256"
                }
            ],
            "name": "TransferCollateral",
            "type": "event"
        },
        {
            "anonymous": false,
            "inputs": [
                {
                    "indexed": true,
                    "internalType": "address",
                    "name": "src",
                    "type": "address"
                },
                {
                    "indexed": true,
                    "internalType": "address",
                    "name": "dst",
                    "type": "address"
                },
                {
                    "indexed": false,
                    "internalType": "uint256",
                    "name": "rad",
                    "type": "uint256"
                }
            ],
            "name": "TransferInternalCoins",
            "type": "event"
        },
        {
            "anonymous": false,
            "inputs": [
                {
                    "indexed": true,
                    "internalType": "bytes32",
                    "name": "collateralType",
                    "type": "bytes32"
                },
                {
                    "indexed": true,
                    "internalType": "address",
                    "name": "src",
                    "type": "address"
                },
                {
                    "indexed": true,
                    "internalType": "address",
                    "name": "dst",
                    "type": "address"
                },
                {
                    "indexed": false,
                    "internalType": "int256",
                    "name": "deltaCollateral",
                    "type": "int256"
                },
                {
                    "indexed": false,
                    "internalType": "int256",
                    "name": "deltaDebt",
                    "type": "int256"
                },
                {
                    "indexed": false,
                    "internalType": "uint256",
                    "name": "srcLockedCollateral",
                    "type": "uint256"
                },
                {
                    "indexed": false,
                    "internalType": "uint256",
                    "name": "srcGeneratedDebt",
                    "type": "uint256"
                },
                {
                    "indexed": false,
                    "internalType": "uint256",
                    "name": "dstLockedCollateral",
                    "type": "uint256"
                },
                {
                    "indexed": false,
                    "internalType": "uint256",
                    "name": "dstGeneratedDebt",
                    "type": "uint256"
                }
            ],
            "name": "TransferSAFECollateralAndDebt",
            "type": "event"
        },
        {
            "anonymous": false,
            "inputs": [
                {
                    "indexed": true,
                    "internalType": "bytes32",
                    "name": "collateralType",
                    "type": "bytes32"
                },
                {
                    "indexed": false,
                    "internalType": "address",
                    "name": "surplusDst",
                    "type": "address"
                },
                {
                    "indexed": false,
                    "internalType": "int256",
                    "name": "rateMultiplier",
                    "type": "int256"
                },
                {
                    "indexed": false,
                    "internalType": "uint256",
                    "name": "dstCoinBalance",
                    "type": "uint256"
                },
                {
                    "indexed": false,
                    "internalType": "uint256",
                    "name": "globalDebt",
                    "type": "uint256"
                }
            ],
            "name": "UpdateAccumulatedRate",
            "type": "event"
        },
        {
            "inputs": [
                {
                    "internalType": "address",
                    "name": "account",
                    "type": "address"
                }
            ],
            "name": "addAuthorization",
            "outputs": [],
            "stateMutability": "nonpayable",
            "type": "function"
        },
        {
            "inputs": [
                {
                    "internalType": "address",
                    "name": "account",
                    "type": "address"
                }
            ],
            "name": "approveSAFEModification",
            "outputs": [],
            "stateMutability": "nonpayable",
            "type": "function"
        },
        {
            "inputs": [
                {
                    "internalType": "address",
                    "name": "",
                    "type": "address"
                }
            ],
            "name": "authorizedAccounts",
            "outputs": [
                {
                    "internalType": "uint256",
                    "name": "",
                    "type": "uint256"
                }
            ],
            "stateMutability": "view",
            "type": "function"
        },
        {
            "inputs": [
                {
                    "internalType": "address",
                    "name": "safe",
                    "type": "address"
                },
                {
                    "internalType": "address",
                    "name": "account",
                    "type": "address"
                }
            ],
            "name": "canModifySAFE",
            "outputs": [
                {
                    "internalType": "bool",
                    "name": "",
                    "type": "bool"
                }
            ],
            "stateMutability": "view",
            "type": "function"
        },
        {
            "inputs": [
                {
                    "internalType": "address",
                    "name": "",
                    "type": "address"
                }
            ],
            "name": "coinBalance",
            "outputs": [
                {
                    "internalType": "uint256",
                    "name": "",
                    "type": "uint256"
                }
            ],
            "stateMutability": "view",
            "type": "function"
        },
        {
            "inputs": [
                {
                    "internalType": "bytes32",
                    "name": "",
                    "type": "bytes32"
                }
            ],
            "name": "collateralTypes",
            "outputs": [
                {
                    "internalType": "uint256",
                    "name": "debtAmount",
                    "type": "uint256"
                },
                {
                    "internalType": "uint256",
                    "name": "accumulatedRate",
                    "type": "uint256"
                },
                {
                    "internalType": "uint256",
                    "name": "safetyPrice",
                    "type": "uint256"
                },
                {
                    "internalType": "uint256",
                    "name": "debtCeiling",
                    "type": "uint256"
                },
                {
                    "internalType": "uint256",
                    "name": "debtFloor",
                    "type": "uint256"
                },
                {
                    "internalType": "uint256",
                    "name": "liquidationPrice",
                    "type": "uint256"
                }
            ],
            "stateMutability": "view",
            "type": "function"
        },
        {
            "inputs": [
                {
                    "internalType": "bytes32",
                    "name": "collateralType",
                    "type": "bytes32"
                },
                {
                    "internalType": "address",
                    "name": "safe",
                    "type": "address"
                },
                {
                    "internalType": "address",
                    "name": "collateralCounterparty",
                    "type": "address"
                },
                {
                    "internalType": "address",
                    "name": "debtCounterparty",
                    "type": "address"
                },
                {
                    "internalType": "int256",
                    "name": "deltaCollateral",
                    "type": "int256"
                },
                {
                    "internalType": "int256",
                    "name": "deltaDebt",
                    "type": "int256"
                }
            ],
            "name": "confiscateSAFECollateralAndDebt",
            "outputs": [],
            "stateMutability": "nonpayable",
            "type": "function"
        },
        {
            "inputs": [],
            "name": "contractEnabled",
            "outputs": [
                {
                    "internalType": "uint256",
                    "name": "",
                    "type": "uint256"
                }
            ],
            "stateMutability": "view",
            "type": "function"
        },
        {
            "inputs": [
                {
                    "internalType": "address",
                    "name": "debtDestination",
                    "type": "address"
                },
                {
                    "internalType": "address",
                    "name": "coinDestination",
                    "type": "address"
                },
                {
                    "internalType": "uint256",
                    "name": "rad",
                    "type": "uint256"
                }
            ],
            "name": "createUnbackedDebt",
            "outputs": [],
            "stateMutability": "nonpayable",
            "type": "function"
        },
        {
            "inputs": [
                {
                    "internalType": "address",
                    "name": "",
                    "type": "address"
                }
            ],
            "name": "debtBalance",
            "outputs": [
                {
                    "internalType": "uint256",
                    "name": "",
                    "type": "uint256"
                }
            ],
            "stateMutability": "view",
            "type": "function"
        },
        {
            "inputs": [
                {
                    "internalType": "address",
                    "name": "account",
                    "type": "address"
                }
            ],
            "name": "denySAFEModification",
            "outputs": [],
            "stateMutability": "nonpayable",
            "type": "function"
        },
        {
            "inputs": [],
            "name": "disableContract",
            "outputs": [],
            "stateMutability": "nonpayable",
            "type": "function"
        },
        {
            "inputs": [],
            "name": "globalDebt",
            "outputs": [
                {
                    "internalType": "uint256",
                    "name": "",
                    "type": "uint256"
                }
            ],
            "stateMutability": "view",
            "type": "function"
        },
        {
            "inputs": [],
            "name": "globalDebtCeiling",
            "outputs": [
                {
                    "internalType": "uint256",
                    "name": "",
                    "type": "uint256"
                }
            ],
            "stateMutability": "view",
            "type": "function"
        },
        {
            "inputs": [],
            "name": "globalUnbackedDebt",
            "outputs": [
                {
                    "internalType": "uint256",
                    "name": "",
                    "type": "uint256"
                }
            ],
            "stateMutability": "view",
            "type": "function"
        },
        {
            "inputs": [
                {
                    "internalType": "bytes32",
                    "name": "collateralType",
                    "type": "bytes32"
                }
            ],
            "name": "initializeCollateralType",
            "outputs": [],
            "stateMutability": "nonpayable",
            "type": "function"
        },
        {
            "inputs": [
                {
                    "internalType": "bytes32",
                    "name": "collateralType",
                    "type": "bytes32"
                },
                {
                    "internalType": "address",
                    "name": "account",
                    "type": "address"
                },
                {
                    "internalType": "int256",
                    "name": "wad",
                    "type": "int256"
                }
            ],
            "name": "modifyCollateralBalance",
            "outputs": [],
            "stateMutability": "nonpayable",
            "type": "function"
        },
        {
            "inputs": [
                {
                    "internalType": "bytes32",
                    "name": "collateralType",
                    "type": "bytes32"
                },
                {
                    "internalType": "bytes32",
                    "name": "parameter",
                    "type": "bytes32"
                },
                {
                    "internalType": "uint256",
                    "name": "data",
                    "type": "uint256"
                }
            ],
            "name": "modifyParameters",
            "outputs": [],
            "stateMutability": "nonpayable",
            "type": "function"
        },
        {
            "inputs": [
                {
                    "internalType": "bytes32",
                    "name": "parameter",
                    "type": "bytes32"
                },
                {
                    "internalType": "uint256",
                    "name": "data",
                    "type": "uint256"
                }
            ],
            "name": "modifyParameters",
            "outputs": [],
            "stateMutability": "nonpayable",
            "type": "function"
        },
        {
            "inputs": [
                {
                    "internalType": "bytes32",
                    "name": "collateralType",
                    "type": "bytes32"
                },
                {
                    "internalType": "address",
                    "name": "safe",
                    "type": "address"
                },
                {
                    "internalType": "address",
                    "name": "collateralSource",
                    "type": "address"
                },
                {
                    "internalType": "address",
                    "name": "debtDestination",
                    "type": "address"
                },
                {
                    "internalType": "int256",
                    "name": "deltaCollateral",
                    "type": "int256"
                },
                {
                    "internalType": "int256",
                    "name": "deltaDebt",
                    "type": "int256"
                }
            ],
            "name": "modifySAFECollateralization",
            "outputs": [],
            "stateMutability": "nonpayable",
            "type": "function"
        },
        {
            "inputs": [
                {
                    "internalType": "address",
                    "name": "account",
                    "type": "address"
                }
            ],
            "name": "removeAuthorization",
            "outputs": [],
            "stateMutability": "nonpayable",
            "type": "function"
        },
        {
            "inputs": [],
            "name": "safeDebtCeiling",
            "outputs": [
                {
                    "internalType": "uint256",
                    "name": "",
                    "type": "uint256"
                }
            ],
            "stateMutability": "view",
            "type": "function"
        },
        {
            "inputs": [
                {
                    "internalType": "address",
                    "name": "",
                    "type": "address"
                },
                {
                    "internalType": "address",
                    "name": "",
                    "type": "address"
                }
            ],
            "name": "safeRights",
            "outputs": [
                {
                    "internalType": "uint256",
                    "name": "",
                    "type": "uint256"
                }
            ],
            "stateMutability": "view",
            "type": "function"
        },
        {
            "inputs": [
                {
                    "internalType": "bytes32",
                    "name": "",
                    "type": "bytes32"
                },
                {
                    "internalType": "address",
                    "name": "",
                    "type": "address"
                }
            ],
            "name": "safes",
            "outputs": [
                {
                    "internalType": "uint256",
                    "name": "lockedCollateral",
                    "type": "uint256"
                },
                {
                    "internalType": "uint256",
                    "name": "generatedDebt",
                    "type": "uint256"
                }
            ],
            "stateMutability": "view",
            "type": "function"
        },
        {
            "inputs": [
                {
                    "internalType": "uint256",
                    "name": "rad",
                    "type": "uint256"
                }
            ],
            "name": "settleDebt",
            "outputs": [],
            "stateMutability": "nonpayable",
            "type": "function"
        },
        {
            "inputs": [
                {
                    "internalType": "bytes32",
                    "name": "",
                    "type": "bytes32"
                },
                {
                    "internalType": "address",
                    "name": "",
                    "type": "address"
                }
            ],
            "name": "tokenCollateral",
            "outputs": [
                {
                    "internalType": "uint256",
                    "name": "",
                    "type": "uint256"
                }
            ],
            "stateMutability": "view",
            "type": "function"
        },
        {
            "inputs": [
                {
                    "internalType": "bytes32",
                    "name": "collateralType",
                    "type": "bytes32"
                },
                {
                    "internalType": "address",
                    "name": "src",
                    "type": "address"
                },
                {
                    "internalType": "address",
                    "name": "dst",
                    "type": "address"
                },
                {
                    "internalType": "uint256",
                    "name": "wad",
                    "type": "uint256"
                }
            ],
            "name": "transferCollateral",
            "outputs": [],
            "stateMutability": "nonpayable",
            "type": "function"
        },
        {
            "inputs": [
                {
                    "internalType": "address",
                    "name": "src",
                    "type": "address"
                },
                {
                    "internalType": "address",
                    "name": "dst",
                    "type": "address"
                },
                {
                    "internalType": "uint256",
                    "name": "rad",
                    "type": "uint256"
                }
            ],
            "name": "transferInternalCoins",
            "outputs": [],
            "stateMutability": "nonpayable",
            "type": "function"
        },
        {
            "inputs": [
                {
                    "internalType": "bytes32",
                    "name": "collateralType",
                    "type": "bytes32"
                },
                {
                    "internalType": "address",
                    "name": "src",
                    "type": "address"
                },
                {
                    "internalType": "address",
                    "name": "dst",
                    "type": "address"
                },
                {
                    "internalType": "int256",
                    "name": "deltaCollateral",
                    "type": "int256"
                },
                {
                    "internalType": "int256",
                    "name": "deltaDebt",
                    "type": "int256"
                }
            ],
            "name": "transferSAFECollateralAndDebt",
            "outputs": [],
            "stateMutability": "nonpayable",
            "type": "function"
        },
        {
            "inputs": [
                {
                    "internalType": "bytes32",
                    "name": "collateralType",
                    "type": "bytes32"
                },
                {
                    "internalType": "address",
                    "name": "surplusDst",
                    "type": "address"
                },
                {
                    "internalType": "int256",
                    "name": "rateMultiplier",
                    "type": "int256"
                }
            ],
            "name": "updateAccumulatedRate",
            "outputs": [],
            "stateMutability": "nonpayable",
            "type": "function"
        }
    ],
    "bytecode": {
        "object": "0x608060405234801561001057600080fd5b503360008181526020818152604091829020600190819055600019600755600b55815192835290517f599a298163e1678bb1c676052a8930bf0b8a1261ed6e01b8a2391e55f70001029281900390910190a1604080516e73616665446562744365696c696e6760881b8152600019602082015281517fac7c5c1afaef770ec56ac6268cd3f2fbb1035858ead2601d6553157c33036c3a929181900390910190a1612602806100bf6000396000f3fe608060405234801561001057600080fd5b50600436106101da5760003560e01c806350de215d11610104578063d07900bb116100a2578063efabcadc11610071578063efabcadc1461063b578063fabde80c14610671578063fd450fb714610697578063fe4f58901461069f576101da565b8063d07900bb14610576578063d49d7867146105c6578063d4b9311d146105ec578063d94d420814610615576101da565b80638543d5e0116100de5780638543d5e0146104f8578063894ba8331461050057806394f3f81d1461050857806399bec3151461052e576101da565b806350de215d1461046d5780635e412858146104af57806376e0b4ca146104cc576101da565b80632efcc8661161017c578063476bb6ef1161014b578063476bb6ef146103755780634a11825e146103b75780634e14a967146103e95780634e5111a614610431576101da565b80632efcc866146102fa57806335b28153146103025780633d4225041461032857806341b3a0d91461036d576101da565b80631b142820116101b85780631b142820146102795780631d2a783d146102af57806324ba5884146102b757806327a0bb33146102dd576101da565b806306eb54df146101df5780630e9e11d31461021f57806311005b0714610253575b600080fd5b61020d600480360360408110156101f557600080fd5b506001600160a01b03813581169160200135166106c2565b60408051918252519081900360200190f35b6102516004803603606081101561023557600080fd5b508035906001600160a01b0360208201351690604001356106df565b005b61020d6004803603602081101561026957600080fd5b50356001600160a01b031661085e565b6102516004803603606081101561028f57600080fd5b506001600160a01b03813581169160208101359091169060400135610870565b61020d6109d6565b61020d600480360360208110156102cd57600080fd5b50356001600160a01b03166109dc565b610251600480360360208110156102f357600080fd5b50356109ee565b61020d610aec565b6102516004803603602081101561031857600080fd5b50356001600160a01b0316610af2565b6103546004803603604081101561033e57600080fd5b50803590602001356001600160a01b0316610bd7565b6040805192835260208301919091528051918290030190f35b61020d610bfb565b610251600480360360a081101561038b57600080fd5b508035906001600160a01b03602082013581169160408101359091169060608101359060800135610c01565b610251600480360360608110156103cd57600080fd5b508035906001600160a01b036020820135169060400135610f2a565b610251600480360360c08110156103ff57600080fd5b508035906001600160a01b03602082013581169160408101358216916060820135169060808101359060a00135611009565b6102516004803603608081101561044757600080fd5b508035906001600160a01b036020820135811691604081013590911690606001356111ca565b61049b6004803603604081101561048357600080fd5b506001600160a01b03813581169160200135166112e7565b604080519115158252519081900360200190f35b610251600480360360208110156104c557600080fd5b5035611327565b61020d600480360360408110156104e257600080fd5b50803590602001356001600160a01b031661141c565b61020d611439565b61025161143f565b6102516004803603602081101561051e57600080fd5b50356001600160a01b03166114bd565b610251600480360360c081101561054457600080fd5b508035906001600160a01b03602082013581169160408101358216916060820135169060808101359060a001356115a1565b6105936004803603602081101561058c57600080fd5b5035611bd0565b604080519687526020870195909552858501939093526060850191909152608084015260a0830152519081900360c00190f35b610251600480360360208110156105dc57600080fd5b50356001600160a01b0316611c07565b6102516004803603606081101561060257600080fd5b5080359060208101359060400135611c6b565b6102516004803603602081101561062b57600080fd5b50356001600160a01b0316611e3a565b6102516004803603606081101561065157600080fd5b506001600160a01b03813581169160208101359091169060400135611e9e565b61020d6004803603602081101561068757600080fd5b50356001600160a01b0316611fa0565b61020d611fb2565b610251600480360360408110156106b557600080fd5b5080359060200135611fb8565b600160209081526000928352604080842090915290825290205481565b3360009081526020819052604090205460011461072d5760405162461bcd60e51b81526004018080602001828103825260218152602001806125656021913960400191505060405180910390fd5b600b54600114610772576040805162461bcd60e51b815260206004820152601f6024820152600080516020612445833981519152604482015290519081900360640190fd5b6000838152600260205260409020600181015461078f90836120d0565b600182015580546000906107a3908461217f565b6001600160a01b0385166000908152600560205260409020549091506107c990826120d0565b6001600160a01b0385166000908152600560205260409020556008546107ef90826120d0565b60088190556001600160a01b038516600081815260056020908152604091829020548251938452908301879052828201526060820192909252905186917f5b9f54db46fa62a65324e3e9cad8e6fa0deb965ce36134b30377d7edd3a8136f919081900360800190a25050505050565b60066020526000908152604090205481565b336000908152602081905260409020546001146108be5760405162461bcd60e51b81526004018080602001828103825260218152602001806125656021913960400191505060405180910390fd5b6001600160a01b0383166000908152600660205260409020546108e1908261223e565b6001600160a01b03808516600090815260066020908152604080832094909455918516815260059091522054610917908261223e565b6001600160a01b03831660009081526005602052604090205560095461093d908261223e565b60095560085461094d908261223e565b60088190556001600160a01b0384811660008181526006602090815260408083205494881680845260058352928190205460095482518981529384019690965282820152606082019490945260808101949094529151919290917fede723541c3aae745504c3732f6a7161031353ddf05caba15d48b1edd35646b99181900360a00190a3505050565b60095481565b60006020819052908152604090205481565b33600081815260066020526040902054610a089083612280565b6001600160a01b038216600090815260066020908152604080832093909355600590522054610a379083612280565b6001600160a01b038216600090815260056020526040902055600954610a5d9083612280565b600955600854610a6d9083612280565b60088190556001600160a01b03821660008181526006602090815260408083205460058352928190205460095482518981529384019490945282820152606082019290925260808101939093525190917f11000f3497809a546a9de313df16f9ce615e1c65098ba758180e1cac823ed415919081900360a00190a25050565b600a5481565b33600090815260208190526040902054600114610b405760405162461bcd60e51b81526004018080602001828103825260218152602001806125656021913960400191505060405180910390fd5b600b54600114610b85576040805162461bcd60e51b815260206004820152601f6024820152600080516020612445833981519152604482015290519081900360640190fd5b6001600160a01b0381166000818152602081815260409182902060019055815192835290517f599a298163e1678bb1c676052a8930bf0b8a1261ed6e01b8a2391e55f70001029281900390910190a150565b60036020908152600092835260408084209091529082529020805460019091015482565b600b5481565b60008581526003602090815260408083206001600160a01b0388811685529083528184209087168452818420898552600290935292208254610c4390866122c2565b83556001830154610c5490856122c2565b60018401558154610c6590866120d0565b82556001820154610c7690856120d0565b82600101819055506000610c9284600101548360010154612371565b90506000610ca884600101548460010154612371565b9050610cc6610cb78a336112e7565b610cc18a336112e7565b6123c7565b610d10576040805162461bcd60e51b815260206004820152601660248201527514d05191515b99da5b994bdb9bdd0b585b1b1bddd95960521b604482015290519081900360640190fd5b610d2285600001548460020154612371565b821115610d76576040805162461bcd60e51b815260206004820152601760248201527f53414645456e67696e652f6e6f742d736166652d737263000000000000000000604482015290519081900360640190fd5b610d8884600001548460020154612371565b811115610ddc576040805162461bcd60e51b815260206004820152601760248201527f53414645456e67696e652f6e6f742d736166652d647374000000000000000000604482015290519081900360640190fd5b610df4836004015483101586600101546000146123cb565b610e3b576040805162461bcd60e51b815260206004820152601360248201527253414645456e67696e652f647573742d73726360681b604482015290519081900360640190fd5b610e53836004015482101585600101546000146123cb565b610e9a576040805162461bcd60e51b815260206004820152601360248201527214d05191515b99da5b994bd91d5cdd0b591cdd606a1b604482015290519081900360640190fd5b876001600160a01b0316896001600160a01b03168b7f4b49cc19514005253f36d0517c21b92404f50cc0d9e0c070af00b96e296b08358a8a8a600001548b600101548b600001548c6001015460405180878152602001868152602001858152602001848152602001838152602001828152602001965050505050505060405180910390a450505050505050505050565b33600090815260208190526040902054600114610f785760405162461bcd60e51b81526004018080602001828103825260218152602001806125656021913960400191505060405180910390fd5b60008381526004602090815260408083206001600160a01b0386168452909152902054610fa590826120d0565b60008481526004602090815260408083206001600160a01b038716808552908352928190209390935582518481529251919286927f488ac1e40bb6e5ee1f88b998568d1de4cb595e9ce0e0d4e4d4cc4c202053f107929181900390910190a3505050565b336000908152602081905260409020546001146110575760405162461bcd60e51b81526004018080602001828103825260218152602001806125656021913960400191505060405180910390fd5b60008681526003602090815260408083206001600160a01b038916845282528083208984526002909252909120815461109090856120d0565b825560018201546110a190846120d0565b600183015580546110b290846120d0565b815560018101546000906110c6908561217f565b60008a81526004602090815260408083206001600160a01b038c1684529091529020549091506110f690866122c2565b60008a81526004602090815260408083206001600160a01b03808d16855290835281842094909455928916825260069052205461113390826122c2565b6001600160a01b03871660009081526006602052604090205560095461115990826122c2565b6009819055604080516001600160a01b038a8116825289811660208301528183018990526060820188905260808201939093529051918a16918b917f9bef7b734be54aaed05e906c2ccf923767f44a93d136b674e212ce858a6d031c919081900360a00190a3505050505050505050565b6111d483336112e7565b61121e576040805162461bcd60e51b815260206004820152601660248201527514d05191515b99da5b994bdb9bdd0b585b1b1bddd95960521b604482015290519081900360640190fd5b60008481526004602090815260408083206001600160a01b038716845290915290205461124b9082612280565b60008581526004602090815260408083206001600160a01b038881168552925280832093909355841681522054611282908261223e565b60008581526004602090815260408083206001600160a01b038088168086529184529382902094909455805185815290519287169288927fb08760a077e71005cf3651212fdbd4028d6ebc8e1844c0475f36000f2756c0d7928290030190a450505050565b6001600160a01b03828116600081815260016020818152604080842095871680855295909152822054919361131e931491146123cb565b90505b92915050565b336000908152602081905260409020546001146113755760405162461bcd60e51b81526004018080602001828103825260218152602001806125656021913960400191505060405180910390fd5b600081815260026020526040902060010154156113c35760405162461bcd60e51b81526004018080602001828103825260298152602001806124cf6029913960400191505060405180910390fd5b6000818152600260209081526040918290206b033b2e3c9fd0803ce8000000600190910155815183815291517f715b265758bcd4ecd311bede8dcca05c4b5819e0a2a5c4103abd702862ae2c359281900390910190a150565b600460209081526000928352604080842090915290825290205481565b60085481565b3360009081526020819052604090205460011461148d5760405162461bcd60e51b81526004018080602001828103825260218152602001806125656021913960400191505060405180910390fd5b6000600b8190556040517f2d4b4ecff7bd7503135271925520a2f6c0d98c9473ffc1a1e72c92502f51b25e9190a1565b3360009081526020819052604090205460011461150b5760405162461bcd60e51b81526004018080602001828103825260218152602001806125656021913960400191505060405180910390fd5b600b54600114611550576040805162461bcd60e51b815260206004820152601f6024820152600080516020612445833981519152604482015290519081900360640190fd5b6001600160a01b03811660008181526020818152604080832092909255815192835290517f8834a87e641e9716be4f34527af5d23e11624f1ddeefede6ad75a9acfc31b9039281900390910190a150565b600b546001146115e6576040805162461bcd60e51b815260206004820152601f6024820152600080516020612445833981519152604482015290519081900360640190fd5b6115ee6123cf565b5060008681526003602090815260408083206001600160a01b0389168452825291829020825180840190935280548352600101549082015261162e6123e9565b50600087815260026020818152604092839020835160c0810185528154815260018201549281018390529281015493830193909352600383015460608301526004830154608083015260059092015460a0820152906116be5760405162461bcd60e51b815260040180806020018281038252602a8152602001806124f8602a913960400191505060405180910390fd5b81516116ca90856120d0565b825260208201516116db90846120d0565b602083015280516116ec90846120d0565b81526020810151600090611700908561217f565b9050600061171683602001518560200151612371565b9050611724600854836120d0565b600881905550611760600086131561175b856060015161174c87600001518860200151612371565b1115600a5460085411156123c7565b6123cb565b6117b1576040805162461bcd60e51b815260206004820152601b60248201527f53414645456e67696e652f6365696c696e672d65786365656465640000000000604482015290519081900360640190fd5b6117e06117c6600087131560008912156123c7565b6117d886600001518660400151612371565b8311156123cb565b611827576040805162461bcd60e51b815260206004820152601360248201527253414645456e67696e652f6e6f742d7361666560681b604482015290519081900360640190fd5b61184661183c600087131560008912156123c7565b61175b8b336112e7565b6118815760405162461bcd60e51b81526004018080602001828103825260258152602001806124206025913960400191505060405180910390fd5b611893600087131561175b8a336112e7565b6118ce5760405162461bcd60e51b81526004018080602001828103825260258152602001806124aa6025913960400191505060405180910390fd5b6118e0600086121561175b89336112e7565b611931576040805162461bcd60e51b815260206004820152601f60248201527f53414645456e67696e652f6e6f742d616c6c6f7765642d646562742d64737400604482015290519081900360640190fd5b611949846020015160001484608001518310156123cb565b61198c576040805162461bcd60e51b815260206004820152600f60248201526e14d05191515b99da5b994bd91d5cdd608a1b604482015290519081900360640190fd5b60008513156119f057600754846020015111156119f0576040805162461bcd60e51b815260206004820152601b60248201527f53414645456e67696e652f61626f76652d646562742d6c696d69740000000000604482015290519081900360640190fd5b60008a81526004602090815260408083206001600160a01b038c168452909152902054611a1d90876122c2565b60008b81526004602090815260408083206001600160a01b03808e16855290835281842094909455928a168252600590522054611a5a90836120d0565b60056000896001600160a01b03166001600160a01b031681526020019081526020016000208190555083600360008c815260200190815260200160002060008b6001600160a01b03166001600160a01b03168152602001908152602001600020600082015181600001556020820151816001015590505082600260008c8152602001908152602001600020600082015181600001556020820151816001015560408201518160020155606082015181600301556080820151816004015560a08201518160050155905050886001600160a01b03168a7f182725621f9c0d485fb256f86699c82616bd6e4670325087fd08f643cab7d9178a8a8a8a8a600001518b6020015160085460405180886001600160a01b03166001600160a01b03168152602001876001600160a01b03166001600160a01b0316815260200186815260200185815260200184815260200183815260200182815260200197505050505050505060405180910390a350505050505050505050565b6002602081905260009182526040909120805460018201549282015460038301546004840154600590940154929493919290919086565b3360008181526001602090815260408083206001600160a01b0386168085529083528184209390935580519384529083019190915280517fb1b0368dbc2a1d366ba32be3f455812a3db862c3f52fd3434020a262442b1bb09281900390910190a150565b33600090815260208190526040902054600114611cb95760405162461bcd60e51b81526004018080602001828103825260218152602001806125656021913960400191505060405180910390fd5b600b54600114611cfe576040805162461bcd60e51b815260206004820152601f6024820152600080516020612445833981519152604482015290519081900360640190fd5b816a736166657479507269636560a81b1415611d2e57600083815260026020819052604090912001819055611df5565b816f6c69717569646174696f6e507269636560801b1415611d62576000838152600260205260409020600501819055611df5565b816a646562744365696c696e6760a81b1415611d91576000838152600260205260409020600301819055611df5565b81683232b13a233637b7b960b91b1415611dbe576000838152600260205260409020600401819055611df5565b60405162461bcd60e51b81526004018080602001828103825260248152602001806124656024913960400191505060405180910390fd5b604080518481526020810184905280820183905290517fc59b1109b54f213212d2f5af5c1dae5e887f9daa63b595578fae847cb048e8f49181900360600190a1505050565b3360008181526001602081815260408084206001600160a01b0387168086529083529381902092909255815193845283019190915280517ff7db8b086d1ab5e5802059364bff5428c7622c6d4623f9780947306d492770539281900390910190a150565b611ea883336112e7565b611ef2576040805162461bcd60e51b815260206004820152601660248201527514d05191515b99da5b994bdb9bdd0b585b1b1bddd95960521b604482015290519081900360640190fd5b6001600160a01b038316600090815260056020526040902054611f159082612280565b6001600160a01b038085166000908152600560205260408082209390935590841681522054611f44908261223e565b6001600160a01b0380841660008181526005602090815260409182902094909455805185815290519193928716927f4cd53b0b754082a31f5a6f3dc965c36d1d901c309830e0b4c17949aff97f0b1492918290030190a3505050565b60056020526000908152604090205481565b60075481565b336000908152602081905260409020546001146120065760405162461bcd60e51b81526004018080602001828103825260218152602001806125656021913960400191505060405180910390fd5b600b5460011461204b576040805162461bcd60e51b815260206004820152601f6024820152600080516020612445833981519152604482015290519081900360640190fd5b8170676c6f62616c446562744365696c696e6760781b141561207157600a819055612091565b816e73616665446562744365696c696e6760881b1415611dbe5760078190555b604080518381526020810183905281517fac7c5c1afaef770ec56ac6268cd3f2fbb1035858ead2601d6553157c33036c3a929181900390910190a15050565b8181016000821215806120e35750828111155b612134576040805162461bcd60e51b815260206004820181905260248201527f53414645456e67696e652f6164642d75696e742d696e742d6f766572666c6f77604482015290519081900360640190fd5b6000821315806121445750828110155b6113215760405162461bcd60e51b81526004018080602001828103825260218152602001806125446021913960400191505060405180910390fd5b81810260008312156121d8576040805162461bcd60e51b815260206004820152601e60248201527f53414645456e67696e652f6d756c2d75696e742d696e742d6e756c6c2d780000604482015290519081900360640190fd5b8115806121ed5750828282816121ea57fe5b05145b611321576040805162461bcd60e51b815260206004820181905260248201527f53414645456e67696e652f6d756c2d75696e742d696e742d6f766572666c6f77604482015290519081900360640190fd5b808201828110156113215760405162461bcd60e51b81526004018080602001828103825260218152602001806125866021913960400191505060405180910390fd5b808203828111156113215760405162461bcd60e51b81526004018080602001828103825260228152602001806125226022913960400191505060405180910390fd5b8082036000821315806122d55750828111155b612326576040805162461bcd60e51b815260206004820181905260248201527f53414645456e67696e652f7375622d75696e742d696e742d6f766572666c6f77604482015290519081900360640190fd5b6000821215806123365750828110155b6113215760405162461bcd60e51b81526004018080602001828103825260218152602001806124896021913960400191505060405180910390fd5b600081158061238c5750508082028282828161238957fe5b04145b6113215760405162461bcd60e51b81526004018080602001828103825260268152602001806125a76026913960400191505060405180910390fd5b1690565b1790565b604051806040016040528060008152602001600081525090565b6040518060c00160405280600081526020016000815260200160008152602001600081526020016000815260200160008152509056fe53414645456e67696e652f6e6f742d616c6c6f7765642d746f2d6d6f646966792d7361666553414645456e67696e652f636f6e74726163742d6e6f742d656e61626c65640053414645456e67696e652f6d6f646966792d756e7265636f676e697a65642d706172616d53414645456e67696e652f7375622d75696e742d696e742d756e646572666c6f7753414645456e67696e652f6e6f742d616c6c6f7765642d636f6c6c61746572616c2d73726353414645456e67696e652f636f6c6c61746572616c2d747970652d616c72656164792d65786973747353414645456e67696e652f636f6c6c61746572616c2d747970652d6e6f742d696e697469616c697a656453414645456e67696e652f7375622d75696e742d75696e742d756e646572666c6f7753414645456e67696e652f6164642d75696e742d696e742d756e646572666c6f7753414645456e67696e652f6163636f756e742d6e6f742d617574686f72697a656453414645456e67696e652f6164642d75696e742d75696e742d6f766572666c6f7753414645456e67696e652f6d756c7469706c792d75696e742d75696e742d6f766572666c6f77a2646970667358221220b67b730ae128f9cfd48da7fa27f156dea421376959b9d388902e8b93a4f507cd64736f6c63430006070033",
        "linkReferences": {}
    },
    "methodIdentifiers": {
        "addAuthorization(address)": "35b28153",
        "approveSAFEModification(address)": "d94d4208",
        "authorizedAccounts(address)": "24ba5884",
        "canModifySAFE(address,address)": "50de215d",
        "coinBalance(address)": "fabde80c",
        "collateralTypes(bytes32)": "d07900bb",
        "confiscateSAFECollateralAndDebt(bytes32,address,address,address,int256,int256)": "4e14a967",
        "contractEnabled()": "41b3a0d9",
        "createUnbackedDebt(address,address,uint256)": "1b142820",
        "debtBalance(address)": "11005b07",
        "denySAFEModification(address)": "d49d7867",
        "disableContract()": "894ba833",
        "globalDebt()": "8543d5e0",
        "globalDebtCeiling()": "2efcc866",
        "globalUnbackedDebt()": "1d2a783d",
        "initializeCollateralType(bytes32)": "5e412858",
        "modifyCollateralBalance(bytes32,address,int256)": "4a11825e",
        "modifyParameters(bytes32,bytes32,uint256)": "d4b9311d",
        "modifyParameters(bytes32,uint256)": "fe4f5890",
        "modifySAFECollateralization(bytes32,address,address,address,int256,int256)": "99bec315",
        "removeAuthorization(address)": "94f3f81d",
        "safeDebtCeiling()": "fd450fb7",
        "safeRights(address,address)": "06eb54df",
        "safes(bytes32,address)": "3d422504",
        "settleDebt(uint256)": "27a0bb33",
        "tokenCollateral(bytes32,address)": "76e0b4ca",
        "transferCollateral(bytes32,address,address,uint256)": "4e5111a6",
        "transferInternalCoins(address,address,uint256)": "efabcadc",
        "transferSAFECollateralAndDebt(bytes32,address,address,int256,int256)": "476bb6ef",
        "updateAccumulatedRate(bytes32,address,int256)": "0e9e11d3"
    },
    "id": 48
}