{
    "abi": [
        {
            "inputs": [
                {
                    "internalType": "address",
                    "name": "priceSource_",
                    "type": "address"
                }
            ],
            "stateMutability": "nonpayable",
            "type": "constructor"
        },
        {
            "anonymous": false,
            "inputs": [
                {
                    "indexed": false,
                    "internalType": "address",
                    "name": "account",
                    "type": "address"
                }
            ],
            "name": "AddAuthorization",
            "type": "event"
        },
        {
            "anonymous": false,
            "inputs": [
                {
                    "indexed": false,
                    "internalType": "uint16",
                    "name": "delay",
                    "type": "uint16"
                }
            ],
            "name": "ChangeDelay",
            "type": "event"
        },
        {
            "anonymous": false,
            "inputs": [
                {
                    "indexed": false,
                    "internalType": "address",
                    "name": "priceSource",
                    "type": "address"
                }
            ],
            "name": "ChangePriceSource",
            "type": "event"
        },
        {
            "anonymous": false,
            "inputs": [
                {
                    "indexed": false,
                    "internalType": "bytes",
                    "name": "revertReason",
                    "type": "bytes"
                },
                {
                    "indexed": false,
                    "internalType": "address",
                    "name": "feeReceiver",
                    "type": "address"
                },
                {
                    "indexed": false,
                    "internalType": "uint256",
                    "name": "amount",
                    "type": "uint256"
                }
            ],
            "name": "FailRewardCaller",
            "type": "event"
        },
        {
            "anonymous": false,
            "inputs": [
                {
                    "indexed": false,
                    "internalType": "bytes32",
                    "name": "parameter",
                    "type": "bytes32"
                },
                {
                    "indexed": false,
                    "internalType": "address",
                    "name": "addr",
                    "type": "address"
                }
            ],
            "name": "ModifyParameters",
            "type": "event"
        },
        {
            "anonymous": false,
            "inputs": [
                {
                    "indexed": false,
                    "internalType": "bytes32",
                    "name": "parameter",
                    "type": "bytes32"
                },
                {
                    "indexed": false,
                    "internalType": "uint256",
                    "name": "val",
                    "type": "uint256"
                }
            ],
            "name": "ModifyParameters",
            "type": "event"
        },
        {
            "anonymous": false,
            "inputs": [
                {
                    "indexed": false,
                    "internalType": "address",
                    "name": "account",
                    "type": "address"
                }
            ],
            "name": "RemoveAuthorization",
            "type": "event"
        },
        {
            "anonymous": false,
            "inputs": [],
            "name": "RestartValue",
            "type": "event"
        },
        {
            "anonymous": false,
            "inputs": [],
            "name": "Start",
            "type": "event"
        },
        {
            "anonymous": false,
            "inputs": [],
            "name": "Stop",
            "type": "event"
        },
        {
            "anonymous": false,
            "inputs": [
                {
                    "indexed": false,
                    "internalType": "uint256",
                    "name": "newMedian",
                    "type": "uint256"
                },
                {
                    "indexed": false,
                    "internalType": "uint256",
                    "name": "lastUpdateTime",
                    "type": "uint256"
                }
            ],
            "name": "UpdateResult",
            "type": "event"
        },
        {
            "inputs": [],
            "name": "RAY",
            "outputs": [
                {
                    "internalType": "uint256",
                    "name": "",
                    "type": "uint256"
                }
            ],
            "stateMutability": "view",
            "type": "function"
        },
        {
            "inputs": [],
            "name": "WAD",
            "outputs": [
                {
                    "internalType": "uint256",
                    "name": "",
                    "type": "uint256"
                }
            ],
            "stateMutability": "view",
            "type": "function"
        },
        {
            "inputs": [
                {
                    "internalType": "address",
                    "name": "account",
                    "type": "address"
                }
            ],
            "name": "addAuthorization",
            "outputs": [],
            "stateMutability": "nonpayable",
            "type": "function"
        },
        {
            "inputs": [
                {
                    "internalType": "uint256",
                    "name": "x",
                    "type": "uint256"
                },
                {
                    "internalType": "uint256",
                    "name": "y",
                    "type": "uint256"
                }
            ],
            "name": "addition",
            "outputs": [
                {
                    "internalType": "uint256",
                    "name": "z",
                    "type": "uint256"
                }
            ],
            "stateMutability": "pure",
            "type": "function"
        },
        {
            "inputs": [
                {
                    "internalType": "address",
                    "name": "",
                    "type": "address"
                }
            ],
            "name": "authorizedAccounts",
            "outputs": [
                {
                    "internalType": "uint256",
                    "name": "",
                    "type": "uint256"
                }
            ],
            "stateMutability": "view",
            "type": "function"
        },
        {
            "inputs": [],
            "name": "baseUpdateCallerReward",
            "outputs": [
                {
                    "internalType": "uint256",
                    "name": "",
                    "type": "uint256"
                }
            ],
            "stateMutability": "view",
            "type": "function"
        },
        {
            "inputs": [
                {
                    "internalType": "uint16",
                    "name": "delay",
                    "type": "uint16"
                }
            ],
            "name": "changeDelay",
            "outputs": [],
            "stateMutability": "nonpayable",
            "type": "function"
        },
        {
            "inputs": [
                {
                    "internalType": "address",
                    "name": "priceSource_",
                    "type": "address"
                }
            ],
            "name": "changePriceSource",
            "outputs": [],
            "stateMutability": "nonpayable",
            "type": "function"
        },
        {
            "inputs": [
                {
                    "internalType": "uint256",
                    "name": "timeOfLastUpdate",
                    "type": "uint256"
                },
                {
                    "internalType": "uint256",
                    "name": "defaultDelayBetweenCalls",
                    "type": "uint256"
                }
            ],
            "name": "getCallerReward",
            "outputs": [
                {
                    "internalType": "uint256",
                    "name": "",
                    "type": "uint256"
                }
            ],
            "stateMutability": "view",
            "type": "function"
        },
        {
            "inputs": [],
            "name": "getNextResultWithValidity",
            "outputs": [
                {
                    "internalType": "uint256",
                    "name": "",
                    "type": "uint256"
                },
                {
                    "internalType": "bool",
                    "name": "",
                    "type": "bool"
                }
            ],
            "stateMutability": "view",
            "type": "function"
        },
        {
            "inputs": [],
            "name": "getResultWithValidity",
            "outputs": [
                {
                    "internalType": "uint256",
                    "name": "",
                    "type": "uint256"
                },
                {
                    "internalType": "bool",
                    "name": "",
                    "type": "bool"
                }
            ],
            "stateMutability": "view",
            "type": "function"
        },
        {
            "inputs": [],
            "name": "lastUpdateTime",
            "outputs": [
                {
                    "internalType": "uint64",
                    "name": "",
                    "type": "uint64"
                }
            ],
            "stateMutability": "view",
            "type": "function"
        },
        {
            "inputs": [],
            "name": "maxRewardIncreaseDelay",
            "outputs": [
                {
                    "internalType": "uint256",
                    "name": "",
                    "type": "uint256"
                }
            ],
            "stateMutability": "view",
            "type": "function"
        },
        {
            "inputs": [],
            "name": "maxUpdateCallerReward",
            "outputs": [
                {
                    "internalType": "uint256",
                    "name": "",
                    "type": "uint256"
                }
            ],
            "stateMutability": "view",
            "type": "function"
        },
        {
            "inputs": [
                {
                    "internalType": "uint256",
                    "name": "x",
                    "type": "uint256"
                },
                {
                    "internalType": "uint256",
                    "name": "y",
                    "type": "uint256"
                }
            ],
            "name": "minimum",
            "outputs": [
                {
                    "internalType": "uint256",
                    "name": "z",
                    "type": "uint256"
                }
            ],
            "stateMutability": "pure",
            "type": "function"
        },
        {
            "inputs": [
                {
                    "internalType": "bytes32",
                    "name": "parameter",
                    "type": "bytes32"
                },
                {
                    "internalType": "address",
                    "name": "val",
                    "type": "address"
                }
            ],
            "name": "modifyParameters",
            "outputs": [],
            "stateMutability": "nonpayable",
            "type": "function"
        },
        {
            "inputs": [
                {
                    "internalType": "bytes32",
                    "name": "parameter",
                    "type": "bytes32"
                },
                {
                    "internalType": "uint256",
                    "name": "val",
                    "type": "uint256"
                }
            ],
            "name": "modifyParameters",
            "outputs": [],
            "stateMutability": "nonpayable",
            "type": "function"
        },
        {
            "inputs": [
                {
                    "internalType": "uint256",
                    "name": "x",
                    "type": "uint256"
                },
                {
                    "internalType": "uint256",
                    "name": "y",
                    "type": "uint256"
                }
            ],
            "name": "multiply",
            "outputs": [
                {
                    "internalType": "uint256",
                    "name": "z",
                    "type": "uint256"
                }
            ],
            "stateMutability": "pure",
            "type": "function"
        },
        {
            "inputs": [],
            "name": "passedDelay",
            "outputs": [
                {
                    "internalType": "bool",
                    "name": "ok",
                    "type": "bool"
                }
            ],
            "stateMutability": "view",
            "type": "function"
        },
        {
            "inputs": [],
            "name": "perSecondCallerRewardIncrease",
            "outputs": [
                {
                    "internalType": "uint256",
                    "name": "",
                    "type": "uint256"
                }
            ],
            "stateMutability": "view",
            "type": "function"
        },
        {
            "inputs": [],
            "name": "priceSource",
            "outputs": [
                {
                    "internalType": "address",
                    "name": "",
                    "type": "address"
                }
            ],
            "stateMutability": "view",
            "type": "function"
        },
        {
            "inputs": [
                {
                    "internalType": "uint256",
                    "name": "x",
                    "type": "uint256"
                }
            ],
            "name": "rad",
            "outputs": [
                {
                    "internalType": "uint256",
                    "name": "z",
                    "type": "uint256"
                }
            ],
            "stateMutability": "pure",
            "type": "function"
        },
        {
            "inputs": [
                {
                    "internalType": "uint256",
                    "name": "x",
                    "type": "uint256"
                }
            ],
            "name": "ray",
            "outputs": [
                {
                    "internalType": "uint256",
                    "name": "z",
                    "type": "uint256"
                }
            ],
            "stateMutability": "pure",
            "type": "function"
        },
        {
            "inputs": [
                {
                    "internalType": "uint256",
                    "name": "x",
                    "type": "uint256"
                },
                {
                    "internalType": "uint256",
                    "name": "y",
                    "type": "uint256"
                }
            ],
            "name": "rdivide",
            "outputs": [
                {
                    "internalType": "uint256",
                    "name": "z",
                    "type": "uint256"
                }
            ],
            "stateMutability": "pure",
            "type": "function"
        },
        {
            "inputs": [],
            "name": "read",
            "outputs": [
                {
                    "internalType": "uint256",
                    "name": "",
                    "type": "uint256"
                }
            ],
            "stateMutability": "view",
            "type": "function"
        },
        {
            "inputs": [
                {
                    "internalType": "address",
                    "name": "account",
                    "type": "address"
                }
            ],
            "name": "removeAuthorization",
            "outputs": [],
            "stateMutability": "nonpayable",
            "type": "function"
        },
        {
            "inputs": [],
            "name": "restartValue",
            "outputs": [],
            "stateMutability": "nonpayable",
            "type": "function"
        },
        {
            "inputs": [
                {
                    "internalType": "uint256",
                    "name": "x",
                    "type": "uint256"
                },
                {
                    "internalType": "uint256",
                    "name": "y",
                    "type": "uint256"
                }
            ],
            "name": "rmultiply",
            "outputs": [
                {
                    "internalType": "uint256",
                    "name": "z",
                    "type": "uint256"
                }
            ],
            "stateMutability": "pure",
            "type": "function"
        },
        {
            "inputs": [
                {
                    "internalType": "uint256",
                    "name": "x",
                    "type": "uint256"
                },
                {
                    "internalType": "uint256",
                    "name": "n",
                    "type": "uint256"
                },
                {
                    "internalType": "uint256",
                    "name": "base",
                    "type": "uint256"
                }
            ],
            "name": "rpower",
            "outputs": [
                {
                    "internalType": "uint256",
                    "name": "z",
                    "type": "uint256"
                }
            ],
            "stateMutability": "pure",
            "type": "function"
        },
        {
            "inputs": [],
            "name": "start",
            "outputs": [],
            "stateMutability": "nonpayable",
            "type": "function"
        },
        {
            "inputs": [],
            "name": "stop",
            "outputs": [],
            "stateMutability": "nonpayable",
            "type": "function"
        },
        {
            "inputs": [],
            "name": "stopped",
            "outputs": [
                {
                    "internalType": "uint256",
                    "name": "",
                    "type": "uint256"
                }
            ],
            "stateMutability": "view",
            "type": "function"
        },
        {
            "inputs": [
                {
                    "internalType": "uint256",
                    "name": "x",
                    "type": "uint256"
                },
                {
                    "internalType": "uint256",
                    "name": "y",
                    "type": "uint256"
                }
            ],
            "name": "subtract",
            "outputs": [
                {
                    "internalType": "uint256",
                    "name": "z",
                    "type": "uint256"
                }
            ],
            "stateMutability": "pure",
            "type": "function"
        },
        {
            "inputs": [],
            "name": "treasury",
            "outputs": [
                {
                    "internalType": "contract StabilityFeeTreasuryLike",
                    "name": "",
                    "type": "address"
                }
            ],
            "stateMutability": "view",
            "type": "function"
        },
        {
            "inputs": [],
            "name": "treasuryAllowance",
            "outputs": [
                {
                    "internalType": "uint256",
                    "name": "",
                    "type": "uint256"
                }
            ],
            "stateMutability": "view",
            "type": "function"
        },
        {
            "inputs": [],
            "name": "updateDelay",
            "outputs": [
                {
                    "internalType": "uint16",
                    "name": "",
                    "type": "uint16"
                }
            ],
            "stateMutability": "view",
            "type": "function"
        },
        {
            "inputs": [],
            "name": "updateResult",
            "outputs": [],
            "stateMutability": "nonpayable",
            "type": "function"
        },
        {
            "inputs": [
                {
                    "internalType": "uint256",
                    "name": "x",
                    "type": "uint256"
                },
                {
                    "internalType": "uint256",
                    "name": "y",
                    "type": "uint256"
                }
            ],
            "name": "wdivide",
            "outputs": [
                {
                    "internalType": "uint256",
                    "name": "z",
                    "type": "uint256"
                }
            ],
            "stateMutability": "pure",
            "type": "function"
        },
        {
            "inputs": [
                {
                    "internalType": "uint256",
                    "name": "x",
                    "type": "uint256"
                },
                {
                    "internalType": "uint256",
                    "name": "y",
                    "type": "uint256"
                }
            ],
            "name": "wmultiply",
            "outputs": [
                {
                    "internalType": "uint256",
                    "name": "z",
                    "type": "uint256"
                }
            ],
            "stateMutability": "pure",
            "type": "function"
        }
    ],
    "bytecode": {
        "object": "0x60806040526002805461ffff60a01b191660e160a41b1790553480156200002557600080fd5b5060405162001de638038062001de6833981810160405260208110156200004b57600080fd5b505133600090815260208190526040902060019055600280546001600160a01b0319166001600160a01b03808416919091179182905582911615620001ae57600080620000a06001600160e01b036200022e16565b915091508015620001ab57604080518082019091526001600160801b038084168083526001602090930192909252600480546001600160801b03199081169093178216600160801b90811791829055600380548284048516909202919094169183169190911790911617905562000132620001236001600160e01b03620002f216565b6001600160e01b03620002f616565b60028054600160b01b600160f01b031916600160b01b6001600160401b0393841681029190911791829055600354604080516001600160801b03909216825291909204909216602082015281517ff85e44c6c3597d176b8d59bfbf500dfdb2badfc8cf91e6d960b16583a5807e48929181900390910190a15b50505b6040805133815290517f599a298163e1678bb1c676052a8930bf0b8a1261ed6e01b8a2391e55f70001029181900360200190a1600254604080516001600160a01b039092168252517fe64aaa084ff9fb9651f314c5d25888701090b34db4f4809b517e863c62bd85089181900360200190a1505060001960075562000379565b600254604080516309fa15b560e31b8152815160009384936001600160a01b0390911692634fd0ada89260048083019392829003018186803b1580156200027457600080fd5b505afa925050508015620002a257506040513d60408110156200029657600080fd5b50805160209091015160015b620002e8573d808015620002d3576040519150601f19603f3d011682016040523d82523d6000602084013e620002d8565b606091505b5060009250829150620002ee9050565b90925090505b9091565b4290565b600254600090600160a01b900461ffff1662000359576040805162461bcd60e51b815260206004820152601860248201527f4f534d2f7570646174652d64656c61792d69732d7a65726f0000000000000000604482015290519081900360640190fd5b600254600160a01b900461ffff1682816200037057fe5b06909103919050565b611a5d80620003896000396000f3fe608060405234801561001057600080fd5b506004361061023d5760003560e01c8063552033c41161013b57806394f3f81d116100b8578063d6e882dc1161007c578063d6e882dc14610564578063dd2d2a121461058d578063f238ffd2146105b0578063f752fdc3146105d3578063fe4f5890146105f65761023d565b806394f3f81d146104e6578063a08716371461050c578063be9a65551461052f578063c8f33c9114610537578063ceedd63d1461055c5761023d565b80636614f010116100ff5780636614f0101461049a57806369dec276146104c65780636a146024146104ce57806375f12b21146104d657806380ebb08e146104de5761023d565b8063552033c414610447578063554f94db1461044f57806357de26a41461046e57806361d027b31461047657806363bfa88b1461047e5761023d565b80633425677e116101c957806343943b6b1161018d57806343943b6b146103d657806346f3e81c146103de5780634f0a32de146103fb5780634fd0ada81461041c57806354f363a3146104245761023d565b80633425677e1461033c57806335b28153146103445780633c8bb3e61461036a5780633ef5e4451461038d5780633fcdfe26146103b05761023d565b80631c1f908c116102105780631c1f908c146102c15780632009e568146102c957806320531bc9146102d157806324ba5884146102f55780632b9c7ee31461031b5761023d565b8063056640b71461024257806307da68f5146102775780631021344714610281578063165c4a161461029e575b600080fd5b6102656004803603604081101561025857600080fd5b5080359060200135610619565b60408051918252519081900360200190f35b61027f610640565b005b6102656004803603602081101561029757600080fd5b50356106c1565b610265600480360360408110156102b457600080fd5b50803590602001356106d7565b61026561073c565b610265610742565b6102d9610748565b604080516001600160a01b039092168252519081900360200190f35b6102656004803603602081101561030b57600080fd5b50356001600160a01b0316610757565b61027f6004803603602081101561033157600080fd5b503561ffff16610769565b610265610866565b61027f6004803603602081101561035a57600080fd5b50356001600160a01b03166108fd565b6102656004803603604081101561038057600080fd5b50803590602001356109a1565b610265600480360360408110156103a357600080fd5b50803590602001356109b6565b61027f600480360360208110156103c657600080fd5b50356001600160a01b0316610a0e565b610265610aba565b610265600480360360208110156103f457600080fd5b5035610ac0565b610403610ad7565b6040805192835290151560208301528051918290030190f35b610403610af6565b6102656004803603604081101561043a57600080fd5b5080359060200135610b14565b610265610b65565b610457610b74565b6040805161ffff9092168252519081900360200190f35b610265610b85565b6102d9610bf6565b610486610c05565b604080519115158252519081900360200190f35b61027f600480360360408110156104b057600080fd5b50803590602001356001600160a01b0316610c4a565b610265610da8565b610265610dae565b610265610dba565b61027f610dc0565b61027f600480360360208110156104fc57600080fd5b50356001600160a01b0316610f9c565b6102656004803603604081101561052257600080fd5b508035906020013561103f565b61027f611057565b61053f6110d9565b6040805167ffffffffffffffff9092168252519081900360200190f35b61027f6110f0565b6102656004803603606081101561057a57600080fd5b508035906020810135906040013561118e565b610265600480360360408110156105a357600080fd5b508035906020013561124c565b610265600480360360408110156105c657600080fd5b5080359060200135611265565b610265600480360360408110156105e957600080fd5b5080359060200135611365565b61027f6004803603604081101561060c57600080fd5b508035906020013561137a565b6000676765c793fa10079d601b1b61063184846106d7565b8161063857fe5b049392505050565b33600090815260208190526040902054600114610692576040805162461bcd60e51b815260206004820152601a6024820152600080516020611a08833981519152604482015290519081900360640190fd5b600180556040517fbedf0f4abfe86d4ffad593d9607fe70e83ea706033d44d24b3b6283cf3fc4f6b90600090a1565b60006106d182633b9aca006106d7565b92915050565b60008115806106f2575050808202828282816106ef57fe5b04145b6106d1576040805162461bcd60e51b815260206004820152601660248201527575696e742d75696e742d6d756c2d6f766572666c6f7760501b604482015290519081900360640190fd5b60055481565b60075481565b6002546001600160a01b031681565b60006020819052908152604090205481565b336000908152602081905260409020546001146107bb576040805162461bcd60e51b815260206004820152601a6024820152600080516020611a08833981519152604482015290519081900360640190fd5b60008161ffff1611610808576040805162461bcd60e51b81526020600482015260116024820152704f534d2f64656c61792d69732d7a65726f60781b604482015290519081900360640190fd5b6002805461ffff808416600160a01b90810261ffff60a01b199093169290921792839055604080519290930416815290517fe5e55d7a00a8da3c2d2be2af849b5680612dc299cf26e12a879220d5f42ea2319181900360200190a150565b600954604080516375ad331760e11b81523060048201528151600093849384936001600160a01b039092169263eb5a662e926024808201939291829003018186803b1580156108b457600080fd5b505afa1580156108c8573d6000803e3d6000fd5b505050506040513d60408110156108de57600080fd5b50805160209091015190925090506108f6828261124c565b9250505090565b3360009081526020819052604090205460011461094f576040805162461bcd60e51b815260206004820152601a6024820152600080516020611a08833981519152604482015290519081900360640190fd5b6001600160a01b0381166000818152602081815260409182902060019055815192835290517f599a298163e1678bb1c676052a8930bf0b8a1261ed6e01b8a2391e55f70001029281900390910190a150565b6000670de0b6b3a764000061063184846106d7565b808203828111156106d1576040805162461bcd60e51b815260206004820152601760248201527f75696e742d75696e742d7375622d756e646572666c6f77000000000000000000604482015290519081900360640190fd5b33600090815260208190526040902054600114610a60576040805162461bcd60e51b815260206004820152601a6024820152600080516020611a08833981519152604482015290519081900360640190fd5b600280546001600160a01b0319166001600160a01b03838116919091179182905560408051929091168252517fe64aaa084ff9fb9651f314c5d25888701090b34db4f4809b517e863c62bd8508916020908290030190a150565b60085481565b60006106d182676765c793fa10079d601b1b6106d7565b6004546001600160801b0380821691600160801b9004166001145b9091565b6003546001600160801b0380821691600160801b9004166001149091565b818101828110156106d1576040805162461bcd60e51b815260206004820152601660248201527575696e742d75696e742d6164642d6f766572666c6f7760501b604482015290519081900360640190fd5b676765c793fa10079d601b1b81565b600254600160a01b900461ffff1681565b600354600090600160801b90046001600160801b0316600114610be6576040805162461bcd60e51b81526020600482015260146024820152734f534d2f6e6f2d63757272656e742d76616c756560601b604482015290519081900360640190fd5b506003546001600160801b031690565b6009546001600160a01b031681565b600254600090610c3190600160b01b810467ffffffffffffffff1690600160a01b900461ffff166115d9565b67ffffffffffffffff16610c436115f6565b1015905090565b33600090815260208190526040902054600114610c9c576040805162461bcd60e51b815260206004820152601a6024820152600080516020611a08833981519152604482015290519081900360640190fd5b8167747265617375727960c01b1415610d2a576001600160a01b038116610d0a576040805162461bcd60e51b815260206004820152601e60248201527f53656c6646756e6465644f534d2f696e76616c69642d74726561737572790000604482015290519081900360640190fd5b600980546001600160a01b0319166001600160a01b038316179055610d61565b60405162461bcd60e51b81526004018080602001828103825260278152602001806119916027913960400191505060405180910390fd5b604080518381526001600160a01b038316602082015281517fd91f38cf03346b5dc15fb60f9076f866295231ad3c3841a1051f8443f25170d1929181900390910190a15050565b60065481565b670de0b6b3a764000081565b60015481565b60015415610e06576040805162461bcd60e51b815260206004820152600e60248201526d13d4d34bda5ccb5cdd1bdc1c195960921b604482015290519081900360640190fd5b610e0e610c05565b610e5f576040805162461bcd60e51b815260206004820152601860248201527f53656c6646756e6465644f534d2f6e6f742d7061737365640000000000000000604482015290519081900360640190fd5b600080610e6a6115fa565b915091508015610f9857600254600090610ea090600160b01b810467ffffffffffffffff1690600160a01b900461ffff16611265565b6004805460038054600160801b8084046001600160801b0390811682026fffffffffffffffffffffffffffffffff19938416828716178216179093556040805180820190915289841680825260016020909201919091529190931617161790559050610f12610f0d6115f6565b6116b7565b6002805467ffffffffffffffff60b01b1916600160b01b67ffffffffffffffff93841681029190911791829055600354604080516001600160801b03909216825291909204909216602082015281517ff85e44c6c3597d176b8d59bfbf500dfdb2badfc8cf91e6d960b16583a5807e48929181900390910190a1610f963382611738565b505b5050565b33600090815260208190526040902054600114610fee576040805162461bcd60e51b815260206004820152601a6024820152600080516020611a08833981519152604482015290519081900360640190fd5b6001600160a01b03811660008181526020818152604080832092909255815192835290517f8834a87e641e9716be4f34527af5d23e11624f1ddeefede6ad75a9acfc31b9039281900390910190a150565b60008161063184676765c793fa10079d601b1b6106d7565b336000908152602081905260409020546001146110a9576040805162461bcd60e51b815260206004820152601a6024820152600080516020611a08833981519152604482015290519081900360640190fd5b600060018190556040517f1b55ba3aa851a46be3b365aee5b5c140edd620d578922f3e8466d2cbd96f954b9190a1565b600254600160b01b900467ffffffffffffffff1681565b33600090815260208190526040902054600114611142576040805162461bcd60e51b815260206004820152601a6024820152600080516020611a08833981519152604482015290519081900360640190fd5b60408051808201825260008082526020909101819052600481905560038190556001805590517f34cd470f8814066090f532fe3cb8158c5d974d7a01f4ada846dc9869e7e9d59a9190a1565b600083801561122e576001841680156111a9578592506111ad565b8392505b50600283046002850494505b84156112285785860286878204146111d057600080fd5b818101818110156111e057600080fd5b859004965050600185161561121d57858302838782041415871515161561120657600080fd5b8181018181101561121657600080fd5b8590049350505b6002850494506111b9565b50611244565b83801561123e5760009250611242565b8392505b505b509392505050565b60008183111561125c578161125e565b825b9392505050565b600080600554600014801561127a5750600654155b90506112894285101582611967565b156112985760009150506106d1565b600084156112af576112aa42866109b6565b6112b1565b835b90506112c4848210600554600014611967565b156112d4576000925050506106d1565b60006112e082866109b6565b9050600061130b600654676765c793fa10079d601b1b6112fe610866565b8161130557fe5b0461124c565b90506007548211156113225793506106d192505050565b600554821561134f5761134c61134660085485676765c793fa10079d601b1b61118e565b82610619565b90505b8181111561135a5750805b979650505050505050565b60008161063184670de0b6b3a76400006106d7565b336000908152602081905260409020546001146113cc576040805162461bcd60e51b815260206004820152601a6024820152600080516020611a08833981519152604482015290519081900360640190fd5b817518985cd9555c19185d1950d85b1b195c94995dd85c9960521b141561143757600654811061142d5760405162461bcd60e51b81526004018080602001828103825260288152602001806119b86028913960400191505060405180910390fd5b600581905561159a565b81741b585e155c19185d1950d85b1b195c94995dd85c99605a1b14156114b8576005548110156114ae576040805162461bcd60e51b815260206004820181905260248201527f53656c6646756e6465644f534d2f696e76616c69642d6d61782d726577617264604482015290519081900360640190fd5b600681905561159a565b817f7065725365636f6e6443616c6c6572526577617264496e637265617365000000141561153457676765c793fa10079d601b1b81101561152a5760405162461bcd60e51b815260040180806020018281038252602581526020018061196c6025913960400191505060405180910390fd5b600881905561159a565b81756d6178526577617264496e63726561736544656c617960501b1415610d2a57600081116115945760405162461bcd60e51b81526004018080602001828103825260288152602001806119e06028913960400191505060405180910390fd5b60078190555b604080518381526020810183905281517fac7c5c1afaef770ec56ac6268cd3f2fbb1035858ead2601d6553157c33036c3a929181900390910190a15050565b81810167ffffffffffffffff80841690821610156106d157600080fd5b4290565b600254604080516309fa15b560e31b8152815160009384936001600160a01b0390911692634fd0ada89260048083019392829003018186803b15801561163f57600080fd5b505afa92505050801561166b57506040513d604081101561165f57600080fd5b50805160209091015160015b6116ad573d808015611699576040519150601f19603f3d011682016040523d82523d6000602084013e61169e565b606091505b5060009250829150610af29050565b9092509050610af2565b600254600090600160a01b900461ffff16611719576040805162461bcd60e51b815260206004820152601860248201527f4f534d2f7570646174652d64656c61792d69732d7a65726f0000000000000000604482015290519081900360640190fd5b600254600160a01b900461ffff16828161172f57fe5b06909103919050565b6009546001600160a01b038381169116141561175357610f98565b60095461176b906001600160a01b0316158215611967565b1561177557610f98565b60006001600160a01b0383161561178c578261178e565b335b6009546040805163a7e9445560e01b815290519293506001600160a01b039091169163201add9b918491849163a7e94455916004808301926020929190829003018186803b1580156117df57600080fd5b505afa1580156117f3573d6000803e3d6000fd5b505050506040513d602081101561180957600080fd5b5051604080516001600160e01b031960e086901b1681526001600160a01b0393841660048201529290911660248301526044820186905251606480830192600092919082900301818387803b15801561186157600080fd5b505af1925050508015611872575060015b610f96573d8080156118a0576040519150601f19603f3d011682016040523d82523d6000602084013e6118a5565b606091505b507ff7bf1f7447ce563690edb2abe40636178ff64fc766b07bf3e171b16102794a548183856040518080602001846001600160a01b03166001600160a01b03168152602001838152602001828103825285818151815260200191508051906020019080838360005b8381101561192557818101518382015260200161190d565b50505050905090810190601f1680156119525780820380516001836020036101000a031916815260200191505b5094505050505060405180910390a150610f96565b179056fe53656c6646756e6465644f534d2f696e76616c69642d7265776172642d696e63726561736553656c6646756e6465644f534d2f6d6f646966792d756e7265636f676e697a65642d706172616d53656c6646756e6465644f534d2f696e76616c69642d626173652d63616c6c65722d72657761726453656c6646756e6465644f534d2f696e76616c69642d6d61782d696e6372656173652d64656c61794f534d2f6163636f756e742d6e6f742d617574686f72697a6564000000000000a26469706673582212201fa94300447245ea03a65a4ef195e866a5a3963764718e155ccb9e5c81723d5c64736f6c63430006070033",
        "linkReferences": {}
    },
    "methodIdentifiers": {
        "RAY()": "552033c4",
        "WAD()": "6a146024",
        "addAuthorization(address)": "35b28153",
        "addition(uint256,uint256)": "54f363a3",
        "authorizedAccounts(address)": "24ba5884",
        "baseUpdateCallerReward()": "1c1f908c",
        "changeDelay(uint16)": "2b9c7ee3",
        "changePriceSource(address)": "3fcdfe26",
        "getCallerReward(uint256,uint256)": "f238ffd2",
        "getNextResultWithValidity()": "4f0a32de",
        "getResultWithValidity()": "4fd0ada8",
        "lastUpdateTime()": "c8f33c91",
        "maxRewardIncreaseDelay()": "2009e568",
        "maxUpdateCallerReward()": "69dec276",
        "minimum(uint256,uint256)": "dd2d2a12",
        "modifyParameters(bytes32,address)": "6614f010",
        "modifyParameters(bytes32,uint256)": "fe4f5890",
        "multiply(uint256,uint256)": "165c4a16",
        "passedDelay()": "63bfa88b",
        "perSecondCallerRewardIncrease()": "43943b6b",
        "priceSource()": "20531bc9",
        "rad(uint256)": "46f3e81c",
        "ray(uint256)": "10213447",
        "rdivide(uint256,uint256)": "a0871637",
        "read()": "57de26a4",
        "removeAuthorization(address)": "94f3f81d",
        "restartValue()": "ceedd63d",
        "rmultiply(uint256,uint256)": "056640b7",
        "rpower(uint256,uint256,uint256)": "d6e882dc",
        "start()": "be9a6555",
        "stop()": "07da68f5",
        "stopped()": "75f12b21",
        "subtract(uint256,uint256)": "3ef5e445",
        "treasury()": "61d027b3",
        "treasuryAllowance()": "3425677e",
        "updateDelay()": "554f94db",
        "updateResult()": "80ebb08e",
        "wdivide(uint256,uint256)": "f752fdc3",
        "wmultiply(uint256,uint256)": "3c8bb3e6"
    },
    "id": 26
}