{
    "abi": [
        {
            "inputs": [
                {
                    "internalType": "address",
                    "name": "safeEngine_",
                    "type": "address"
                }
            ],
            "stateMutability": "nonpayable",
            "type": "constructor"
        },
        {
            "anonymous": false,
            "inputs": [
                {
                    "indexed": false,
                    "internalType": "address",
                    "name": "account",
                    "type": "address"
                }
            ],
            "name": "AddAuthorization",
            "type": "event"
        },
        {
            "anonymous": false,
            "inputs": [
                {
                    "indexed": true,
                    "internalType": "bytes32",
                    "name": "collateralType",
                    "type": "bytes32"
                },
                {
                    "indexed": false,
                    "internalType": "uint256",
                    "name": "secondaryReceiverNonce",
                    "type": "uint256"
                },
                {
                    "indexed": false,
                    "internalType": "uint256",
                    "name": "latestSecondaryReceiver",
                    "type": "uint256"
                },
                {
                    "indexed": false,
                    "internalType": "uint256",
                    "name": "secondaryReceiverAllotedTax",
                    "type": "uint256"
                },
                {
                    "indexed": false,
                    "internalType": "uint256",
                    "name": "secondaryReceiverRevenueSources",
                    "type": "uint256"
                }
            ],
            "name": "AddSecondaryReceiver",
            "type": "event"
        },
        {
            "anonymous": false,
            "inputs": [
                {
                    "indexed": true,
                    "internalType": "bytes32",
                    "name": "collateralType",
                    "type": "bytes32"
                },
                {
                    "indexed": false,
                    "internalType": "uint256",
                    "name": "latestAccumulatedRate",
                    "type": "uint256"
                },
                {
                    "indexed": false,
                    "internalType": "int256",
                    "name": "deltaRate",
                    "type": "int256"
                }
            ],
            "name": "CollectTax",
            "type": "event"
        },
        {
            "anonymous": false,
            "inputs": [
                {
                    "indexed": true,
                    "internalType": "bytes32",
                    "name": "collateralType",
                    "type": "bytes32"
                },
                {
                    "indexed": true,
                    "internalType": "address",
                    "name": "target",
                    "type": "address"
                },
                {
                    "indexed": false,
                    "internalType": "int256",
                    "name": "taxCut",
                    "type": "int256"
                }
            ],
            "name": "DistributeTax",
            "type": "event"
        },
        {
            "anonymous": false,
            "inputs": [
                {
                    "indexed": false,
                    "internalType": "bytes32",
                    "name": "collateralType",
                    "type": "bytes32"
                }
            ],
            "name": "InitializeCollateralType",
            "type": "event"
        },
        {
            "anonymous": false,
            "inputs": [
                {
                    "indexed": false,
                    "internalType": "bytes32",
                    "name": "collateralType",
                    "type": "bytes32"
                },
                {
                    "indexed": false,
                    "internalType": "bytes32",
                    "name": "parameter",
                    "type": "bytes32"
                },
                {
                    "indexed": false,
                    "internalType": "uint256",
                    "name": "data",
                    "type": "uint256"
                }
            ],
            "name": "ModifyParameters",
            "type": "event"
        },
        {
            "anonymous": false,
            "inputs": [
                {
                    "indexed": false,
                    "internalType": "bytes32",
                    "name": "parameter",
                    "type": "bytes32"
                },
                {
                    "indexed": false,
                    "internalType": "uint256",
                    "name": "data",
                    "type": "uint256"
                }
            ],
            "name": "ModifyParameters",
            "type": "event"
        },
        {
            "anonymous": false,
            "inputs": [
                {
                    "indexed": false,
                    "internalType": "bytes32",
                    "name": "parameter",
                    "type": "bytes32"
                },
                {
                    "indexed": false,
                    "internalType": "address",
                    "name": "data",
                    "type": "address"
                }
            ],
            "name": "ModifyParameters",
            "type": "event"
        },
        {
            "anonymous": false,
            "inputs": [
                {
                    "indexed": false,
                    "internalType": "bytes32",
                    "name": "collateralType",
                    "type": "bytes32"
                },
                {
                    "indexed": false,
                    "internalType": "uint256",
                    "name": "position",
                    "type": "uint256"
                },
                {
                    "indexed": false,
                    "internalType": "uint256",
                    "name": "val",
                    "type": "uint256"
                }
            ],
            "name": "ModifyParameters",
            "type": "event"
        },
        {
            "anonymous": false,
            "inputs": [
                {
                    "indexed": false,
                    "internalType": "bytes32",
                    "name": "collateralType",
                    "type": "bytes32"
                },
                {
                    "indexed": false,
                    "internalType": "uint256",
                    "name": "position",
                    "type": "uint256"
                },
                {
                    "indexed": false,
                    "internalType": "uint256",
                    "name": "taxPercentage",
                    "type": "uint256"
                },
                {
                    "indexed": false,
                    "internalType": "address",
                    "name": "receiverAccount",
                    "type": "address"
                }
            ],
            "name": "ModifyParameters",
            "type": "event"
        },
        {
            "anonymous": false,
            "inputs": [
                {
                    "indexed": true,
                    "internalType": "bytes32",
                    "name": "collateralType",
                    "type": "bytes32"
                },
                {
                    "indexed": false,
                    "internalType": "uint256",
                    "name": "secondaryReceiverNonce",
                    "type": "uint256"
                },
                {
                    "indexed": false,
                    "internalType": "uint256",
                    "name": "latestSecondaryReceiver",
                    "type": "uint256"
                },
                {
                    "indexed": false,
                    "internalType": "uint256",
                    "name": "secondaryReceiverAllotedTax",
                    "type": "uint256"
                },
                {
                    "indexed": false,
                    "internalType": "uint256",
                    "name": "secondaryReceiverRevenueSources",
                    "type": "uint256"
                }
            ],
            "name": "ModifySecondaryReceiver",
            "type": "event"
        },
        {
            "anonymous": false,
            "inputs": [
                {
                    "indexed": false,
                    "internalType": "address",
                    "name": "account",
                    "type": "address"
                }
            ],
            "name": "RemoveAuthorization",
            "type": "event"
        },
        {
            "inputs": [],
            "name": "INT256_MIN",
            "outputs": [
                {
                    "internalType": "int256",
                    "name": "",
                    "type": "int256"
                }
            ],
            "stateMutability": "view",
            "type": "function"
        },
        {
            "inputs": [],
            "name": "ONE",
            "outputs": [
                {
                    "internalType": "uint256",
                    "name": "",
                    "type": "uint256"
                }
            ],
            "stateMutability": "view",
            "type": "function"
        },
        {
            "inputs": [],
            "name": "RAY",
            "outputs": [
                {
                    "internalType": "uint256",
                    "name": "",
                    "type": "uint256"
                }
            ],
            "stateMutability": "view",
            "type": "function"
        },
        {
            "inputs": [],
            "name": "WHOLE_TAX_CUT",
            "outputs": [
                {
                    "internalType": "uint256",
                    "name": "",
                    "type": "uint256"
                }
            ],
            "stateMutability": "view",
            "type": "function"
        },
        {
            "inputs": [
                {
                    "internalType": "address",
                    "name": "account",
                    "type": "address"
                }
            ],
            "name": "addAuthorization",
            "outputs": [],
            "stateMutability": "nonpayable",
            "type": "function"
        },
        {
            "inputs": [
                {
                    "internalType": "address",
                    "name": "",
                    "type": "address"
                }
            ],
            "name": "authorizedAccounts",
            "outputs": [
                {
                    "internalType": "uint256",
                    "name": "",
                    "type": "uint256"
                }
            ],
            "stateMutability": "view",
            "type": "function"
        },
        {
            "inputs": [
                {
                    "internalType": "uint256",
                    "name": "",
                    "type": "uint256"
                }
            ],
            "name": "collateralList",
            "outputs": [
                {
                    "internalType": "bytes32",
                    "name": "",
                    "type": "bytes32"
                }
            ],
            "stateMutability": "view",
            "type": "function"
        },
        {
            "inputs": [],
            "name": "collateralListLength",
            "outputs": [
                {
                    "internalType": "uint256",
                    "name": "",
                    "type": "uint256"
                }
            ],
            "stateMutability": "view",
            "type": "function"
        },
        {
            "inputs": [
                {
                    "internalType": "bytes32",
                    "name": "",
                    "type": "bytes32"
                }
            ],
            "name": "collateralTypes",
            "outputs": [
                {
                    "internalType": "uint256",
                    "name": "stabilityFee",
                    "type": "uint256"
                },
                {
                    "internalType": "uint256",
                    "name": "updateTime",
                    "type": "uint256"
                }
            ],
            "stateMutability": "view",
            "type": "function"
        },
        {
            "inputs": [
                {
                    "internalType": "uint256",
                    "name": "start",
                    "type": "uint256"
                },
                {
                    "internalType": "uint256",
                    "name": "end",
                    "type": "uint256"
                }
            ],
            "name": "collectedManyTax",
            "outputs": [
                {
                    "internalType": "bool",
                    "name": "ok",
                    "type": "bool"
                }
            ],
            "stateMutability": "view",
            "type": "function"
        },
        {
            "inputs": [],
            "name": "globalStabilityFee",
            "outputs": [
                {
                    "internalType": "uint256",
                    "name": "",
                    "type": "uint256"
                }
            ],
            "stateMutability": "view",
            "type": "function"
        },
        {
            "inputs": [
                {
                    "internalType": "bytes32",
                    "name": "collateralType",
                    "type": "bytes32"
                }
            ],
            "name": "initializeCollateralType",
            "outputs": [],
            "stateMutability": "nonpayable",
            "type": "function"
        },
        {
            "inputs": [
                {
                    "internalType": "uint256",
                    "name": "_receiver",
                    "type": "uint256"
                }
            ],
            "name": "isSecondaryReceiver",
            "outputs": [
                {
                    "internalType": "bool",
                    "name": "",
                    "type": "bool"
                }
            ],
            "stateMutability": "view",
            "type": "function"
        },
        {
            "inputs": [],
            "name": "latestSecondaryReceiver",
            "outputs": [
                {
                    "internalType": "uint256",
                    "name": "",
                    "type": "uint256"
                }
            ],
            "stateMutability": "view",
            "type": "function"
        },
        {
            "inputs": [],
            "name": "maxSecondaryReceivers",
            "outputs": [
                {
                    "internalType": "uint256",
                    "name": "",
                    "type": "uint256"
                }
            ],
            "stateMutability": "view",
            "type": "function"
        },
        {
            "inputs": [
                {
                    "internalType": "bytes32",
                    "name": "collateralType",
                    "type": "bytes32"
                },
                {
                    "internalType": "uint256",
                    "name": "position",
                    "type": "uint256"
                },
                {
                    "internalType": "uint256",
                    "name": "taxPercentage",
                    "type": "uint256"
                },
                {
                    "internalType": "address",
                    "name": "receiverAccount",
                    "type": "address"
                }
            ],
            "name": "modifyParameters",
            "outputs": [],
            "stateMutability": "nonpayable",
            "type": "function"
        },
        {
            "inputs": [
                {
                    "internalType": "bytes32",
                    "name": "collateralType",
                    "type": "bytes32"
                },
                {
                    "internalType": "uint256",
                    "name": "position",
                    "type": "uint256"
                },
                {
                    "internalType": "uint256",
                    "name": "val",
                    "type": "uint256"
                }
            ],
            "name": "modifyParameters",
            "outputs": [],
            "stateMutability": "nonpayable",
            "type": "function"
        },
        {
            "inputs": [
                {
                    "internalType": "bytes32",
                    "name": "parameter",
                    "type": "bytes32"
                },
                {
                    "internalType": "address",
                    "name": "data",
                    "type": "address"
                }
            ],
            "name": "modifyParameters",
            "outputs": [],
            "stateMutability": "nonpayable",
            "type": "function"
        },
        {
            "inputs": [
                {
                    "internalType": "bytes32",
                    "name": "collateralType",
                    "type": "bytes32"
                },
                {
                    "internalType": "bytes32",
                    "name": "parameter",
                    "type": "bytes32"
                },
                {
                    "internalType": "uint256",
                    "name": "data",
                    "type": "uint256"
                }
            ],
            "name": "modifyParameters",
            "outputs": [],
            "stateMutability": "nonpayable",
            "type": "function"
        },
        {
            "inputs": [
                {
                    "internalType": "bytes32",
                    "name": "parameter",
                    "type": "bytes32"
                },
                {
                    "internalType": "uint256",
                    "name": "data",
                    "type": "uint256"
                }
            ],
            "name": "modifyParameters",
            "outputs": [],
            "stateMutability": "nonpayable",
            "type": "function"
        },
        {
            "inputs": [],
            "name": "primaryTaxReceiver",
            "outputs": [
                {
                    "internalType": "address",
                    "name": "",
                    "type": "address"
                }
            ],
            "stateMutability": "view",
            "type": "function"
        },
        {
            "inputs": [
                {
                    "internalType": "address",
                    "name": "account",
                    "type": "address"
                }
            ],
            "name": "removeAuthorization",
            "outputs": [],
            "stateMutability": "nonpayable",
            "type": "function"
        },
        {
            "inputs": [],
            "name": "safeEngine",
            "outputs": [
                {
                    "internalType": "contract SAFEEngineLike",
                    "name": "",
                    "type": "address"
                }
            ],
            "stateMutability": "view",
            "type": "function"
        },
        {
            "inputs": [
                {
                    "internalType": "uint256",
                    "name": "",
                    "type": "uint256"
                }
            ],
            "name": "secondaryReceiverAccounts",
            "outputs": [
                {
                    "internalType": "address",
                    "name": "",
                    "type": "address"
                }
            ],
            "stateMutability": "view",
            "type": "function"
        },
        {
            "inputs": [
                {
                    "internalType": "bytes32",
                    "name": "",
                    "type": "bytes32"
                }
            ],
            "name": "secondaryReceiverAllotedTax",
            "outputs": [
                {
                    "internalType": "uint256",
                    "name": "",
                    "type": "uint256"
                }
            ],
            "stateMutability": "view",
            "type": "function"
        },
        {
            "inputs": [],
            "name": "secondaryReceiverNonce",
            "outputs": [
                {
                    "internalType": "uint256",
                    "name": "",
                    "type": "uint256"
                }
            ],
            "stateMutability": "view",
            "type": "function"
        },
        {
            "inputs": [
                {
                    "internalType": "address",
                    "name": "",
                    "type": "address"
                }
            ],
            "name": "secondaryReceiverRevenueSources",
            "outputs": [
                {
                    "internalType": "uint256",
                    "name": "",
                    "type": "uint256"
                }
            ],
            "stateMutability": "view",
            "type": "function"
        },
        {
            "inputs": [],
            "name": "secondaryReceiversAmount",
            "outputs": [
                {
                    "internalType": "uint256",
                    "name": "",
                    "type": "uint256"
                }
            ],
            "stateMutability": "view",
            "type": "function"
        },
        {
            "inputs": [
                {
                    "internalType": "bytes32",
                    "name": "",
                    "type": "bytes32"
                },
                {
                    "internalType": "uint256",
                    "name": "",
                    "type": "uint256"
                }
            ],
            "name": "secondaryTaxReceivers",
            "outputs": [
                {
                    "internalType": "uint256",
                    "name": "canTakeBackTax",
                    "type": "uint256"
                },
                {
                    "internalType": "uint256",
                    "name": "taxPercentage",
                    "type": "uint256"
                }
            ],
            "stateMutability": "view",
            "type": "function"
        },
        {
            "inputs": [
                {
                    "internalType": "uint256",
                    "name": "start",
                    "type": "uint256"
                },
                {
                    "internalType": "uint256",
                    "name": "end",
                    "type": "uint256"
                }
            ],
            "name": "taxMany",
            "outputs": [],
            "stateMutability": "nonpayable",
            "type": "function"
        },
        {
            "inputs": [
                {
                    "internalType": "uint256",
                    "name": "start",
                    "type": "uint256"
                },
                {
                    "internalType": "uint256",
                    "name": "end",
                    "type": "uint256"
                }
            ],
            "name": "taxManyOutcome",
            "outputs": [
                {
                    "internalType": "bool",
                    "name": "ok",
                    "type": "bool"
                },
                {
                    "internalType": "int256",
                    "name": "rad",
                    "type": "int256"
                }
            ],
            "stateMutability": "view",
            "type": "function"
        },
        {
            "inputs": [
                {
                    "internalType": "bytes32",
                    "name": "collateralType",
                    "type": "bytes32"
                }
            ],
            "name": "taxSingle",
            "outputs": [
                {
                    "internalType": "uint256",
                    "name": "",
                    "type": "uint256"
                }
            ],
            "stateMutability": "nonpayable",
            "type": "function"
        },
        {
            "inputs": [
                {
                    "internalType": "bytes32",
                    "name": "collateralType",
                    "type": "bytes32"
                }
            ],
            "name": "taxSingleOutcome",
            "outputs": [
                {
                    "internalType": "uint256",
                    "name": "",
                    "type": "uint256"
                },
                {
                    "internalType": "int256",
                    "name": "",
                    "type": "int256"
                }
            ],
            "stateMutability": "view",
            "type": "function"
        },
        {
            "inputs": [
                {
                    "internalType": "address",
                    "name": "",
                    "type": "address"
                }
            ],
            "name": "usedSecondaryReceiver",
            "outputs": [
                {
                    "internalType": "uint256",
                    "name": "",
                    "type": "uint256"
                }
            ],
            "stateMutability": "view",
            "type": "function"
        }
    ],
    "bytecode": {
        "object": "0x608060405234801561001057600080fd5b5060405161295d38038061295d8339818101604052602081101561003357600080fd5b5051336000818152602081815260409182902060019055600e80546001600160a01b0319166001600160a01b038616179055815192835290517f599a298163e1678bb1c676052a8930bf0b8a1261ed6e01b8a2391e55f70001029281900390910190a1506128b7806100a66000396000f3fe608060405234801561001057600080fd5b50600436106102065760003560e01c806394f3f81d1161011a578063d07900bb116100ad578063dd9dbe311161007c578063dd9dbe311461055d578063de8b06211461057a578063e372ee44146105a0578063f0cccf43146105c3578063fe4f5890146105cb57610206565b8063d07900bb146104f2578063d4b9311d1461050f578063d54635f414610538578063d5a594c31461055557610206565b8063bf432049116100e9578063bf43204914610499578063c2ee3a08146104a1578063c78c8295146104a9578063cc780be2146104cc57610206565b806394f3f81d1461045b578063a9f3af0014610481578063abfbc5b014610489578063b75363641461049157610206565b8063542f76a61161019d5780635e4128581161016c5780635e412858146103b15780636614f010146103ce57806367aea313146103fa5780636c50dbba1461040257806392a448a21461041f57610206565b8063542f76a614610347578063552033c41461034f578063555ec74f1461035757806356c057641461038057610206565b80632697dce2116101d95780632697dce2146102be5780633024a912146102fc57806335b2815314610319578063498fb99a1461033f57610206565b806315f5fb481461020b578063203dcb581461024457806324341e011461025e57806324ba588414610298575b600080fd5b6102286004803603602081101561022157600080fd5b50356105ee565b604080516001600160a01b039092168252519081900360200190f35b61024c610609565b60408051918252519081900360200190f35b6102966004803603608081101561027457600080fd5b50803590602081013590604081013590606001356001600160a01b031661060f565b005b61024c600480360360208110156102ae57600080fd5b50356001600160a01b03166106e3565b6102e1600480360360408110156102d457600080fd5b50803590602001356106f5565b60408051921515835260208301919091528051918290030190f35b61024c6004803603602081101561031257600080fd5b5035610929565b6102966004803603602081101561032f57600080fd5b50356001600160a01b0316610947565b61024c6109e7565b6102286109ed565b61024c6109fc565b6102966004803603606081101561036d57600080fd5b5080359060208101359060400135610a0c565b61039d6004803603602081101561039657600080fd5b5035610b34565b604080519115158252519081900360200190f35b610296600480360360208110156103c757600080fd5b5035610b5c565b610296600480360360408110156103e457600080fd5b50803590602001356001600160a01b0316610c77565b610228610dd4565b61024c6004803603602081101561041857600080fd5b5035610de3565b6104426004803603604081101561043557600080fd5b5080359060200135610fe5565b6040805192835260208301919091528051918290030190f35b6102966004803603602081101561047157600080fd5b50356001600160a01b0316611009565b61024c6110a8565b61024c6110b9565b61024c6110bf565b61024c6110c5565b61024c6110d6565b61039d600480360360408110156104bf57600080fd5b50803590602001356110db565b61024c600480360360208110156104e257600080fd5b50356001600160a01b031661119e565b6104426004803603602081101561050857600080fd5b50356111b0565b6102966004803603606081101561052557600080fd5b50803590602081013590604001356111c9565b61024c6004803603602081101561054e57600080fd5b50356112ea565b61024c6112fc565b6104426004803603602081101561057357600080fd5b5035611304565b61024c6004803603602081101561059057600080fd5b50356001600160a01b03166113fa565b610296600480360360408110156105b657600080fd5b508035906020013561140c565b61024c6114a7565b610296600480360360408110156105e157600080fd5b50803590602001356114ad565b6004602052600090815260409020546001600160a01b031681565b600b5481565b3360009081526020819052604090205460011461065d5760405162461bcd60e51b81526004018080602001828103825260238152602001806128096023913960400191505060405180910390fd5b61066e600d8463ffffffff61158716565b156106835761067e8484846115ff565b61068e565b61068e848383611969565b60408051858152602081018590528082018490526001600160a01b038316606082015290517fdd816bbb74e9c8d56d70daaa112136781e45da3cedaf93060401b5fa79cc21059181900360800190a150505050565b60006020819052908152604090205481565b60008061070c83851115600c805490508510611c9b565b61075d576040805162461bcd60e51b815260206004820152601c60248201527f546178436f6c6c6563746f722f696e76616c69642d696e646578657300000000604482015290519081900360640190fd5b600e5460075460408051633eaf7a0360e21b81526001600160a01b0392831660048201529051600093929092169163fabde80c91602480820192602092909190829003018186803b1580156107b157600080fd5b505afa1580156107c5573d6000803e3d6000fd5b505050506040513d60208110156107db57600080fd5b50516000908103915080865b8681116108f85760016000600c83815481106107ff57fe5b90600052602060002001548152602001908152602001600020600101544211156108f057600e54600c80546001600160a01b039092169163d07900bb91908490811061084757fe5b90600052602060002001546040518263ffffffff1660e01b815260040180828152602001915050604080518083038186803b15801561088557600080fd5b505afa158015610899573d6000803e3d6000fd5b505050506040513d60408110156108af57600080fd5b5051600c80549193506108d691839081106108c657fe5b9060005260206000200154611304565b93506108ed9050856108e88486611c9f565b611d32565b94505b6001016107e7565b50600084121561091a57828412610910576001610913565b60005b945061091f565b600194505b5050509250929050565b600c818154811061093657fe5b600091825260209091200154905081565b336000908152602081905260409020546001146109955760405162461bcd60e51b81526004018080602001828103825260238152602001806128096023913960400191505060405180910390fd5b6001600160a01b0381166000818152602081815260409182902060019055815192835290517f599a298163e1678bb1c676052a8930bf0b8a1261ed6e01b8a2391e55f70001029281900390910190a150565b60085481565b6007546001600160a01b031681565b6b033b2e3c9fd0803ce800000081565b33600090815260208190526040902054600114610a5a5760405162461bcd60e51b81526004018080602001828103825260238152602001806128096023913960400191505060405180910390fd5b610a92610a6e600d8463ffffffff61158716565b60008581526006602090815260408083208784529091529020600101541515611c9b565b15610ab85760008381526006602090815260408083208584529091529020819055610aef565b60405162461bcd60e51b81526004018080602001828103825260218152602001806127076021913960400191505060405180910390fd5b604080518481526020810184905280820183905290517fab4951554135af54806ae8b8c0860008dbf001b33208f80e3ef0e8a54d23528b9181900360600190a1505050565b600081610b4357506000610b57565b610b54600d8363ffffffff61158716565b90505b919050565b33600090815260208190526040902054600114610baa5760405162461bcd60e51b81526004018080602001828103825260238152602001806128096023913960400191505060405180910390fd5b6000818152600160205260409020805415610bf65760405162461bcd60e51b81526004018080602001828103825260298152602001806127286029913960400191505060405180910390fd5b6b033b2e3c9fd0803ce8000000815542600180830191909155600c805491820181556000527fdf6966c971051c3d54ec59162606531493a51404a002842f56009d7e5cf4a8c7018290556040805183815290517f715b265758bcd4ecd311bede8dcca05c4b5819e0a2a5c4103abd702862ae2c359181900360200190a15050565b33600090815260208190526040902054600114610cc55760405162461bcd60e51b81526004018080602001828103825260238152602001806128096023913960400191505060405180910390fd5b6001600160a01b038116610d19576040805162461bcd60e51b8152602060048201526016602482015275546178436f6c6c6563746f722f6e756c6c2d6461746160501b604482015290519081900360640190fd5b8171383934b6b0b93caa30bc2932b1b2b4bb32b960711b1415610d5657600780546001600160a01b0319166001600160a01b038316179055610d8d565b60405162461bcd60e51b81526004018080602001828103825260268152602001806126966026913960400191505060405180910390fd5b604080518381526001600160a01b038316602082015281517fd91f38cf03346b5dc15fb60f9076f866295231ad3c3841a1051f8443f25170d1929181900390910190a15050565b600e546001600160a01b031681565b60008181526001602081905260408220015481904211610e7e57600e546040805163d07900bb60e01b81526004810186905281516001600160a01b039093169263d07900bb92602480840193919291829003018186803b158015610e4657600080fd5b505afa158015610e5a573d6000803e3d6000fd5b505050506040513d6040811015610e7057600080fd5b50602001519150610b579050565b6000610e8984611304565b600e546040805163d07900bb60e01b8152600481018990528151939550600094506001600160a01b039092169263d07900bb926024808201939291829003018186803b158015610ed857600080fd5b505afa158015610eec573d6000803e3d6000fd5b505050506040513d6040811015610f0257600080fd5b50519050610f11858284611dc3565b600e546040805163d07900bb60e01b81526004810188905281516001600160a01b039093169263d07900bb92602480840193919291829003018186803b158015610f5a57600080fd5b505afa158015610f6e573d6000803e3d6000fd5b505050506040513d6040811015610f8457600080fd5b5060209081015160008781526001808452604091829020429101558051828152928301859052805191955087927f584c2e3a292b065d3d3a0edd7e25bb572b4c171192c33ab9c3b0f5d4448adf8b929081900390910190a250909392505050565b60066020908152600092835260408084209091529082529020805460019091015482565b336000908152602081905260409020546001146110575760405162461bcd60e51b81526004018080602001828103825260238152602001806128096023913960400191505060405180910390fd5b6001600160a01b03811660008181526020818152604080832092909255815192835290517f8834a87e641e9716be4f34527af5d23e11624f1ddeefede6ad75a9acfc31b9039281900390910190a150565b6c01431e0fae6d7217caa000000081565b60095481565b600c5490565b60006110d1600d611e51565b905090565b600181565b60006110f182841115600c805490508410611c9b565b611142576040805162461bcd60e51b815260206004820152601c60248201527f546178436f6c6c6563746f722f696e76616c69642d696e646578657300000000604482015290519081900360640190fd5b825b8281116111925760016000600c838154811061115c57fe5b906000526020600020015481526020019081526020016000206001015442111561118a575060009050611198565b600101611144565b50600190505b92915050565b60056020526000908152604090205481565b6001602081905260009182526040909120805491015482565b336000908152602081905260409020546001146112175760405162461bcd60e51b81526004018080602001828103825260238152602001806128096023913960400191505060405180910390fd5b60008381526001602081905260409091200154421461127d576040805162461bcd60e51b815260206004820181905260248201527f546178436f6c6c6563746f722f7570646174652d74696d652d6e6f742d6e6f77604482015290519081900360640190fd5b816b73746162696c69747946656560a01b1415610d56576000838152600160205260409020819055604080518481526020810184905280820183905290517fc59b1109b54f213212d2f5af5c1dae5e887f9daa63b595578fae847cb048e8f49181900360600190a1505050565b60026020526000908152604090205481565b600160ff1b81565b600e546040805163d07900bb60e01b8152600481018490528151600093849384936001600160a01b039092169263d07900bb926024808201939291829003018186803b15801561135357600080fd5b505afa158015611367573d6000803e3d6000fd5b505050506040513d604081101561137d57600080fd5b506020908101516008546000878152600190935260408320549193506113e2916113dc916113aa91611e8b565b6113ca42600160008b815260200190815260200160002060010154611ecd565b6b033b2e3c9fd0803ce8000000611f0f565b83611fcd565b9050806113ef828461204b565b935093505050915091565b60036020526000908152604090205481565b600c5461141f9082841115908310611c9b565b611470576040805162461bcd60e51b815260206004820152601c60248201527f546178436f6c6c6563746f722f696e76616c69642d696e646578657300000000604482015290519081900360640190fd5b815b8181116114a257611499600c828154811061148957fe5b9060005260206000200154610de3565b50600101611472565b505050565b600a5481565b336000908152602081905260409020546001146114fb5760405162461bcd60e51b81526004018080602001828103825260238152602001806128096023913960400191505060405180910390fd5b8171676c6f62616c53746162696c69747946656560701b1415611522576008819055611548565b81746d61785365636f6e6461727952656365697665727360581b1415610d5657600a8190555b604080518381526020810183905281517fac7c5c1afaef770ec56ac6268cd3f2fbb1035858ead2601d6553157c33036c3a929181900390910190a15050565b6000818152602083815260408083208380529091528120541580156115c2575060008281526020848152604080832060018452909152902054155b156115f757600080805260208481526040808320600184529091529020548214156115ef57506001611198565b506000611198565b506001611198565b806117ac5760008381526002602090815260408083205460068352818420868552909252909120600101546116349190611ecd565b60008481526002602090815260408083209390935584825260048152828220546001600160a01b031682526005905220546001141561171357600b5482141561169557600061168f600b54600d6120b190919063ffffffff16565b600b5550505b6116a6600d8363ffffffff6120cb16565b50600082815260046020818152604080842080546001600160a01b03908116865260038452828620869055888652600684528286208887528452828620868155600101869055815416855260058352908420849055928590525280546001600160a01b03191690556117a7565b6000838152600660209081526040808320858452909152902060010154156117a7576000828152600460209081526040808320546001600160a01b031683526005909152902054611765906001611ecd565b6000838152600460209081526040808320546001600160a01b031683526005825280832093909355858252600681528282208583529052908120818155600101555b6118e7565b600083815260026020908152604080832054600683528184208685529092528220600101546117e4916117de91611ecd565b83611e8b565b90506c01431e0fae6d7217caa00000008110611847576040805162461bcd60e51b815260206004820152601c60248201527f546178436f6c6c6563746f722f7461782d6375742d746f6f2d62696700000000604482015290519081900360640190fd5b60008481526006602090815260408083208684529091529020600101546118be576000838152600460209081526040808320546001600160a01b031683526005909152902054611898906001611e8b565b6000848152600460209081526040808320546001600160a01b0316835260059091529020555b600084815260026020908152604080832093909355600681528282208583529052206001018190555b600954600b5460008581526002602090815260408083205487845260048352818420546001600160a01b031684526005835292819020548151958652918501939093528383019190915260608301525184917f93dd084738077accc9983c441821583d23638cfa27021cdfc189cf3a583810a9919081900360800190a2505050565b6001600160a01b0381166119c4576040805162461bcd60e51b815260206004820152601960248201527f546178436f6c6c6563746f722f6e756c6c2d6163636f756e7400000000000000604482015290519081900360640190fd5b6007546001600160a01b0382811691161415611a115760405162461bcd60e51b81526004018080602001828103825260318152602001806127516031913960400191505060405180910390fd5b60008211611a5d576040805162461bcd60e51b81526020600482015260146024820152732a30bc21b7b63632b1ba37b917b73ab63616b9b360611b604482015290519081900360640190fd5b6001600160a01b03811660009081526003602052604090205415611ab25760405162461bcd60e51b81526004018080602001828103825260218152602001806126536021913960400191505060405180910390fd5b600a54611ac7611ac06110c5565b6001611e8b565b1115611b045760405162461bcd60e51b81526004018080602001828103825260278152602001806126e06027913960400191505060405180910390fd5b6000838152600260205260409020546c01431e0fae6d7217caa000000090611b2c9084611e8b565b10611b685760405162461bcd60e51b815260040180806020018281038252602481526020018061282c6024913960400191505060405180910390fd5b611b756009546001611e8b565b6009819055600b556001600160a01b0381166000908152600360209081526040808320600190558583526002909152902054611bb19083611e8b565b60008481526002602090815260408083209390935560068152828220600b805484529082528383206001908101879055815484526004835284842080546001600160a01b0319166001600160a01b03881690811790915584526005909252928220559054611c2291600d9190612149565b50600954600b546000858152600260209081526040808320546001600160a01b03871684526005835292819020548151958652918501939093528383019190915260608301525184917f086fff5d978796ef618ca584578a9142f3990d864bc943358a776080e73f754f919081900360800190a2505050565b1690565b8181026000831215611ce25760405162461bcd60e51b81526004018080602001828103825260238152602001806127e66023913960400191505060405180910390fd5b811580611cf7575082828281611cf457fe5b05145b6111985760405162461bcd60e51b81526004018080602001828103825260228152602001806127c46022913960400191505060405180910390fd5b81810160008213611d7c5782811315611d7c5760405162461bcd60e51b81526004018080602001828103825260228152602001806126746022913960400191505060405180910390fd5b6000821315611198578281136111985760405162461bcd60e51b81526004018080602001828103825260218152602001806127a36021913960400191505060405180910390fd5b600b545b8015611e2f57600084815260066020908152604080832084845290915290206001015415611e1557600081815260046020526040902054611e159085906001600160a01b0316838686612160565b611e26600d8263ffffffff6120b116565b9150611dc79050565b600754611e4b9085906001600160a01b03166000198686612160565b50505050565b6000806000611e638460006001612490565b9250505b8115611e8457611e7984836001612490565b925050600101611e67565b9392505050565b818101828110156111985760405162461bcd60e51b81526004018080602001828103825260238152602001806126306023913960400191505060405180910390fd5b808203828111156111985760405162461bcd60e51b81526004018080602001828103825260248152602001806126bc6024913960400191505060405180910390fd5b6000838015611faf57600184168015611f2a57859250611f2e565b8392505b50600283046002850494505b8415611fa9578586028687820414611f5157600080fd5b81810181811015611f6157600080fd5b8590049650506001851615611f9e578583028387820414158715151615611f8757600080fd5b81810181811015611f9757600080fd5b8590049350505b600285049450611f3a565b50611fc5565b838015611fbf5760009250611fc3565b8392505b505b509392505050565b818102811580611fe5575082828281611fe257fe5b04145b612036576040805162461bcd60e51b815260206004820152601a60248201527f546178436f6c6c6563746f722f726d756c2d6f766572666c6f77000000000000604482015290519081900360640190fd5b6b033b2e3c9fd0803ce8000000900492915050565b80820360008312801590612060575060008212155b611198576040805162461bcd60e51b815260206004820181905260248201527f546178436f6c6c6563746f722f6465642d696e76616c69642d6e756d62657273604482015290519081900360640190fd5b6000806120c084846000612490565b915091509250929050565b60008115806120e157506120df8383611587565b155b156120ee57506000611198565b600082815260208481526040808320838052909152808220546001808452919092205461211f9286929091906124d4565b50600081815260209283526040808220828052909352828120819055600181529182209190915590565b60006121588460008585612505565b949350505050565b600e5460408051633eaf7a0360e21b81526001600160a01b0387811660048301529151600160ff1b93929092169163fabde80c91602480820192602092909190829003018186803b1580156121b457600080fd5b505afa1580156121c8573d6000803e3d6000fd5b505050506040513d60208110156121de57600080fd5b50511061221c5760405162461bcd60e51b81526004018080602001828103825260328152602001806128506032913960400191505060405180910390fd5b600e5460408051633eaf7a0360e21b81526001600160a01b0387811660048301529151600093929092169163fabde80c91602480820192602092909190829003018186803b15801561226d57600080fd5b505afa158015612281573d6000803e3d6000fd5b505050506040513d602081101561229757600080fd5b5051600754600091820392506001600160a01b038781169116146122f85760008781526006602090815260408083208884529091529020600101546c01431e0fae6d7217caa0000000906122eb908561256f565b816122f257fe5b05612342565b6c01431e0fae6d7217caa00000006123396123336c01431e0fae6d7217caa0000000600260008c815260200190815260200160002054611ecd565b85611c9f565b8161234057fe5b055b905061236560006123538684611c9f565b1261235e8684611c9f565b8413611c9b565b61236f578061237a565b83828161237857fe5b055b905080156124875760075460008881526006602090815260408083208984529091528120546123cd926001600160a01b038a8116911614916123c89181881215918391908712901515611c9b565b61262b565b1561248757600e5460408051630e9e11d360e01b8152600481018a90526001600160a01b0389811660248301526044820185905291519190921691630e9e11d391606480830192600092919082900301818387803b15801561242e57600080fd5b505af1158015612442573d6000803e3d6000fd5b50506040805184815290516001600160a01b038a1693508a92507f6d8843b6550b78e189b1bbdd8e46d5163232388e76a545e02013acb1879b3a459181900360200190a35b50505050505050565b60008061249d8585611587565b6124ac575060009050806124cc565b505060008281526020848152604080832084151584529091529020546001905b935093915050565b6000828152602085815260408083209315808452938252808320869055948252948552838120911581529352912055565b60006125118584611587565b15801561252357506125238585611587565b1561256457600084815260208681526040808320851515845290915290205461254e868686866124d4565b61255a868583866124d4565b6001915050612158565b506000949350505050565b60006125858360001914600160ff1b8414611c9b565b156125c15760405162461bcd60e51b81526004018080602001828103825260218152602001806127826021913960400191505060405180910390fd5b8115806125da575050808202828282816125d757fe5b05145b611198576040805162461bcd60e51b815260206004820181905260248201527f546178436f6c6c6563746f722f6d756c2d696e742d696e742d696e76616c6964604482015290519081900360640190fd5b179056fe546178436f6c6c6563746f722f6164642d75696e742d75696e742d6f766572666c6f77546178436f6c6c6563746f722f6163636f756e742d616c72656164792d75736564546178436f6c6c6563746f722f6164642d696e742d696e742d756e646572666c6f77546178436f6c6c6563746f722f6d6f646966792d756e7265636f676e697a65642d706172616d546178436f6c6c6563746f722f7375622d75696e742d75696e742d756e646572666c6f77546178436f6c6c6563746f722f657863656564732d6d61782d72656365697665722d6c696d6974546178436f6c6c6563746f722f756e6b6e6f776e2d7461782d7265636569766572546178436f6c6c6563746f722f636f6c6c61746572616c2d747970652d616c72656164792d696e6974546178436f6c6c6563746f722f7072696d6172792d72656365697665722d63616e6e6f742d62652d7365636f6e64617279546178436f6c6c6563746f722f6d756c2d696e742d696e742d6f766572666c6f77546178436f6c6c6563746f722f6164642d696e742d696e742d6f766572666c6f77546178436f6c6c6563746f722f6d756c2d75696e742d696e742d6f766572666c6f77546178436f6c6c6563746f722f6d756c2d75696e742d696e742d696e76616c69642d78546178436f6c6c6563746f722f6163636f756e742d6e6f742d617574686f72697a6564546178436f6c6c6563746f722f7461782d6375742d657863656564732d68756e64726564546178436f6c6c6563746f722f636f696e2d62616c616e63652d646f65732d6e6f742d6669742d696e746f2d696e74323536a264697066735822122062ee11dc987a0025500c7e6e54ea4453477be4b8ef2fd133c12b3affd8a4aa6b64736f6c63430006070033",
        "linkReferences": {}
    },
    "methodIdentifiers": {
        "INT256_MIN()": "d5a594c3",
        "ONE()": "c2ee3a08",
        "RAY()": "552033c4",
        "WHOLE_TAX_CUT()": "a9f3af00",
        "addAuthorization(address)": "35b28153",
        "authorizedAccounts(address)": "24ba5884",
        "collateralList(uint256)": "3024a912",
        "collateralListLength()": "b7536364",
        "collateralTypes(bytes32)": "d07900bb",
        "collectedManyTax(uint256,uint256)": "c78c8295",
        "globalStabilityFee()": "498fb99a",
        "initializeCollateralType(bytes32)": "5e412858",
        "isSecondaryReceiver(uint256)": "56c05764",
        "latestSecondaryReceiver()": "203dcb58",
        "maxSecondaryReceivers()": "f0cccf43",
        "modifyParameters(bytes32,address)": "6614f010",
        "modifyParameters(bytes32,bytes32,uint256)": "d4b9311d",
        "modifyParameters(bytes32,uint256)": "fe4f5890",
        "modifyParameters(bytes32,uint256,uint256)": "555ec74f",
        "modifyParameters(bytes32,uint256,uint256,address)": "24341e01",
        "primaryTaxReceiver()": "542f76a6",
        "removeAuthorization(address)": "94f3f81d",
        "safeEngine()": "67aea313",
        "secondaryReceiverAccounts(uint256)": "15f5fb48",
        "secondaryReceiverAllotedTax(bytes32)": "d54635f4",
        "secondaryReceiverNonce()": "abfbc5b0",
        "secondaryReceiverRevenueSources(address)": "cc780be2",
        "secondaryReceiversAmount()": "bf432049",
        "secondaryTaxReceivers(bytes32,uint256)": "92a448a2",
        "taxMany(uint256,uint256)": "e372ee44",
        "taxManyOutcome(uint256,uint256)": "2697dce2",
        "taxSingle(bytes32)": "6c50dbba",
        "taxSingleOutcome(bytes32)": "dd9dbe31",
        "usedSecondaryReceiver(address)": "de8b0621"
    },
    "id": 51
}