{
    "abi": [
        {
            "inputs": [
                {
                    "internalType": "address",
                    "name": "token",
                    "type": "address"
                }
            ],
            "name": "burn",
            "outputs": [],
            "stateMutability": "nonpayable",
            "type": "function"
        }
    ],
    "bytecode": {
        "object": "0x608060405234801561001057600080fd5b50610161806100206000396000f3fe608060405234801561001057600080fd5b506004361061002b5760003560e01c806389afcb4414610030575b600080fd5b6100566004803603602081101561004657600080fd5b50356001600160a01b0316610058565b005b604080516370a0823160e01b815230600482015290516001600160a01b038316916342966c689183916370a08231916024808301926020929190829003018186803b1580156100a657600080fd5b505afa1580156100ba573d6000803e3d6000fd5b505050506040513d60208110156100d057600080fd5b5051604080516001600160e01b031960e085901b168152600481019290925251602480830192600092919082900301818387803b15801561011057600080fd5b505af1158015610124573d6000803e3d6000fd5b505050505056fea264697066735822122074cc7b5f8f23f7b7efdbd105af80d7c13755f18817393ffa90ecd36575eef24b64736f6c63430006070033",
        "linkReferences": {}
    },
    "methodIdentifiers": {
        "burn(address)": "89afcb44"
    },
    "id": 27
}